{
	"contracts/projects/3_counter.sol": {
		"counter": {
			"abi": [
				{
					"inputs": [],
					"name": "decrement",
					"outputs": [],
					"stateMutability": "nonpayable",
					"type": "function"
				},
				{
					"inputs": [],
					"name": "getter",
					"outputs": [
						{
							"internalType": "uint256",
							"name": "",
							"type": "uint256"
						}
					],
					"stateMutability": "view",
					"type": "function"
				},
				{
					"inputs": [],
					"name": "increment",
					"outputs": [],
					"stateMutability": "nonpayable",
					"type": "function"
				}
			],
			"devdoc": {
				"kind": "dev",
				"methods": {},
				"version": 1
			},
			"evm": {
				"assembly": "    /* \"contracts/projects/3_counter.sol\":99:488  contract counter {... */\n  mstore(0x40, 0x80)\n  callvalue\n  dup1\n  iszero\n  tag_1\n  jumpi\n  0x00\n  dup1\n  revert\ntag_1:\n  pop\n  dataSize(sub_0)\n  dup1\n  dataOffset(sub_0)\n  0x00\n  codecopy\n  0x00\n  return\nstop\n\nsub_0: assembly {\n        /* \"contracts/projects/3_counter.sol\":99:488  contract counter {... */\n      mstore(0x40, 0x80)\n      callvalue\n      dup1\n      iszero\n      tag_1\n      jumpi\n      0x00\n      dup1\n      revert\n    tag_1:\n      pop\n      jumpi(tag_2, lt(calldatasize, 0x04))\n      shr(0xe0, calldataload(0x00))\n      dup1\n      0x2baeceb7\n      eq\n      tag_3\n      jumpi\n      dup1\n      0x993a04b7\n      eq\n      tag_4\n      jumpi\n      dup1\n      0xd09de08a\n      eq\n      tag_5\n      jumpi\n    tag_2:\n      0x00\n      dup1\n      revert\n        /* \"contracts/projects/3_counter.sol\":336:401  function decrement() public checkCount {... */\n    tag_3:\n      tag_6\n      tag_7\n      jump\t// in\n    tag_6:\n      stop\n        /* \"contracts/projects/3_counter.sol\":409:485  function getter() public view returns (uint) {... */\n    tag_4:\n      tag_8\n      tag_9\n      jump\t// in\n    tag_8:\n      mload(0x40)\n      tag_10\n      swap2\n      swap1\n      tag_11\n      jump\t// in\n    tag_10:\n      mload(0x40)\n      dup1\n      swap2\n      sub\n      swap1\n      return\n        /* \"contracts/projects/3_counter.sol\":263:328  function increment() public checkCount {... */\n    tag_5:\n      tag_12\n      tag_13\n      jump\t// in\n    tag_12:\n      stop\n        /* \"contracts/projects/3_counter.sol\":336:401  function decrement() public checkCount {... */\n    tag_7:\n        /* \"contracts/projects/3_counter.sol\":192:193  0 */\n      0x00\n        /* \"contracts/projects/3_counter.sol\":183:188  count */\n      dup1\n      sload\n        /* \"contracts/projects/3_counter.sol\":183:193  count >= 0 */\n      lt\n      iszero\n        /* \"contracts/projects/3_counter.sol\":183:208  count >= 0 && count <= 10 */\n      dup1\n      iszero\n      tag_15\n      jumpi\n      pop\n        /* \"contracts/projects/3_counter.sol\":206:208  10 */\n      0x0a\n        /* \"contracts/projects/3_counter.sol\":197:202  count */\n      sload(0x00)\n        /* \"contracts/projects/3_counter.sol\":197:208  count <= 10 */\n      gt\n      iszero\n        /* \"contracts/projects/3_counter.sol\":183:208  count >= 0 && count <= 10 */\n    tag_15:\n        /* \"contracts/projects/3_counter.sol\":175:235  require(count >= 0 && count <= 10, \"The count was exceeded\") */\n      tag_16\n      jumpi\n      mload(0x40)\n      0x08c379a000000000000000000000000000000000000000000000000000000000\n      dup2\n      mstore\n      0x04\n      add\n      tag_17\n      swap1\n      tag_18\n      jump\t// in\n    tag_17:\n      mload(0x40)\n      dup1\n      swap2\n      sub\n      swap1\n      revert\n    tag_16:\n        /* \"contracts/projects/3_counter.sol\":386:391  count */\n      0x00\n      dup1\n        /* \"contracts/projects/3_counter.sol\":386:393  count-- */\n      dup2\n      sload\n      dup1\n      swap3\n      swap2\n      swap1\n      tag_20\n      swap1\n      tag_21\n      jump\t// in\n    tag_20:\n      swap2\n      swap1\n      pop\n      sstore\n      pop\n        /* \"contracts/projects/3_counter.sol\":336:401  function decrement() public checkCount {... */\n      jump\t// out\n        /* \"contracts/projects/3_counter.sol\":409:485  function getter() public view returns (uint) {... */\n    tag_9:\n        /* \"contracts/projects/3_counter.sol\":448:452  uint */\n      0x00\n        /* \"contracts/projects/3_counter.sol\":472:477  count */\n      dup1\n      sload\n        /* \"contracts/projects/3_counter.sol\":465:477  return count */\n      swap1\n      pop\n        /* \"contracts/projects/3_counter.sol\":409:485  function getter() public view returns (uint) {... */\n      swap1\n      jump\t// out\n        /* \"contracts/projects/3_counter.sol\":263:328  function increment() public checkCount {... */\n    tag_13:\n        /* \"contracts/projects/3_counter.sol\":192:193  0 */\n      0x00\n        /* \"contracts/projects/3_counter.sol\":183:188  count */\n      dup1\n      sload\n        /* \"contracts/projects/3_counter.sol\":183:193  count >= 0 */\n      lt\n      iszero\n        /* \"contracts/projects/3_counter.sol\":183:208  count >= 0 && count <= 10 */\n      dup1\n      iszero\n      tag_24\n      jumpi\n      pop\n        /* \"contracts/projects/3_counter.sol\":206:208  10 */\n      0x0a\n        /* \"contracts/projects/3_counter.sol\":197:202  count */\n      sload(0x00)\n        /* \"contracts/projects/3_counter.sol\":197:208  count <= 10 */\n      gt\n      iszero\n        /* \"contracts/projects/3_counter.sol\":183:208  count >= 0 && count <= 10 */\n    tag_24:\n        /* \"contracts/projects/3_counter.sol\":175:235  require(count >= 0 && count <= 10, \"The count was exceeded\") */\n      tag_25\n      jumpi\n      mload(0x40)\n      0x08c379a000000000000000000000000000000000000000000000000000000000\n      dup2\n      mstore\n      0x04\n      add\n      tag_26\n      swap1\n      tag_18\n      jump\t// in\n    tag_26:\n      mload(0x40)\n      dup1\n      swap2\n      sub\n      swap1\n      revert\n    tag_25:\n        /* \"contracts/projects/3_counter.sol\":313:318  count */\n      0x00\n      dup1\n        /* \"contracts/projects/3_counter.sol\":313:320  count++ */\n      dup2\n      sload\n      dup1\n      swap3\n      swap2\n      swap1\n      tag_28\n      swap1\n      tag_29\n      jump\t// in\n    tag_28:\n      swap2\n      swap1\n      pop\n      sstore\n      pop\n        /* \"contracts/projects/3_counter.sol\":263:328  function increment() public checkCount {... */\n      jump\t// out\n        /* \"#utility.yul\":7:84   */\n    tag_30:\n        /* \"#utility.yul\":44:51   */\n      0x00\n        /* \"#utility.yul\":73:78   */\n      dup2\n        /* \"#utility.yul\":62:78   */\n      swap1\n      pop\n        /* \"#utility.yul\":7:84   */\n      swap2\n      swap1\n      pop\n      jump\t// out\n        /* \"#utility.yul\":90:208   */\n    tag_31:\n        /* \"#utility.yul\":177:201   */\n      tag_39\n        /* \"#utility.yul\":195:200   */\n      dup2\n        /* \"#utility.yul\":177:201   */\n      tag_30\n      jump\t// in\n    tag_39:\n        /* \"#utility.yul\":172:175   */\n      dup3\n        /* \"#utility.yul\":165:202   */\n      mstore\n        /* \"#utility.yul\":90:208   */\n      pop\n      pop\n      jump\t// out\n        /* \"#utility.yul\":214:436   */\n    tag_11:\n        /* \"#utility.yul\":307:311   */\n      0x00\n        /* \"#utility.yul\":345:347   */\n      0x20\n        /* \"#utility.yul\":334:343   */\n      dup3\n        /* \"#utility.yul\":330:348   */\n      add\n        /* \"#utility.yul\":322:348   */\n      swap1\n      pop\n        /* \"#utility.yul\":358:429   */\n      tag_41\n        /* \"#utility.yul\":426:427   */\n      0x00\n        /* \"#utility.yul\":415:424   */\n      dup4\n        /* \"#utility.yul\":411:428   */\n      add\n        /* \"#utility.yul\":402:408   */\n      dup5\n        /* \"#utility.yul\":358:429   */\n      tag_31\n      jump\t// in\n    tag_41:\n        /* \"#utility.yul\":214:436   */\n      swap3\n      swap2\n      pop\n      pop\n      jump\t// out\n        /* \"#utility.yul\":442:611   */\n    tag_32:\n        /* \"#utility.yul\":526:537   */\n      0x00\n        /* \"#utility.yul\":560:566   */\n      dup3\n        /* \"#utility.yul\":555:558   */\n      dup3\n        /* \"#utility.yul\":548:567   */\n      mstore\n        /* \"#utility.yul\":600:604   */\n      0x20\n        /* \"#utility.yul\":595:598   */\n      dup3\n        /* \"#utility.yul\":591:605   */\n      add\n        /* \"#utility.yul\":576:605   */\n      swap1\n      pop\n        /* \"#utility.yul\":442:611   */\n      swap3\n      swap2\n      pop\n      pop\n      jump\t// out\n        /* \"#utility.yul\":617:789   */\n    tag_33:\n        /* \"#utility.yul\":757:781   */\n      0x54686520636f756e742077617320657863656564656400000000000000000000\n        /* \"#utility.yul\":753:754   */\n      0x00\n        /* \"#utility.yul\":745:751   */\n      dup3\n        /* \"#utility.yul\":741:755   */\n      add\n        /* \"#utility.yul\":734:782   */\n      mstore\n        /* \"#utility.yul\":617:789   */\n      pop\n      jump\t// out\n        /* \"#utility.yul\":795:1161   */\n    tag_34:\n        /* \"#utility.yul\":937:940   */\n      0x00\n        /* \"#utility.yul\":958:1025   */\n      tag_45\n        /* \"#utility.yul\":1022:1024   */\n      0x16\n        /* \"#utility.yul\":1017:1020   */\n      dup4\n        /* \"#utility.yul\":958:1025   */\n      tag_32\n      jump\t// in\n    tag_45:\n        /* \"#utility.yul\":951:1025   */\n      swap2\n      pop\n        /* \"#utility.yul\":1034:1127   */\n      tag_46\n        /* \"#utility.yul\":1123:1126   */\n      dup3\n        /* \"#utility.yul\":1034:1127   */\n      tag_33\n      jump\t// in\n    tag_46:\n        /* \"#utility.yul\":1152:1154   */\n      0x20\n        /* \"#utility.yul\":1147:1150   */\n      dup3\n        /* \"#utility.yul\":1143:1155   */\n      add\n        /* \"#utility.yul\":1136:1155   */\n      swap1\n      pop\n        /* \"#utility.yul\":795:1161   */\n      swap2\n      swap1\n      pop\n      jump\t// out\n        /* \"#utility.yul\":1167:1586   */\n    tag_18:\n        /* \"#utility.yul\":1333:1337   */\n      0x00\n        /* \"#utility.yul\":1371:1373   */\n      0x20\n        /* \"#utility.yul\":1360:1369   */\n      dup3\n        /* \"#utility.yul\":1356:1374   */\n      add\n        /* \"#utility.yul\":1348:1374   */\n      swap1\n      pop\n        /* \"#utility.yul\":1420:1429   */\n      dup2\n        /* \"#utility.yul\":1414:1418   */\n      dup2\n        /* \"#utility.yul\":1410:1430   */\n      sub\n        /* \"#utility.yul\":1406:1407   */\n      0x00\n        /* \"#utility.yul\":1395:1404   */\n      dup4\n        /* \"#utility.yul\":1391:1408   */\n      add\n        /* \"#utility.yul\":1384:1431   */\n      mstore\n        /* \"#utility.yul\":1448:1579   */\n      tag_48\n        /* \"#utility.yul\":1574:1578   */\n      dup2\n        /* \"#utility.yul\":1448:1579   */\n      tag_34\n      jump\t// in\n    tag_48:\n        /* \"#utility.yul\":1440:1579   */\n      swap1\n      pop\n        /* \"#utility.yul\":1167:1586   */\n      swap2\n      swap1\n      pop\n      jump\t// out\n        /* \"#utility.yul\":1592:1772   */\n    tag_35:\n        /* \"#utility.yul\":1640:1717   */\n      0x4e487b7100000000000000000000000000000000000000000000000000000000\n        /* \"#utility.yul\":1637:1638   */\n      0x00\n        /* \"#utility.yul\":1630:1718   */\n      mstore\n        /* \"#utility.yul\":1737:1741   */\n      0x11\n        /* \"#utility.yul\":1734:1735   */\n      0x04\n        /* \"#utility.yul\":1727:1742   */\n      mstore\n        /* \"#utility.yul\":1761:1765   */\n      0x24\n        /* \"#utility.yul\":1758:1759   */\n      0x00\n        /* \"#utility.yul\":1751:1766   */\n      revert\n        /* \"#utility.yul\":1778:1949   */\n    tag_21:\n        /* \"#utility.yul\":1817:1820   */\n      0x00\n        /* \"#utility.yul\":1840:1864   */\n      tag_51\n        /* \"#utility.yul\":1858:1863   */\n      dup3\n        /* \"#utility.yul\":1840:1864   */\n      tag_30\n      jump\t// in\n    tag_51:\n        /* \"#utility.yul\":1831:1864   */\n      swap2\n      pop\n        /* \"#utility.yul\":1886:1890   */\n      0x00\n        /* \"#utility.yul\":1879:1884   */\n      dup3\n        /* \"#utility.yul\":1876:1891   */\n      sub\n        /* \"#utility.yul\":1873:1914   */\n      tag_52\n      jumpi\n        /* \"#utility.yul\":1894:1912   */\n      tag_53\n      tag_35\n      jump\t// in\n    tag_53:\n        /* \"#utility.yul\":1873:1914   */\n    tag_52:\n        /* \"#utility.yul\":1941:1942   */\n      0x01\n        /* \"#utility.yul\":1934:1939   */\n      dup3\n        /* \"#utility.yul\":1930:1943   */\n      sub\n        /* \"#utility.yul\":1923:1943   */\n      swap1\n      pop\n        /* \"#utility.yul\":1778:1949   */\n      swap2\n      swap1\n      pop\n      jump\t// out\n        /* \"#utility.yul\":1955:2188   */\n    tag_29:\n        /* \"#utility.yul\":1994:1997   */\n      0x00\n        /* \"#utility.yul\":2017:2041   */\n      tag_55\n        /* \"#utility.yul\":2035:2040   */\n      dup3\n        /* \"#utility.yul\":2017:2041   */\n      tag_30\n      jump\t// in\n    tag_55:\n        /* \"#utility.yul\":2008:2041   */\n      swap2\n      pop\n        /* \"#utility.yul\":2063:2129   */\n      0xffffffffffffffffffffffffffffffffffffffffffffffffffffffffffffffff\n        /* \"#utility.yul\":2056:2061   */\n      dup3\n        /* \"#utility.yul\":2053:2130   */\n      sub\n        /* \"#utility.yul\":2050:2153   */\n      tag_56\n      jumpi\n        /* \"#utility.yul\":2133:2151   */\n      tag_57\n      tag_35\n      jump\t// in\n    tag_57:\n        /* \"#utility.yul\":2050:2153   */\n    tag_56:\n        /* \"#utility.yul\":2180:2181   */\n      0x01\n        /* \"#utility.yul\":2173:2178   */\n      dup3\n        /* \"#utility.yul\":2169:2182   */\n      add\n        /* \"#utility.yul\":2162:2182   */\n      swap1\n      pop\n        /* \"#utility.yul\":1955:2188   */\n      swap2\n      swap1\n      pop\n      jump\t// out\n\n    auxdata: 0xa2646970667358221220fa11a3c1e01a260e1d9f4fed7677a3ccb801ffa9d374e310a46a3c650d7a39c264736f6c63430008120033\n}\n",
				"bytecode": {
					"linkReferences": {},
					"object": "608060405234801561001057600080fd5b506102e2806100206000396000f3fe608060405234801561001057600080fd5b50600436106100415760003560e01c80632baeceb714610046578063993a04b714610050578063d09de08a1461006e575b600080fd5b61004e610078565b005b6100586100e5565b6040516100659190610174565b60405180910390f35b6100766100ee565b005b600080541015801561008d5750600a60005411155b6100cc576040517f08c379a00000000000000000000000000000000000000000000000000000000081526004016100c3906101ec565b60405180910390fd5b6000808154809291906100de9061023b565b9190505550565b60008054905090565b60008054101580156101035750600a60005411155b610142576040517f08c379a0000000000000000000000000000000000000000000000000000000008152600401610139906101ec565b60405180910390fd5b60008081548092919061015490610264565b9190505550565b6000819050919050565b61016e8161015b565b82525050565b60006020820190506101896000830184610165565b92915050565b600082825260208201905092915050565b7f54686520636f756e742077617320657863656564656400000000000000000000600082015250565b60006101d660168361018f565b91506101e1826101a0565b602082019050919050565b60006020820190508181036000830152610205816101c9565b9050919050565b7f4e487b7100000000000000000000000000000000000000000000000000000000600052601160045260246000fd5b60006102468261015b565b9150600082036102595761025861020c565b5b600182039050919050565b600061026f8261015b565b91507fffffffffffffffffffffffffffffffffffffffffffffffffffffffffffffffff82036102a1576102a061020c565b5b60018201905091905056fea2646970667358221220fa11a3c1e01a260e1d9f4fed7677a3ccb801ffa9d374e310a46a3c650d7a39c264736f6c63430008120033",
					"opcodes": "PUSH1 0x80 PUSH1 0x40 MSTORE CALLVALUE DUP1 ISZERO PUSH2 0x10 JUMPI PUSH1 0x0 DUP1 REVERT JUMPDEST POP PUSH2 0x2E2 DUP1 PUSH2 0x20 PUSH1 0x0 CODECOPY PUSH1 0x0 RETURN INVALID PUSH1 0x80 PUSH1 0x40 MSTORE CALLVALUE DUP1 ISZERO PUSH2 0x10 JUMPI PUSH1 0x0 DUP1 REVERT JUMPDEST POP PUSH1 0x4 CALLDATASIZE LT PUSH2 0x41 JUMPI PUSH1 0x0 CALLDATALOAD PUSH1 0xE0 SHR DUP1 PUSH4 0x2BAECEB7 EQ PUSH2 0x46 JUMPI DUP1 PUSH4 0x993A04B7 EQ PUSH2 0x50 JUMPI DUP1 PUSH4 0xD09DE08A EQ PUSH2 0x6E JUMPI JUMPDEST PUSH1 0x0 DUP1 REVERT JUMPDEST PUSH2 0x4E PUSH2 0x78 JUMP JUMPDEST STOP JUMPDEST PUSH2 0x58 PUSH2 0xE5 JUMP JUMPDEST PUSH1 0x40 MLOAD PUSH2 0x65 SWAP2 SWAP1 PUSH2 0x174 JUMP JUMPDEST PUSH1 0x40 MLOAD DUP1 SWAP2 SUB SWAP1 RETURN JUMPDEST PUSH2 0x76 PUSH2 0xEE JUMP JUMPDEST STOP JUMPDEST PUSH1 0x0 DUP1 SLOAD LT ISZERO DUP1 ISZERO PUSH2 0x8D JUMPI POP PUSH1 0xA PUSH1 0x0 SLOAD GT ISZERO JUMPDEST PUSH2 0xCC JUMPI PUSH1 0x40 MLOAD PUSH32 0x8C379A000000000000000000000000000000000000000000000000000000000 DUP2 MSTORE PUSH1 0x4 ADD PUSH2 0xC3 SWAP1 PUSH2 0x1EC JUMP JUMPDEST PUSH1 0x40 MLOAD DUP1 SWAP2 SUB SWAP1 REVERT JUMPDEST PUSH1 0x0 DUP1 DUP2 SLOAD DUP1 SWAP3 SWAP2 SWAP1 PUSH2 0xDE SWAP1 PUSH2 0x23B JUMP JUMPDEST SWAP2 SWAP1 POP SSTORE POP JUMP JUMPDEST PUSH1 0x0 DUP1 SLOAD SWAP1 POP SWAP1 JUMP JUMPDEST PUSH1 0x0 DUP1 SLOAD LT ISZERO DUP1 ISZERO PUSH2 0x103 JUMPI POP PUSH1 0xA PUSH1 0x0 SLOAD GT ISZERO JUMPDEST PUSH2 0x142 JUMPI PUSH1 0x40 MLOAD PUSH32 0x8C379A000000000000000000000000000000000000000000000000000000000 DUP2 MSTORE PUSH1 0x4 ADD PUSH2 0x139 SWAP1 PUSH2 0x1EC JUMP JUMPDEST PUSH1 0x40 MLOAD DUP1 SWAP2 SUB SWAP1 REVERT JUMPDEST PUSH1 0x0 DUP1 DUP2 SLOAD DUP1 SWAP3 SWAP2 SWAP1 PUSH2 0x154 SWAP1 PUSH2 0x264 JUMP JUMPDEST SWAP2 SWAP1 POP SSTORE POP JUMP JUMPDEST PUSH1 0x0 DUP2 SWAP1 POP SWAP2 SWAP1 POP JUMP JUMPDEST PUSH2 0x16E DUP2 PUSH2 0x15B JUMP JUMPDEST DUP3 MSTORE POP POP JUMP JUMPDEST PUSH1 0x0 PUSH1 0x20 DUP3 ADD SWAP1 POP PUSH2 0x189 PUSH1 0x0 DUP4 ADD DUP5 PUSH2 0x165 JUMP JUMPDEST SWAP3 SWAP2 POP POP JUMP JUMPDEST PUSH1 0x0 DUP3 DUP3 MSTORE PUSH1 0x20 DUP3 ADD SWAP1 POP SWAP3 SWAP2 POP POP JUMP JUMPDEST PUSH32 0x54686520636F756E742077617320657863656564656400000000000000000000 PUSH1 0x0 DUP3 ADD MSTORE POP JUMP JUMPDEST PUSH1 0x0 PUSH2 0x1D6 PUSH1 0x16 DUP4 PUSH2 0x18F JUMP JUMPDEST SWAP2 POP PUSH2 0x1E1 DUP3 PUSH2 0x1A0 JUMP JUMPDEST PUSH1 0x20 DUP3 ADD SWAP1 POP SWAP2 SWAP1 POP JUMP JUMPDEST PUSH1 0x0 PUSH1 0x20 DUP3 ADD SWAP1 POP DUP2 DUP2 SUB PUSH1 0x0 DUP4 ADD MSTORE PUSH2 0x205 DUP2 PUSH2 0x1C9 JUMP JUMPDEST SWAP1 POP SWAP2 SWAP1 POP JUMP JUMPDEST PUSH32 0x4E487B7100000000000000000000000000000000000000000000000000000000 PUSH1 0x0 MSTORE PUSH1 0x11 PUSH1 0x4 MSTORE PUSH1 0x24 PUSH1 0x0 REVERT JUMPDEST PUSH1 0x0 PUSH2 0x246 DUP3 PUSH2 0x15B JUMP JUMPDEST SWAP2 POP PUSH1 0x0 DUP3 SUB PUSH2 0x259 JUMPI PUSH2 0x258 PUSH2 0x20C JUMP JUMPDEST JUMPDEST PUSH1 0x1 DUP3 SUB SWAP1 POP SWAP2 SWAP1 POP JUMP JUMPDEST PUSH1 0x0 PUSH2 0x26F DUP3 PUSH2 0x15B JUMP JUMPDEST SWAP2 POP PUSH32 0xFFFFFFFFFFFFFFFFFFFFFFFFFFFFFFFFFFFFFFFFFFFFFFFFFFFFFFFFFFFFFFFF DUP3 SUB PUSH2 0x2A1 JUMPI PUSH2 0x2A0 PUSH2 0x20C JUMP JUMPDEST JUMPDEST PUSH1 0x1 DUP3 ADD SWAP1 POP SWAP2 SWAP1 POP JUMP INVALID LOG2 PUSH5 0x6970667358 0x22 SLT KECCAK256 STATICCALL GT LOG3 0xC1 0xE0 BYTE 0x26 0xE SAR SWAP16 0x4F 0xED PUSH23 0x77A3CCB801FFA9D374E310A46A3C650D7A39C264736F6C PUSH4 0x43000812 STOP CALLER "
				},
				"gasEstimates": {
					"creation": {
						"codeDepositCost": "147600",
						"executionCost": "196",
						"totalCost": "147796"
					},
					"external": {
						"decrement()": "28739",
						"getter()": "2437",
						"increment()": "28783"
					}
				},
				"methodIdentifiers": {
					"decrement()": "2baeceb7",
					"getter()": "993a04b7",
					"increment()": "d09de08a"
				}
			},
			"storageLayout": {
				"storage": [
					{
						"astId": 3,
						"contract": "contracts/projects/3_counter.sol:counter",
						"label": "count",
						"offset": 0,
						"slot": "0",
						"type": "t_uint256"
					}
				],
				"types": {
					"t_uint256": {
						"encoding": "inplace",
						"label": "uint256",
						"numberOfBytes": "32"
					}
				}
			},
			"userdoc": {
				"kind": "user",
				"methods": {},
				"version": 1
			}
		}
	}
}