{
	"contracts/projects/6_crowd_funding.sol": {
		"crowdFunding": {
			"abi": [
				{
					"inputs": [],
					"stateMutability": "nonpayable",
					"type": "constructor"
				},
				{
					"inputs": [],
					"name": "giveFund",
					"outputs": [],
					"stateMutability": "payable",
					"type": "function"
				},
				{
					"inputs": [
						{
							"internalType": "address payable",
							"name": "_orphanageAddress",
							"type": "address"
						},
						{
							"internalType": "uint256",
							"name": "_minEth",
							"type": "uint256"
						}
					],
					"name": "transferToOrphanage",
					"outputs": [],
					"stateMutability": "payable",
					"type": "function"
				}
			],
			"devdoc": {
				"kind": "dev",
				"methods": {},
				"version": 1
			},
			"evm": {
				"assembly": "    /* \"contracts/projects/6_crowd_funding.sol\":60:740  contract crowdFunding {... */\n  mstore(0x40, 0x80)\n    /* \"contracts/projects/6_crowd_funding.sol\":113:163  constructor () {... */\n  callvalue\n  dup1\n  iszero\n  tag_1\n  jumpi\n  0x00\n  dup1\n  revert\ntag_1:\n  pop\n    /* \"contracts/projects/6_crowd_funding.sol\":145:155  msg.sender */\n  caller\n    /* \"contracts/projects/6_crowd_funding.sol\":139:142  NGO */\n  0x00\n  dup1\n    /* \"contracts/projects/6_crowd_funding.sol\":139:155  NGO = msg.sender */\n  0x0100\n  exp\n  dup2\n  sload\n  dup2\n  0xffffffffffffffffffffffffffffffffffffffff\n  mul\n  not\n  and\n  swap1\n  dup4\n  0xffffffffffffffffffffffffffffffffffffffff\n  and\n  mul\n  or\n  swap1\n  sstore\n  pop\n    /* \"contracts/projects/6_crowd_funding.sol\":60:740  contract crowdFunding {... */\n  dataSize(sub_0)\n  dup1\n  dataOffset(sub_0)\n  0x00\n  codecopy\n  0x00\n  return\nstop\n\nsub_0: assembly {\n        /* \"contracts/projects/6_crowd_funding.sol\":60:740  contract crowdFunding {... */\n      mstore(0x40, 0x80)\n      jumpi(tag_1, lt(calldatasize, 0x04))\n      shr(0xe0, calldataload(0x00))\n      dup1\n      0xc5acd532\n      eq\n      tag_2\n      jumpi\n      dup1\n      0xe03f9678\n      eq\n      tag_3\n      jumpi\n    tag_1:\n      0x00\n      dup1\n      revert\n        /* \"contracts/projects/6_crowd_funding.sol\":411:737  function transferToOrphanage(address payable _orphanageAddress, uint _minEth) payable public {... */\n    tag_2:\n      tag_4\n      0x04\n      dup1\n      calldatasize\n      sub\n      dup2\n      add\n      swap1\n      tag_5\n      swap2\n      swap1\n      tag_6\n      jump\t// in\n    tag_5:\n      tag_7\n      jump\t// in\n    tag_4:\n      stop\n        /* \"contracts/projects/6_crowd_funding.sol\":171:297  function giveFund () payable public {... */\n    tag_3:\n      tag_8\n      tag_9\n      jump\t// in\n    tag_8:\n      stop\n        /* \"contracts/projects/6_crowd_funding.sol\":411:737  function transferToOrphanage(address payable _orphanageAddress, uint _minEth) payable public {... */\n    tag_7:\n        /* \"contracts/projects/6_crowd_funding.sol\":530:540  msg.sender */\n      caller\n        /* \"contracts/projects/6_crowd_funding.sol\":523:540  NGO == msg.sender */\n      0xffffffffffffffffffffffffffffffffffffffff\n      and\n        /* \"contracts/projects/6_crowd_funding.sol\":523:526  NGO */\n      0x00\n      dup1\n      sload\n      swap1\n      0x0100\n      exp\n      swap1\n      div\n      0xffffffffffffffffffffffffffffffffffffffff\n      and\n        /* \"contracts/projects/6_crowd_funding.sol\":523:540  NGO == msg.sender */\n      0xffffffffffffffffffffffffffffffffffffffff\n      and\n      eq\n        /* \"contracts/projects/6_crowd_funding.sol\":515:570  require(NGO == msg.sender, \"You are not from that NGO\") */\n      tag_11\n      jumpi\n      mload(0x40)\n      0x08c379a000000000000000000000000000000000000000000000000000000000\n      dup2\n      mstore\n      0x04\n      add\n      tag_12\n      swap1\n      tag_13\n      jump\t// in\n    tag_12:\n      mload(0x40)\n      dup1\n      swap2\n      sub\n      swap1\n      revert\n    tag_11:\n        /* \"contracts/projects/6_crowd_funding.sol\":581:596  uint balanceEth */\n      0x00\n        /* \"contracts/projects/6_crowd_funding.sol\":599:611  getBalance() */\n      tag_14\n        /* \"contracts/projects/6_crowd_funding.sol\":599:609  getBalance */\n      tag_15\n        /* \"contracts/projects/6_crowd_funding.sol\":599:611  getBalance() */\n      jump\t// in\n    tag_14:\n        /* \"contracts/projects/6_crowd_funding.sol\":581:611  uint balanceEth = getBalance() */\n      swap1\n      pop\n        /* \"contracts/projects/6_crowd_funding.sol\":644:651  _minEth */\n      dup2\n        /* \"contracts/projects/6_crowd_funding.sol\":630:640  balanceEth */\n      dup2\n        /* \"contracts/projects/6_crowd_funding.sol\":630:651  balanceEth >= _minEth */\n      lt\n      iszero\n        /* \"contracts/projects/6_crowd_funding.sol\":622:680  require(balanceEth >= _minEth, \"There is minimum balance\") */\n      tag_16\n      jumpi\n      mload(0x40)\n      0x08c379a000000000000000000000000000000000000000000000000000000000\n      dup2\n      mstore\n      0x04\n      add\n      tag_17\n      swap1\n      tag_18\n      jump\t// in\n    tag_17:\n      mload(0x40)\n      dup1\n      swap2\n      sub\n      swap1\n      revert\n    tag_16:\n        /* \"contracts/projects/6_crowd_funding.sol\":691:708  _orphanageAddress */\n      dup3\n        /* \"contracts/projects/6_crowd_funding.sol\":691:717  _orphanageAddress.transfer */\n      0xffffffffffffffffffffffffffffffffffffffff\n      and\n        /* \"contracts/projects/6_crowd_funding.sol\":691:729  _orphanageAddress.transfer(balanceEth) */\n      0x08fc\n        /* \"contracts/projects/6_crowd_funding.sol\":718:728  balanceEth */\n      dup3\n        /* \"contracts/projects/6_crowd_funding.sol\":691:729  _orphanageAddress.transfer(balanceEth) */\n      swap1\n      dup2\n      iszero\n      mul\n      swap1\n      mload(0x40)\n      0x00\n      mload(0x40)\n      dup1\n      dup4\n      sub\n      dup2\n      dup6\n      dup9\n      dup9\n      call\n      swap4\n      pop\n      pop\n      pop\n      pop\n      iszero\n      dup1\n      iszero\n      tag_20\n      jumpi\n      returndatasize\n      0x00\n      dup1\n      returndatacopy\n      revert(0x00, returndatasize)\n    tag_20:\n      pop\n        /* \"contracts/projects/6_crowd_funding.sol\":504:737  {... */\n      pop\n        /* \"contracts/projects/6_crowd_funding.sol\":411:737  function transferToOrphanage(address payable _orphanageAddress, uint _minEth) payable public {... */\n      pop\n      pop\n      jump\t// out\n        /* \"contracts/projects/6_crowd_funding.sol\":171:297  function giveFund () payable public {... */\n    tag_9:\n        /* \"contracts/projects/6_crowd_funding.sol\":239:246  1 ether */\n      0x0de0b6b3a7640000\n        /* \"contracts/projects/6_crowd_funding.sol\":226:235  msg.value */\n      callvalue\n        /* \"contracts/projects/6_crowd_funding.sol\":226:246  msg.value >= 1 ether */\n      lt\n      iszero\n        /* \"contracts/projects/6_crowd_funding.sol\":218:289  require(msg.value >= 1 ether, \"You needs to give fund minimum 1 ether\") */\n      tag_22\n      jumpi\n      mload(0x40)\n      0x08c379a000000000000000000000000000000000000000000000000000000000\n      dup2\n      mstore\n      0x04\n      add\n      tag_23\n      swap1\n      tag_24\n      jump\t// in\n    tag_23:\n      mload(0x40)\n      dup1\n      swap2\n      sub\n      swap1\n      revert\n    tag_22:\n        /* \"contracts/projects/6_crowd_funding.sol\":171:297  function giveFund () payable public {... */\n      jump\t// out\n        /* \"contracts/projects/6_crowd_funding.sol\":305:403  function getBalance() internal view returns (uint) {... */\n    tag_15:\n        /* \"contracts/projects/6_crowd_funding.sol\":350:354  uint */\n      0x00\n        /* \"contracts/projects/6_crowd_funding.sol\":374:395  address(this).balance */\n      selfbalance\n        /* \"contracts/projects/6_crowd_funding.sol\":367:395  return address(this).balance */\n      swap1\n      pop\n        /* \"contracts/projects/6_crowd_funding.sol\":305:403  function getBalance() internal view returns (uint) {... */\n      swap1\n      jump\t// out\n        /* \"#utility.yul\":88:205   */\n    tag_27:\n        /* \"#utility.yul\":197:198   */\n      0x00\n        /* \"#utility.yul\":194:195   */\n      dup1\n        /* \"#utility.yul\":187:199   */\n      revert\n        /* \"#utility.yul\":334:460   */\n    tag_29:\n        /* \"#utility.yul\":371:378   */\n      0x00\n        /* \"#utility.yul\":411:453   */\n      0xffffffffffffffffffffffffffffffffffffffff\n        /* \"#utility.yul\":404:409   */\n      dup3\n        /* \"#utility.yul\":400:454   */\n      and\n        /* \"#utility.yul\":389:454   */\n      swap1\n      pop\n        /* \"#utility.yul\":334:460   */\n      swap2\n      swap1\n      pop\n      jump\t// out\n        /* \"#utility.yul\":466:570   */\n    tag_30:\n        /* \"#utility.yul\":511:518   */\n      0x00\n        /* \"#utility.yul\":540:564   */\n      tag_49\n        /* \"#utility.yul\":558:563   */\n      dup3\n        /* \"#utility.yul\":540:564   */\n      tag_29\n      jump\t// in\n    tag_49:\n        /* \"#utility.yul\":529:564   */\n      swap1\n      pop\n        /* \"#utility.yul\":466:570   */\n      swap2\n      swap1\n      pop\n      jump\t// out\n        /* \"#utility.yul\":576:714   */\n    tag_31:\n        /* \"#utility.yul\":657:689   */\n      tag_51\n        /* \"#utility.yul\":683:688   */\n      dup2\n        /* \"#utility.yul\":657:689   */\n      tag_30\n      jump\t// in\n    tag_51:\n        /* \"#utility.yul\":650:655   */\n      dup2\n        /* \"#utility.yul\":647:690   */\n      eq\n        /* \"#utility.yul\":637:708   */\n      tag_52\n      jumpi\n        /* \"#utility.yul\":704:705   */\n      0x00\n        /* \"#utility.yul\":701:702   */\n      dup1\n        /* \"#utility.yul\":694:706   */\n      revert\n        /* \"#utility.yul\":637:708   */\n    tag_52:\n        /* \"#utility.yul\":576:714   */\n      pop\n      jump\t// out\n        /* \"#utility.yul\":720:875   */\n    tag_32:\n        /* \"#utility.yul\":774:779   */\n      0x00\n        /* \"#utility.yul\":812:818   */\n      dup2\n        /* \"#utility.yul\":799:819   */\n      calldataload\n        /* \"#utility.yul\":790:819   */\n      swap1\n      pop\n        /* \"#utility.yul\":828:869   */\n      tag_54\n        /* \"#utility.yul\":863:868   */\n      dup2\n        /* \"#utility.yul\":828:869   */\n      tag_31\n      jump\t// in\n    tag_54:\n        /* \"#utility.yul\":720:875   */\n      swap3\n      swap2\n      pop\n      pop\n      jump\t// out\n        /* \"#utility.yul\":881:958   */\n    tag_33:\n        /* \"#utility.yul\":918:925   */\n      0x00\n        /* \"#utility.yul\":947:952   */\n      dup2\n        /* \"#utility.yul\":936:952   */\n      swap1\n      pop\n        /* \"#utility.yul\":881:958   */\n      swap2\n      swap1\n      pop\n      jump\t// out\n        /* \"#utility.yul\":964:1086   */\n    tag_34:\n        /* \"#utility.yul\":1037:1061   */\n      tag_57\n        /* \"#utility.yul\":1055:1060   */\n      dup2\n        /* \"#utility.yul\":1037:1061   */\n      tag_33\n      jump\t// in\n    tag_57:\n        /* \"#utility.yul\":1030:1035   */\n      dup2\n        /* \"#utility.yul\":1027:1062   */\n      eq\n        /* \"#utility.yul\":1017:1080   */\n      tag_58\n      jumpi\n        /* \"#utility.yul\":1076:1077   */\n      0x00\n        /* \"#utility.yul\":1073:1074   */\n      dup1\n        /* \"#utility.yul\":1066:1078   */\n      revert\n        /* \"#utility.yul\":1017:1080   */\n    tag_58:\n        /* \"#utility.yul\":964:1086   */\n      pop\n      jump\t// out\n        /* \"#utility.yul\":1092:1231   */\n    tag_35:\n        /* \"#utility.yul\":1138:1143   */\n      0x00\n        /* \"#utility.yul\":1176:1182   */\n      dup2\n        /* \"#utility.yul\":1163:1183   */\n      calldataload\n        /* \"#utility.yul\":1154:1183   */\n      swap1\n      pop\n        /* \"#utility.yul\":1192:1225   */\n      tag_60\n        /* \"#utility.yul\":1219:1224   */\n      dup2\n        /* \"#utility.yul\":1192:1225   */\n      tag_34\n      jump\t// in\n    tag_60:\n        /* \"#utility.yul\":1092:1231   */\n      swap3\n      swap2\n      pop\n      pop\n      jump\t// out\n        /* \"#utility.yul\":1237:1727   */\n    tag_6:\n        /* \"#utility.yul\":1313:1319   */\n      0x00\n        /* \"#utility.yul\":1321:1327   */\n      dup1\n        /* \"#utility.yul\":1370:1372   */\n      0x40\n        /* \"#utility.yul\":1358:1367   */\n      dup4\n        /* \"#utility.yul\":1349:1356   */\n      dup6\n        /* \"#utility.yul\":1345:1368   */\n      sub\n        /* \"#utility.yul\":1341:1373   */\n      slt\n        /* \"#utility.yul\":1338:1457   */\n      iszero\n      tag_62\n      jumpi\n        /* \"#utility.yul\":1376:1455   */\n      tag_63\n      tag_27\n      jump\t// in\n    tag_63:\n        /* \"#utility.yul\":1338:1457   */\n    tag_62:\n        /* \"#utility.yul\":1496:1497   */\n      0x00\n        /* \"#utility.yul\":1521:1582   */\n      tag_64\n        /* \"#utility.yul\":1574:1581   */\n      dup6\n        /* \"#utility.yul\":1565:1571   */\n      dup3\n        /* \"#utility.yul\":1554:1563   */\n      dup7\n        /* \"#utility.yul\":1550:1572   */\n      add\n        /* \"#utility.yul\":1521:1582   */\n      tag_32\n      jump\t// in\n    tag_64:\n        /* \"#utility.yul\":1511:1582   */\n      swap3\n      pop\n        /* \"#utility.yul\":1467:1592   */\n      pop\n        /* \"#utility.yul\":1631:1633   */\n      0x20\n        /* \"#utility.yul\":1657:1710   */\n      tag_65\n        /* \"#utility.yul\":1702:1709   */\n      dup6\n        /* \"#utility.yul\":1693:1699   */\n      dup3\n        /* \"#utility.yul\":1682:1691   */\n      dup7\n        /* \"#utility.yul\":1678:1700   */\n      add\n        /* \"#utility.yul\":1657:1710   */\n      tag_35\n      jump\t// in\n    tag_65:\n        /* \"#utility.yul\":1647:1710   */\n      swap2\n      pop\n        /* \"#utility.yul\":1602:1720   */\n      pop\n        /* \"#utility.yul\":1237:1727   */\n      swap3\n      pop\n      swap3\n      swap1\n      pop\n      jump\t// out\n        /* \"#utility.yul\":1733:1902   */\n    tag_36:\n        /* \"#utility.yul\":1817:1828   */\n      0x00\n        /* \"#utility.yul\":1851:1857   */\n      dup3\n        /* \"#utility.yul\":1846:1849   */\n      dup3\n        /* \"#utility.yul\":1839:1858   */\n      mstore\n        /* \"#utility.yul\":1891:1895   */\n      0x20\n        /* \"#utility.yul\":1886:1889   */\n      dup3\n        /* \"#utility.yul\":1882:1896   */\n      add\n        /* \"#utility.yul\":1867:1896   */\n      swap1\n      pop\n        /* \"#utility.yul\":1733:1902   */\n      swap3\n      swap2\n      pop\n      pop\n      jump\t// out\n        /* \"#utility.yul\":1908:2083   */\n    tag_37:\n        /* \"#utility.yul\":2048:2075   */\n      0x596f7520617265206e6f742066726f6d2074686174204e474f00000000000000\n        /* \"#utility.yul\":2044:2045   */\n      0x00\n        /* \"#utility.yul\":2036:2042   */\n      dup3\n        /* \"#utility.yul\":2032:2046   */\n      add\n        /* \"#utility.yul\":2025:2076   */\n      mstore\n        /* \"#utility.yul\":1908:2083   */\n      pop\n      jump\t// out\n        /* \"#utility.yul\":2089:2455   */\n    tag_38:\n        /* \"#utility.yul\":2231:2234   */\n      0x00\n        /* \"#utility.yul\":2252:2319   */\n      tag_69\n        /* \"#utility.yul\":2316:2318   */\n      0x19\n        /* \"#utility.yul\":2311:2314   */\n      dup4\n        /* \"#utility.yul\":2252:2319   */\n      tag_36\n      jump\t// in\n    tag_69:\n        /* \"#utility.yul\":2245:2319   */\n      swap2\n      pop\n        /* \"#utility.yul\":2328:2421   */\n      tag_70\n        /* \"#utility.yul\":2417:2420   */\n      dup3\n        /* \"#utility.yul\":2328:2421   */\n      tag_37\n      jump\t// in\n    tag_70:\n        /* \"#utility.yul\":2446:2448   */\n      0x20\n        /* \"#utility.yul\":2441:2444   */\n      dup3\n        /* \"#utility.yul\":2437:2449   */\n      add\n        /* \"#utility.yul\":2430:2449   */\n      swap1\n      pop\n        /* \"#utility.yul\":2089:2455   */\n      swap2\n      swap1\n      pop\n      jump\t// out\n        /* \"#utility.yul\":2461:2880   */\n    tag_13:\n        /* \"#utility.yul\":2627:2631   */\n      0x00\n        /* \"#utility.yul\":2665:2667   */\n      0x20\n        /* \"#utility.yul\":2654:2663   */\n      dup3\n        /* \"#utility.yul\":2650:2668   */\n      add\n        /* \"#utility.yul\":2642:2668   */\n      swap1\n      pop\n        /* \"#utility.yul\":2714:2723   */\n      dup2\n        /* \"#utility.yul\":2708:2712   */\n      dup2\n        /* \"#utility.yul\":2704:2724   */\n      sub\n        /* \"#utility.yul\":2700:2701   */\n      0x00\n        /* \"#utility.yul\":2689:2698   */\n      dup4\n        /* \"#utility.yul\":2685:2702   */\n      add\n        /* \"#utility.yul\":2678:2725   */\n      mstore\n        /* \"#utility.yul\":2742:2873   */\n      tag_72\n        /* \"#utility.yul\":2868:2872   */\n      dup2\n        /* \"#utility.yul\":2742:2873   */\n      tag_38\n      jump\t// in\n    tag_72:\n        /* \"#utility.yul\":2734:2873   */\n      swap1\n      pop\n        /* \"#utility.yul\":2461:2880   */\n      swap2\n      swap1\n      pop\n      jump\t// out\n        /* \"#utility.yul\":2886:3060   */\n    tag_39:\n        /* \"#utility.yul\":3026:3052   */\n      0x5468657265206973206d696e696d756d2062616c616e63650000000000000000\n        /* \"#utility.yul\":3022:3023   */\n      0x00\n        /* \"#utility.yul\":3014:3020   */\n      dup3\n        /* \"#utility.yul\":3010:3024   */\n      add\n        /* \"#utility.yul\":3003:3053   */\n      mstore\n        /* \"#utility.yul\":2886:3060   */\n      pop\n      jump\t// out\n        /* \"#utility.yul\":3066:3432   */\n    tag_40:\n        /* \"#utility.yul\":3208:3211   */\n      0x00\n        /* \"#utility.yul\":3229:3296   */\n      tag_75\n        /* \"#utility.yul\":3293:3295   */\n      0x18\n        /* \"#utility.yul\":3288:3291   */\n      dup4\n        /* \"#utility.yul\":3229:3296   */\n      tag_36\n      jump\t// in\n    tag_75:\n        /* \"#utility.yul\":3222:3296   */\n      swap2\n      pop\n        /* \"#utility.yul\":3305:3398   */\n      tag_76\n        /* \"#utility.yul\":3394:3397   */\n      dup3\n        /* \"#utility.yul\":3305:3398   */\n      tag_39\n      jump\t// in\n    tag_76:\n        /* \"#utility.yul\":3423:3425   */\n      0x20\n        /* \"#utility.yul\":3418:3421   */\n      dup3\n        /* \"#utility.yul\":3414:3426   */\n      add\n        /* \"#utility.yul\":3407:3426   */\n      swap1\n      pop\n        /* \"#utility.yul\":3066:3432   */\n      swap2\n      swap1\n      pop\n      jump\t// out\n        /* \"#utility.yul\":3438:3857   */\n    tag_18:\n        /* \"#utility.yul\":3604:3608   */\n      0x00\n        /* \"#utility.yul\":3642:3644   */\n      0x20\n        /* \"#utility.yul\":3631:3640   */\n      dup3\n        /* \"#utility.yul\":3627:3645   */\n      add\n        /* \"#utility.yul\":3619:3645   */\n      swap1\n      pop\n        /* \"#utility.yul\":3691:3700   */\n      dup2\n        /* \"#utility.yul\":3685:3689   */\n      dup2\n        /* \"#utility.yul\":3681:3701   */\n      sub\n        /* \"#utility.yul\":3677:3678   */\n      0x00\n        /* \"#utility.yul\":3666:3675   */\n      dup4\n        /* \"#utility.yul\":3662:3679   */\n      add\n        /* \"#utility.yul\":3655:3702   */\n      mstore\n        /* \"#utility.yul\":3719:3850   */\n      tag_78\n        /* \"#utility.yul\":3845:3849   */\n      dup2\n        /* \"#utility.yul\":3719:3850   */\n      tag_40\n      jump\t// in\n    tag_78:\n        /* \"#utility.yul\":3711:3850   */\n      swap1\n      pop\n        /* \"#utility.yul\":3438:3857   */\n      swap2\n      swap1\n      pop\n      jump\t// out\n        /* \"#utility.yul\":3863:4088   */\n    tag_41:\n        /* \"#utility.yul\":4003:4037   */\n      0x596f75206e6565647320746f20676976652066756e64206d696e696d756d2031\n        /* \"#utility.yul\":3999:4000   */\n      0x00\n        /* \"#utility.yul\":3991:3997   */\n      dup3\n        /* \"#utility.yul\":3987:4001   */\n      add\n        /* \"#utility.yul\":3980:4038   */\n      mstore\n        /* \"#utility.yul\":4072:4080   */\n      0x2065746865720000000000000000000000000000000000000000000000000000\n        /* \"#utility.yul\":4067:4069   */\n      0x20\n        /* \"#utility.yul\":4059:4065   */\n      dup3\n        /* \"#utility.yul\":4055:4070   */\n      add\n        /* \"#utility.yul\":4048:4081   */\n      mstore\n        /* \"#utility.yul\":3863:4088   */\n      pop\n      jump\t// out\n        /* \"#utility.yul\":4094:4460   */\n    tag_42:\n        /* \"#utility.yul\":4236:4239   */\n      0x00\n        /* \"#utility.yul\":4257:4324   */\n      tag_81\n        /* \"#utility.yul\":4321:4323   */\n      0x26\n        /* \"#utility.yul\":4316:4319   */\n      dup4\n        /* \"#utility.yul\":4257:4324   */\n      tag_36\n      jump\t// in\n    tag_81:\n        /* \"#utility.yul\":4250:4324   */\n      swap2\n      pop\n        /* \"#utility.yul\":4333:4426   */\n      tag_82\n        /* \"#utility.yul\":4422:4425   */\n      dup3\n        /* \"#utility.yul\":4333:4426   */\n      tag_41\n      jump\t// in\n    tag_82:\n        /* \"#utility.yul\":4451:4453   */\n      0x40\n        /* \"#utility.yul\":4446:4449   */\n      dup3\n        /* \"#utility.yul\":4442:4454   */\n      add\n        /* \"#utility.yul\":4435:4454   */\n      swap1\n      pop\n        /* \"#utility.yul\":4094:4460   */\n      swap2\n      swap1\n      pop\n      jump\t// out\n        /* \"#utility.yul\":4466:4885   */\n    tag_24:\n        /* \"#utility.yul\":4632:4636   */\n      0x00\n        /* \"#utility.yul\":4670:4672   */\n      0x20\n        /* \"#utility.yul\":4659:4668   */\n      dup3\n        /* \"#utility.yul\":4655:4673   */\n      add\n        /* \"#utility.yul\":4647:4673   */\n      swap1\n      pop\n        /* \"#utility.yul\":4719:4728   */\n      dup2\n        /* \"#utility.yul\":4713:4717   */\n      dup2\n        /* \"#utility.yul\":4709:4729   */\n      sub\n        /* \"#utility.yul\":4705:4706   */\n      0x00\n        /* \"#utility.yul\":4694:4703   */\n      dup4\n        /* \"#utility.yul\":4690:4707   */\n      add\n        /* \"#utility.yul\":4683:4730   */\n      mstore\n        /* \"#utility.yul\":4747:4878   */\n      tag_84\n        /* \"#utility.yul\":4873:4877   */\n      dup2\n        /* \"#utility.yul\":4747:4878   */\n      tag_42\n      jump\t// in\n    tag_84:\n        /* \"#utility.yul\":4739:4878   */\n      swap1\n      pop\n        /* \"#utility.yul\":4466:4885   */\n      swap2\n      swap1\n      pop\n      jump\t// out\n\n    auxdata: 0xa26469706673582212204aa333a0192d253cbb95856982a12dcb588bf77c354eb66d2444dfbda954776364736f6c63430008160033\n}\n",
				"bytecode": {
					"linkReferences": {},
					"object": "608060405234801561000f575f80fd5b50335f806101000a81548173ffffffffffffffffffffffffffffffffffffffff021916908373ffffffffffffffffffffffffffffffffffffffff16021790555061043d8061005c5f395ff3fe608060405260043610610028575f3560e01c8063c5acd5321461002c578063e03f967814610048575b5f80fd5b6100466004803603810190610041919061025b565b610052565b005b610050610176565b005b3373ffffffffffffffffffffffffffffffffffffffff165f8054906101000a900473ffffffffffffffffffffffffffffffffffffffff1673ffffffffffffffffffffffffffffffffffffffff16146100df576040517f08c379a00000000000000000000000000000000000000000000000000000000081526004016100d6906102f3565b60405180910390fd5b5f6100e86101c3565b90508181101561012d576040517f08c379a00000000000000000000000000000000000000000000000000000000081526004016101249061035b565b60405180910390fd5b8273ffffffffffffffffffffffffffffffffffffffff166108fc8290811502906040515f60405180830381858888f19350505050158015610170573d5f803e3d5ffd5b50505050565b670de0b6b3a76400003410156101c1576040517f08c379a00000000000000000000000000000000000000000000000000000000081526004016101b8906103e9565b60405180910390fd5b565b5f47905090565b5f80fd5b5f73ffffffffffffffffffffffffffffffffffffffff82169050919050565b5f6101f7826101ce565b9050919050565b610207816101ed565b8114610211575f80fd5b50565b5f81359050610222816101fe565b92915050565b5f819050919050565b61023a81610228565b8114610244575f80fd5b50565b5f8135905061025581610231565b92915050565b5f8060408385031215610271576102706101ca565b5b5f61027e85828601610214565b925050602061028f85828601610247565b9150509250929050565b5f82825260208201905092915050565b7f596f7520617265206e6f742066726f6d2074686174204e474f000000000000005f82015250565b5f6102dd601983610299565b91506102e8826102a9565b602082019050919050565b5f6020820190508181035f83015261030a816102d1565b9050919050565b7f5468657265206973206d696e696d756d2062616c616e636500000000000000005f82015250565b5f610345601883610299565b915061035082610311565b602082019050919050565b5f6020820190508181035f83015261037281610339565b9050919050565b7f596f75206e6565647320746f20676976652066756e64206d696e696d756d20315f8201527f2065746865720000000000000000000000000000000000000000000000000000602082015250565b5f6103d3602683610299565b91506103de82610379565b604082019050919050565b5f6020820190508181035f830152610400816103c7565b905091905056fea26469706673582212204aa333a0192d253cbb95856982a12dcb588bf77c354eb66d2444dfbda954776364736f6c63430008160033",
					"opcodes": "PUSH1 0x80 PUSH1 0x40 MSTORE CALLVALUE DUP1 ISZERO PUSH2 0xF JUMPI PUSH0 DUP1 REVERT JUMPDEST POP CALLER PUSH0 DUP1 PUSH2 0x100 EXP DUP2 SLOAD DUP2 PUSH20 0xFFFFFFFFFFFFFFFFFFFFFFFFFFFFFFFFFFFFFFFF MUL NOT AND SWAP1 DUP4 PUSH20 0xFFFFFFFFFFFFFFFFFFFFFFFFFFFFFFFFFFFFFFFF AND MUL OR SWAP1 SSTORE POP PUSH2 0x43D DUP1 PUSH2 0x5C PUSH0 CODECOPY PUSH0 RETURN INVALID PUSH1 0x80 PUSH1 0x40 MSTORE PUSH1 0x4 CALLDATASIZE LT PUSH2 0x28 JUMPI PUSH0 CALLDATALOAD PUSH1 0xE0 SHR DUP1 PUSH4 0xC5ACD532 EQ PUSH2 0x2C JUMPI DUP1 PUSH4 0xE03F9678 EQ PUSH2 0x48 JUMPI JUMPDEST PUSH0 DUP1 REVERT JUMPDEST PUSH2 0x46 PUSH1 0x4 DUP1 CALLDATASIZE SUB DUP2 ADD SWAP1 PUSH2 0x41 SWAP2 SWAP1 PUSH2 0x25B JUMP JUMPDEST PUSH2 0x52 JUMP JUMPDEST STOP JUMPDEST PUSH2 0x50 PUSH2 0x176 JUMP JUMPDEST STOP JUMPDEST CALLER PUSH20 0xFFFFFFFFFFFFFFFFFFFFFFFFFFFFFFFFFFFFFFFF AND PUSH0 DUP1 SLOAD SWAP1 PUSH2 0x100 EXP SWAP1 DIV PUSH20 0xFFFFFFFFFFFFFFFFFFFFFFFFFFFFFFFFFFFFFFFF AND PUSH20 0xFFFFFFFFFFFFFFFFFFFFFFFFFFFFFFFFFFFFFFFF AND EQ PUSH2 0xDF JUMPI PUSH1 0x40 MLOAD PUSH32 0x8C379A000000000000000000000000000000000000000000000000000000000 DUP2 MSTORE PUSH1 0x4 ADD PUSH2 0xD6 SWAP1 PUSH2 0x2F3 JUMP JUMPDEST PUSH1 0x40 MLOAD DUP1 SWAP2 SUB SWAP1 REVERT JUMPDEST PUSH0 PUSH2 0xE8 PUSH2 0x1C3 JUMP JUMPDEST SWAP1 POP DUP2 DUP2 LT ISZERO PUSH2 0x12D JUMPI PUSH1 0x40 MLOAD PUSH32 0x8C379A000000000000000000000000000000000000000000000000000000000 DUP2 MSTORE PUSH1 0x4 ADD PUSH2 0x124 SWAP1 PUSH2 0x35B JUMP JUMPDEST PUSH1 0x40 MLOAD DUP1 SWAP2 SUB SWAP1 REVERT JUMPDEST DUP3 PUSH20 0xFFFFFFFFFFFFFFFFFFFFFFFFFFFFFFFFFFFFFFFF AND PUSH2 0x8FC DUP3 SWAP1 DUP2 ISZERO MUL SWAP1 PUSH1 0x40 MLOAD PUSH0 PUSH1 0x40 MLOAD DUP1 DUP4 SUB DUP2 DUP6 DUP9 DUP9 CALL SWAP4 POP POP POP POP ISZERO DUP1 ISZERO PUSH2 0x170 JUMPI RETURNDATASIZE PUSH0 DUP1 RETURNDATACOPY RETURNDATASIZE PUSH0 REVERT JUMPDEST POP POP POP POP JUMP JUMPDEST PUSH8 0xDE0B6B3A7640000 CALLVALUE LT ISZERO PUSH2 0x1C1 JUMPI PUSH1 0x40 MLOAD PUSH32 0x8C379A000000000000000000000000000000000000000000000000000000000 DUP2 MSTORE PUSH1 0x4 ADD PUSH2 0x1B8 SWAP1 PUSH2 0x3E9 JUMP JUMPDEST PUSH1 0x40 MLOAD DUP1 SWAP2 SUB SWAP1 REVERT JUMPDEST JUMP JUMPDEST PUSH0 SELFBALANCE SWAP1 POP SWAP1 JUMP JUMPDEST PUSH0 DUP1 REVERT JUMPDEST PUSH0 PUSH20 0xFFFFFFFFFFFFFFFFFFFFFFFFFFFFFFFFFFFFFFFF DUP3 AND SWAP1 POP SWAP2 SWAP1 POP JUMP JUMPDEST PUSH0 PUSH2 0x1F7 DUP3 PUSH2 0x1CE JUMP JUMPDEST SWAP1 POP SWAP2 SWAP1 POP JUMP JUMPDEST PUSH2 0x207 DUP2 PUSH2 0x1ED JUMP JUMPDEST DUP2 EQ PUSH2 0x211 JUMPI PUSH0 DUP1 REVERT JUMPDEST POP JUMP JUMPDEST PUSH0 DUP2 CALLDATALOAD SWAP1 POP PUSH2 0x222 DUP2 PUSH2 0x1FE JUMP JUMPDEST SWAP3 SWAP2 POP POP JUMP JUMPDEST PUSH0 DUP2 SWAP1 POP SWAP2 SWAP1 POP JUMP JUMPDEST PUSH2 0x23A DUP2 PUSH2 0x228 JUMP JUMPDEST DUP2 EQ PUSH2 0x244 JUMPI PUSH0 DUP1 REVERT JUMPDEST POP JUMP JUMPDEST PUSH0 DUP2 CALLDATALOAD SWAP1 POP PUSH2 0x255 DUP2 PUSH2 0x231 JUMP JUMPDEST SWAP3 SWAP2 POP POP JUMP JUMPDEST PUSH0 DUP1 PUSH1 0x40 DUP4 DUP6 SUB SLT ISZERO PUSH2 0x271 JUMPI PUSH2 0x270 PUSH2 0x1CA JUMP JUMPDEST JUMPDEST PUSH0 PUSH2 0x27E DUP6 DUP3 DUP7 ADD PUSH2 0x214 JUMP JUMPDEST SWAP3 POP POP PUSH1 0x20 PUSH2 0x28F DUP6 DUP3 DUP7 ADD PUSH2 0x247 JUMP JUMPDEST SWAP2 POP POP SWAP3 POP SWAP3 SWAP1 POP JUMP JUMPDEST PUSH0 DUP3 DUP3 MSTORE PUSH1 0x20 DUP3 ADD SWAP1 POP SWAP3 SWAP2 POP POP JUMP JUMPDEST PUSH32 0x596F7520617265206E6F742066726F6D2074686174204E474F00000000000000 PUSH0 DUP3 ADD MSTORE POP JUMP JUMPDEST PUSH0 PUSH2 0x2DD PUSH1 0x19 DUP4 PUSH2 0x299 JUMP JUMPDEST SWAP2 POP PUSH2 0x2E8 DUP3 PUSH2 0x2A9 JUMP JUMPDEST PUSH1 0x20 DUP3 ADD SWAP1 POP SWAP2 SWAP1 POP JUMP JUMPDEST PUSH0 PUSH1 0x20 DUP3 ADD SWAP1 POP DUP2 DUP2 SUB PUSH0 DUP4 ADD MSTORE PUSH2 0x30A DUP2 PUSH2 0x2D1 JUMP JUMPDEST SWAP1 POP SWAP2 SWAP1 POP JUMP JUMPDEST PUSH32 0x5468657265206973206D696E696D756D2062616C616E63650000000000000000 PUSH0 DUP3 ADD MSTORE POP JUMP JUMPDEST PUSH0 PUSH2 0x345 PUSH1 0x18 DUP4 PUSH2 0x299 JUMP JUMPDEST SWAP2 POP PUSH2 0x350 DUP3 PUSH2 0x311 JUMP JUMPDEST PUSH1 0x20 DUP3 ADD SWAP1 POP SWAP2 SWAP1 POP JUMP JUMPDEST PUSH0 PUSH1 0x20 DUP3 ADD SWAP1 POP DUP2 DUP2 SUB PUSH0 DUP4 ADD MSTORE PUSH2 0x372 DUP2 PUSH2 0x339 JUMP JUMPDEST SWAP1 POP SWAP2 SWAP1 POP JUMP JUMPDEST PUSH32 0x596F75206E6565647320746F20676976652066756E64206D696E696D756D2031 PUSH0 DUP3 ADD MSTORE PUSH32 0x2065746865720000000000000000000000000000000000000000000000000000 PUSH1 0x20 DUP3 ADD MSTORE POP JUMP JUMPDEST PUSH0 PUSH2 0x3D3 PUSH1 0x26 DUP4 PUSH2 0x299 JUMP JUMPDEST SWAP2 POP PUSH2 0x3DE DUP3 PUSH2 0x379 JUMP JUMPDEST PUSH1 0x40 DUP3 ADD SWAP1 POP SWAP2 SWAP1 POP JUMP JUMPDEST PUSH0 PUSH1 0x20 DUP3 ADD SWAP1 POP DUP2 DUP2 SUB PUSH0 DUP4 ADD MSTORE PUSH2 0x400 DUP2 PUSH2 0x3C7 JUMP JUMPDEST SWAP1 POP SWAP2 SWAP1 POP JUMP INVALID LOG2 PUSH5 0x6970667358 0x22 SLT KECCAK256 0x4A LOG3 CALLER LOG0 NOT 0x2D 0x25 EXTCODECOPY 0xBB SWAP6 DUP6 PUSH10 0x82A12DCB588BF77C354E 0xB6 PUSH14 0x2444DFBDA954776364736F6C6343 STOP ADDMOD AND STOP CALLER "
				},
				"gasEstimates": {
					"creation": {
						"codeDepositCost": "217000",
						"executionCost": "24520",
						"totalCost": "241520"
					},
					"external": {
						"giveFund()": "446",
						"transferToOrphanage(address,uint256)": "infinite"
					},
					"internal": {
						"getBalance()": "24"
					}
				},
				"methodIdentifiers": {
					"giveFund()": "e03f9678",
					"transferToOrphanage(address,uint256)": "c5acd532"
				}
			},
			"storageLayout": {
				"storage": [
					{
						"astId": 3,
						"contract": "contracts/projects/6_crowd_funding.sol:crowdFunding",
						"label": "NGO",
						"offset": 0,
						"slot": "0",
						"type": "t_address"
					}
				],
				"types": {
					"t_address": {
						"encoding": "inplace",
						"label": "address",
						"numberOfBytes": "20"
					}
				}
			},
			"userdoc": {
				"kind": "user",
				"methods": {},
				"version": 1
			}
		}
	}
}