{
	"contracts/projects/5_lottery.sol": {
		"Lottery": {
			"abi": [
				{
					"inputs": [],
					"stateMutability": "nonpayable",
					"type": "constructor"
				},
				{
					"inputs": [],
					"name": "manager",
					"outputs": [
						{
							"internalType": "address",
							"name": "",
							"type": "address"
						}
					],
					"stateMutability": "view",
					"type": "function"
				},
				{
					"inputs": [],
					"name": "participate",
					"outputs": [],
					"stateMutability": "payable",
					"type": "function"
				},
				{
					"inputs": [],
					"name": "pickWinner",
					"outputs": [],
					"stateMutability": "nonpayable",
					"type": "function"
				}
			],
			"devdoc": {
				"kind": "dev",
				"methods": {},
				"version": 1
			},
			"evm": {
				"assembly": "    /* \"contracts/projects/5_lottery.sol\":58:1814  contract Lottery {... */\n  mstore(0x40, 0x80)\n    /* \"contracts/projects/5_lottery.sol\":213:364  constructor() {... */\n  callvalue\n  dup1\n  iszero\n  tag_1\n  jumpi\n  0x00\n  dup1\n  revert\ntag_1:\n  pop\n    /* \"contracts/projects/5_lottery.sol\":247:257  msg.sender */\n  caller\n    /* \"contracts/projects/5_lottery.sol\":237:244  manager */\n  0x00\n  dup1\n    /* \"contracts/projects/5_lottery.sol\":237:257  manager = msg.sender */\n  0x0100\n  exp\n  dup2\n  sload\n  dup2\n  0xffffffffffffffffffffffffffffffffffffffff\n  mul\n  not\n  and\n  swap1\n  dup4\n  0xffffffffffffffffffffffffffffffffffffffff\n  and\n  mul\n  or\n  swap1\n  sstore\n  pop\n    /* \"contracts/projects/5_lottery.sol\":58:1814  contract Lottery {... */\n  dataSize(sub_0)\n  dup1\n  dataOffset(sub_0)\n  0x00\n  codecopy\n  0x00\n  return\nstop\n\nsub_0: assembly {\n        /* \"contracts/projects/5_lottery.sol\":58:1814  contract Lottery {... */\n      mstore(0x40, 0x80)\n      jumpi(tag_1, lt(calldatasize, 0x04))\n      shr(0xe0, calldataload(0x00))\n      dup1\n      0x481c6a75\n      eq\n      tag_2\n      jumpi\n      dup1\n      0x5d495aea\n      eq\n      tag_3\n      jumpi\n      dup1\n      0xd11711a2\n      eq\n      tag_4\n      jumpi\n    tag_1:\n      0x00\n      dup1\n      revert\n        /* \"contracts/projects/5_lottery.sol\":125:147  address public manager */\n    tag_2:\n      callvalue\n      dup1\n      iszero\n      tag_5\n      jumpi\n      0x00\n      dup1\n      revert\n    tag_5:\n      pop\n      tag_6\n      tag_7\n      jump\t// in\n    tag_6:\n      mload(0x40)\n      tag_8\n      swap2\n      swap1\n      tag_9\n      jump\t// in\n    tag_8:\n      mload(0x40)\n      dup1\n      swap2\n      sub\n      swap1\n      return\n        /* \"contracts/projects/5_lottery.sol\":1402:1812  function pickWinner() public {... */\n    tag_3:\n      callvalue\n      dup1\n      iszero\n      tag_10\n      jumpi\n      0x00\n      dup1\n      revert\n    tag_10:\n      pop\n      tag_11\n      tag_12\n      jump\t// in\n    tag_11:\n      stop\n        /* \"contracts/projects/5_lottery.sol\":370:666  function participate() public payable {... */\n    tag_4:\n      tag_13\n      tag_14\n      jump\t// in\n    tag_13:\n      stop\n        /* \"contracts/projects/5_lottery.sol\":125:147  address public manager */\n    tag_7:\n      0x00\n      dup1\n      sload\n      swap1\n      0x0100\n      exp\n      swap1\n      div\n      0xffffffffffffffffffffffffffffffffffffffff\n      and\n      dup2\n      jump\t// out\n        /* \"contracts/projects/5_lottery.sol\":1402:1812  function pickWinner() public {... */\n    tag_12:\n        /* \"contracts/projects/5_lottery.sol\":1460:1470  msg.sender */\n      caller\n        /* \"contracts/projects/5_lottery.sol\":1449:1470  manager == msg.sender */\n      0xffffffffffffffffffffffffffffffffffffffff\n      and\n        /* \"contracts/projects/5_lottery.sol\":1449:1456  manager */\n      0x00\n      dup1\n      sload\n      swap1\n      0x0100\n      exp\n      swap1\n      div\n      0xffffffffffffffffffffffffffffffffffffffff\n      and\n        /* \"contracts/projects/5_lottery.sol\":1449:1470  manager == msg.sender */\n      0xffffffffffffffffffffffffffffffffffffffff\n      and\n      eq\n        /* \"contracts/projects/5_lottery.sol\":1441:1498  require(manager == msg.sender, \"You are not the Manager\") */\n      tag_16\n      jumpi\n      mload(0x40)\n      0x08c379a000000000000000000000000000000000000000000000000000000000\n      dup2\n      mstore\n      0x04\n      add\n      tag_17\n      swap1\n      tag_18\n      jump\t// in\n    tag_17:\n      mload(0x40)\n      dup1\n      swap2\n      sub\n      swap1\n      revert\n    tag_16:\n        /* \"contracts/projects/5_lottery.sol\":1534:1535  3 */\n      0x03\n        /* \"contracts/projects/5_lottery.sol\":1516:1523  players */\n      0x01\n        /* \"contracts/projects/5_lottery.sol\":1516:1530  players.length */\n      dup1\n      sload\n      swap1\n      pop\n        /* \"contracts/projects/5_lottery.sol\":1516:1535  players.length >= 3 */\n      lt\n      iszero\n        /* \"contracts/projects/5_lottery.sol\":1508:1567  require(players.length >= 3, \"The Players are less than 3\") */\n      tag_19\n      jumpi\n      mload(0x40)\n      0x08c379a000000000000000000000000000000000000000000000000000000000\n      dup2\n      mstore\n      0x04\n      add\n      tag_20\n      swap1\n      tag_21\n      jump\t// in\n    tag_20:\n      mload(0x40)\n      dup1\n      swap2\n      sub\n      swap1\n      revert\n    tag_19:\n        /* \"contracts/projects/5_lottery.sol\":1578:1587  uint256 r */\n      0x00\n        /* \"contracts/projects/5_lottery.sol\":1590:1598  random() */\n      tag_22\n        /* \"contracts/projects/5_lottery.sol\":1590:1596  random */\n      tag_23\n        /* \"contracts/projects/5_lottery.sol\":1590:1598  random() */\n      jump\t// in\n    tag_22:\n        /* \"contracts/projects/5_lottery.sol\":1578:1598  uint256 r = random() */\n      swap1\n      pop\n        /* \"contracts/projects/5_lottery.sol\":1608:1621  uint256 index */\n      0x00\n        /* \"contracts/projects/5_lottery.sol\":1628:1635  players */\n      0x01\n        /* \"contracts/projects/5_lottery.sol\":1628:1642  players.length */\n      dup1\n      sload\n      swap1\n      pop\n        /* \"contracts/projects/5_lottery.sol\":1624:1625  r */\n      dup3\n        /* \"contracts/projects/5_lottery.sol\":1624:1642  r % players.length */\n      tag_24\n      swap2\n      swap1\n      tag_25\n      jump\t// in\n    tag_24:\n        /* \"contracts/projects/5_lottery.sol\":1608:1642  uint256 index = r % players.length */\n      swap1\n      pop\n        /* \"contracts/projects/5_lottery.sol\":1661:1668  players */\n      0x01\n        /* \"contracts/projects/5_lottery.sol\":1669:1674  index */\n      dup2\n        /* \"contracts/projects/5_lottery.sol\":1661:1675  players[index] */\n      dup2\n      sload\n      dup2\n      lt\n      tag_26\n      jumpi\n      tag_27\n      tag_28\n      jump\t// in\n    tag_27:\n    tag_26:\n      swap1\n      0x00\n      mstore\n      keccak256(0x00, 0x20)\n      add\n      0x00\n      swap1\n      sload\n      swap1\n      0x0100\n      exp\n      swap1\n      div\n      0xffffffffffffffffffffffffffffffffffffffff\n      and\n        /* \"contracts/projects/5_lottery.sol\":1652:1658  winner */\n      0x02\n      0x00\n        /* \"contracts/projects/5_lottery.sol\":1652:1675  winner = players[index] */\n      0x0100\n      exp\n      dup2\n      sload\n      dup2\n      0xffffffffffffffffffffffffffffffffffffffff\n      mul\n      not\n      and\n      swap1\n      dup4\n      0xffffffffffffffffffffffffffffffffffffffff\n      and\n      mul\n      or\n      swap1\n      sstore\n      pop\n        /* \"contracts/projects/5_lottery.sol\":1685:1691  winner */\n      0x02\n      0x00\n      swap1\n      sload\n      swap1\n      0x0100\n      exp\n      swap1\n      div\n      0xffffffffffffffffffffffffffffffffffffffff\n      and\n        /* \"contracts/projects/5_lottery.sol\":1685:1700  winner.transfer */\n      0xffffffffffffffffffffffffffffffffffffffff\n      and\n        /* \"contracts/projects/5_lottery.sol\":1685:1714  winner.transfer(getBalance()) */\n      0x08fc\n        /* \"contracts/projects/5_lottery.sol\":1701:1713  getBalance() */\n      tag_30\n        /* \"contracts/projects/5_lottery.sol\":1701:1711  getBalance */\n      tag_31\n        /* \"contracts/projects/5_lottery.sol\":1701:1713  getBalance() */\n      jump\t// in\n    tag_30:\n        /* \"contracts/projects/5_lottery.sol\":1685:1714  winner.transfer(getBalance()) */\n      swap1\n      dup2\n      iszero\n      mul\n      swap1\n      mload(0x40)\n      0x00\n      mload(0x40)\n      dup1\n      dup4\n      sub\n      dup2\n      dup6\n      dup9\n      dup9\n      call\n      swap4\n      pop\n      pop\n      pop\n      pop\n      iszero\n      dup1\n      iszero\n      tag_33\n      jumpi\n      returndatasize\n      0x00\n      dup1\n      returndatacopy\n      revert(0x00, returndatasize)\n    tag_33:\n      pop\n        /* \"contracts/projects/5_lottery.sol\":1756:1757  0 */\n      0x00\n        /* \"contracts/projects/5_lottery.sol\":1734:1758  new address payable[](0) */\n      0xffffffffffffffff\n      dup2\n      gt\n      iszero\n      tag_34\n      jumpi\n      tag_35\n      tag_36\n      jump\t// in\n    tag_35:\n    tag_34:\n      mload(0x40)\n      swap1\n      dup1\n      dup3\n      mstore\n      dup1\n      0x20\n      mul\n      0x20\n      add\n      dup3\n      add\n      0x40\n      mstore\n      dup1\n      iszero\n      tag_37\n      jumpi\n      dup2\n      0x20\n      add\n      0x20\n      dup3\n      mul\n      dup1\n      calldatasize\n      dup4\n      calldatacopy\n      dup1\n      dup3\n      add\n      swap2\n      pop\n      pop\n      swap1\n      pop\n    tag_37:\n      pop\n        /* \"contracts/projects/5_lottery.sol\":1724:1731  players */\n      0x01\n        /* \"contracts/projects/5_lottery.sol\":1724:1758  players = new address payable[](0) */\n      swap1\n      dup1\n      mload\n      swap1\n      0x20\n      add\n      swap1\n      tag_38\n      swap3\n      swap2\n      swap1\n      tag_39\n      jump\t// in\n    tag_38:\n      pop\n        /* \"contracts/projects/5_lottery.sol\":1431:1812  {... */\n      pop\n      pop\n        /* \"contracts/projects/5_lottery.sol\":1402:1812  function pickWinner() public {... */\n      jump\t// out\n        /* \"contracts/projects/5_lottery.sol\":370:666  function participate() public payable {... */\n    tag_14:\n        /* \"contracts/projects/5_lottery.sol\":439:446  1 ether */\n      0x0de0b6b3a7640000\n        /* \"contracts/projects/5_lottery.sol\":426:435  msg.value */\n      callvalue\n        /* \"contracts/projects/5_lottery.sol\":426:446  msg.value == 1 ether */\n      eq\n        /* \"contracts/projects/5_lottery.sol\":418:484  require(msg.value == 1 ether, \"Please Pay 1 Ether to participate\") */\n      tag_41\n      jumpi\n      mload(0x40)\n      0x08c379a000000000000000000000000000000000000000000000000000000000\n      dup2\n      mstore\n      0x04\n      add\n      tag_42\n      swap1\n      tag_43\n      jump\t// in\n    tag_42:\n      mload(0x40)\n      dup1\n      swap2\n      sub\n      swap1\n      revert\n    tag_41:\n        /* \"contracts/projects/5_lottery.sol\":494:501  players */\n      0x01\n        /* \"contracts/projects/5_lottery.sol\":515:525  msg.sender */\n      caller\n        /* \"contracts/projects/5_lottery.sol\":494:527  players.push(payable(msg.sender)) */\n      swap1\n      dup1\n      0x01\n      dup2\n      sload\n      add\n      dup1\n      dup3\n      sstore\n      dup1\n      swap2\n      pop\n      pop\n      0x01\n      swap1\n      sub\n      swap1\n      0x00\n      mstore\n      keccak256(0x00, 0x20)\n      add\n      0x00\n      swap1\n      swap2\n      swap1\n      swap2\n      swap1\n      swap2\n      0x0100\n      exp\n      dup2\n      sload\n      dup2\n      0xffffffffffffffffffffffffffffffffffffffff\n      mul\n      not\n      and\n      swap1\n      dup4\n      0xffffffffffffffffffffffffffffffffffffffff\n      and\n      mul\n      or\n      swap1\n      sstore\n      pop\n        /* \"contracts/projects/5_lottery.sol\":370:666  function participate() public payable {... */\n      jump\t// out\n        /* \"contracts/projects/5_lottery.sol\":928:1396  function random() internal view returns (uint256) {... */\n    tag_23:\n        /* \"contracts/projects/5_lottery.sol\":969:976  uint256 */\n      0x00\n        /* \"contracts/projects/5_lottery.sol\":1105:1121  block.difficulty */\n      prevrandao\n        /* \"contracts/projects/5_lottery.sol\":1147:1162  block.timestamp */\n      timestamp\n        /* \"contracts/projects/5_lottery.sol\":1188:1195  players */\n      0x01\n        /* \"contracts/projects/5_lottery.sol\":1188:1202  players.length */\n      dup1\n      sload\n      swap1\n      pop\n        /* \"contracts/projects/5_lottery.sol\":1063:1224  abi.encodePacked(... */\n      add(0x20, mload(0x40))\n      tag_46\n      swap4\n      swap3\n      swap2\n      swap1\n      tag_47\n      jump\t// in\n    tag_46:\n      mload(0x40)\n      0x20\n      dup2\n      dup4\n      sub\n      sub\n      dup2\n      mstore\n      swap1\n      0x40\n      mstore\n        /* \"contracts/projects/5_lottery.sol\":1032:1242  keccak256(... */\n      dup1\n      mload\n      swap1\n      0x20\n      add\n      keccak256\n        /* \"contracts/projects/5_lottery.sol\":1007:1256  uint256(... */\n      0x00\n      shr\n        /* \"contracts/projects/5_lottery.sol\":988:1256  return... */\n      swap1\n      pop\n        /* \"contracts/projects/5_lottery.sol\":928:1396  function random() internal view returns (uint256) {... */\n      swap1\n      jump\t// out\n        /* \"contracts/projects/5_lottery.sol\":672:887  function getBalance() internal view returns (uint256) {... */\n    tag_31:\n        /* \"contracts/projects/5_lottery.sol\":717:724  uint256 */\n      0x00\n        /* \"contracts/projects/5_lottery.sol\":755:765  msg.sender */\n      caller\n        /* \"contracts/projects/5_lottery.sol\":744:765  manager == msg.sender */\n      0xffffffffffffffffffffffffffffffffffffffff\n      and\n        /* \"contracts/projects/5_lottery.sol\":744:751  manager */\n      0x00\n      dup1\n      sload\n      swap1\n      0x0100\n      exp\n      swap1\n      div\n      0xffffffffffffffffffffffffffffffffffffffff\n      and\n        /* \"contracts/projects/5_lottery.sol\":744:765  manager == msg.sender */\n      0xffffffffffffffffffffffffffffffffffffffff\n      and\n      eq\n        /* \"contracts/projects/5_lottery.sol\":736:793  require(manager == msg.sender, \"You are not the manager\") */\n      tag_49\n      jumpi\n      mload(0x40)\n      0x08c379a000000000000000000000000000000000000000000000000000000000\n      dup2\n      mstore\n      0x04\n      add\n      tag_50\n      swap1\n      tag_51\n      jump\t// in\n    tag_50:\n      mload(0x40)\n      dup1\n      swap2\n      sub\n      swap1\n      revert\n    tag_49:\n        /* \"contracts/projects/5_lottery.sol\":810:831  address(this).balance */\n      selfbalance\n        /* \"contracts/projects/5_lottery.sol\":803:831  return address(this).balance */\n      swap1\n      pop\n        /* \"contracts/projects/5_lottery.sol\":672:887  function getBalance() internal view returns (uint256) {... */\n      swap1\n      jump\t// out\n    tag_39:\n      dup3\n      dup1\n      sload\n      dup3\n      dup3\n      sstore\n      swap1\n      0x00\n      mstore\n      keccak256(0x00, 0x20)\n      swap1\n      dup2\n      add\n      swap3\n      dup3\n      iszero\n      tag_52\n      jumpi\n      swap2\n      0x20\n      mul\n      dup3\n      add\n    tag_53:\n      dup3\n      dup2\n      gt\n      iszero\n      tag_54\n      jumpi\n      dup3\n      mload\n      dup3\n      exp(0x0100, 0x00)\n      dup2\n      sload\n      dup2\n      0xffffffffffffffffffffffffffffffffffffffff\n      mul\n      not\n      and\n      swap1\n      dup4\n      0xffffffffffffffffffffffffffffffffffffffff\n      and\n      mul\n      or\n      swap1\n      sstore\n      pop\n      swap2\n      0x20\n      add\n      swap2\n      swap1\n      0x01\n      add\n      swap1\n      jump(tag_53)\n    tag_54:\n    tag_52:\n      pop\n      swap1\n      pop\n      tag_55\n      swap2\n      swap1\n      tag_56\n      jump\t// in\n    tag_55:\n      pop\n      swap1\n      jump\t// out\n    tag_56:\n    tag_57:\n      dup1\n      dup3\n      gt\n      iszero\n      tag_58\n      jumpi\n      0x00\n      dup2\n      0x00\n      swap1\n      sstore\n      pop\n      0x01\n      add\n      jump(tag_57)\n    tag_58:\n      pop\n      swap1\n      jump\t// out\n        /* \"#utility.yul\":7:133   */\n    tag_59:\n        /* \"#utility.yul\":44:51   */\n      0x00\n        /* \"#utility.yul\":84:126   */\n      0xffffffffffffffffffffffffffffffffffffffff\n        /* \"#utility.yul\":77:82   */\n      dup3\n        /* \"#utility.yul\":73:127   */\n      and\n        /* \"#utility.yul\":62:127   */\n      swap1\n      pop\n        /* \"#utility.yul\":7:133   */\n      swap2\n      swap1\n      pop\n      jump\t// out\n        /* \"#utility.yul\":139:235   */\n    tag_60:\n        /* \"#utility.yul\":176:183   */\n      0x00\n        /* \"#utility.yul\":205:229   */\n      tag_78\n        /* \"#utility.yul\":223:228   */\n      dup3\n        /* \"#utility.yul\":205:229   */\n      tag_59\n      jump\t// in\n    tag_78:\n        /* \"#utility.yul\":194:229   */\n      swap1\n      pop\n        /* \"#utility.yul\":139:235   */\n      swap2\n      swap1\n      pop\n      jump\t// out\n        /* \"#utility.yul\":241:359   */\n    tag_61:\n        /* \"#utility.yul\":328:352   */\n      tag_80\n        /* \"#utility.yul\":346:351   */\n      dup2\n        /* \"#utility.yul\":328:352   */\n      tag_60\n      jump\t// in\n    tag_80:\n        /* \"#utility.yul\":323:326   */\n      dup3\n        /* \"#utility.yul\":316:353   */\n      mstore\n        /* \"#utility.yul\":241:359   */\n      pop\n      pop\n      jump\t// out\n        /* \"#utility.yul\":365:587   */\n    tag_9:\n        /* \"#utility.yul\":458:462   */\n      0x00\n        /* \"#utility.yul\":496:498   */\n      0x20\n        /* \"#utility.yul\":485:494   */\n      dup3\n        /* \"#utility.yul\":481:499   */\n      add\n        /* \"#utility.yul\":473:499   */\n      swap1\n      pop\n        /* \"#utility.yul\":509:580   */\n      tag_82\n        /* \"#utility.yul\":577:578   */\n      0x00\n        /* \"#utility.yul\":566:575   */\n      dup4\n        /* \"#utility.yul\":562:579   */\n      add\n        /* \"#utility.yul\":553:559   */\n      dup5\n        /* \"#utility.yul\":509:580   */\n      tag_61\n      jump\t// in\n    tag_82:\n        /* \"#utility.yul\":365:587   */\n      swap3\n      swap2\n      pop\n      pop\n      jump\t// out\n        /* \"#utility.yul\":593:762   */\n    tag_62:\n        /* \"#utility.yul\":677:688   */\n      0x00\n        /* \"#utility.yul\":711:717   */\n      dup3\n        /* \"#utility.yul\":706:709   */\n      dup3\n        /* \"#utility.yul\":699:718   */\n      mstore\n        /* \"#utility.yul\":751:755   */\n      0x20\n        /* \"#utility.yul\":746:749   */\n      dup3\n        /* \"#utility.yul\":742:756   */\n      add\n        /* \"#utility.yul\":727:756   */\n      swap1\n      pop\n        /* \"#utility.yul\":593:762   */\n      swap3\n      swap2\n      pop\n      pop\n      jump\t// out\n        /* \"#utility.yul\":768:941   */\n    tag_63:\n        /* \"#utility.yul\":908:933   */\n      0x596f7520617265206e6f7420746865204d616e61676572000000000000000000\n        /* \"#utility.yul\":904:905   */\n      0x00\n        /* \"#utility.yul\":896:902   */\n      dup3\n        /* \"#utility.yul\":892:906   */\n      add\n        /* \"#utility.yul\":885:934   */\n      mstore\n        /* \"#utility.yul\":768:941   */\n      pop\n      jump\t// out\n        /* \"#utility.yul\":947:1313   */\n    tag_64:\n        /* \"#utility.yul\":1089:1092   */\n      0x00\n        /* \"#utility.yul\":1110:1177   */\n      tag_86\n        /* \"#utility.yul\":1174:1176   */\n      0x17\n        /* \"#utility.yul\":1169:1172   */\n      dup4\n        /* \"#utility.yul\":1110:1177   */\n      tag_62\n      jump\t// in\n    tag_86:\n        /* \"#utility.yul\":1103:1177   */\n      swap2\n      pop\n        /* \"#utility.yul\":1186:1279   */\n      tag_87\n        /* \"#utility.yul\":1275:1278   */\n      dup3\n        /* \"#utility.yul\":1186:1279   */\n      tag_63\n      jump\t// in\n    tag_87:\n        /* \"#utility.yul\":1304:1306   */\n      0x20\n        /* \"#utility.yul\":1299:1302   */\n      dup3\n        /* \"#utility.yul\":1295:1307   */\n      add\n        /* \"#utility.yul\":1288:1307   */\n      swap1\n      pop\n        /* \"#utility.yul\":947:1313   */\n      swap2\n      swap1\n      pop\n      jump\t// out\n        /* \"#utility.yul\":1319:1738   */\n    tag_18:\n        /* \"#utility.yul\":1485:1489   */\n      0x00\n        /* \"#utility.yul\":1523:1525   */\n      0x20\n        /* \"#utility.yul\":1512:1521   */\n      dup3\n        /* \"#utility.yul\":1508:1526   */\n      add\n        /* \"#utility.yul\":1500:1526   */\n      swap1\n      pop\n        /* \"#utility.yul\":1572:1581   */\n      dup2\n        /* \"#utility.yul\":1566:1570   */\n      dup2\n        /* \"#utility.yul\":1562:1582   */\n      sub\n        /* \"#utility.yul\":1558:1559   */\n      0x00\n        /* \"#utility.yul\":1547:1556   */\n      dup4\n        /* \"#utility.yul\":1543:1560   */\n      add\n        /* \"#utility.yul\":1536:1583   */\n      mstore\n        /* \"#utility.yul\":1600:1731   */\n      tag_89\n        /* \"#utility.yul\":1726:1730   */\n      dup2\n        /* \"#utility.yul\":1600:1731   */\n      tag_64\n      jump\t// in\n    tag_89:\n        /* \"#utility.yul\":1592:1731   */\n      swap1\n      pop\n        /* \"#utility.yul\":1319:1738   */\n      swap2\n      swap1\n      pop\n      jump\t// out\n        /* \"#utility.yul\":1744:1921   */\n    tag_65:\n        /* \"#utility.yul\":1884:1913   */\n      0x54686520506c617965727320617265206c657373207468616e20330000000000\n        /* \"#utility.yul\":1880:1881   */\n      0x00\n        /* \"#utility.yul\":1872:1878   */\n      dup3\n        /* \"#utility.yul\":1868:1882   */\n      add\n        /* \"#utility.yul\":1861:1914   */\n      mstore\n        /* \"#utility.yul\":1744:1921   */\n      pop\n      jump\t// out\n        /* \"#utility.yul\":1927:2293   */\n    tag_66:\n        /* \"#utility.yul\":2069:2072   */\n      0x00\n        /* \"#utility.yul\":2090:2157   */\n      tag_92\n        /* \"#utility.yul\":2154:2156   */\n      0x1b\n        /* \"#utility.yul\":2149:2152   */\n      dup4\n        /* \"#utility.yul\":2090:2157   */\n      tag_62\n      jump\t// in\n    tag_92:\n        /* \"#utility.yul\":2083:2157   */\n      swap2\n      pop\n        /* \"#utility.yul\":2166:2259   */\n      tag_93\n        /* \"#utility.yul\":2255:2258   */\n      dup3\n        /* \"#utility.yul\":2166:2259   */\n      tag_65\n      jump\t// in\n    tag_93:\n        /* \"#utility.yul\":2284:2286   */\n      0x20\n        /* \"#utility.yul\":2279:2282   */\n      dup3\n        /* \"#utility.yul\":2275:2287   */\n      add\n        /* \"#utility.yul\":2268:2287   */\n      swap1\n      pop\n        /* \"#utility.yul\":1927:2293   */\n      swap2\n      swap1\n      pop\n      jump\t// out\n        /* \"#utility.yul\":2299:2718   */\n    tag_21:\n        /* \"#utility.yul\":2465:2469   */\n      0x00\n        /* \"#utility.yul\":2503:2505   */\n      0x20\n        /* \"#utility.yul\":2492:2501   */\n      dup3\n        /* \"#utility.yul\":2488:2506   */\n      add\n        /* \"#utility.yul\":2480:2506   */\n      swap1\n      pop\n        /* \"#utility.yul\":2552:2561   */\n      dup2\n        /* \"#utility.yul\":2546:2550   */\n      dup2\n        /* \"#utility.yul\":2542:2562   */\n      sub\n        /* \"#utility.yul\":2538:2539   */\n      0x00\n        /* \"#utility.yul\":2527:2536   */\n      dup4\n        /* \"#utility.yul\":2523:2540   */\n      add\n        /* \"#utility.yul\":2516:2563   */\n      mstore\n        /* \"#utility.yul\":2580:2711   */\n      tag_95\n        /* \"#utility.yul\":2706:2710   */\n      dup2\n        /* \"#utility.yul\":2580:2711   */\n      tag_66\n      jump\t// in\n    tag_95:\n        /* \"#utility.yul\":2572:2711   */\n      swap1\n      pop\n        /* \"#utility.yul\":2299:2718   */\n      swap2\n      swap1\n      pop\n      jump\t// out\n        /* \"#utility.yul\":2724:2801   */\n    tag_67:\n        /* \"#utility.yul\":2761:2768   */\n      0x00\n        /* \"#utility.yul\":2790:2795   */\n      dup2\n        /* \"#utility.yul\":2779:2795   */\n      swap1\n      pop\n        /* \"#utility.yul\":2724:2801   */\n      swap2\n      swap1\n      pop\n      jump\t// out\n        /* \"#utility.yul\":2807:2987   */\n    tag_68:\n        /* \"#utility.yul\":2855:2932   */\n      0x4e487b7100000000000000000000000000000000000000000000000000000000\n        /* \"#utility.yul\":2852:2853   */\n      0x00\n        /* \"#utility.yul\":2845:2933   */\n      mstore\n        /* \"#utility.yul\":2952:2956   */\n      0x12\n        /* \"#utility.yul\":2949:2950   */\n      0x04\n        /* \"#utility.yul\":2942:2957   */\n      mstore\n        /* \"#utility.yul\":2976:2980   */\n      0x24\n        /* \"#utility.yul\":2973:2974   */\n      0x00\n        /* \"#utility.yul\":2966:2981   */\n      revert\n        /* \"#utility.yul\":2993:3169   */\n    tag_25:\n        /* \"#utility.yul\":3025:3026   */\n      0x00\n        /* \"#utility.yul\":3042:3062   */\n      tag_99\n        /* \"#utility.yul\":3060:3061   */\n      dup3\n        /* \"#utility.yul\":3042:3062   */\n      tag_67\n      jump\t// in\n    tag_99:\n        /* \"#utility.yul\":3037:3062   */\n      swap2\n      pop\n        /* \"#utility.yul\":3076:3096   */\n      tag_100\n        /* \"#utility.yul\":3094:3095   */\n      dup4\n        /* \"#utility.yul\":3076:3096   */\n      tag_67\n      jump\t// in\n    tag_100:\n        /* \"#utility.yul\":3071:3096   */\n      swap3\n      pop\n        /* \"#utility.yul\":3115:3116   */\n      dup3\n        /* \"#utility.yul\":3105:3140   */\n      tag_101\n      jumpi\n        /* \"#utility.yul\":3120:3138   */\n      tag_102\n      tag_68\n      jump\t// in\n    tag_102:\n        /* \"#utility.yul\":3105:3140   */\n    tag_101:\n        /* \"#utility.yul\":3161:3162   */\n      dup3\n        /* \"#utility.yul\":3158:3159   */\n      dup3\n        /* \"#utility.yul\":3154:3163   */\n      mod\n        /* \"#utility.yul\":3149:3163   */\n      swap1\n      pop\n        /* \"#utility.yul\":2993:3169   */\n      swap3\n      swap2\n      pop\n      pop\n      jump\t// out\n        /* \"#utility.yul\":3175:3355   */\n    tag_28:\n        /* \"#utility.yul\":3223:3300   */\n      0x4e487b7100000000000000000000000000000000000000000000000000000000\n        /* \"#utility.yul\":3220:3221   */\n      0x00\n        /* \"#utility.yul\":3213:3301   */\n      mstore\n        /* \"#utility.yul\":3320:3324   */\n      0x32\n        /* \"#utility.yul\":3317:3318   */\n      0x04\n        /* \"#utility.yul\":3310:3325   */\n      mstore\n        /* \"#utility.yul\":3344:3348   */\n      0x24\n        /* \"#utility.yul\":3341:3342   */\n      0x00\n        /* \"#utility.yul\":3334:3349   */\n      revert\n        /* \"#utility.yul\":3361:3541   */\n    tag_36:\n        /* \"#utility.yul\":3409:3486   */\n      0x4e487b7100000000000000000000000000000000000000000000000000000000\n        /* \"#utility.yul\":3406:3407   */\n      0x00\n        /* \"#utility.yul\":3399:3487   */\n      mstore\n        /* \"#utility.yul\":3506:3510   */\n      0x41\n        /* \"#utility.yul\":3503:3504   */\n      0x04\n        /* \"#utility.yul\":3496:3511   */\n      mstore\n        /* \"#utility.yul\":3530:3534   */\n      0x24\n        /* \"#utility.yul\":3527:3528   */\n      0x00\n        /* \"#utility.yul\":3520:3535   */\n      revert\n        /* \"#utility.yul\":3547:3767   */\n    tag_69:\n        /* \"#utility.yul\":3687:3721   */\n      0x506c6561736520506179203120457468657220746f2070617274696369706174\n        /* \"#utility.yul\":3683:3684   */\n      0x00\n        /* \"#utility.yul\":3675:3681   */\n      dup3\n        /* \"#utility.yul\":3671:3685   */\n      add\n        /* \"#utility.yul\":3664:3722   */\n      mstore\n        /* \"#utility.yul\":3756:3759   */\n      0x6500000000000000000000000000000000000000000000000000000000000000\n        /* \"#utility.yul\":3751:3753   */\n      0x20\n        /* \"#utility.yul\":3743:3749   */\n      dup3\n        /* \"#utility.yul\":3739:3754   */\n      add\n        /* \"#utility.yul\":3732:3760   */\n      mstore\n        /* \"#utility.yul\":3547:3767   */\n      pop\n      jump\t// out\n        /* \"#utility.yul\":3773:4139   */\n    tag_70:\n        /* \"#utility.yul\":3915:3918   */\n      0x00\n        /* \"#utility.yul\":3936:4003   */\n      tag_107\n        /* \"#utility.yul\":4000:4002   */\n      0x21\n        /* \"#utility.yul\":3995:3998   */\n      dup4\n        /* \"#utility.yul\":3936:4003   */\n      tag_62\n      jump\t// in\n    tag_107:\n        /* \"#utility.yul\":3929:4003   */\n      swap2\n      pop\n        /* \"#utility.yul\":4012:4105   */\n      tag_108\n        /* \"#utility.yul\":4101:4104   */\n      dup3\n        /* \"#utility.yul\":4012:4105   */\n      tag_69\n      jump\t// in\n    tag_108:\n        /* \"#utility.yul\":4130:4132   */\n      0x40\n        /* \"#utility.yul\":4125:4128   */\n      dup3\n        /* \"#utility.yul\":4121:4133   */\n      add\n        /* \"#utility.yul\":4114:4133   */\n      swap1\n      pop\n        /* \"#utility.yul\":3773:4139   */\n      swap2\n      swap1\n      pop\n      jump\t// out\n        /* \"#utility.yul\":4145:4564   */\n    tag_43:\n        /* \"#utility.yul\":4311:4315   */\n      0x00\n        /* \"#utility.yul\":4349:4351   */\n      0x20\n        /* \"#utility.yul\":4338:4347   */\n      dup3\n        /* \"#utility.yul\":4334:4352   */\n      add\n        /* \"#utility.yul\":4326:4352   */\n      swap1\n      pop\n        /* \"#utility.yul\":4398:4407   */\n      dup2\n        /* \"#utility.yul\":4392:4396   */\n      dup2\n        /* \"#utility.yul\":4388:4408   */\n      sub\n        /* \"#utility.yul\":4384:4385   */\n      0x00\n        /* \"#utility.yul\":4373:4382   */\n      dup4\n        /* \"#utility.yul\":4369:4386   */\n      add\n        /* \"#utility.yul\":4362:4409   */\n      mstore\n        /* \"#utility.yul\":4426:4557   */\n      tag_110\n        /* \"#utility.yul\":4552:4556   */\n      dup2\n        /* \"#utility.yul\":4426:4557   */\n      tag_70\n      jump\t// in\n    tag_110:\n        /* \"#utility.yul\":4418:4557   */\n      swap1\n      pop\n        /* \"#utility.yul\":4145:4564   */\n      swap2\n      swap1\n      pop\n      jump\t// out\n        /* \"#utility.yul\":4570:4649   */\n    tag_71:\n        /* \"#utility.yul\":4609:4616   */\n      0x00\n        /* \"#utility.yul\":4638:4643   */\n      dup2\n        /* \"#utility.yul\":4627:4643   */\n      swap1\n      pop\n        /* \"#utility.yul\":4570:4649   */\n      swap2\n      swap1\n      pop\n      jump\t// out\n        /* \"#utility.yul\":4655:4812   */\n    tag_72:\n        /* \"#utility.yul\":4760:4805   */\n      tag_113\n        /* \"#utility.yul\":4780:4804   */\n      tag_114\n        /* \"#utility.yul\":4798:4803   */\n      dup3\n        /* \"#utility.yul\":4780:4804   */\n      tag_67\n      jump\t// in\n    tag_114:\n        /* \"#utility.yul\":4760:4805   */\n      tag_71\n      jump\t// in\n    tag_113:\n        /* \"#utility.yul\":4755:4758   */\n      dup3\n        /* \"#utility.yul\":4748:4806   */\n      mstore\n        /* \"#utility.yul\":4655:4812   */\n      pop\n      pop\n      jump\t// out\n        /* \"#utility.yul\":4818:5356   */\n    tag_47:\n        /* \"#utility.yul\":4986:4989   */\n      0x00\n        /* \"#utility.yul\":5001:5076   */\n      tag_116\n        /* \"#utility.yul\":5072:5075   */\n      dup3\n        /* \"#utility.yul\":5063:5069   */\n      dup7\n        /* \"#utility.yul\":5001:5076   */\n      tag_72\n      jump\t// in\n    tag_116:\n        /* \"#utility.yul\":5101:5103   */\n      0x20\n        /* \"#utility.yul\":5096:5099   */\n      dup3\n        /* \"#utility.yul\":5092:5104   */\n      add\n        /* \"#utility.yul\":5085:5104   */\n      swap2\n      pop\n        /* \"#utility.yul\":5114:5189   */\n      tag_117\n        /* \"#utility.yul\":5185:5188   */\n      dup3\n        /* \"#utility.yul\":5176:5182   */\n      dup6\n        /* \"#utility.yul\":5114:5189   */\n      tag_72\n      jump\t// in\n    tag_117:\n        /* \"#utility.yul\":5214:5216   */\n      0x20\n        /* \"#utility.yul\":5209:5212   */\n      dup3\n        /* \"#utility.yul\":5205:5217   */\n      add\n        /* \"#utility.yul\":5198:5217   */\n      swap2\n      pop\n        /* \"#utility.yul\":5227:5302   */\n      tag_118\n        /* \"#utility.yul\":5298:5301   */\n      dup3\n        /* \"#utility.yul\":5289:5295   */\n      dup5\n        /* \"#utility.yul\":5227:5302   */\n      tag_72\n      jump\t// in\n    tag_118:\n        /* \"#utility.yul\":5327:5329   */\n      0x20\n        /* \"#utility.yul\":5322:5325   */\n      dup3\n        /* \"#utility.yul\":5318:5330   */\n      add\n        /* \"#utility.yul\":5311:5330   */\n      swap2\n      pop\n        /* \"#utility.yul\":5347:5350   */\n      dup2\n        /* \"#utility.yul\":5340:5350   */\n      swap1\n      pop\n        /* \"#utility.yul\":4818:5356   */\n      swap5\n      swap4\n      pop\n      pop\n      pop\n      pop\n      jump\t// out\n        /* \"#utility.yul\":5362:5535   */\n    tag_73:\n        /* \"#utility.yul\":5502:5527   */\n      0x596f7520617265206e6f7420746865206d616e61676572000000000000000000\n        /* \"#utility.yul\":5498:5499   */\n      0x00\n        /* \"#utility.yul\":5490:5496   */\n      dup3\n        /* \"#utility.yul\":5486:5500   */\n      add\n        /* \"#utility.yul\":5479:5528   */\n      mstore\n        /* \"#utility.yul\":5362:5535   */\n      pop\n      jump\t// out\n        /* \"#utility.yul\":5541:5907   */\n    tag_74:\n        /* \"#utility.yul\":5683:5686   */\n      0x00\n        /* \"#utility.yul\":5704:5771   */\n      tag_121\n        /* \"#utility.yul\":5768:5770   */\n      0x17\n        /* \"#utility.yul\":5763:5766   */\n      dup4\n        /* \"#utility.yul\":5704:5771   */\n      tag_62\n      jump\t// in\n    tag_121:\n        /* \"#utility.yul\":5697:5771   */\n      swap2\n      pop\n        /* \"#utility.yul\":5780:5873   */\n      tag_122\n        /* \"#utility.yul\":5869:5872   */\n      dup3\n        /* \"#utility.yul\":5780:5873   */\n      tag_73\n      jump\t// in\n    tag_122:\n        /* \"#utility.yul\":5898:5900   */\n      0x20\n        /* \"#utility.yul\":5893:5896   */\n      dup3\n        /* \"#utility.yul\":5889:5901   */\n      add\n        /* \"#utility.yul\":5882:5901   */\n      swap1\n      pop\n        /* \"#utility.yul\":5541:5907   */\n      swap2\n      swap1\n      pop\n      jump\t// out\n        /* \"#utility.yul\":5913:6332   */\n    tag_51:\n        /* \"#utility.yul\":6079:6083   */\n      0x00\n        /* \"#utility.yul\":6117:6119   */\n      0x20\n        /* \"#utility.yul\":6106:6115   */\n      dup3\n        /* \"#utility.yul\":6102:6120   */\n      add\n        /* \"#utility.yul\":6094:6120   */\n      swap1\n      pop\n        /* \"#utility.yul\":6166:6175   */\n      dup2\n        /* \"#utility.yul\":6160:6164   */\n      dup2\n        /* \"#utility.yul\":6156:6176   */\n      sub\n        /* \"#utility.yul\":6152:6153   */\n      0x00\n        /* \"#utility.yul\":6141:6150   */\n      dup4\n        /* \"#utility.yul\":6137:6154   */\n      add\n        /* \"#utility.yul\":6130:6177   */\n      mstore\n        /* \"#utility.yul\":6194:6325   */\n      tag_124\n        /* \"#utility.yul\":6320:6324   */\n      dup2\n        /* \"#utility.yul\":6194:6325   */\n      tag_74\n      jump\t// in\n    tag_124:\n        /* \"#utility.yul\":6186:6325   */\n      swap1\n      pop\n        /* \"#utility.yul\":5913:6332   */\n      swap2\n      swap1\n      pop\n      jump\t// out\n\n    auxdata: 0xa2646970667358221220c7d71679491f5e75c52a6ef2ed527ca574070bf0838d3bd82b612139bfdcfb3564736f6c63430008160033\n}\n",
				"bytecode": {
					"linkReferences": {},
					"object": "608060405234801561000f575f80fd5b50335f806101000a81548173ffffffffffffffffffffffffffffffffffffffff021916908373ffffffffffffffffffffffffffffffffffffffff16021790555061087d8061005c5f395ff3fe608060405260043610610033575f3560e01c8063481c6a75146100375780635d495aea14610061578063d11711a214610077575b5f80fd5b348015610042575f80fd5b5061004b610081565b604051610058919061053c565b60405180910390f35b34801561006c575f80fd5b506100756100a4565b005b61007f6102e3565b005b5f8054906101000a900473ffffffffffffffffffffffffffffffffffffffff1681565b3373ffffffffffffffffffffffffffffffffffffffff165f8054906101000a900473ffffffffffffffffffffffffffffffffffffffff1673ffffffffffffffffffffffffffffffffffffffff1614610131576040517f08c379a0000000000000000000000000000000000000000000000000000000008152600401610128906105af565b60405180910390fd5b6003600180549050101561017a576040517f08c379a000000000000000000000000000000000000000000000000000000000815260040161017190610617565b60405180910390fd5b5f61018361038f565b90505f60018054905082610197919061066b565b9050600181815481106101ad576101ac61069b565b5b905f5260205f20015f9054906101000a900473ffffffffffffffffffffffffffffffffffffffff1660025f6101000a81548173ffffffffffffffffffffffffffffffffffffffff021916908373ffffffffffffffffffffffffffffffffffffffff16021790555060025f9054906101000a900473ffffffffffffffffffffffffffffffffffffffff1673ffffffffffffffffffffffffffffffffffffffff166108fc6102576103c7565b90811502906040515f60405180830381858888f1935050505015801561027f573d5f803e3d5ffd5b505f67ffffffffffffffff81111561029a576102996106c8565b5b6040519080825280602002602001820160405280156102c85781602001602082028036833780820191505090505b50600190805190602001906102de92919061045b565b505050565b670de0b6b3a7640000341461032d576040517f08c379a000000000000000000000000000000000000000000000000000000000815260040161032490610765565b60405180910390fd5b600133908060018154018082558091505060019003905f5260205f20015f9091909190916101000a81548173ffffffffffffffffffffffffffffffffffffffff021916908373ffffffffffffffffffffffffffffffffffffffff160217905550565b5f44426001805490506040516020016103aa939291906107a3565b604051602081830303815290604052805190602001205f1c905090565b5f3373ffffffffffffffffffffffffffffffffffffffff165f8054906101000a900473ffffffffffffffffffffffffffffffffffffffff1673ffffffffffffffffffffffffffffffffffffffff1614610455576040517f08c379a000000000000000000000000000000000000000000000000000000000815260040161044c90610829565b60405180910390fd5b47905090565b828054828255905f5260205f209081019282156104d1579160200282015b828111156104d0578251825f6101000a81548173ffffffffffffffffffffffffffffffffffffffff021916908373ffffffffffffffffffffffffffffffffffffffff16021790555091602001919060010190610479565b5b5090506104de91906104e2565b5090565b5b808211156104f9575f815f9055506001016104e3565b5090565b5f73ffffffffffffffffffffffffffffffffffffffff82169050919050565b5f610526826104fd565b9050919050565b6105368161051c565b82525050565b5f60208201905061054f5f83018461052d565b92915050565b5f82825260208201905092915050565b7f596f7520617265206e6f7420746865204d616e616765720000000000000000005f82015250565b5f610599601783610555565b91506105a482610565565b602082019050919050565b5f6020820190508181035f8301526105c68161058d565b9050919050565b7f54686520506c617965727320617265206c657373207468616e203300000000005f82015250565b5f610601601b83610555565b915061060c826105cd565b602082019050919050565b5f6020820190508181035f83015261062e816105f5565b9050919050565b5f819050919050565b7f4e487b71000000000000000000000000000000000000000000000000000000005f52601260045260245ffd5b5f61067582610635565b915061068083610635565b9250826106905761068f61063e565b5b828206905092915050565b7f4e487b71000000000000000000000000000000000000000000000000000000005f52603260045260245ffd5b7f4e487b71000000000000000000000000000000000000000000000000000000005f52604160045260245ffd5b7f506c6561736520506179203120457468657220746f20706172746963697061745f8201527f6500000000000000000000000000000000000000000000000000000000000000602082015250565b5f61074f602183610555565b915061075a826106f5565b604082019050919050565b5f6020820190508181035f83015261077c81610743565b9050919050565b5f819050919050565b61079d61079882610635565b610783565b82525050565b5f6107ae828661078c565b6020820191506107be828561078c565b6020820191506107ce828461078c565b602082019150819050949350505050565b7f596f7520617265206e6f7420746865206d616e616765720000000000000000005f82015250565b5f610813601783610555565b915061081e826107df565b602082019050919050565b5f6020820190508181035f83015261084081610807565b905091905056fea2646970667358221220c7d71679491f5e75c52a6ef2ed527ca574070bf0838d3bd82b612139bfdcfb3564736f6c63430008160033",
					"opcodes": "PUSH1 0x80 PUSH1 0x40 MSTORE CALLVALUE DUP1 ISZERO PUSH2 0xF JUMPI PUSH0 DUP1 REVERT JUMPDEST POP CALLER PUSH0 DUP1 PUSH2 0x100 EXP DUP2 SLOAD DUP2 PUSH20 0xFFFFFFFFFFFFFFFFFFFFFFFFFFFFFFFFFFFFFFFF MUL NOT AND SWAP1 DUP4 PUSH20 0xFFFFFFFFFFFFFFFFFFFFFFFFFFFFFFFFFFFFFFFF AND MUL OR SWAP1 SSTORE POP PUSH2 0x87D DUP1 PUSH2 0x5C PUSH0 CODECOPY PUSH0 RETURN INVALID PUSH1 0x80 PUSH1 0x40 MSTORE PUSH1 0x4 CALLDATASIZE LT PUSH2 0x33 JUMPI PUSH0 CALLDATALOAD PUSH1 0xE0 SHR DUP1 PUSH4 0x481C6A75 EQ PUSH2 0x37 JUMPI DUP1 PUSH4 0x5D495AEA EQ PUSH2 0x61 JUMPI DUP1 PUSH4 0xD11711A2 EQ PUSH2 0x77 JUMPI JUMPDEST PUSH0 DUP1 REVERT JUMPDEST CALLVALUE DUP1 ISZERO PUSH2 0x42 JUMPI PUSH0 DUP1 REVERT JUMPDEST POP PUSH2 0x4B PUSH2 0x81 JUMP JUMPDEST PUSH1 0x40 MLOAD PUSH2 0x58 SWAP2 SWAP1 PUSH2 0x53C JUMP JUMPDEST PUSH1 0x40 MLOAD DUP1 SWAP2 SUB SWAP1 RETURN JUMPDEST CALLVALUE DUP1 ISZERO PUSH2 0x6C JUMPI PUSH0 DUP1 REVERT JUMPDEST POP PUSH2 0x75 PUSH2 0xA4 JUMP JUMPDEST STOP JUMPDEST PUSH2 0x7F PUSH2 0x2E3 JUMP JUMPDEST STOP JUMPDEST PUSH0 DUP1 SLOAD SWAP1 PUSH2 0x100 EXP SWAP1 DIV PUSH20 0xFFFFFFFFFFFFFFFFFFFFFFFFFFFFFFFFFFFFFFFF AND DUP2 JUMP JUMPDEST CALLER PUSH20 0xFFFFFFFFFFFFFFFFFFFFFFFFFFFFFFFFFFFFFFFF AND PUSH0 DUP1 SLOAD SWAP1 PUSH2 0x100 EXP SWAP1 DIV PUSH20 0xFFFFFFFFFFFFFFFFFFFFFFFFFFFFFFFFFFFFFFFF AND PUSH20 0xFFFFFFFFFFFFFFFFFFFFFFFFFFFFFFFFFFFFFFFF AND EQ PUSH2 0x131 JUMPI PUSH1 0x40 MLOAD PUSH32 0x8C379A000000000000000000000000000000000000000000000000000000000 DUP2 MSTORE PUSH1 0x4 ADD PUSH2 0x128 SWAP1 PUSH2 0x5AF JUMP JUMPDEST PUSH1 0x40 MLOAD DUP1 SWAP2 SUB SWAP1 REVERT JUMPDEST PUSH1 0x3 PUSH1 0x1 DUP1 SLOAD SWAP1 POP LT ISZERO PUSH2 0x17A JUMPI PUSH1 0x40 MLOAD PUSH32 0x8C379A000000000000000000000000000000000000000000000000000000000 DUP2 MSTORE PUSH1 0x4 ADD PUSH2 0x171 SWAP1 PUSH2 0x617 JUMP JUMPDEST PUSH1 0x40 MLOAD DUP1 SWAP2 SUB SWAP1 REVERT JUMPDEST PUSH0 PUSH2 0x183 PUSH2 0x38F JUMP JUMPDEST SWAP1 POP PUSH0 PUSH1 0x1 DUP1 SLOAD SWAP1 POP DUP3 PUSH2 0x197 SWAP2 SWAP1 PUSH2 0x66B JUMP JUMPDEST SWAP1 POP PUSH1 0x1 DUP2 DUP2 SLOAD DUP2 LT PUSH2 0x1AD JUMPI PUSH2 0x1AC PUSH2 0x69B JUMP JUMPDEST JUMPDEST SWAP1 PUSH0 MSTORE PUSH1 0x20 PUSH0 KECCAK256 ADD PUSH0 SWAP1 SLOAD SWAP1 PUSH2 0x100 EXP SWAP1 DIV PUSH20 0xFFFFFFFFFFFFFFFFFFFFFFFFFFFFFFFFFFFFFFFF AND PUSH1 0x2 PUSH0 PUSH2 0x100 EXP DUP2 SLOAD DUP2 PUSH20 0xFFFFFFFFFFFFFFFFFFFFFFFFFFFFFFFFFFFFFFFF MUL NOT AND SWAP1 DUP4 PUSH20 0xFFFFFFFFFFFFFFFFFFFFFFFFFFFFFFFFFFFFFFFF AND MUL OR SWAP1 SSTORE POP PUSH1 0x2 PUSH0 SWAP1 SLOAD SWAP1 PUSH2 0x100 EXP SWAP1 DIV PUSH20 0xFFFFFFFFFFFFFFFFFFFFFFFFFFFFFFFFFFFFFFFF AND PUSH20 0xFFFFFFFFFFFFFFFFFFFFFFFFFFFFFFFFFFFFFFFF AND PUSH2 0x8FC PUSH2 0x257 PUSH2 0x3C7 JUMP JUMPDEST SWAP1 DUP2 ISZERO MUL SWAP1 PUSH1 0x40 MLOAD PUSH0 PUSH1 0x40 MLOAD DUP1 DUP4 SUB DUP2 DUP6 DUP9 DUP9 CALL SWAP4 POP POP POP POP ISZERO DUP1 ISZERO PUSH2 0x27F JUMPI RETURNDATASIZE PUSH0 DUP1 RETURNDATACOPY RETURNDATASIZE PUSH0 REVERT JUMPDEST POP PUSH0 PUSH8 0xFFFFFFFFFFFFFFFF DUP2 GT ISZERO PUSH2 0x29A JUMPI PUSH2 0x299 PUSH2 0x6C8 JUMP JUMPDEST JUMPDEST PUSH1 0x40 MLOAD SWAP1 DUP1 DUP3 MSTORE DUP1 PUSH1 0x20 MUL PUSH1 0x20 ADD DUP3 ADD PUSH1 0x40 MSTORE DUP1 ISZERO PUSH2 0x2C8 JUMPI DUP2 PUSH1 0x20 ADD PUSH1 0x20 DUP3 MUL DUP1 CALLDATASIZE DUP4 CALLDATACOPY DUP1 DUP3 ADD SWAP2 POP POP SWAP1 POP JUMPDEST POP PUSH1 0x1 SWAP1 DUP1 MLOAD SWAP1 PUSH1 0x20 ADD SWAP1 PUSH2 0x2DE SWAP3 SWAP2 SWAP1 PUSH2 0x45B JUMP JUMPDEST POP POP POP JUMP JUMPDEST PUSH8 0xDE0B6B3A7640000 CALLVALUE EQ PUSH2 0x32D JUMPI PUSH1 0x40 MLOAD PUSH32 0x8C379A000000000000000000000000000000000000000000000000000000000 DUP2 MSTORE PUSH1 0x4 ADD PUSH2 0x324 SWAP1 PUSH2 0x765 JUMP JUMPDEST PUSH1 0x40 MLOAD DUP1 SWAP2 SUB SWAP1 REVERT JUMPDEST PUSH1 0x1 CALLER SWAP1 DUP1 PUSH1 0x1 DUP2 SLOAD ADD DUP1 DUP3 SSTORE DUP1 SWAP2 POP POP PUSH1 0x1 SWAP1 SUB SWAP1 PUSH0 MSTORE PUSH1 0x20 PUSH0 KECCAK256 ADD PUSH0 SWAP1 SWAP2 SWAP1 SWAP2 SWAP1 SWAP2 PUSH2 0x100 EXP DUP2 SLOAD DUP2 PUSH20 0xFFFFFFFFFFFFFFFFFFFFFFFFFFFFFFFFFFFFFFFF MUL NOT AND SWAP1 DUP4 PUSH20 0xFFFFFFFFFFFFFFFFFFFFFFFFFFFFFFFFFFFFFFFF AND MUL OR SWAP1 SSTORE POP JUMP JUMPDEST PUSH0 PREVRANDAO TIMESTAMP PUSH1 0x1 DUP1 SLOAD SWAP1 POP PUSH1 0x40 MLOAD PUSH1 0x20 ADD PUSH2 0x3AA SWAP4 SWAP3 SWAP2 SWAP1 PUSH2 0x7A3 JUMP JUMPDEST PUSH1 0x40 MLOAD PUSH1 0x20 DUP2 DUP4 SUB SUB DUP2 MSTORE SWAP1 PUSH1 0x40 MSTORE DUP1 MLOAD SWAP1 PUSH1 0x20 ADD KECCAK256 PUSH0 SHR SWAP1 POP SWAP1 JUMP JUMPDEST PUSH0 CALLER PUSH20 0xFFFFFFFFFFFFFFFFFFFFFFFFFFFFFFFFFFFFFFFF AND PUSH0 DUP1 SLOAD SWAP1 PUSH2 0x100 EXP SWAP1 DIV PUSH20 0xFFFFFFFFFFFFFFFFFFFFFFFFFFFFFFFFFFFFFFFF AND PUSH20 0xFFFFFFFFFFFFFFFFFFFFFFFFFFFFFFFFFFFFFFFF AND EQ PUSH2 0x455 JUMPI PUSH1 0x40 MLOAD PUSH32 0x8C379A000000000000000000000000000000000000000000000000000000000 DUP2 MSTORE PUSH1 0x4 ADD PUSH2 0x44C SWAP1 PUSH2 0x829 JUMP JUMPDEST PUSH1 0x40 MLOAD DUP1 SWAP2 SUB SWAP1 REVERT JUMPDEST SELFBALANCE SWAP1 POP SWAP1 JUMP JUMPDEST DUP3 DUP1 SLOAD DUP3 DUP3 SSTORE SWAP1 PUSH0 MSTORE PUSH1 0x20 PUSH0 KECCAK256 SWAP1 DUP2 ADD SWAP3 DUP3 ISZERO PUSH2 0x4D1 JUMPI SWAP2 PUSH1 0x20 MUL DUP3 ADD JUMPDEST DUP3 DUP2 GT ISZERO PUSH2 0x4D0 JUMPI DUP3 MLOAD DUP3 PUSH0 PUSH2 0x100 EXP DUP2 SLOAD DUP2 PUSH20 0xFFFFFFFFFFFFFFFFFFFFFFFFFFFFFFFFFFFFFFFF MUL NOT AND SWAP1 DUP4 PUSH20 0xFFFFFFFFFFFFFFFFFFFFFFFFFFFFFFFFFFFFFFFF AND MUL OR SWAP1 SSTORE POP SWAP2 PUSH1 0x20 ADD SWAP2 SWAP1 PUSH1 0x1 ADD SWAP1 PUSH2 0x479 JUMP JUMPDEST JUMPDEST POP SWAP1 POP PUSH2 0x4DE SWAP2 SWAP1 PUSH2 0x4E2 JUMP JUMPDEST POP SWAP1 JUMP JUMPDEST JUMPDEST DUP1 DUP3 GT ISZERO PUSH2 0x4F9 JUMPI PUSH0 DUP2 PUSH0 SWAP1 SSTORE POP PUSH1 0x1 ADD PUSH2 0x4E3 JUMP JUMPDEST POP SWAP1 JUMP JUMPDEST PUSH0 PUSH20 0xFFFFFFFFFFFFFFFFFFFFFFFFFFFFFFFFFFFFFFFF DUP3 AND SWAP1 POP SWAP2 SWAP1 POP JUMP JUMPDEST PUSH0 PUSH2 0x526 DUP3 PUSH2 0x4FD JUMP JUMPDEST SWAP1 POP SWAP2 SWAP1 POP JUMP JUMPDEST PUSH2 0x536 DUP2 PUSH2 0x51C JUMP JUMPDEST DUP3 MSTORE POP POP JUMP JUMPDEST PUSH0 PUSH1 0x20 DUP3 ADD SWAP1 POP PUSH2 0x54F PUSH0 DUP4 ADD DUP5 PUSH2 0x52D JUMP JUMPDEST SWAP3 SWAP2 POP POP JUMP JUMPDEST PUSH0 DUP3 DUP3 MSTORE PUSH1 0x20 DUP3 ADD SWAP1 POP SWAP3 SWAP2 POP POP JUMP JUMPDEST PUSH32 0x596F7520617265206E6F7420746865204D616E61676572000000000000000000 PUSH0 DUP3 ADD MSTORE POP JUMP JUMPDEST PUSH0 PUSH2 0x599 PUSH1 0x17 DUP4 PUSH2 0x555 JUMP JUMPDEST SWAP2 POP PUSH2 0x5A4 DUP3 PUSH2 0x565 JUMP JUMPDEST PUSH1 0x20 DUP3 ADD SWAP1 POP SWAP2 SWAP1 POP JUMP JUMPDEST PUSH0 PUSH1 0x20 DUP3 ADD SWAP1 POP DUP2 DUP2 SUB PUSH0 DUP4 ADD MSTORE PUSH2 0x5C6 DUP2 PUSH2 0x58D JUMP JUMPDEST SWAP1 POP SWAP2 SWAP1 POP JUMP JUMPDEST PUSH32 0x54686520506C617965727320617265206C657373207468616E20330000000000 PUSH0 DUP3 ADD MSTORE POP JUMP JUMPDEST PUSH0 PUSH2 0x601 PUSH1 0x1B DUP4 PUSH2 0x555 JUMP JUMPDEST SWAP2 POP PUSH2 0x60C DUP3 PUSH2 0x5CD JUMP JUMPDEST PUSH1 0x20 DUP3 ADD SWAP1 POP SWAP2 SWAP1 POP JUMP JUMPDEST PUSH0 PUSH1 0x20 DUP3 ADD SWAP1 POP DUP2 DUP2 SUB PUSH0 DUP4 ADD MSTORE PUSH2 0x62E DUP2 PUSH2 0x5F5 JUMP JUMPDEST SWAP1 POP SWAP2 SWAP1 POP JUMP JUMPDEST PUSH0 DUP2 SWAP1 POP SWAP2 SWAP1 POP JUMP JUMPDEST PUSH32 0x4E487B7100000000000000000000000000000000000000000000000000000000 PUSH0 MSTORE PUSH1 0x12 PUSH1 0x4 MSTORE PUSH1 0x24 PUSH0 REVERT JUMPDEST PUSH0 PUSH2 0x675 DUP3 PUSH2 0x635 JUMP JUMPDEST SWAP2 POP PUSH2 0x680 DUP4 PUSH2 0x635 JUMP JUMPDEST SWAP3 POP DUP3 PUSH2 0x690 JUMPI PUSH2 0x68F PUSH2 0x63E JUMP JUMPDEST JUMPDEST DUP3 DUP3 MOD SWAP1 POP SWAP3 SWAP2 POP POP JUMP JUMPDEST PUSH32 0x4E487B7100000000000000000000000000000000000000000000000000000000 PUSH0 MSTORE PUSH1 0x32 PUSH1 0x4 MSTORE PUSH1 0x24 PUSH0 REVERT JUMPDEST PUSH32 0x4E487B7100000000000000000000000000000000000000000000000000000000 PUSH0 MSTORE PUSH1 0x41 PUSH1 0x4 MSTORE PUSH1 0x24 PUSH0 REVERT JUMPDEST PUSH32 0x506C6561736520506179203120457468657220746F2070617274696369706174 PUSH0 DUP3 ADD MSTORE PUSH32 0x6500000000000000000000000000000000000000000000000000000000000000 PUSH1 0x20 DUP3 ADD MSTORE POP JUMP JUMPDEST PUSH0 PUSH2 0x74F PUSH1 0x21 DUP4 PUSH2 0x555 JUMP JUMPDEST SWAP2 POP PUSH2 0x75A DUP3 PUSH2 0x6F5 JUMP JUMPDEST PUSH1 0x40 DUP3 ADD SWAP1 POP SWAP2 SWAP1 POP JUMP JUMPDEST PUSH0 PUSH1 0x20 DUP3 ADD SWAP1 POP DUP2 DUP2 SUB PUSH0 DUP4 ADD MSTORE PUSH2 0x77C DUP2 PUSH2 0x743 JUMP JUMPDEST SWAP1 POP SWAP2 SWAP1 POP JUMP JUMPDEST PUSH0 DUP2 SWAP1 POP SWAP2 SWAP1 POP JUMP JUMPDEST PUSH2 0x79D PUSH2 0x798 DUP3 PUSH2 0x635 JUMP JUMPDEST PUSH2 0x783 JUMP JUMPDEST DUP3 MSTORE POP POP JUMP JUMPDEST PUSH0 PUSH2 0x7AE DUP3 DUP7 PUSH2 0x78C JUMP JUMPDEST PUSH1 0x20 DUP3 ADD SWAP2 POP PUSH2 0x7BE DUP3 DUP6 PUSH2 0x78C JUMP JUMPDEST PUSH1 0x20 DUP3 ADD SWAP2 POP PUSH2 0x7CE DUP3 DUP5 PUSH2 0x78C JUMP JUMPDEST PUSH1 0x20 DUP3 ADD SWAP2 POP DUP2 SWAP1 POP SWAP5 SWAP4 POP POP POP POP JUMP JUMPDEST PUSH32 0x596F7520617265206E6F7420746865206D616E61676572000000000000000000 PUSH0 DUP3 ADD MSTORE POP JUMP JUMPDEST PUSH0 PUSH2 0x813 PUSH1 0x17 DUP4 PUSH2 0x555 JUMP JUMPDEST SWAP2 POP PUSH2 0x81E DUP3 PUSH2 0x7DF JUMP JUMPDEST PUSH1 0x20 DUP3 ADD SWAP1 POP SWAP2 SWAP1 POP JUMP JUMPDEST PUSH0 PUSH1 0x20 DUP3 ADD SWAP1 POP DUP2 DUP2 SUB PUSH0 DUP4 ADD MSTORE PUSH2 0x840 DUP2 PUSH2 0x807 JUMP JUMPDEST SWAP1 POP SWAP2 SWAP1 POP JUMP INVALID LOG2 PUSH5 0x6970667358 0x22 SLT KECCAK256 0xC7 0xD7 AND PUSH26 0x491F5E75C52A6EF2ED527CA574070BF0838D3BD82B612139BFDC 0xFB CALLDATALOAD PUSH5 0x736F6C6343 STOP ADDMOD AND STOP CALLER "
				},
				"gasEstimates": {
					"creation": {
						"codeDepositCost": "434600",
						"executionCost": "24731",
						"totalCost": "459331"
					},
					"external": {
						"manager()": "2483",
						"participate()": "48738",
						"pickWinner()": "infinite"
					},
					"internal": {
						"getBalance()": "infinite",
						"random()": "infinite"
					}
				},
				"methodIdentifiers": {
					"manager()": "481c6a75",
					"participate()": "d11711a2",
					"pickWinner()": "5d495aea"
				}
			},
			"storageLayout": {
				"storage": [
					{
						"astId": 3,
						"contract": "contracts/projects/5_lottery.sol:Lottery",
						"label": "manager",
						"offset": 0,
						"slot": "0",
						"type": "t_address"
					},
					{
						"astId": 6,
						"contract": "contracts/projects/5_lottery.sol:Lottery",
						"label": "players",
						"offset": 0,
						"slot": "1",
						"type": "t_array(t_address_payable)dyn_storage"
					},
					{
						"astId": 8,
						"contract": "contracts/projects/5_lottery.sol:Lottery",
						"label": "winner",
						"offset": 0,
						"slot": "2",
						"type": "t_address_payable"
					}
				],
				"types": {
					"t_address": {
						"encoding": "inplace",
						"label": "address",
						"numberOfBytes": "20"
					},
					"t_address_payable": {
						"encoding": "inplace",
						"label": "address payable",
						"numberOfBytes": "20"
					},
					"t_array(t_address_payable)dyn_storage": {
						"base": "t_address_payable",
						"encoding": "dynamic_array",
						"label": "address payable[]",
						"numberOfBytes": "32"
					}
				}
			},
			"userdoc": {
				"kind": "user",
				"methods": {},
				"version": 1
			}
		}
	}
}