{
	"contracts/projects/2_voting.sol": {
		"voting": {
			"abi": [
				{
					"inputs": [],
					"name": "age",
					"outputs": [
						{
							"internalType": "uint256",
							"name": "",
							"type": "uint256"
						}
					],
					"stateMutability": "view",
					"type": "function"
				},
				{
					"inputs": [],
					"name": "party1",
					"outputs": [],
					"stateMutability": "nonpayable",
					"type": "function"
				},
				{
					"inputs": [],
					"name": "party2",
					"outputs": [],
					"stateMutability": "nonpayable",
					"type": "function"
				},
				{
					"inputs": [
						{
							"internalType": "uint256",
							"name": "_age",
							"type": "uint256"
						}
					],
					"name": "setter",
					"outputs": [],
					"stateMutability": "nonpayable",
					"type": "function"
				},
				{
					"inputs": [],
					"name": "winner",
					"outputs": [
						{
							"internalType": "string",
							"name": "",
							"type": "string"
						}
					],
					"stateMutability": "view",
					"type": "function"
				}
			],
			"devdoc": {
				"kind": "dev",
				"methods": {},
				"version": 1
			},
			"evm": {
				"assembly": "    /* \"contracts/projects/2_voting.sol\":76:818  contract voting {... */\n  mstore(0x40, 0x80)\n  callvalue\n  dup1\n  iszero\n  tag_1\n  jumpi\n  0x00\n  dup1\n  revert\ntag_1:\n  pop\n  dataSize(sub_0)\n  dup1\n  dataOffset(sub_0)\n  0x00\n  codecopy\n  0x00\n  return\nstop\n\nsub_0: assembly {\n        /* \"contracts/projects/2_voting.sol\":76:818  contract voting {... */\n      mstore(0x40, 0x80)\n      callvalue\n      dup1\n      iszero\n      tag_1\n      jumpi\n      0x00\n      dup1\n      revert\n    tag_1:\n      pop\n      jumpi(tag_2, lt(calldatasize, 0x04))\n      shr(0xe0, calldataload(0x00))\n      dup1\n      0x2561deff\n      eq\n      tag_3\n      jumpi\n      dup1\n      0x262a9dff\n      eq\n      tag_4\n      jumpi\n      dup1\n      0x2d902021\n      eq\n      tag_5\n      jumpi\n      dup1\n      0xd423740b\n      eq\n      tag_6\n      jumpi\n      dup1\n      0xdfbf53ae\n      eq\n      tag_7\n      jumpi\n    tag_2:\n      0x00\n      dup1\n      revert\n        /* \"contracts/projects/2_voting.sol\":334:447  function party1() public {... */\n    tag_3:\n      tag_8\n      tag_9\n      jump\t// in\n    tag_8:\n      stop\n        /* \"contracts/projects/2_voting.sol\":99:114  uint public age */\n    tag_4:\n      tag_10\n      tag_11\n      jump\t// in\n    tag_10:\n      mload(0x40)\n      tag_12\n      swap2\n      swap1\n      tag_13\n      jump\t// in\n    tag_12:\n      mload(0x40)\n      dup1\n      swap2\n      sub\n      swap1\n      return\n        /* \"contracts/projects/2_voting.sol\":455:568  function party2() public {... */\n    tag_5:\n      tag_14\n      tag_15\n      jump\t// in\n    tag_14:\n      stop\n        /* \"contracts/projects/2_voting.sol\":186:249  function setter(uint _age) public {... */\n    tag_6:\n      tag_16\n      0x04\n      dup1\n      calldatasize\n      sub\n      dup2\n      add\n      swap1\n      tag_17\n      swap2\n      swap1\n      tag_18\n      jump\t// in\n    tag_17:\n      tag_19\n      jump\t// in\n    tag_16:\n      stop\n        /* \"contracts/projects/2_voting.sol\":576:815  function winner() public view returns (string memory) {... */\n    tag_7:\n      tag_20\n      tag_21\n      jump\t// in\n    tag_20:\n      mload(0x40)\n      tag_22\n      swap2\n      swap1\n      tag_23\n      jump\t// in\n    tag_22:\n      mload(0x40)\n      dup1\n      swap2\n      sub\n      swap1\n      return\n        /* \"contracts/projects/2_voting.sol\":334:447  function party1() public {... */\n    tag_9:\n        /* \"contracts/projects/2_voting.sol\":385:387  18 */\n      0x12\n        /* \"contracts/projects/2_voting.sol\":378:381  age */\n      sload(0x00)\n        /* \"contracts/projects/2_voting.sol\":378:387  age >= 18 */\n      lt\n      iszero\n        /* \"contracts/projects/2_voting.sol\":370:412  require(age >= 18, \"Not Eligible to vote\") */\n      tag_25\n      jumpi\n      mload(0x40)\n      0x08c379a000000000000000000000000000000000000000000000000000000000\n      dup2\n      mstore\n      0x04\n      add\n      tag_26\n      swap1\n      tag_27\n      jump\t// in\n    tag_26:\n      mload(0x40)\n      dup1\n      swap2\n      sub\n      swap1\n      revert\n    tag_25:\n        /* \"contracts/projects/2_voting.sol\":438:439  1 */\n      0x01\n        /* \"contracts/projects/2_voting.sol\":423:434  party1Count */\n      dup1\n      0x00\n        /* \"contracts/projects/2_voting.sol\":423:439  party1Count += 1 */\n      dup3\n      dup3\n      sload\n      tag_28\n      swap2\n      swap1\n      tag_29\n      jump\t// in\n    tag_28:\n      swap3\n      pop\n      pop\n      dup2\n      swap1\n      sstore\n      pop\n        /* \"contracts/projects/2_voting.sol\":334:447  function party1() public {... */\n      jump\t// out\n        /* \"contracts/projects/2_voting.sol\":99:114  uint public age */\n    tag_11:\n      sload(0x00)\n      dup2\n      jump\t// out\n        /* \"contracts/projects/2_voting.sol\":455:568  function party2() public {... */\n    tag_15:\n        /* \"contracts/projects/2_voting.sol\":506:508  18 */\n      0x12\n        /* \"contracts/projects/2_voting.sol\":499:502  age */\n      sload(0x00)\n        /* \"contracts/projects/2_voting.sol\":499:508  age >= 18 */\n      lt\n      iszero\n        /* \"contracts/projects/2_voting.sol\":491:533  require(age >= 18, \"Not Eligible to vote\") */\n      tag_31\n      jumpi\n      mload(0x40)\n      0x08c379a000000000000000000000000000000000000000000000000000000000\n      dup2\n      mstore\n      0x04\n      add\n      tag_32\n      swap1\n      tag_27\n      jump\t// in\n    tag_32:\n      mload(0x40)\n      dup1\n      swap2\n      sub\n      swap1\n      revert\n    tag_31:\n        /* \"contracts/projects/2_voting.sol\":559:560  1 */\n      0x01\n        /* \"contracts/projects/2_voting.sol\":544:555  party2Count */\n      0x02\n      0x00\n        /* \"contracts/projects/2_voting.sol\":544:560  party2Count += 1 */\n      dup3\n      dup3\n      sload\n      tag_33\n      swap2\n      swap1\n      tag_29\n      jump\t// in\n    tag_33:\n      swap3\n      pop\n      pop\n      dup2\n      swap1\n      sstore\n      pop\n        /* \"contracts/projects/2_voting.sol\":455:568  function party2() public {... */\n      jump\t// out\n        /* \"contracts/projects/2_voting.sol\":186:249  function setter(uint _age) public {... */\n    tag_19:\n        /* \"contracts/projects/2_voting.sol\":237:241  _age */\n      dup1\n        /* \"contracts/projects/2_voting.sol\":231:234  age */\n      0x00\n        /* \"contracts/projects/2_voting.sol\":231:241  age = _age */\n      dup2\n      swap1\n      sstore\n      pop\n        /* \"contracts/projects/2_voting.sol\":186:249  function setter(uint _age) public {... */\n      pop\n      jump\t// out\n        /* \"contracts/projects/2_voting.sol\":576:815  function winner() public view returns (string memory) {... */\n    tag_21:\n        /* \"contracts/projects/2_voting.sol\":615:628  string memory */\n      0x60\n        /* \"contracts/projects/2_voting.sol\":659:670  party2Count */\n      sload(0x02)\n        /* \"contracts/projects/2_voting.sol\":645:656  party1Count */\n      sload(0x01)\n        /* \"contracts/projects/2_voting.sol\":645:670  party1Count > party2Count */\n      gt\n        /* \"contracts/projects/2_voting.sol\":641:808  if (party1Count > party2Count) {... */\n      iszero\n      tag_36\n      jumpi\n        /* \"contracts/projects/2_voting.sol\":687:724  return \"Party 1 was won the election\" */\n      mload(0x40)\n      dup1\n      0x40\n      add\n      0x40\n      mstore\n      dup1\n      0x1c\n      dup2\n      mstore\n      0x20\n      add\n      0x506172747920312077617320776f6e2074686520656c656374696f6e00000000\n      dup2\n      mstore\n      pop\n      swap1\n      pop\n      jump(tag_35)\n        /* \"contracts/projects/2_voting.sol\":641:808  if (party1Count > party2Count) {... */\n    tag_36:\n        /* \"contracts/projects/2_voting.sol\":759:796  return \"Party 2 was won the election\" */\n      mload(0x40)\n      dup1\n      0x40\n      add\n      0x40\n      mstore\n      dup1\n      0x1c\n      dup2\n      mstore\n      0x20\n      add\n      0x506172747920322077617320776f6e2074686520656c656374696f6e00000000\n      dup2\n      mstore\n      pop\n      swap1\n      pop\n        /* \"contracts/projects/2_voting.sol\":576:815  function winner() public view returns (string memory) {... */\n    tag_35:\n      swap1\n      jump\t// out\n        /* \"#utility.yul\":7:84   */\n    tag_38:\n        /* \"#utility.yul\":44:51   */\n      0x00\n        /* \"#utility.yul\":73:78   */\n      dup2\n        /* \"#utility.yul\":62:78   */\n      swap1\n      pop\n        /* \"#utility.yul\":7:84   */\n      swap2\n      swap1\n      pop\n      jump\t// out\n        /* \"#utility.yul\":90:208   */\n    tag_39:\n        /* \"#utility.yul\":177:201   */\n      tag_56\n        /* \"#utility.yul\":195:200   */\n      dup2\n        /* \"#utility.yul\":177:201   */\n      tag_38\n      jump\t// in\n    tag_56:\n        /* \"#utility.yul\":172:175   */\n      dup3\n        /* \"#utility.yul\":165:202   */\n      mstore\n        /* \"#utility.yul\":90:208   */\n      pop\n      pop\n      jump\t// out\n        /* \"#utility.yul\":214:436   */\n    tag_13:\n        /* \"#utility.yul\":307:311   */\n      0x00\n        /* \"#utility.yul\":345:347   */\n      0x20\n        /* \"#utility.yul\":334:343   */\n      dup3\n        /* \"#utility.yul\":330:348   */\n      add\n        /* \"#utility.yul\":322:348   */\n      swap1\n      pop\n        /* \"#utility.yul\":358:429   */\n      tag_58\n        /* \"#utility.yul\":426:427   */\n      0x00\n        /* \"#utility.yul\":415:424   */\n      dup4\n        /* \"#utility.yul\":411:428   */\n      add\n        /* \"#utility.yul\":402:408   */\n      dup5\n        /* \"#utility.yul\":358:429   */\n      tag_39\n      jump\t// in\n    tag_58:\n        /* \"#utility.yul\":214:436   */\n      swap3\n      swap2\n      pop\n      pop\n      jump\t// out\n        /* \"#utility.yul\":523:640   */\n    tag_41:\n        /* \"#utility.yul\":632:633   */\n      0x00\n        /* \"#utility.yul\":629:630   */\n      dup1\n        /* \"#utility.yul\":622:634   */\n      revert\n        /* \"#utility.yul\":769:891   */\n    tag_43:\n        /* \"#utility.yul\":842:866   */\n      tag_63\n        /* \"#utility.yul\":860:865   */\n      dup2\n        /* \"#utility.yul\":842:866   */\n      tag_38\n      jump\t// in\n    tag_63:\n        /* \"#utility.yul\":835:840   */\n      dup2\n        /* \"#utility.yul\":832:867   */\n      eq\n        /* \"#utility.yul\":822:885   */\n      tag_64\n      jumpi\n        /* \"#utility.yul\":881:882   */\n      0x00\n        /* \"#utility.yul\":878:879   */\n      dup1\n        /* \"#utility.yul\":871:883   */\n      revert\n        /* \"#utility.yul\":822:885   */\n    tag_64:\n        /* \"#utility.yul\":769:891   */\n      pop\n      jump\t// out\n        /* \"#utility.yul\":897:1036   */\n    tag_44:\n        /* \"#utility.yul\":943:948   */\n      0x00\n        /* \"#utility.yul\":981:987   */\n      dup2\n        /* \"#utility.yul\":968:988   */\n      calldataload\n        /* \"#utility.yul\":959:988   */\n      swap1\n      pop\n        /* \"#utility.yul\":997:1030   */\n      tag_66\n        /* \"#utility.yul\":1024:1029   */\n      dup2\n        /* \"#utility.yul\":997:1030   */\n      tag_43\n      jump\t// in\n    tag_66:\n        /* \"#utility.yul\":897:1036   */\n      swap3\n      swap2\n      pop\n      pop\n      jump\t// out\n        /* \"#utility.yul\":1042:1371   */\n    tag_18:\n        /* \"#utility.yul\":1101:1107   */\n      0x00\n        /* \"#utility.yul\":1150:1152   */\n      0x20\n        /* \"#utility.yul\":1138:1147   */\n      dup3\n        /* \"#utility.yul\":1129:1136   */\n      dup5\n        /* \"#utility.yul\":1125:1148   */\n      sub\n        /* \"#utility.yul\":1121:1153   */\n      slt\n        /* \"#utility.yul\":1118:1237   */\n      iszero\n      tag_68\n      jumpi\n        /* \"#utility.yul\":1156:1235   */\n      tag_69\n      tag_41\n      jump\t// in\n    tag_69:\n        /* \"#utility.yul\":1118:1237   */\n    tag_68:\n        /* \"#utility.yul\":1276:1277   */\n      0x00\n        /* \"#utility.yul\":1301:1354   */\n      tag_70\n        /* \"#utility.yul\":1346:1353   */\n      dup5\n        /* \"#utility.yul\":1337:1343   */\n      dup3\n        /* \"#utility.yul\":1326:1335   */\n      dup6\n        /* \"#utility.yul\":1322:1344   */\n      add\n        /* \"#utility.yul\":1301:1354   */\n      tag_44\n      jump\t// in\n    tag_70:\n        /* \"#utility.yul\":1291:1354   */\n      swap2\n      pop\n        /* \"#utility.yul\":1247:1364   */\n      pop\n        /* \"#utility.yul\":1042:1371   */\n      swap3\n      swap2\n      pop\n      pop\n      jump\t// out\n        /* \"#utility.yul\":1377:1476   */\n    tag_45:\n        /* \"#utility.yul\":1429:1435   */\n      0x00\n        /* \"#utility.yul\":1463:1468   */\n      dup2\n        /* \"#utility.yul\":1457:1469   */\n      mload\n        /* \"#utility.yul\":1447:1469   */\n      swap1\n      pop\n        /* \"#utility.yul\":1377:1476   */\n      swap2\n      swap1\n      pop\n      jump\t// out\n        /* \"#utility.yul\":1482:1651   */\n    tag_46:\n        /* \"#utility.yul\":1566:1577   */\n      0x00\n        /* \"#utility.yul\":1600:1606   */\n      dup3\n        /* \"#utility.yul\":1595:1598   */\n      dup3\n        /* \"#utility.yul\":1588:1607   */\n      mstore\n        /* \"#utility.yul\":1640:1644   */\n      0x20\n        /* \"#utility.yul\":1635:1638   */\n      dup3\n        /* \"#utility.yul\":1631:1645   */\n      add\n        /* \"#utility.yul\":1616:1645   */\n      swap1\n      pop\n        /* \"#utility.yul\":1482:1651   */\n      swap3\n      swap2\n      pop\n      pop\n      jump\t// out\n        /* \"#utility.yul\":1657:1903   */\n    tag_47:\n        /* \"#utility.yul\":1738:1739   */\n      0x00\n        /* \"#utility.yul\":1748:1861   */\n    tag_74:\n        /* \"#utility.yul\":1762:1768   */\n      dup4\n        /* \"#utility.yul\":1759:1760   */\n      dup2\n        /* \"#utility.yul\":1756:1769   */\n      lt\n        /* \"#utility.yul\":1748:1861   */\n      iszero\n      tag_76\n      jumpi\n        /* \"#utility.yul\":1847:1848   */\n      dup1\n        /* \"#utility.yul\":1842:1845   */\n      dup3\n        /* \"#utility.yul\":1838:1849   */\n      add\n        /* \"#utility.yul\":1832:1850   */\n      mload\n        /* \"#utility.yul\":1828:1829   */\n      dup2\n        /* \"#utility.yul\":1823:1826   */\n      dup5\n        /* \"#utility.yul\":1819:1830   */\n      add\n        /* \"#utility.yul\":1812:1851   */\n      mstore\n        /* \"#utility.yul\":1784:1786   */\n      0x20\n        /* \"#utility.yul\":1781:1782   */\n      dup2\n        /* \"#utility.yul\":1777:1787   */\n      add\n        /* \"#utility.yul\":1772:1787   */\n      swap1\n      pop\n        /* \"#utility.yul\":1748:1861   */\n      jump(tag_74)\n    tag_76:\n        /* \"#utility.yul\":1895:1896   */\n      0x00\n        /* \"#utility.yul\":1886:1892   */\n      dup5\n        /* \"#utility.yul\":1881:1884   */\n      dup5\n        /* \"#utility.yul\":1877:1893   */\n      add\n        /* \"#utility.yul\":1870:1897   */\n      mstore\n        /* \"#utility.yul\":1719:1903   */\n      pop\n        /* \"#utility.yul\":1657:1903   */\n      pop\n      pop\n      pop\n      jump\t// out\n        /* \"#utility.yul\":1909:2011   */\n    tag_48:\n        /* \"#utility.yul\":1950:1956   */\n      0x00\n        /* \"#utility.yul\":2001:2003   */\n      0x1f\n        /* \"#utility.yul\":1997:2004   */\n      not\n        /* \"#utility.yul\":1992:1994   */\n      0x1f\n        /* \"#utility.yul\":1985:1990   */\n      dup4\n        /* \"#utility.yul\":1981:1995   */\n      add\n        /* \"#utility.yul\":1977:2005   */\n      and\n        /* \"#utility.yul\":1967:2005   */\n      swap1\n      pop\n        /* \"#utility.yul\":1909:2011   */\n      swap2\n      swap1\n      pop\n      jump\t// out\n        /* \"#utility.yul\":2017:2394   */\n    tag_49:\n        /* \"#utility.yul\":2105:2108   */\n      0x00\n        /* \"#utility.yul\":2133:2172   */\n      tag_79\n        /* \"#utility.yul\":2166:2171   */\n      dup3\n        /* \"#utility.yul\":2133:2172   */\n      tag_45\n      jump\t// in\n    tag_79:\n        /* \"#utility.yul\":2188:2259   */\n      tag_80\n        /* \"#utility.yul\":2252:2258   */\n      dup2\n        /* \"#utility.yul\":2247:2250   */\n      dup6\n        /* \"#utility.yul\":2188:2259   */\n      tag_46\n      jump\t// in\n    tag_80:\n        /* \"#utility.yul\":2181:2259   */\n      swap4\n      pop\n        /* \"#utility.yul\":2268:2333   */\n      tag_81\n        /* \"#utility.yul\":2326:2332   */\n      dup2\n        /* \"#utility.yul\":2321:2324   */\n      dup6\n        /* \"#utility.yul\":2314:2318   */\n      0x20\n        /* \"#utility.yul\":2307:2312   */\n      dup7\n        /* \"#utility.yul\":2303:2319   */\n      add\n        /* \"#utility.yul\":2268:2333   */\n      tag_47\n      jump\t// in\n    tag_81:\n        /* \"#utility.yul\":2358:2387   */\n      tag_82\n        /* \"#utility.yul\":2380:2386   */\n      dup2\n        /* \"#utility.yul\":2358:2387   */\n      tag_48\n      jump\t// in\n    tag_82:\n        /* \"#utility.yul\":2353:2356   */\n      dup5\n        /* \"#utility.yul\":2349:2388   */\n      add\n        /* \"#utility.yul\":2342:2388   */\n      swap2\n      pop\n        /* \"#utility.yul\":2109:2394   */\n      pop\n        /* \"#utility.yul\":2017:2394   */\n      swap3\n      swap2\n      pop\n      pop\n      jump\t// out\n        /* \"#utility.yul\":2400:2713   */\n    tag_23:\n        /* \"#utility.yul\":2513:2517   */\n      0x00\n        /* \"#utility.yul\":2551:2553   */\n      0x20\n        /* \"#utility.yul\":2540:2549   */\n      dup3\n        /* \"#utility.yul\":2536:2554   */\n      add\n        /* \"#utility.yul\":2528:2554   */\n      swap1\n      pop\n        /* \"#utility.yul\":2600:2609   */\n      dup2\n        /* \"#utility.yul\":2594:2598   */\n      dup2\n        /* \"#utility.yul\":2590:2610   */\n      sub\n        /* \"#utility.yul\":2586:2587   */\n      0x00\n        /* \"#utility.yul\":2575:2584   */\n      dup4\n        /* \"#utility.yul\":2571:2588   */\n      add\n        /* \"#utility.yul\":2564:2611   */\n      mstore\n        /* \"#utility.yul\":2628:2706   */\n      tag_84\n        /* \"#utility.yul\":2701:2705   */\n      dup2\n        /* \"#utility.yul\":2692:2698   */\n      dup5\n        /* \"#utility.yul\":2628:2706   */\n      tag_49\n      jump\t// in\n    tag_84:\n        /* \"#utility.yul\":2620:2706   */\n      swap1\n      pop\n        /* \"#utility.yul\":2400:2713   */\n      swap3\n      swap2\n      pop\n      pop\n      jump\t// out\n        /* \"#utility.yul\":2719:2889   */\n    tag_50:\n        /* \"#utility.yul\":2859:2881   */\n      0x4e6f7420456c696769626c6520746f20766f7465000000000000000000000000\n        /* \"#utility.yul\":2855:2856   */\n      0x00\n        /* \"#utility.yul\":2847:2853   */\n      dup3\n        /* \"#utility.yul\":2843:2857   */\n      add\n        /* \"#utility.yul\":2836:2882   */\n      mstore\n        /* \"#utility.yul\":2719:2889   */\n      pop\n      jump\t// out\n        /* \"#utility.yul\":2895:3261   */\n    tag_51:\n        /* \"#utility.yul\":3037:3040   */\n      0x00\n        /* \"#utility.yul\":3058:3125   */\n      tag_87\n        /* \"#utility.yul\":3122:3124   */\n      0x14\n        /* \"#utility.yul\":3117:3120   */\n      dup4\n        /* \"#utility.yul\":3058:3125   */\n      tag_46\n      jump\t// in\n    tag_87:\n        /* \"#utility.yul\":3051:3125   */\n      swap2\n      pop\n        /* \"#utility.yul\":3134:3227   */\n      tag_88\n        /* \"#utility.yul\":3223:3226   */\n      dup3\n        /* \"#utility.yul\":3134:3227   */\n      tag_50\n      jump\t// in\n    tag_88:\n        /* \"#utility.yul\":3252:3254   */\n      0x20\n        /* \"#utility.yul\":3247:3250   */\n      dup3\n        /* \"#utility.yul\":3243:3255   */\n      add\n        /* \"#utility.yul\":3236:3255   */\n      swap1\n      pop\n        /* \"#utility.yul\":2895:3261   */\n      swap2\n      swap1\n      pop\n      jump\t// out\n        /* \"#utility.yul\":3267:3686   */\n    tag_27:\n        /* \"#utility.yul\":3433:3437   */\n      0x00\n        /* \"#utility.yul\":3471:3473   */\n      0x20\n        /* \"#utility.yul\":3460:3469   */\n      dup3\n        /* \"#utility.yul\":3456:3474   */\n      add\n        /* \"#utility.yul\":3448:3474   */\n      swap1\n      pop\n        /* \"#utility.yul\":3520:3529   */\n      dup2\n        /* \"#utility.yul\":3514:3518   */\n      dup2\n        /* \"#utility.yul\":3510:3530   */\n      sub\n        /* \"#utility.yul\":3506:3507   */\n      0x00\n        /* \"#utility.yul\":3495:3504   */\n      dup4\n        /* \"#utility.yul\":3491:3508   */\n      add\n        /* \"#utility.yul\":3484:3531   */\n      mstore\n        /* \"#utility.yul\":3548:3679   */\n      tag_90\n        /* \"#utility.yul\":3674:3678   */\n      dup2\n        /* \"#utility.yul\":3548:3679   */\n      tag_51\n      jump\t// in\n    tag_90:\n        /* \"#utility.yul\":3540:3679   */\n      swap1\n      pop\n        /* \"#utility.yul\":3267:3686   */\n      swap2\n      swap1\n      pop\n      jump\t// out\n        /* \"#utility.yul\":3692:3872   */\n    tag_52:\n        /* \"#utility.yul\":3740:3817   */\n      0x4e487b7100000000000000000000000000000000000000000000000000000000\n        /* \"#utility.yul\":3737:3738   */\n      0x00\n        /* \"#utility.yul\":3730:3818   */\n      mstore\n        /* \"#utility.yul\":3837:3841   */\n      0x11\n        /* \"#utility.yul\":3834:3835   */\n      0x04\n        /* \"#utility.yul\":3827:3842   */\n      mstore\n        /* \"#utility.yul\":3861:3865   */\n      0x24\n        /* \"#utility.yul\":3858:3859   */\n      0x00\n        /* \"#utility.yul\":3851:3866   */\n      revert\n        /* \"#utility.yul\":3878:4069   */\n    tag_29:\n        /* \"#utility.yul\":3918:3921   */\n      0x00\n        /* \"#utility.yul\":3937:3957   */\n      tag_93\n        /* \"#utility.yul\":3955:3956   */\n      dup3\n        /* \"#utility.yul\":3937:3957   */\n      tag_38\n      jump\t// in\n    tag_93:\n        /* \"#utility.yul\":3932:3957   */\n      swap2\n      pop\n        /* \"#utility.yul\":3971:3991   */\n      tag_94\n        /* \"#utility.yul\":3989:3990   */\n      dup4\n        /* \"#utility.yul\":3971:3991   */\n      tag_38\n      jump\t// in\n    tag_94:\n        /* \"#utility.yul\":3966:3991   */\n      swap3\n      pop\n        /* \"#utility.yul\":4014:4015   */\n      dup3\n        /* \"#utility.yul\":4011:4012   */\n      dup3\n        /* \"#utility.yul\":4007:4016   */\n      add\n        /* \"#utility.yul\":4000:4016   */\n      swap1\n      pop\n        /* \"#utility.yul\":4035:4038   */\n      dup1\n        /* \"#utility.yul\":4032:4033   */\n      dup3\n        /* \"#utility.yul\":4029:4039   */\n      gt\n        /* \"#utility.yul\":4026:4062   */\n      iszero\n      tag_95\n      jumpi\n        /* \"#utility.yul\":4042:4060   */\n      tag_96\n      tag_52\n      jump\t// in\n    tag_96:\n        /* \"#utility.yul\":4026:4062   */\n    tag_95:\n        /* \"#utility.yul\":3878:4069   */\n      swap3\n      swap2\n      pop\n      pop\n      jump\t// out\n\n    auxdata: 0xa2646970667358221220334c9ea336f6e23471724c0d6cffd5475899de34ca9cfbeaf9357cc61dd68af864736f6c63430008120033\n}\n",
				"bytecode": {
					"linkReferences": {},
					"object": "608060405234801561001057600080fd5b5061046b806100206000396000f3fe608060405234801561001057600080fd5b50600436106100575760003560e01c80632561deff1461005c578063262a9dff146100665780632d90202114610084578063d423740b1461008e578063dfbf53ae146100aa575b600080fd5b6100646100c8565b005b61006e610129565b60405161007b919061023b565b60405180910390f35b61008c61012f565b005b6100a860048036038101906100a39190610287565b610191565b005b6100b261019b565b6040516100bf9190610344565b60405180910390f35b6012600054101561010e576040517f08c379a0000000000000000000000000000000000000000000000000000000008152600401610105906103b2565b60405180910390fd5b60018060008282546101209190610401565b92505081905550565b60005481565b60126000541015610175576040517f08c379a000000000000000000000000000000000000000000000000000000000815260040161016c906103b2565b60405180910390fd5b6001600260008282546101889190610401565b92505081905550565b8060008190555050565b606060025460015411156101e6576040518060400160405280601c81526020017f506172747920312077617320776f6e2074686520656c656374696f6e00000000815250905061021f565b6040518060400160405280601c81526020017f506172747920322077617320776f6e2074686520656c656374696f6e0000000081525090505b90565b6000819050919050565b61023581610222565b82525050565b6000602082019050610250600083018461022c565b92915050565b600080fd5b61026481610222565b811461026f57600080fd5b50565b6000813590506102818161025b565b92915050565b60006020828403121561029d5761029c610256565b5b60006102ab84828501610272565b91505092915050565b600081519050919050565b600082825260208201905092915050565b60005b838110156102ee5780820151818401526020810190506102d3565b60008484015250505050565b6000601f19601f8301169050919050565b6000610316826102b4565b61032081856102bf565b93506103308185602086016102d0565b610339816102fa565b840191505092915050565b6000602082019050818103600083015261035e818461030b565b905092915050565b7f4e6f7420456c696769626c6520746f20766f7465000000000000000000000000600082015250565b600061039c6014836102bf565b91506103a782610366565b602082019050919050565b600060208201905081810360008301526103cb8161038f565b9050919050565b7f4e487b7100000000000000000000000000000000000000000000000000000000600052601160045260246000fd5b600061040c82610222565b915061041783610222565b925082820190508082111561042f5761042e6103d2565b5b9291505056fea2646970667358221220334c9ea336f6e23471724c0d6cffd5475899de34ca9cfbeaf9357cc61dd68af864736f6c63430008120033",
					"opcodes": "PUSH1 0x80 PUSH1 0x40 MSTORE CALLVALUE DUP1 ISZERO PUSH2 0x10 JUMPI PUSH1 0x0 DUP1 REVERT JUMPDEST POP PUSH2 0x46B DUP1 PUSH2 0x20 PUSH1 0x0 CODECOPY PUSH1 0x0 RETURN INVALID PUSH1 0x80 PUSH1 0x40 MSTORE CALLVALUE DUP1 ISZERO PUSH2 0x10 JUMPI PUSH1 0x0 DUP1 REVERT JUMPDEST POP PUSH1 0x4 CALLDATASIZE LT PUSH2 0x57 JUMPI PUSH1 0x0 CALLDATALOAD PUSH1 0xE0 SHR DUP1 PUSH4 0x2561DEFF EQ PUSH2 0x5C JUMPI DUP1 PUSH4 0x262A9DFF EQ PUSH2 0x66 JUMPI DUP1 PUSH4 0x2D902021 EQ PUSH2 0x84 JUMPI DUP1 PUSH4 0xD423740B EQ PUSH2 0x8E JUMPI DUP1 PUSH4 0xDFBF53AE EQ PUSH2 0xAA JUMPI JUMPDEST PUSH1 0x0 DUP1 REVERT JUMPDEST PUSH2 0x64 PUSH2 0xC8 JUMP JUMPDEST STOP JUMPDEST PUSH2 0x6E PUSH2 0x129 JUMP JUMPDEST PUSH1 0x40 MLOAD PUSH2 0x7B SWAP2 SWAP1 PUSH2 0x23B JUMP JUMPDEST PUSH1 0x40 MLOAD DUP1 SWAP2 SUB SWAP1 RETURN JUMPDEST PUSH2 0x8C PUSH2 0x12F JUMP JUMPDEST STOP JUMPDEST PUSH2 0xA8 PUSH1 0x4 DUP1 CALLDATASIZE SUB DUP2 ADD SWAP1 PUSH2 0xA3 SWAP2 SWAP1 PUSH2 0x287 JUMP JUMPDEST PUSH2 0x191 JUMP JUMPDEST STOP JUMPDEST PUSH2 0xB2 PUSH2 0x19B JUMP JUMPDEST PUSH1 0x40 MLOAD PUSH2 0xBF SWAP2 SWAP1 PUSH2 0x344 JUMP JUMPDEST PUSH1 0x40 MLOAD DUP1 SWAP2 SUB SWAP1 RETURN JUMPDEST PUSH1 0x12 PUSH1 0x0 SLOAD LT ISZERO PUSH2 0x10E JUMPI PUSH1 0x40 MLOAD PUSH32 0x8C379A000000000000000000000000000000000000000000000000000000000 DUP2 MSTORE PUSH1 0x4 ADD PUSH2 0x105 SWAP1 PUSH2 0x3B2 JUMP JUMPDEST PUSH1 0x40 MLOAD DUP1 SWAP2 SUB SWAP1 REVERT JUMPDEST PUSH1 0x1 DUP1 PUSH1 0x0 DUP3 DUP3 SLOAD PUSH2 0x120 SWAP2 SWAP1 PUSH2 0x401 JUMP JUMPDEST SWAP3 POP POP DUP2 SWAP1 SSTORE POP JUMP JUMPDEST PUSH1 0x0 SLOAD DUP2 JUMP JUMPDEST PUSH1 0x12 PUSH1 0x0 SLOAD LT ISZERO PUSH2 0x175 JUMPI PUSH1 0x40 MLOAD PUSH32 0x8C379A000000000000000000000000000000000000000000000000000000000 DUP2 MSTORE PUSH1 0x4 ADD PUSH2 0x16C SWAP1 PUSH2 0x3B2 JUMP JUMPDEST PUSH1 0x40 MLOAD DUP1 SWAP2 SUB SWAP1 REVERT JUMPDEST PUSH1 0x1 PUSH1 0x2 PUSH1 0x0 DUP3 DUP3 SLOAD PUSH2 0x188 SWAP2 SWAP1 PUSH2 0x401 JUMP JUMPDEST SWAP3 POP POP DUP2 SWAP1 SSTORE POP JUMP JUMPDEST DUP1 PUSH1 0x0 DUP2 SWAP1 SSTORE POP POP JUMP JUMPDEST PUSH1 0x60 PUSH1 0x2 SLOAD PUSH1 0x1 SLOAD GT ISZERO PUSH2 0x1E6 JUMPI PUSH1 0x40 MLOAD DUP1 PUSH1 0x40 ADD PUSH1 0x40 MSTORE DUP1 PUSH1 0x1C DUP2 MSTORE PUSH1 0x20 ADD PUSH32 0x506172747920312077617320776F6E2074686520656C656374696F6E00000000 DUP2 MSTORE POP SWAP1 POP PUSH2 0x21F JUMP JUMPDEST PUSH1 0x40 MLOAD DUP1 PUSH1 0x40 ADD PUSH1 0x40 MSTORE DUP1 PUSH1 0x1C DUP2 MSTORE PUSH1 0x20 ADD PUSH32 0x506172747920322077617320776F6E2074686520656C656374696F6E00000000 DUP2 MSTORE POP SWAP1 POP JUMPDEST SWAP1 JUMP JUMPDEST PUSH1 0x0 DUP2 SWAP1 POP SWAP2 SWAP1 POP JUMP JUMPDEST PUSH2 0x235 DUP2 PUSH2 0x222 JUMP JUMPDEST DUP3 MSTORE POP POP JUMP JUMPDEST PUSH1 0x0 PUSH1 0x20 DUP3 ADD SWAP1 POP PUSH2 0x250 PUSH1 0x0 DUP4 ADD DUP5 PUSH2 0x22C JUMP JUMPDEST SWAP3 SWAP2 POP POP JUMP JUMPDEST PUSH1 0x0 DUP1 REVERT JUMPDEST PUSH2 0x264 DUP2 PUSH2 0x222 JUMP JUMPDEST DUP2 EQ PUSH2 0x26F JUMPI PUSH1 0x0 DUP1 REVERT JUMPDEST POP JUMP JUMPDEST PUSH1 0x0 DUP2 CALLDATALOAD SWAP1 POP PUSH2 0x281 DUP2 PUSH2 0x25B JUMP JUMPDEST SWAP3 SWAP2 POP POP JUMP JUMPDEST PUSH1 0x0 PUSH1 0x20 DUP3 DUP5 SUB SLT ISZERO PUSH2 0x29D JUMPI PUSH2 0x29C PUSH2 0x256 JUMP JUMPDEST JUMPDEST PUSH1 0x0 PUSH2 0x2AB DUP5 DUP3 DUP6 ADD PUSH2 0x272 JUMP JUMPDEST SWAP2 POP POP SWAP3 SWAP2 POP POP JUMP JUMPDEST PUSH1 0x0 DUP2 MLOAD SWAP1 POP SWAP2 SWAP1 POP JUMP JUMPDEST PUSH1 0x0 DUP3 DUP3 MSTORE PUSH1 0x20 DUP3 ADD SWAP1 POP SWAP3 SWAP2 POP POP JUMP JUMPDEST PUSH1 0x0 JUMPDEST DUP4 DUP2 LT ISZERO PUSH2 0x2EE JUMPI DUP1 DUP3 ADD MLOAD DUP2 DUP5 ADD MSTORE PUSH1 0x20 DUP2 ADD SWAP1 POP PUSH2 0x2D3 JUMP JUMPDEST PUSH1 0x0 DUP5 DUP5 ADD MSTORE POP POP POP POP JUMP JUMPDEST PUSH1 0x0 PUSH1 0x1F NOT PUSH1 0x1F DUP4 ADD AND SWAP1 POP SWAP2 SWAP1 POP JUMP JUMPDEST PUSH1 0x0 PUSH2 0x316 DUP3 PUSH2 0x2B4 JUMP JUMPDEST PUSH2 0x320 DUP2 DUP6 PUSH2 0x2BF JUMP JUMPDEST SWAP4 POP PUSH2 0x330 DUP2 DUP6 PUSH1 0x20 DUP7 ADD PUSH2 0x2D0 JUMP JUMPDEST PUSH2 0x339 DUP2 PUSH2 0x2FA JUMP JUMPDEST DUP5 ADD SWAP2 POP POP SWAP3 SWAP2 POP POP JUMP JUMPDEST PUSH1 0x0 PUSH1 0x20 DUP3 ADD SWAP1 POP DUP2 DUP2 SUB PUSH1 0x0 DUP4 ADD MSTORE PUSH2 0x35E DUP2 DUP5 PUSH2 0x30B JUMP JUMPDEST SWAP1 POP SWAP3 SWAP2 POP POP JUMP JUMPDEST PUSH32 0x4E6F7420456C696769626C6520746F20766F7465000000000000000000000000 PUSH1 0x0 DUP3 ADD MSTORE POP JUMP JUMPDEST PUSH1 0x0 PUSH2 0x39C PUSH1 0x14 DUP4 PUSH2 0x2BF JUMP JUMPDEST SWAP2 POP PUSH2 0x3A7 DUP3 PUSH2 0x366 JUMP JUMPDEST PUSH1 0x20 DUP3 ADD SWAP1 POP SWAP2 SWAP1 POP JUMP JUMPDEST PUSH1 0x0 PUSH1 0x20 DUP3 ADD SWAP1 POP DUP2 DUP2 SUB PUSH1 0x0 DUP4 ADD MSTORE PUSH2 0x3CB DUP2 PUSH2 0x38F JUMP JUMPDEST SWAP1 POP SWAP2 SWAP1 POP JUMP JUMPDEST PUSH32 0x4E487B7100000000000000000000000000000000000000000000000000000000 PUSH1 0x0 MSTORE PUSH1 0x11 PUSH1 0x4 MSTORE PUSH1 0x24 PUSH1 0x0 REVERT JUMPDEST PUSH1 0x0 PUSH2 0x40C DUP3 PUSH2 0x222 JUMP JUMPDEST SWAP2 POP PUSH2 0x417 DUP4 PUSH2 0x222 JUMP JUMPDEST SWAP3 POP DUP3 DUP3 ADD SWAP1 POP DUP1 DUP3 GT ISZERO PUSH2 0x42F JUMPI PUSH2 0x42E PUSH2 0x3D2 JUMP JUMPDEST JUMPDEST SWAP3 SWAP2 POP POP JUMP INVALID LOG2 PUSH5 0x6970667358 0x22 SLT KECCAK256 CALLER 0x4C SWAP15 LOG3 CALLDATASIZE 0xF6 0xE2 CALLVALUE PUSH18 0x724C0D6CFFD5475899DE34CA9CFBEAF9357C 0xC6 SAR 0xD6 DUP11 0xF8 PUSH5 0x736F6C6343 STOP ADDMOD SLT STOP CALLER "
				},
				"gasEstimates": {
					"creation": {
						"codeDepositCost": "226200",
						"executionCost": "269",
						"totalCost": "226469"
					},
					"external": {
						"age()": "2429",
						"party1()": "infinite",
						"party2()": "infinite",
						"setter(uint256)": "22564",
						"winner()": "infinite"
					}
				},
				"methodIdentifiers": {
					"age()": "262a9dff",
					"party1()": "2561deff",
					"party2()": "2d902021",
					"setter(uint256)": "d423740b",
					"winner()": "dfbf53ae"
				}
			},
			"storageLayout": {
				"storage": [
					{
						"astId": 3,
						"contract": "contracts/projects/2_voting.sol:voting",
						"label": "age",
						"offset": 0,
						"slot": "0",
						"type": "t_uint256"
					},
					{
						"astId": 5,
						"contract": "contracts/projects/2_voting.sol:voting",
						"label": "party1Count",
						"offset": 0,
						"slot": "1",
						"type": "t_uint256"
					},
					{
						"astId": 7,
						"contract": "contracts/projects/2_voting.sol:voting",
						"label": "party2Count",
						"offset": 0,
						"slot": "2",
						"type": "t_uint256"
					}
				],
				"types": {
					"t_uint256": {
						"encoding": "inplace",
						"label": "uint256",
						"numberOfBytes": "32"
					}
				}
			},
			"userdoc": {
				"kind": "user",
				"methods": {},
				"version": 1
			}
		}
	}
}