{
	"contracts/projects/4_todo.sol": {
		"todo": {
			"abi": [
				{
					"inputs": [
						{
							"internalType": "string",
							"name": "_newTodo",
							"type": "string"
						}
					],
					"name": "addTodo",
					"outputs": [
						{
							"internalType": "string[]",
							"name": "",
							"type": "string[]"
						}
					],
					"stateMutability": "nonpayable",
					"type": "function"
				},
				{
					"inputs": [
						{
							"internalType": "uint256",
							"name": "_index",
							"type": "uint256"
						}
					],
					"name": "delTodo",
					"outputs": [],
					"stateMutability": "nonpayable",
					"type": "function"
				},
				{
					"inputs": [],
					"name": "getTodo",
					"outputs": [
						{
							"internalType": "string[]",
							"name": "",
							"type": "string[]"
						}
					],
					"stateMutability": "view",
					"type": "function"
				}
			],
			"devdoc": {
				"kind": "dev",
				"methods": {},
				"version": 1
			},
			"evm": {
				"assembly": "    /* \"contracts/projects/4_todo.sol\":67:445  contract todo {... */\n  mstore(0x40, 0x80)\n  callvalue\n  dup1\n  iszero\n  tag_1\n  jumpi\n  0x00\n  dup1\n  revert\ntag_1:\n  pop\n  dataSize(sub_0)\n  dup1\n  dataOffset(sub_0)\n  0x00\n  codecopy\n  0x00\n  return\nstop\n\nsub_0: assembly {\n        /* \"contracts/projects/4_todo.sol\":67:445  contract todo {... */\n      mstore(0x40, 0x80)\n      callvalue\n      dup1\n      iszero\n      tag_1\n      jumpi\n      0x00\n      dup1\n      revert\n    tag_1:\n      pop\n      jumpi(tag_2, lt(calldatasize, 0x04))\n      shr(0xe0, calldataload(0x00))\n      dup1\n      0x5f21f8c2\n      eq\n      tag_3\n      jumpi\n      dup1\n      0x7fa1680a\n      eq\n      tag_4\n      jumpi\n      dup1\n      0x95ffebf5\n      eq\n      tag_5\n      jumpi\n    tag_2:\n      0x00\n      dup1\n      revert\n        /* \"contracts/projects/4_todo.sol\":364:442  function delTodo(uint _index) public {... */\n    tag_3:\n      tag_6\n      0x04\n      dup1\n      calldatasize\n      sub\n      dup2\n      add\n      swap1\n      tag_7\n      swap2\n      swap1\n      tag_8\n      jump\t// in\n    tag_7:\n      tag_9\n      jump\t// in\n    tag_6:\n      stop\n        /* \"contracts/projects/4_todo.sol\":266:356  function getTodo() public view returns (string[] memory) {... */\n    tag_4:\n      tag_10\n      tag_11\n      jump\t// in\n    tag_10:\n      mload(0x40)\n      tag_12\n      swap2\n      swap1\n      tag_13\n      jump\t// in\n    tag_12:\n      mload(0x40)\n      dup1\n      swap2\n      sub\n      swap1\n      return\n        /* \"contracts/projects/4_todo.sol\":117:258  function addTodo(string memory _newTodo) public returns (string[] memory)  {... */\n    tag_5:\n      tag_14\n      0x04\n      dup1\n      calldatasize\n      sub\n      dup2\n      add\n      swap1\n      tag_15\n      swap2\n      swap1\n      tag_16\n      jump\t// in\n    tag_15:\n      tag_17\n      jump\t// in\n    tag_14:\n      mload(0x40)\n      tag_18\n      swap2\n      swap1\n      tag_13\n      jump\t// in\n    tag_18:\n      mload(0x40)\n      dup1\n      swap2\n      sub\n      swap1\n      return\n        /* \"contracts/projects/4_todo.sol\":364:442  function delTodo(uint _index) public {... */\n    tag_9:\n        /* \"contracts/projects/4_todo.sol\":419:426  todoArr */\n      0x00\n        /* \"contracts/projects/4_todo.sol\":427:433  _index */\n      dup2\n        /* \"contracts/projects/4_todo.sol\":419:434  todoArr[_index] */\n      dup2\n      sload\n      dup2\n      lt\n      tag_20\n      jumpi\n      tag_21\n      tag_22\n      jump\t// in\n    tag_21:\n    tag_20:\n      swap1\n      0x00\n      mstore\n      keccak256(0x00, 0x20)\n      add\n      0x00\n        /* \"contracts/projects/4_todo.sol\":412:434  delete todoArr[_index] */\n      tag_24\n      swap2\n      swap1\n      tag_25\n      jump\t// in\n    tag_24:\n        /* \"contracts/projects/4_todo.sol\":364:442  function delTodo(uint _index) public {... */\n      pop\n      jump\t// out\n        /* \"contracts/projects/4_todo.sol\":266:356  function getTodo() public view returns (string[] memory) {... */\n    tag_11:\n        /* \"contracts/projects/4_todo.sol\":306:321  string[] memory */\n      0x60\n        /* \"contracts/projects/4_todo.sol\":341:348  todoArr */\n      0x00\n        /* \"contracts/projects/4_todo.sol\":334:348  return todoArr */\n      dup1\n      sload\n      dup1\n      0x20\n      mul\n      0x20\n      add\n      mload(0x40)\n      swap1\n      dup2\n      add\n      0x40\n      mstore\n      dup1\n      swap3\n      swap2\n      swap1\n      dup2\n      dup2\n      mstore\n      0x20\n      add\n      0x00\n      swap1\n    tag_27:\n      dup3\n      dup3\n      lt\n      iszero\n      tag_28\n      jumpi\n      dup4\n      dup3\n      swap1\n      0x00\n      mstore\n      keccak256(0x00, 0x20)\n      add\n      dup1\n      sload\n      tag_30\n      swap1\n      tag_31\n      jump\t// in\n    tag_30:\n      dup1\n      0x1f\n      add\n      0x20\n      dup1\n      swap2\n      div\n      mul\n      0x20\n      add\n      mload(0x40)\n      swap1\n      dup2\n      add\n      0x40\n      mstore\n      dup1\n      swap3\n      swap2\n      swap1\n      dup2\n      dup2\n      mstore\n      0x20\n      add\n      dup3\n      dup1\n      sload\n      tag_32\n      swap1\n      tag_31\n      jump\t// in\n    tag_32:\n      dup1\n      iszero\n      tag_33\n      jumpi\n      dup1\n      0x1f\n      lt\n      tag_34\n      jumpi\n      0x0100\n      dup1\n      dup4\n      sload\n      div\n      mul\n      dup4\n      mstore\n      swap2\n      0x20\n      add\n      swap2\n      jump(tag_33)\n    tag_34:\n      dup3\n      add\n      swap2\n      swap1\n      0x00\n      mstore\n      keccak256(0x00, 0x20)\n      swap1\n    tag_35:\n      dup2\n      sload\n      dup2\n      mstore\n      swap1\n      0x01\n      add\n      swap1\n      0x20\n      add\n      dup1\n      dup4\n      gt\n      tag_35\n      jumpi\n      dup3\n      swap1\n      sub\n      0x1f\n      and\n      dup3\n      add\n      swap2\n    tag_33:\n      pop\n      pop\n      pop\n      pop\n      pop\n      dup2\n      mstore\n      0x20\n      add\n      swap1\n      0x01\n      add\n      swap1\n      jump(tag_27)\n    tag_28:\n      pop\n      pop\n      pop\n      pop\n      swap1\n      pop\n        /* \"contracts/projects/4_todo.sol\":266:356  function getTodo() public view returns (string[] memory) {... */\n      swap1\n      jump\t// out\n        /* \"contracts/projects/4_todo.sol\":117:258  function addTodo(string memory _newTodo) public returns (string[] memory)  {... */\n    tag_17:\n        /* \"contracts/projects/4_todo.sol\":174:189  string[] memory */\n      0x60\n        /* \"contracts/projects/4_todo.sol\":203:210  todoArr */\n      0x00\n        /* \"contracts/projects/4_todo.sol\":216:224  _newTodo */\n      dup3\n        /* \"contracts/projects/4_todo.sol\":203:225  todoArr.push(_newTodo) */\n      swap1\n      dup1\n      0x01\n      dup2\n      sload\n      add\n      dup1\n      dup3\n      sstore\n      dup1\n      swap2\n      pop\n      pop\n      0x01\n      swap1\n      sub\n      swap1\n      0x00\n      mstore\n      keccak256(0x00, 0x20)\n      add\n      0x00\n      swap1\n      swap2\n      swap1\n      swap2\n      swap1\n      swap2\n      pop\n      swap1\n      dup2\n      tag_38\n      swap2\n      swap1\n      tag_39\n      jump\t// in\n    tag_38:\n      pop\n        /* \"contracts/projects/4_todo.sol\":243:250  todoArr */\n      0x00\n        /* \"contracts/projects/4_todo.sol\":236:250  return todoArr */\n      dup1\n      sload\n      dup1\n      0x20\n      mul\n      0x20\n      add\n      mload(0x40)\n      swap1\n      dup2\n      add\n      0x40\n      mstore\n      dup1\n      swap3\n      swap2\n      swap1\n      dup2\n      dup2\n      mstore\n      0x20\n      add\n      0x00\n      swap1\n    tag_40:\n      dup3\n      dup3\n      lt\n      iszero\n      tag_41\n      jumpi\n      dup4\n      dup3\n      swap1\n      0x00\n      mstore\n      keccak256(0x00, 0x20)\n      add\n      dup1\n      sload\n      tag_43\n      swap1\n      tag_31\n      jump\t// in\n    tag_43:\n      dup1\n      0x1f\n      add\n      0x20\n      dup1\n      swap2\n      div\n      mul\n      0x20\n      add\n      mload(0x40)\n      swap1\n      dup2\n      add\n      0x40\n      mstore\n      dup1\n      swap3\n      swap2\n      swap1\n      dup2\n      dup2\n      mstore\n      0x20\n      add\n      dup3\n      dup1\n      sload\n      tag_44\n      swap1\n      tag_31\n      jump\t// in\n    tag_44:\n      dup1\n      iszero\n      tag_45\n      jumpi\n      dup1\n      0x1f\n      lt\n      tag_46\n      jumpi\n      0x0100\n      dup1\n      dup4\n      sload\n      div\n      mul\n      dup4\n      mstore\n      swap2\n      0x20\n      add\n      swap2\n      jump(tag_45)\n    tag_46:\n      dup3\n      add\n      swap2\n      swap1\n      0x00\n      mstore\n      keccak256(0x00, 0x20)\n      swap1\n    tag_47:\n      dup2\n      sload\n      dup2\n      mstore\n      swap1\n      0x01\n      add\n      swap1\n      0x20\n      add\n      dup1\n      dup4\n      gt\n      tag_47\n      jumpi\n      dup3\n      swap1\n      sub\n      0x1f\n      and\n      dup3\n      add\n      swap2\n    tag_45:\n      pop\n      pop\n      pop\n      pop\n      pop\n      dup2\n      mstore\n      0x20\n      add\n      swap1\n      0x01\n      add\n      swap1\n      jump(tag_40)\n    tag_41:\n      pop\n      pop\n      pop\n      pop\n      swap1\n      pop\n        /* \"contracts/projects/4_todo.sol\":117:258  function addTodo(string memory _newTodo) public returns (string[] memory)  {... */\n      swap2\n      swap1\n      pop\n      jump\t// out\n    tag_25:\n      pop\n      dup1\n      sload\n      tag_48\n      swap1\n      tag_31\n      jump\t// in\n    tag_48:\n      0x00\n      dup3\n      sstore\n      dup1\n      0x1f\n      lt\n      tag_50\n      jumpi\n      pop\n      jump(tag_49)\n    tag_50:\n      0x1f\n      add\n      0x20\n      swap1\n      div\n      swap1\n      0x00\n      mstore\n      keccak256(0x00, 0x20)\n      swap1\n      dup2\n      add\n      swap1\n      tag_51\n      swap2\n      swap1\n      tag_52\n      jump\t// in\n    tag_51:\n    tag_49:\n      pop\n      jump\t// out\n    tag_52:\n    tag_53:\n      dup1\n      dup3\n      gt\n      iszero\n      tag_54\n      jumpi\n      0x00\n      dup2\n      0x00\n      swap1\n      sstore\n      pop\n      0x01\n      add\n      jump(tag_53)\n    tag_54:\n      pop\n      swap1\n      jump\t// out\n        /* \"#utility.yul\":7:82   */\n    tag_55:\n        /* \"#utility.yul\":40:46   */\n      0x00\n        /* \"#utility.yul\":73:75   */\n      0x40\n        /* \"#utility.yul\":67:76   */\n      mload\n        /* \"#utility.yul\":57:76   */\n      swap1\n      pop\n        /* \"#utility.yul\":7:82   */\n      swap1\n      jump\t// out\n        /* \"#utility.yul\":88:205   */\n    tag_56:\n        /* \"#utility.yul\":197:198   */\n      0x00\n        /* \"#utility.yul\":194:195   */\n      dup1\n        /* \"#utility.yul\":187:199   */\n      revert\n        /* \"#utility.yul\":211:328   */\n    tag_57:\n        /* \"#utility.yul\":320:321   */\n      0x00\n        /* \"#utility.yul\":317:318   */\n      dup1\n        /* \"#utility.yul\":310:322   */\n      revert\n        /* \"#utility.yul\":334:411   */\n    tag_58:\n        /* \"#utility.yul\":371:378   */\n      0x00\n        /* \"#utility.yul\":400:405   */\n      dup2\n        /* \"#utility.yul\":389:405   */\n      swap1\n      pop\n        /* \"#utility.yul\":334:411   */\n      swap2\n      swap1\n      pop\n      jump\t// out\n        /* \"#utility.yul\":417:539   */\n    tag_59:\n        /* \"#utility.yul\":490:514   */\n      tag_103\n        /* \"#utility.yul\":508:513   */\n      dup2\n        /* \"#utility.yul\":490:514   */\n      tag_58\n      jump\t// in\n    tag_103:\n        /* \"#utility.yul\":483:488   */\n      dup2\n        /* \"#utility.yul\":480:515   */\n      eq\n        /* \"#utility.yul\":470:533   */\n      tag_104\n      jumpi\n        /* \"#utility.yul\":529:530   */\n      0x00\n        /* \"#utility.yul\":526:527   */\n      dup1\n        /* \"#utility.yul\":519:531   */\n      revert\n        /* \"#utility.yul\":470:533   */\n    tag_104:\n        /* \"#utility.yul\":417:539   */\n      pop\n      jump\t// out\n        /* \"#utility.yul\":545:684   */\n    tag_60:\n        /* \"#utility.yul\":591:596   */\n      0x00\n        /* \"#utility.yul\":629:635   */\n      dup2\n        /* \"#utility.yul\":616:636   */\n      calldataload\n        /* \"#utility.yul\":607:636   */\n      swap1\n      pop\n        /* \"#utility.yul\":645:678   */\n      tag_106\n        /* \"#utility.yul\":672:677   */\n      dup2\n        /* \"#utility.yul\":645:678   */\n      tag_59\n      jump\t// in\n    tag_106:\n        /* \"#utility.yul\":545:684   */\n      swap3\n      swap2\n      pop\n      pop\n      jump\t// out\n        /* \"#utility.yul\":690:1019   */\n    tag_8:\n        /* \"#utility.yul\":749:755   */\n      0x00\n        /* \"#utility.yul\":798:800   */\n      0x20\n        /* \"#utility.yul\":786:795   */\n      dup3\n        /* \"#utility.yul\":777:784   */\n      dup5\n        /* \"#utility.yul\":773:796   */\n      sub\n        /* \"#utility.yul\":769:801   */\n      slt\n        /* \"#utility.yul\":766:885   */\n      iszero\n      tag_108\n      jumpi\n        /* \"#utility.yul\":804:883   */\n      tag_109\n      tag_56\n      jump\t// in\n    tag_109:\n        /* \"#utility.yul\":766:885   */\n    tag_108:\n        /* \"#utility.yul\":924:925   */\n      0x00\n        /* \"#utility.yul\":949:1002   */\n      tag_110\n        /* \"#utility.yul\":994:1001   */\n      dup5\n        /* \"#utility.yul\":985:991   */\n      dup3\n        /* \"#utility.yul\":974:983   */\n      dup6\n        /* \"#utility.yul\":970:992   */\n      add\n        /* \"#utility.yul\":949:1002   */\n      tag_60\n      jump\t// in\n    tag_110:\n        /* \"#utility.yul\":939:1002   */\n      swap2\n      pop\n        /* \"#utility.yul\":895:1012   */\n      pop\n        /* \"#utility.yul\":690:1019   */\n      swap3\n      swap2\n      pop\n      pop\n      jump\t// out\n        /* \"#utility.yul\":1025:1149   */\n    tag_61:\n        /* \"#utility.yul\":1102:1108   */\n      0x00\n        /* \"#utility.yul\":1136:1141   */\n      dup2\n        /* \"#utility.yul\":1130:1142   */\n      mload\n        /* \"#utility.yul\":1120:1142   */\n      swap1\n      pop\n        /* \"#utility.yul\":1025:1149   */\n      swap2\n      swap1\n      pop\n      jump\t// out\n        /* \"#utility.yul\":1155:1349   */\n    tag_62:\n        /* \"#utility.yul\":1264:1275   */\n      0x00\n        /* \"#utility.yul\":1298:1304   */\n      dup3\n        /* \"#utility.yul\":1293:1296   */\n      dup3\n        /* \"#utility.yul\":1286:1305   */\n      mstore\n        /* \"#utility.yul\":1338:1342   */\n      0x20\n        /* \"#utility.yul\":1333:1336   */\n      dup3\n        /* \"#utility.yul\":1329:1343   */\n      add\n        /* \"#utility.yul\":1314:1343   */\n      swap1\n      pop\n        /* \"#utility.yul\":1155:1349   */\n      swap3\n      swap2\n      pop\n      pop\n      jump\t// out\n        /* \"#utility.yul\":1355:1497   */\n    tag_63:\n        /* \"#utility.yul\":1432:1436   */\n      0x00\n        /* \"#utility.yul\":1455:1458   */\n      dup2\n        /* \"#utility.yul\":1447:1458   */\n      swap1\n      pop\n        /* \"#utility.yul\":1485:1489   */\n      0x20\n        /* \"#utility.yul\":1480:1483   */\n      dup3\n        /* \"#utility.yul\":1476:1490   */\n      add\n        /* \"#utility.yul\":1468:1490   */\n      swap1\n      pop\n        /* \"#utility.yul\":1355:1497   */\n      swap2\n      swap1\n      pop\n      jump\t// out\n        /* \"#utility.yul\":1503:1602   */\n    tag_64:\n        /* \"#utility.yul\":1555:1561   */\n      0x00\n        /* \"#utility.yul\":1589:1594   */\n      dup2\n        /* \"#utility.yul\":1583:1595   */\n      mload\n        /* \"#utility.yul\":1573:1595   */\n      swap1\n      pop\n        /* \"#utility.yul\":1503:1602   */\n      swap2\n      swap1\n      pop\n      jump\t// out\n        /* \"#utility.yul\":1608:1767   */\n    tag_65:\n        /* \"#utility.yul\":1682:1693   */\n      0x00\n        /* \"#utility.yul\":1716:1722   */\n      dup3\n        /* \"#utility.yul\":1711:1714   */\n      dup3\n        /* \"#utility.yul\":1704:1723   */\n      mstore\n        /* \"#utility.yul\":1756:1760   */\n      0x20\n        /* \"#utility.yul\":1751:1754   */\n      dup3\n        /* \"#utility.yul\":1747:1761   */\n      add\n        /* \"#utility.yul\":1732:1761   */\n      swap1\n      pop\n        /* \"#utility.yul\":1608:1767   */\n      swap3\n      swap2\n      pop\n      pop\n      jump\t// out\n        /* \"#utility.yul\":1773:2019   */\n    tag_66:\n        /* \"#utility.yul\":1854:1855   */\n      0x00\n        /* \"#utility.yul\":1864:1977   */\n    tag_117:\n        /* \"#utility.yul\":1878:1884   */\n      dup4\n        /* \"#utility.yul\":1875:1876   */\n      dup2\n        /* \"#utility.yul\":1872:1885   */\n      lt\n        /* \"#utility.yul\":1864:1977   */\n      iszero\n      tag_119\n      jumpi\n        /* \"#utility.yul\":1963:1964   */\n      dup1\n        /* \"#utility.yul\":1958:1961   */\n      dup3\n        /* \"#utility.yul\":1954:1965   */\n      add\n        /* \"#utility.yul\":1948:1966   */\n      mload\n        /* \"#utility.yul\":1944:1945   */\n      dup2\n        /* \"#utility.yul\":1939:1942   */\n      dup5\n        /* \"#utility.yul\":1935:1946   */\n      add\n        /* \"#utility.yul\":1928:1967   */\n      mstore\n        /* \"#utility.yul\":1900:1902   */\n      0x20\n        /* \"#utility.yul\":1897:1898   */\n      dup2\n        /* \"#utility.yul\":1893:1903   */\n      add\n        /* \"#utility.yul\":1888:1903   */\n      swap1\n      pop\n        /* \"#utility.yul\":1864:1977   */\n      jump(tag_117)\n    tag_119:\n        /* \"#utility.yul\":2011:2012   */\n      0x00\n        /* \"#utility.yul\":2002:2008   */\n      dup5\n        /* \"#utility.yul\":1997:2000   */\n      dup5\n        /* \"#utility.yul\":1993:2009   */\n      add\n        /* \"#utility.yul\":1986:2013   */\n      mstore\n        /* \"#utility.yul\":1835:2019   */\n      pop\n        /* \"#utility.yul\":1773:2019   */\n      pop\n      pop\n      pop\n      jump\t// out\n        /* \"#utility.yul\":2025:2127   */\n    tag_67:\n        /* \"#utility.yul\":2066:2072   */\n      0x00\n        /* \"#utility.yul\":2117:2119   */\n      0x1f\n        /* \"#utility.yul\":2113:2120   */\n      not\n        /* \"#utility.yul\":2108:2110   */\n      0x1f\n        /* \"#utility.yul\":2101:2106   */\n      dup4\n        /* \"#utility.yul\":2097:2111   */\n      add\n        /* \"#utility.yul\":2093:2121   */\n      and\n        /* \"#utility.yul\":2083:2121   */\n      swap1\n      pop\n        /* \"#utility.yul\":2025:2127   */\n      swap2\n      swap1\n      pop\n      jump\t// out\n        /* \"#utility.yul\":2133:2490   */\n    tag_68:\n        /* \"#utility.yul\":2211:2214   */\n      0x00\n        /* \"#utility.yul\":2239:2278   */\n      tag_122\n        /* \"#utility.yul\":2272:2277   */\n      dup3\n        /* \"#utility.yul\":2239:2278   */\n      tag_64\n      jump\t// in\n    tag_122:\n        /* \"#utility.yul\":2294:2355   */\n      tag_123\n        /* \"#utility.yul\":2348:2354   */\n      dup2\n        /* \"#utility.yul\":2343:2346   */\n      dup6\n        /* \"#utility.yul\":2294:2355   */\n      tag_65\n      jump\t// in\n    tag_123:\n        /* \"#utility.yul\":2287:2355   */\n      swap4\n      pop\n        /* \"#utility.yul\":2364:2429   */\n      tag_124\n        /* \"#utility.yul\":2422:2428   */\n      dup2\n        /* \"#utility.yul\":2417:2420   */\n      dup6\n        /* \"#utility.yul\":2410:2414   */\n      0x20\n        /* \"#utility.yul\":2403:2408   */\n      dup7\n        /* \"#utility.yul\":2399:2415   */\n      add\n        /* \"#utility.yul\":2364:2429   */\n      tag_66\n      jump\t// in\n    tag_124:\n        /* \"#utility.yul\":2454:2483   */\n      tag_125\n        /* \"#utility.yul\":2476:2482   */\n      dup2\n        /* \"#utility.yul\":2454:2483   */\n      tag_67\n      jump\t// in\n    tag_125:\n        /* \"#utility.yul\":2449:2452   */\n      dup5\n        /* \"#utility.yul\":2445:2484   */\n      add\n        /* \"#utility.yul\":2438:2484   */\n      swap2\n      pop\n        /* \"#utility.yul\":2215:2490   */\n      pop\n        /* \"#utility.yul\":2133:2490   */\n      swap3\n      swap2\n      pop\n      pop\n      jump\t// out\n        /* \"#utility.yul\":2496:2692   */\n    tag_69:\n        /* \"#utility.yul\":2585:2595   */\n      0x00\n        /* \"#utility.yul\":2620:2686   */\n      tag_127\n        /* \"#utility.yul\":2682:2685   */\n      dup4\n        /* \"#utility.yul\":2674:2680   */\n      dup4\n        /* \"#utility.yul\":2620:2686   */\n      tag_68\n      jump\t// in\n    tag_127:\n        /* \"#utility.yul\":2606:2686   */\n      swap1\n      pop\n        /* \"#utility.yul\":2496:2692   */\n      swap3\n      swap2\n      pop\n      pop\n      jump\t// out\n        /* \"#utility.yul\":2698:2821   */\n    tag_70:\n        /* \"#utility.yul\":2778:2782   */\n      0x00\n        /* \"#utility.yul\":2810:2814   */\n      0x20\n        /* \"#utility.yul\":2805:2808   */\n      dup3\n        /* \"#utility.yul\":2801:2815   */\n      add\n        /* \"#utility.yul\":2793:2815   */\n      swap1\n      pop\n        /* \"#utility.yul\":2698:2821   */\n      swap2\n      swap1\n      pop\n      jump\t// out\n        /* \"#utility.yul\":2855:3846   */\n    tag_71:\n        /* \"#utility.yul\":2994:2997   */\n      0x00\n        /* \"#utility.yul\":3023:3087   */\n      tag_130\n        /* \"#utility.yul\":3081:3086   */\n      dup3\n        /* \"#utility.yul\":3023:3087   */\n      tag_61\n      jump\t// in\n    tag_130:\n        /* \"#utility.yul\":3103:3199   */\n      tag_131\n        /* \"#utility.yul\":3192:3198   */\n      dup2\n        /* \"#utility.yul\":3187:3190   */\n      dup6\n        /* \"#utility.yul\":3103:3199   */\n      tag_62\n      jump\t// in\n    tag_131:\n        /* \"#utility.yul\":3096:3199   */\n      swap4\n      pop\n        /* \"#utility.yul\":3225:3228   */\n      dup4\n        /* \"#utility.yul\":3270:3274   */\n      0x20\n        /* \"#utility.yul\":3262:3268   */\n      dup3\n        /* \"#utility.yul\":3258:3275   */\n      mul\n        /* \"#utility.yul\":3253:3256   */\n      dup6\n        /* \"#utility.yul\":3249:3276   */\n      add\n        /* \"#utility.yul\":3300:3366   */\n      tag_132\n        /* \"#utility.yul\":3360:3365   */\n      dup6\n        /* \"#utility.yul\":3300:3366   */\n      tag_63\n      jump\t// in\n    tag_132:\n        /* \"#utility.yul\":3389:3396   */\n      dup1\n        /* \"#utility.yul\":3420:3421   */\n      0x00\n        /* \"#utility.yul\":3405:3801   */\n    tag_133:\n        /* \"#utility.yul\":3430:3436   */\n      dup6\n        /* \"#utility.yul\":3427:3428   */\n      dup2\n        /* \"#utility.yul\":3424:3437   */\n      lt\n        /* \"#utility.yul\":3405:3801   */\n      iszero\n      tag_135\n      jumpi\n        /* \"#utility.yul\":3501:3510   */\n      dup5\n        /* \"#utility.yul\":3495:3499   */\n      dup5\n        /* \"#utility.yul\":3491:3511   */\n      sub\n        /* \"#utility.yul\":3486:3489   */\n      dup10\n        /* \"#utility.yul\":3479:3512   */\n      mstore\n        /* \"#utility.yul\":3552:3558   */\n      dup2\n        /* \"#utility.yul\":3546:3559   */\n      mload\n        /* \"#utility.yul\":3580:3664   */\n      tag_136\n        /* \"#utility.yul\":3659:3663   */\n      dup6\n        /* \"#utility.yul\":3644:3657   */\n      dup3\n        /* \"#utility.yul\":3580:3664   */\n      tag_69\n      jump\t// in\n    tag_136:\n        /* \"#utility.yul\":3572:3664   */\n      swap5\n      pop\n        /* \"#utility.yul\":3687:3757   */\n      tag_137\n        /* \"#utility.yul\":3750:3756   */\n      dup4\n        /* \"#utility.yul\":3687:3757   */\n      tag_70\n      jump\t// in\n    tag_137:\n        /* \"#utility.yul\":3677:3757   */\n      swap3\n      pop\n        /* \"#utility.yul\":3786:3790   */\n      0x20\n        /* \"#utility.yul\":3781:3784   */\n      dup11\n        /* \"#utility.yul\":3777:3791   */\n      add\n        /* \"#utility.yul\":3770:3791   */\n      swap10\n      pop\n        /* \"#utility.yul\":3465:3801   */\n      pop\n        /* \"#utility.yul\":3452:3453   */\n      0x01\n        /* \"#utility.yul\":3449:3450   */\n      dup2\n        /* \"#utility.yul\":3445:3454   */\n      add\n        /* \"#utility.yul\":3440:3454   */\n      swap1\n      pop\n        /* \"#utility.yul\":3405:3801   */\n      jump(tag_133)\n    tag_135:\n        /* \"#utility.yul\":3409:3423   */\n      pop\n        /* \"#utility.yul\":3817:3821   */\n      dup3\n        /* \"#utility.yul\":3810:3821   */\n      swap8\n      pop\n        /* \"#utility.yul\":3837:3840   */\n      dup8\n        /* \"#utility.yul\":3830:3840   */\n      swap6\n      pop\n        /* \"#utility.yul\":2999:3846   */\n      pop\n      pop\n      pop\n      pop\n      pop\n        /* \"#utility.yul\":2855:3846   */\n      swap3\n      swap2\n      pop\n      pop\n      jump\t// out\n        /* \"#utility.yul\":3852:4265   */\n    tag_13:\n        /* \"#utility.yul\":4015:4019   */\n      0x00\n        /* \"#utility.yul\":4053:4055   */\n      0x20\n        /* \"#utility.yul\":4042:4051   */\n      dup3\n        /* \"#utility.yul\":4038:4056   */\n      add\n        /* \"#utility.yul\":4030:4056   */\n      swap1\n      pop\n        /* \"#utility.yul\":4102:4111   */\n      dup2\n        /* \"#utility.yul\":4096:4100   */\n      dup2\n        /* \"#utility.yul\":4092:4112   */\n      sub\n        /* \"#utility.yul\":4088:4089   */\n      0x00\n        /* \"#utility.yul\":4077:4086   */\n      dup4\n        /* \"#utility.yul\":4073:4090   */\n      add\n        /* \"#utility.yul\":4066:4113   */\n      mstore\n        /* \"#utility.yul\":4130:4258   */\n      tag_139\n        /* \"#utility.yul\":4253:4257   */\n      dup2\n        /* \"#utility.yul\":4244:4250   */\n      dup5\n        /* \"#utility.yul\":4130:4258   */\n      tag_71\n      jump\t// in\n    tag_139:\n        /* \"#utility.yul\":4122:4258   */\n      swap1\n      pop\n        /* \"#utility.yul\":3852:4265   */\n      swap3\n      swap2\n      pop\n      pop\n      jump\t// out\n        /* \"#utility.yul\":4271:4388   */\n    tag_72:\n        /* \"#utility.yul\":4380:4381   */\n      0x00\n        /* \"#utility.yul\":4377:4378   */\n      dup1\n        /* \"#utility.yul\":4370:4382   */\n      revert\n        /* \"#utility.yul\":4394:4511   */\n    tag_73:\n        /* \"#utility.yul\":4503:4504   */\n      0x00\n        /* \"#utility.yul\":4500:4501   */\n      dup1\n        /* \"#utility.yul\":4493:4505   */\n      revert\n        /* \"#utility.yul\":4517:4697   */\n    tag_74:\n        /* \"#utility.yul\":4565:4642   */\n      0x4e487b7100000000000000000000000000000000000000000000000000000000\n        /* \"#utility.yul\":4562:4563   */\n      0x00\n        /* \"#utility.yul\":4555:4643   */\n      mstore\n        /* \"#utility.yul\":4662:4666   */\n      0x41\n        /* \"#utility.yul\":4659:4660   */\n      0x04\n        /* \"#utility.yul\":4652:4667   */\n      mstore\n        /* \"#utility.yul\":4686:4690   */\n      0x24\n        /* \"#utility.yul\":4683:4684   */\n      0x00\n        /* \"#utility.yul\":4676:4691   */\n      revert\n        /* \"#utility.yul\":4703:4984   */\n    tag_75:\n        /* \"#utility.yul\":4786:4813   */\n      tag_144\n        /* \"#utility.yul\":4808:4812   */\n      dup3\n        /* \"#utility.yul\":4786:4813   */\n      tag_67\n      jump\t// in\n    tag_144:\n        /* \"#utility.yul\":4778:4784   */\n      dup2\n        /* \"#utility.yul\":4774:4814   */\n      add\n        /* \"#utility.yul\":4916:4922   */\n      dup2\n        /* \"#utility.yul\":4904:4914   */\n      dup2\n        /* \"#utility.yul\":4901:4923   */\n      lt\n        /* \"#utility.yul\":4880:4898   */\n      0xffffffffffffffff\n        /* \"#utility.yul\":4868:4878   */\n      dup3\n        /* \"#utility.yul\":4865:4899   */\n      gt\n        /* \"#utility.yul\":4862:4924   */\n      or\n        /* \"#utility.yul\":4859:4947   */\n      iszero\n      tag_145\n      jumpi\n        /* \"#utility.yul\":4927:4945   */\n      tag_146\n      tag_74\n      jump\t// in\n    tag_146:\n        /* \"#utility.yul\":4859:4947   */\n    tag_145:\n        /* \"#utility.yul\":4967:4977   */\n      dup1\n        /* \"#utility.yul\":4963:4965   */\n      0x40\n        /* \"#utility.yul\":4956:4978   */\n      mstore\n        /* \"#utility.yul\":4746:4984   */\n      pop\n        /* \"#utility.yul\":4703:4984   */\n      pop\n      pop\n      jump\t// out\n        /* \"#utility.yul\":4990:5119   */\n    tag_76:\n        /* \"#utility.yul\":5024:5030   */\n      0x00\n        /* \"#utility.yul\":5051:5071   */\n      tag_148\n      tag_55\n      jump\t// in\n    tag_148:\n        /* \"#utility.yul\":5041:5071   */\n      swap1\n      pop\n        /* \"#utility.yul\":5080:5113   */\n      tag_149\n        /* \"#utility.yul\":5108:5112   */\n      dup3\n        /* \"#utility.yul\":5100:5106   */\n      dup3\n        /* \"#utility.yul\":5080:5113   */\n      tag_75\n      jump\t// in\n    tag_149:\n        /* \"#utility.yul\":4990:5119   */\n      swap2\n      swap1\n      pop\n      jump\t// out\n        /* \"#utility.yul\":5125:5433   */\n    tag_77:\n        /* \"#utility.yul\":5187:5191   */\n      0x00\n        /* \"#utility.yul\":5277:5295   */\n      0xffffffffffffffff\n        /* \"#utility.yul\":5269:5275   */\n      dup3\n        /* \"#utility.yul\":5266:5296   */\n      gt\n        /* \"#utility.yul\":5263:5319   */\n      iszero\n      tag_151\n      jumpi\n        /* \"#utility.yul\":5299:5317   */\n      tag_152\n      tag_74\n      jump\t// in\n    tag_152:\n        /* \"#utility.yul\":5263:5319   */\n    tag_151:\n        /* \"#utility.yul\":5337:5366   */\n      tag_153\n        /* \"#utility.yul\":5359:5365   */\n      dup3\n        /* \"#utility.yul\":5337:5366   */\n      tag_67\n      jump\t// in\n    tag_153:\n        /* \"#utility.yul\":5329:5366   */\n      swap1\n      pop\n        /* \"#utility.yul\":5421:5425   */\n      0x20\n        /* \"#utility.yul\":5415:5419   */\n      dup2\n        /* \"#utility.yul\":5411:5426   */\n      add\n        /* \"#utility.yul\":5403:5426   */\n      swap1\n      pop\n        /* \"#utility.yul\":5125:5433   */\n      swap2\n      swap1\n      pop\n      jump\t// out\n        /* \"#utility.yul\":5439:5585   */\n    tag_78:\n        /* \"#utility.yul\":5536:5542   */\n      dup3\n        /* \"#utility.yul\":5531:5534   */\n      dup2\n        /* \"#utility.yul\":5526:5529   */\n      dup4\n        /* \"#utility.yul\":5513:5543   */\n      calldatacopy\n        /* \"#utility.yul\":5577:5578   */\n      0x00\n        /* \"#utility.yul\":5568:5574   */\n      dup4\n        /* \"#utility.yul\":5563:5566   */\n      dup4\n        /* \"#utility.yul\":5559:5575   */\n      add\n        /* \"#utility.yul\":5552:5579   */\n      mstore\n        /* \"#utility.yul\":5439:5585   */\n      pop\n      pop\n      pop\n      jump\t// out\n        /* \"#utility.yul\":5591:6016   */\n    tag_79:\n        /* \"#utility.yul\":5669:5674   */\n      0x00\n        /* \"#utility.yul\":5694:5760   */\n      tag_156\n        /* \"#utility.yul\":5710:5759   */\n      tag_157\n        /* \"#utility.yul\":5752:5758   */\n      dup5\n        /* \"#utility.yul\":5710:5759   */\n      tag_77\n      jump\t// in\n    tag_157:\n        /* \"#utility.yul\":5694:5760   */\n      tag_76\n      jump\t// in\n    tag_156:\n        /* \"#utility.yul\":5685:5760   */\n      swap1\n      pop\n        /* \"#utility.yul\":5783:5789   */\n      dup3\n        /* \"#utility.yul\":5776:5781   */\n      dup2\n        /* \"#utility.yul\":5769:5790   */\n      mstore\n        /* \"#utility.yul\":5821:5825   */\n      0x20\n        /* \"#utility.yul\":5814:5819   */\n      dup2\n        /* \"#utility.yul\":5810:5826   */\n      add\n        /* \"#utility.yul\":5859:5862   */\n      dup5\n        /* \"#utility.yul\":5850:5856   */\n      dup5\n        /* \"#utility.yul\":5845:5848   */\n      dup5\n        /* \"#utility.yul\":5841:5857   */\n      add\n        /* \"#utility.yul\":5838:5863   */\n      gt\n        /* \"#utility.yul\":5835:5947   */\n      iszero\n      tag_158\n      jumpi\n        /* \"#utility.yul\":5866:5945   */\n      tag_159\n      tag_73\n      jump\t// in\n    tag_159:\n        /* \"#utility.yul\":5835:5947   */\n    tag_158:\n        /* \"#utility.yul\":5956:6010   */\n      tag_160\n        /* \"#utility.yul\":6003:6009   */\n      dup5\n        /* \"#utility.yul\":5998:6001   */\n      dup3\n        /* \"#utility.yul\":5993:5996   */\n      dup6\n        /* \"#utility.yul\":5956:6010   */\n      tag_78\n      jump\t// in\n    tag_160:\n        /* \"#utility.yul\":5675:6016   */\n      pop\n        /* \"#utility.yul\":5591:6016   */\n      swap4\n      swap3\n      pop\n      pop\n      pop\n      jump\t// out\n        /* \"#utility.yul\":6036:6376   */\n    tag_80:\n        /* \"#utility.yul\":6092:6097   */\n      0x00\n        /* \"#utility.yul\":6141:6144   */\n      dup3\n        /* \"#utility.yul\":6134:6138   */\n      0x1f\n        /* \"#utility.yul\":6126:6132   */\n      dup4\n        /* \"#utility.yul\":6122:6139   */\n      add\n        /* \"#utility.yul\":6118:6145   */\n      slt\n        /* \"#utility.yul\":6108:6230   */\n      tag_162\n      jumpi\n        /* \"#utility.yul\":6149:6228   */\n      tag_163\n      tag_72\n      jump\t// in\n    tag_163:\n        /* \"#utility.yul\":6108:6230   */\n    tag_162:\n        /* \"#utility.yul\":6266:6272   */\n      dup2\n        /* \"#utility.yul\":6253:6273   */\n      calldataload\n        /* \"#utility.yul\":6291:6370   */\n      tag_164\n        /* \"#utility.yul\":6366:6369   */\n      dup5\n        /* \"#utility.yul\":6358:6364   */\n      dup3\n        /* \"#utility.yul\":6351:6355   */\n      0x20\n        /* \"#utility.yul\":6343:6349   */\n      dup7\n        /* \"#utility.yul\":6339:6356   */\n      add\n        /* \"#utility.yul\":6291:6370   */\n      tag_79\n      jump\t// in\n    tag_164:\n        /* \"#utility.yul\":6282:6370   */\n      swap2\n      pop\n        /* \"#utility.yul\":6098:6376   */\n      pop\n        /* \"#utility.yul\":6036:6376   */\n      swap3\n      swap2\n      pop\n      pop\n      jump\t// out\n        /* \"#utility.yul\":6382:6891   */\n    tag_16:\n        /* \"#utility.yul\":6451:6457   */\n      0x00\n        /* \"#utility.yul\":6500:6502   */\n      0x20\n        /* \"#utility.yul\":6488:6497   */\n      dup3\n        /* \"#utility.yul\":6479:6486   */\n      dup5\n        /* \"#utility.yul\":6475:6498   */\n      sub\n        /* \"#utility.yul\":6471:6503   */\n      slt\n        /* \"#utility.yul\":6468:6587   */\n      iszero\n      tag_166\n      jumpi\n        /* \"#utility.yul\":6506:6585   */\n      tag_167\n      tag_56\n      jump\t// in\n    tag_167:\n        /* \"#utility.yul\":6468:6587   */\n    tag_166:\n        /* \"#utility.yul\":6654:6655   */\n      0x00\n        /* \"#utility.yul\":6643:6652   */\n      dup3\n        /* \"#utility.yul\":6639:6656   */\n      add\n        /* \"#utility.yul\":6626:6657   */\n      calldataload\n        /* \"#utility.yul\":6684:6702   */\n      0xffffffffffffffff\n        /* \"#utility.yul\":6676:6682   */\n      dup2\n        /* \"#utility.yul\":6673:6703   */\n      gt\n        /* \"#utility.yul\":6670:6787   */\n      iszero\n      tag_168\n      jumpi\n        /* \"#utility.yul\":6706:6785   */\n      tag_169\n      tag_57\n      jump\t// in\n    tag_169:\n        /* \"#utility.yul\":6670:6787   */\n    tag_168:\n        /* \"#utility.yul\":6811:6874   */\n      tag_170\n        /* \"#utility.yul\":6866:6873   */\n      dup5\n        /* \"#utility.yul\":6857:6863   */\n      dup3\n        /* \"#utility.yul\":6846:6855   */\n      dup6\n        /* \"#utility.yul\":6842:6864   */\n      add\n        /* \"#utility.yul\":6811:6874   */\n      tag_80\n      jump\t// in\n    tag_170:\n        /* \"#utility.yul\":6801:6874   */\n      swap2\n      pop\n        /* \"#utility.yul\":6597:6884   */\n      pop\n        /* \"#utility.yul\":6382:6891   */\n      swap3\n      swap2\n      pop\n      pop\n      jump\t// out\n        /* \"#utility.yul\":6897:7077   */\n    tag_22:\n        /* \"#utility.yul\":6945:7022   */\n      0x4e487b7100000000000000000000000000000000000000000000000000000000\n        /* \"#utility.yul\":6942:6943   */\n      0x00\n        /* \"#utility.yul\":6935:7023   */\n      mstore\n        /* \"#utility.yul\":7042:7046   */\n      0x32\n        /* \"#utility.yul\":7039:7040   */\n      0x04\n        /* \"#utility.yul\":7032:7047   */\n      mstore\n        /* \"#utility.yul\":7066:7070   */\n      0x24\n        /* \"#utility.yul\":7063:7064   */\n      0x00\n        /* \"#utility.yul\":7056:7071   */\n      revert\n        /* \"#utility.yul\":7083:7263   */\n    tag_81:\n        /* \"#utility.yul\":7131:7208   */\n      0x4e487b7100000000000000000000000000000000000000000000000000000000\n        /* \"#utility.yul\":7128:7129   */\n      0x00\n        /* \"#utility.yul\":7121:7209   */\n      mstore\n        /* \"#utility.yul\":7228:7232   */\n      0x22\n        /* \"#utility.yul\":7225:7226   */\n      0x04\n        /* \"#utility.yul\":7218:7233   */\n      mstore\n        /* \"#utility.yul\":7252:7256   */\n      0x24\n        /* \"#utility.yul\":7249:7250   */\n      0x00\n        /* \"#utility.yul\":7242:7257   */\n      revert\n        /* \"#utility.yul\":7269:7589   */\n    tag_31:\n        /* \"#utility.yul\":7313:7319   */\n      0x00\n        /* \"#utility.yul\":7350:7351   */\n      0x02\n        /* \"#utility.yul\":7344:7348   */\n      dup3\n        /* \"#utility.yul\":7340:7352   */\n      div\n        /* \"#utility.yul\":7330:7352   */\n      swap1\n      pop\n        /* \"#utility.yul\":7397:7398   */\n      0x01\n        /* \"#utility.yul\":7391:7395   */\n      dup3\n        /* \"#utility.yul\":7387:7399   */\n      and\n        /* \"#utility.yul\":7418:7436   */\n      dup1\n        /* \"#utility.yul\":7408:7489   */\n      tag_174\n      jumpi\n        /* \"#utility.yul\":7474:7478   */\n      0x7f\n        /* \"#utility.yul\":7466:7472   */\n      dup3\n        /* \"#utility.yul\":7462:7479   */\n      and\n        /* \"#utility.yul\":7452:7479   */\n      swap2\n      pop\n        /* \"#utility.yul\":7408:7489   */\n    tag_174:\n        /* \"#utility.yul\":7536:7538   */\n      0x20\n        /* \"#utility.yul\":7528:7534   */\n      dup3\n        /* \"#utility.yul\":7525:7539   */\n      lt\n        /* \"#utility.yul\":7505:7523   */\n      dup2\n        /* \"#utility.yul\":7502:7540   */\n      sub\n        /* \"#utility.yul\":7499:7583   */\n      tag_175\n      jumpi\n        /* \"#utility.yul\":7555:7573   */\n      tag_176\n      tag_81\n      jump\t// in\n    tag_176:\n        /* \"#utility.yul\":7499:7583   */\n    tag_175:\n        /* \"#utility.yul\":7320:7589   */\n      pop\n        /* \"#utility.yul\":7269:7589   */\n      swap2\n      swap1\n      pop\n      jump\t// out\n        /* \"#utility.yul\":7595:7736   */\n    tag_82:\n        /* \"#utility.yul\":7644:7648   */\n      0x00\n        /* \"#utility.yul\":7667:7670   */\n      dup2\n        /* \"#utility.yul\":7659:7670   */\n      swap1\n      pop\n        /* \"#utility.yul\":7690:7693   */\n      dup2\n        /* \"#utility.yul\":7687:7688   */\n      0x00\n        /* \"#utility.yul\":7680:7694   */\n      mstore\n        /* \"#utility.yul\":7724:7728   */\n      0x20\n        /* \"#utility.yul\":7721:7722   */\n      0x00\n        /* \"#utility.yul\":7711:7729   */\n      keccak256\n        /* \"#utility.yul\":7703:7729   */\n      swap1\n      pop\n        /* \"#utility.yul\":7595:7736   */\n      swap2\n      swap1\n      pop\n      jump\t// out\n        /* \"#utility.yul\":7742:7835   */\n    tag_83:\n        /* \"#utility.yul\":7779:7785   */\n      0x00\n        /* \"#utility.yul\":7826:7828   */\n      0x20\n        /* \"#utility.yul\":7821:7823   */\n      0x1f\n        /* \"#utility.yul\":7814:7819   */\n      dup4\n        /* \"#utility.yul\":7810:7824   */\n      add\n        /* \"#utility.yul\":7806:7829   */\n      div\n        /* \"#utility.yul\":7796:7829   */\n      swap1\n      pop\n        /* \"#utility.yul\":7742:7835   */\n      swap2\n      swap1\n      pop\n      jump\t// out\n        /* \"#utility.yul\":7841:7948   */\n    tag_84:\n        /* \"#utility.yul\":7885:7893   */\n      0x00\n        /* \"#utility.yul\":7935:7940   */\n      dup3\n        /* \"#utility.yul\":7929:7933   */\n      dup3\n        /* \"#utility.yul\":7925:7941   */\n      shl\n        /* \"#utility.yul\":7904:7941   */\n      swap1\n      pop\n        /* \"#utility.yul\":7841:7948   */\n      swap3\n      swap2\n      pop\n      pop\n      jump\t// out\n        /* \"#utility.yul\":7954:8347   */\n    tag_85:\n        /* \"#utility.yul\":8023:8029   */\n      0x00\n        /* \"#utility.yul\":8073:8074   */\n      0x08\n        /* \"#utility.yul\":8061:8071   */\n      dup4\n        /* \"#utility.yul\":8057:8075   */\n      mul\n        /* \"#utility.yul\":8096:8193   */\n      tag_181\n        /* \"#utility.yul\":8126:8192   */\n      0xffffffffffffffffffffffffffffffffffffffffffffffffffffffffffffffff\n        /* \"#utility.yul\":8115:8124   */\n      dup3\n        /* \"#utility.yul\":8096:8193   */\n      tag_84\n      jump\t// in\n    tag_181:\n        /* \"#utility.yul\":8214:8253   */\n      tag_182\n        /* \"#utility.yul\":8244:8252   */\n      dup7\n        /* \"#utility.yul\":8233:8242   */\n      dup4\n        /* \"#utility.yul\":8214:8253   */\n      tag_84\n      jump\t// in\n    tag_182:\n        /* \"#utility.yul\":8202:8253   */\n      swap6\n      pop\n        /* \"#utility.yul\":8286:8290   */\n      dup1\n        /* \"#utility.yul\":8282:8291   */\n      not\n        /* \"#utility.yul\":8275:8280   */\n      dup5\n        /* \"#utility.yul\":8271:8292   */\n      and\n        /* \"#utility.yul\":8262:8292   */\n      swap4\n      pop\n        /* \"#utility.yul\":8335:8339   */\n      dup1\n        /* \"#utility.yul\":8325:8333   */\n      dup7\n        /* \"#utility.yul\":8321:8340   */\n      and\n        /* \"#utility.yul\":8314:8319   */\n      dup5\n        /* \"#utility.yul\":8311:8341   */\n      or\n        /* \"#utility.yul\":8301:8341   */\n      swap3\n      pop\n        /* \"#utility.yul\":8030:8347   */\n      pop\n      pop\n        /* \"#utility.yul\":7954:8347   */\n      swap4\n      swap3\n      pop\n      pop\n      pop\n      jump\t// out\n        /* \"#utility.yul\":8353:8413   */\n    tag_86:\n        /* \"#utility.yul\":8381:8384   */\n      0x00\n        /* \"#utility.yul\":8402:8407   */\n      dup2\n        /* \"#utility.yul\":8395:8407   */\n      swap1\n      pop\n        /* \"#utility.yul\":8353:8413   */\n      swap2\n      swap1\n      pop\n      jump\t// out\n        /* \"#utility.yul\":8419:8561   */\n    tag_87:\n        /* \"#utility.yul\":8469:8478   */\n      0x00\n        /* \"#utility.yul\":8502:8555   */\n      tag_185\n        /* \"#utility.yul\":8520:8554   */\n      tag_186\n        /* \"#utility.yul\":8529:8553   */\n      tag_187\n        /* \"#utility.yul\":8547:8552   */\n      dup5\n        /* \"#utility.yul\":8529:8553   */\n      tag_58\n      jump\t// in\n    tag_187:\n        /* \"#utility.yul\":8520:8554   */\n      tag_86\n      jump\t// in\n    tag_186:\n        /* \"#utility.yul\":8502:8555   */\n      tag_58\n      jump\t// in\n    tag_185:\n        /* \"#utility.yul\":8489:8555   */\n      swap1\n      pop\n        /* \"#utility.yul\":8419:8561   */\n      swap2\n      swap1\n      pop\n      jump\t// out\n        /* \"#utility.yul\":8567:8642   */\n    tag_88:\n        /* \"#utility.yul\":8610:8613   */\n      0x00\n        /* \"#utility.yul\":8631:8636   */\n      dup2\n        /* \"#utility.yul\":8624:8636   */\n      swap1\n      pop\n        /* \"#utility.yul\":8567:8642   */\n      swap2\n      swap1\n      pop\n      jump\t// out\n        /* \"#utility.yul\":8648:8917   */\n    tag_89:\n        /* \"#utility.yul\":8758:8797   */\n      tag_190\n        /* \"#utility.yul\":8789:8796   */\n      dup4\n        /* \"#utility.yul\":8758:8797   */\n      tag_87\n      jump\t// in\n    tag_190:\n        /* \"#utility.yul\":8819:8910   */\n      tag_191\n        /* \"#utility.yul\":8868:8909   */\n      tag_192\n        /* \"#utility.yul\":8892:8908   */\n      dup3\n        /* \"#utility.yul\":8868:8909   */\n      tag_88\n      jump\t// in\n    tag_192:\n        /* \"#utility.yul\":8860:8866   */\n      dup5\n        /* \"#utility.yul\":8853:8857   */\n      dup5\n        /* \"#utility.yul\":8847:8858   */\n      sload\n        /* \"#utility.yul\":8819:8910   */\n      tag_85\n      jump\t// in\n    tag_191:\n        /* \"#utility.yul\":8813:8817   */\n      dup3\n        /* \"#utility.yul\":8806:8911   */\n      sstore\n        /* \"#utility.yul\":8724:8917   */\n      pop\n        /* \"#utility.yul\":8648:8917   */\n      pop\n      pop\n      pop\n      jump\t// out\n        /* \"#utility.yul\":8923:8996   */\n    tag_90:\n        /* \"#utility.yul\":8968:8971   */\n      0x00\n        /* \"#utility.yul\":8923:8996   */\n      swap1\n      jump\t// out\n        /* \"#utility.yul\":9002:9191   */\n    tag_91:\n        /* \"#utility.yul\":9079:9111   */\n      tag_195\n      tag_90\n      jump\t// in\n    tag_195:\n        /* \"#utility.yul\":9120:9185   */\n      tag_196\n        /* \"#utility.yul\":9178:9184   */\n      dup2\n        /* \"#utility.yul\":9170:9176   */\n      dup5\n        /* \"#utility.yul\":9164:9168   */\n      dup5\n        /* \"#utility.yul\":9120:9185   */\n      tag_89\n      jump\t// in\n    tag_196:\n        /* \"#utility.yul\":9055:9191   */\n      pop\n        /* \"#utility.yul\":9002:9191   */\n      pop\n      pop\n      jump\t// out\n        /* \"#utility.yul\":9197:9383   */\n    tag_92:\n        /* \"#utility.yul\":9257:9377   */\n    tag_198:\n        /* \"#utility.yul\":9274:9277   */\n      dup2\n        /* \"#utility.yul\":9267:9272   */\n      dup2\n        /* \"#utility.yul\":9264:9278   */\n      lt\n        /* \"#utility.yul\":9257:9377   */\n      iszero\n      tag_200\n      jumpi\n        /* \"#utility.yul\":9328:9367   */\n      tag_201\n        /* \"#utility.yul\":9365:9366   */\n      0x00\n        /* \"#utility.yul\":9358:9363   */\n      dup3\n        /* \"#utility.yul\":9328:9367   */\n      tag_91\n      jump\t// in\n    tag_201:\n        /* \"#utility.yul\":9301:9302   */\n      0x01\n        /* \"#utility.yul\":9294:9299   */\n      dup2\n        /* \"#utility.yul\":9290:9303   */\n      add\n        /* \"#utility.yul\":9281:9303   */\n      swap1\n      pop\n        /* \"#utility.yul\":9257:9377   */\n      jump(tag_198)\n    tag_200:\n        /* \"#utility.yul\":9197:9383   */\n      pop\n      pop\n      jump\t// out\n        /* \"#utility.yul\":9389:9932   */\n    tag_93:\n        /* \"#utility.yul\":9490:9492   */\n      0x1f\n        /* \"#utility.yul\":9485:9488   */\n      dup3\n        /* \"#utility.yul\":9482:9493   */\n      gt\n        /* \"#utility.yul\":9479:9925   */\n      iszero\n      tag_203\n      jumpi\n        /* \"#utility.yul\":9524:9562   */\n      tag_204\n        /* \"#utility.yul\":9556:9561   */\n      dup2\n        /* \"#utility.yul\":9524:9562   */\n      tag_82\n      jump\t// in\n    tag_204:\n        /* \"#utility.yul\":9608:9637   */\n      tag_205\n        /* \"#utility.yul\":9626:9636   */\n      dup5\n        /* \"#utility.yul\":9608:9637   */\n      tag_83\n      jump\t// in\n    tag_205:\n        /* \"#utility.yul\":9598:9606   */\n      dup2\n        /* \"#utility.yul\":9594:9638   */\n      add\n        /* \"#utility.yul\":9791:9793   */\n      0x20\n        /* \"#utility.yul\":9779:9789   */\n      dup6\n        /* \"#utility.yul\":9776:9794   */\n      lt\n        /* \"#utility.yul\":9773:9822   */\n      iszero\n      tag_206\n      jumpi\n        /* \"#utility.yul\":9812:9820   */\n      dup2\n        /* \"#utility.yul\":9797:9820   */\n      swap1\n      pop\n        /* \"#utility.yul\":9773:9822   */\n    tag_206:\n        /* \"#utility.yul\":9835:9915   */\n      tag_207\n        /* \"#utility.yul\":9891:9913   */\n      tag_208\n        /* \"#utility.yul\":9909:9912   */\n      dup6\n        /* \"#utility.yul\":9891:9913   */\n      tag_83\n      jump\t// in\n    tag_208:\n        /* \"#utility.yul\":9881:9889   */\n      dup4\n        /* \"#utility.yul\":9877:9914   */\n      add\n        /* \"#utility.yul\":9864:9875   */\n      dup3\n        /* \"#utility.yul\":9835:9915   */\n      tag_92\n      jump\t// in\n    tag_207:\n        /* \"#utility.yul\":9494:9925   */\n      pop\n      pop\n        /* \"#utility.yul\":9479:9925   */\n    tag_203:\n        /* \"#utility.yul\":9389:9932   */\n      pop\n      pop\n      pop\n      jump\t// out\n        /* \"#utility.yul\":9938:10055   */\n    tag_94:\n        /* \"#utility.yul\":9992:10000   */\n      0x00\n        /* \"#utility.yul\":10042:10047   */\n      dup3\n        /* \"#utility.yul\":10036:10040   */\n      dup3\n        /* \"#utility.yul\":10032:10048   */\n      shr\n        /* \"#utility.yul\":10011:10048   */\n      swap1\n      pop\n        /* \"#utility.yul\":9938:10055   */\n      swap3\n      swap2\n      pop\n      pop\n      jump\t// out\n        /* \"#utility.yul\":10061:10230   */\n    tag_95:\n        /* \"#utility.yul\":10105:10111   */\n      0x00\n        /* \"#utility.yul\":10138:10189   */\n      tag_211\n        /* \"#utility.yul\":10186:10187   */\n      0x00\n        /* \"#utility.yul\":10182:10188   */\n      not\n        /* \"#utility.yul\":10174:10179   */\n      dup5\n        /* \"#utility.yul\":10171:10172   */\n      0x08\n        /* \"#utility.yul\":10167:10180   */\n      mul\n        /* \"#utility.yul\":10138:10189   */\n      tag_94\n      jump\t// in\n    tag_211:\n        /* \"#utility.yul\":10134:10190   */\n      not\n        /* \"#utility.yul\":10219:10223   */\n      dup1\n        /* \"#utility.yul\":10213:10217   */\n      dup4\n        /* \"#utility.yul\":10209:10224   */\n      and\n        /* \"#utility.yul\":10199:10224   */\n      swap2\n      pop\n        /* \"#utility.yul\":10112:10230   */\n      pop\n        /* \"#utility.yul\":10061:10230   */\n      swap3\n      swap2\n      pop\n      pop\n      jump\t// out\n        /* \"#utility.yul\":10235:10530   */\n    tag_96:\n        /* \"#utility.yul\":10311:10315   */\n      0x00\n        /* \"#utility.yul\":10457:10486   */\n      tag_213\n        /* \"#utility.yul\":10482:10485   */\n      dup4\n        /* \"#utility.yul\":10476:10480   */\n      dup4\n        /* \"#utility.yul\":10457:10486   */\n      tag_95\n      jump\t// in\n    tag_213:\n        /* \"#utility.yul\":10449:10486   */\n      swap2\n      pop\n        /* \"#utility.yul\":10519:10522   */\n      dup3\n        /* \"#utility.yul\":10516:10517   */\n      0x02\n        /* \"#utility.yul\":10512:10523   */\n      mul\n        /* \"#utility.yul\":10506:10510   */\n      dup3\n        /* \"#utility.yul\":10503:10524   */\n      or\n        /* \"#utility.yul\":10495:10524   */\n      swap1\n      pop\n        /* \"#utility.yul\":10235:10530   */\n      swap3\n      swap2\n      pop\n      pop\n      jump\t// out\n        /* \"#utility.yul\":10535:11930   */\n    tag_39:\n        /* \"#utility.yul\":10652:10689   */\n      tag_215\n        /* \"#utility.yul\":10685:10688   */\n      dup3\n        /* \"#utility.yul\":10652:10689   */\n      tag_64\n      jump\t// in\n    tag_215:\n        /* \"#utility.yul\":10754:10772   */\n      0xffffffffffffffff\n        /* \"#utility.yul\":10746:10752   */\n      dup2\n        /* \"#utility.yul\":10743:10773   */\n      gt\n        /* \"#utility.yul\":10740:10796   */\n      iszero\n      tag_216\n      jumpi\n        /* \"#utility.yul\":10776:10794   */\n      tag_217\n      tag_74\n      jump\t// in\n    tag_217:\n        /* \"#utility.yul\":10740:10796   */\n    tag_216:\n        /* \"#utility.yul\":10820:10858   */\n      tag_218\n        /* \"#utility.yul\":10852:10856   */\n      dup3\n        /* \"#utility.yul\":10846:10857   */\n      sload\n        /* \"#utility.yul\":10820:10858   */\n      tag_31\n      jump\t// in\n    tag_218:\n        /* \"#utility.yul\":10905:10972   */\n      tag_219\n        /* \"#utility.yul\":10965:10971   */\n      dup3\n        /* \"#utility.yul\":10957:10963   */\n      dup3\n        /* \"#utility.yul\":10951:10955   */\n      dup6\n        /* \"#utility.yul\":10905:10972   */\n      tag_93\n      jump\t// in\n    tag_219:\n        /* \"#utility.yul\":10999:11000   */\n      0x00\n        /* \"#utility.yul\":11023:11027   */\n      0x20\n        /* \"#utility.yul\":11010:11027   */\n      swap1\n      pop\n        /* \"#utility.yul\":11055:11057   */\n      0x1f\n        /* \"#utility.yul\":11047:11053   */\n      dup4\n        /* \"#utility.yul\":11044:11058   */\n      gt\n        /* \"#utility.yul\":11072:11073   */\n      0x01\n        /* \"#utility.yul\":11067:11685   */\n      dup2\n      eq\n      tag_221\n      jumpi\n        /* \"#utility.yul\":11729:11730   */\n      0x00\n        /* \"#utility.yul\":11746:11752   */\n      dup5\n        /* \"#utility.yul\":11743:11820   */\n      iszero\n      tag_222\n      jumpi\n        /* \"#utility.yul\":11795:11804   */\n      dup3\n        /* \"#utility.yul\":11790:11793   */\n      dup8\n        /* \"#utility.yul\":11786:11805   */\n      add\n        /* \"#utility.yul\":11780:11806   */\n      mload\n        /* \"#utility.yul\":11771:11806   */\n      swap1\n      pop\n        /* \"#utility.yul\":11743:11820   */\n    tag_222:\n        /* \"#utility.yul\":11846:11913   */\n      tag_223\n        /* \"#utility.yul\":11906:11912   */\n      dup6\n        /* \"#utility.yul\":11899:11904   */\n      dup3\n        /* \"#utility.yul\":11846:11913   */\n      tag_96\n      jump\t// in\n    tag_223:\n        /* \"#utility.yul\":11840:11844   */\n      dup7\n        /* \"#utility.yul\":11833:11914   */\n      sstore\n        /* \"#utility.yul\":11702:11924   */\n      pop\n        /* \"#utility.yul\":11037:11924   */\n      jump(tag_220)\n        /* \"#utility.yul\":11067:11685   */\n    tag_221:\n        /* \"#utility.yul\":11119:11123   */\n      0x1f\n        /* \"#utility.yul\":11115:11124   */\n      not\n        /* \"#utility.yul\":11107:11113   */\n      dup5\n        /* \"#utility.yul\":11103:11125   */\n      and\n        /* \"#utility.yul\":11153:11190   */\n      tag_224\n        /* \"#utility.yul\":11185:11189   */\n      dup7\n        /* \"#utility.yul\":11153:11190   */\n      tag_82\n      jump\t// in\n    tag_224:\n        /* \"#utility.yul\":11212:11213   */\n      0x00\n        /* \"#utility.yul\":11226:11434   */\n    tag_225:\n        /* \"#utility.yul\":11240:11247   */\n      dup3\n        /* \"#utility.yul\":11237:11238   */\n      dup2\n        /* \"#utility.yul\":11234:11248   */\n      lt\n        /* \"#utility.yul\":11226:11434   */\n      iszero\n      tag_227\n      jumpi\n        /* \"#utility.yul\":11319:11328   */\n      dup5\n        /* \"#utility.yul\":11314:11317   */\n      dup10\n        /* \"#utility.yul\":11310:11329   */\n      add\n        /* \"#utility.yul\":11304:11330   */\n      mload\n        /* \"#utility.yul\":11296:11302   */\n      dup3\n        /* \"#utility.yul\":11289:11331   */\n      sstore\n        /* \"#utility.yul\":11370:11371   */\n      0x01\n        /* \"#utility.yul\":11362:11368   */\n      dup3\n        /* \"#utility.yul\":11358:11372   */\n      add\n        /* \"#utility.yul\":11348:11372   */\n      swap2\n      pop\n        /* \"#utility.yul\":11417:11419   */\n      0x20\n        /* \"#utility.yul\":11406:11415   */\n      dup6\n        /* \"#utility.yul\":11402:11420   */\n      add\n        /* \"#utility.yul\":11389:11420   */\n      swap5\n      pop\n        /* \"#utility.yul\":11263:11267   */\n      0x20\n        /* \"#utility.yul\":11260:11261   */\n      dup2\n        /* \"#utility.yul\":11256:11268   */\n      add\n        /* \"#utility.yul\":11251:11268   */\n      swap1\n      pop\n        /* \"#utility.yul\":11226:11434   */\n      jump(tag_225)\n    tag_227:\n        /* \"#utility.yul\":11462:11468   */\n      dup7\n        /* \"#utility.yul\":11453:11460   */\n      dup4\n        /* \"#utility.yul\":11450:11469   */\n      lt\n        /* \"#utility.yul\":11447:11626   */\n      iszero\n      tag_228\n      jumpi\n        /* \"#utility.yul\":11520:11529   */\n      dup5\n        /* \"#utility.yul\":11515:11518   */\n      dup10\n        /* \"#utility.yul\":11511:11530   */\n      add\n        /* \"#utility.yul\":11505:11531   */\n      mload\n        /* \"#utility.yul\":11563:11611   */\n      tag_229\n        /* \"#utility.yul\":11605:11609   */\n      0x1f\n        /* \"#utility.yul\":11597:11603   */\n      dup10\n        /* \"#utility.yul\":11593:11610   */\n      and\n        /* \"#utility.yul\":11582:11591   */\n      dup3\n        /* \"#utility.yul\":11563:11611   */\n      tag_95\n      jump\t// in\n    tag_229:\n        /* \"#utility.yul\":11555:11561   */\n      dup4\n        /* \"#utility.yul\":11548:11612   */\n      sstore\n        /* \"#utility.yul\":11470:11626   */\n      pop\n        /* \"#utility.yul\":11447:11626   */\n    tag_228:\n        /* \"#utility.yul\":11672:11673   */\n      0x01\n        /* \"#utility.yul\":11668:11669   */\n      0x02\n        /* \"#utility.yul\":11660:11666   */\n      dup9\n        /* \"#utility.yul\":11656:11670   */\n      mul\n        /* \"#utility.yul\":11652:11674   */\n      add\n        /* \"#utility.yul\":11646:11650   */\n      dup9\n        /* \"#utility.yul\":11639:11675   */\n      sstore\n        /* \"#utility.yul\":11074:11685   */\n      pop\n      pop\n      pop\n        /* \"#utility.yul\":11037:11924   */\n    tag_220:\n      pop\n        /* \"#utility.yul\":10627:11930   */\n      pop\n      pop\n      pop\n        /* \"#utility.yul\":10535:11930   */\n      pop\n      pop\n      jump\t// out\n\n    auxdata: 0xa2646970667358221220224221cac8483473d81be261d103459a5c6d9078c100bbce79423f613d8e010e64736f6c63430008150033\n}\n",
				"bytecode": {
					"linkReferences": {},
					"object": "608060405234801561000f575f80fd5b5061097a8061001d5f395ff3fe608060405234801561000f575f80fd5b506004361061003f575f3560e01c80635f21f8c2146100435780637fa1680a1461005f57806395ffebf51461007d575b5f80fd5b61005d6004803603810190610058919061034b565b6100ad565b005b6100676100d6565b60405161007491906104bb565b60405180910390f35b61009760048036038101906100929190610607565b6101a9565b6040516100a491906104bb565b60405180910390f35b5f81815481106100c0576100bf61064e565b5b905f5260205f20015f6100d391906102af565b50565b60605f805480602002602001604051908101604052809291908181526020015f905b828210156101a0578382905f5260205f20018054610115906106a8565b80601f0160208091040260200160405190810160405280929190818152602001828054610141906106a8565b801561018c5780601f106101635761010080835404028352916020019161018c565b820191905f5260205f20905b81548152906001019060200180831161016f57829003601f168201915b5050505050815260200190600101906100f8565b50505050905090565b60605f82908060018154018082558091505060019003905f5260205f20015f9091909190915090816101db9190610875565b505f805480602002602001604051908101604052809291908181526020015f905b828210156102a4578382905f5260205f20018054610219906106a8565b80601f0160208091040260200160405190810160405280929190818152602001828054610245906106a8565b80156102905780601f1061026757610100808354040283529160200191610290565b820191905f5260205f20905b81548152906001019060200180831161027357829003601f168201915b5050505050815260200190600101906101fc565b505050509050919050565b5080546102bb906106a8565b5f825580601f106102cc57506102e9565b601f0160209004905f5260205f20908101906102e891906102ec565b5b50565b5b80821115610303575f815f9055506001016102ed565b5090565b5f604051905090565b5f80fd5b5f80fd5b5f819050919050565b61032a81610318565b8114610334575f80fd5b50565b5f8135905061034581610321565b92915050565b5f602082840312156103605761035f610310565b5b5f61036d84828501610337565b91505092915050565b5f81519050919050565b5f82825260208201905092915050565b5f819050602082019050919050565b5f81519050919050565b5f82825260208201905092915050565b5f5b838110156103d65780820151818401526020810190506103bb565b5f8484015250505050565b5f601f19601f8301169050919050565b5f6103fb8261039f565b61040581856103a9565b93506104158185602086016103b9565b61041e816103e1565b840191505092915050565b5f61043483836103f1565b905092915050565b5f602082019050919050565b5f61045282610376565b61045c8185610380565b93508360208202850161046e85610390565b805f5b858110156104a9578484038952815161048a8582610429565b94506104958361043c565b925060208a01995050600181019050610471565b50829750879550505050505092915050565b5f6020820190508181035f8301526104d38184610448565b905092915050565b5f80fd5b5f80fd5b7f4e487b71000000000000000000000000000000000000000000000000000000005f52604160045260245ffd5b610519826103e1565b810181811067ffffffffffffffff82111715610538576105376104e3565b5b80604052505050565b5f61054a610307565b90506105568282610510565b919050565b5f67ffffffffffffffff821115610575576105746104e3565b5b61057e826103e1565b9050602081019050919050565b828183375f83830152505050565b5f6105ab6105a68461055b565b610541565b9050828152602081018484840111156105c7576105c66104df565b5b6105d284828561058b565b509392505050565b5f82601f8301126105ee576105ed6104db565b5b81356105fe848260208601610599565b91505092915050565b5f6020828403121561061c5761061b610310565b5b5f82013567ffffffffffffffff81111561063957610638610314565b5b610645848285016105da565b91505092915050565b7f4e487b71000000000000000000000000000000000000000000000000000000005f52603260045260245ffd5b7f4e487b71000000000000000000000000000000000000000000000000000000005f52602260045260245ffd5b5f60028204905060018216806106bf57607f821691505b6020821081036106d2576106d161067b565b5b50919050565b5f819050815f5260205f209050919050565b5f6020601f8301049050919050565b5f82821b905092915050565b5f600883026107347fffffffffffffffffffffffffffffffffffffffffffffffffffffffffffffffff826106f9565b61073e86836106f9565b95508019841693508086168417925050509392505050565b5f819050919050565b5f61077961077461076f84610318565b610756565b610318565b9050919050565b5f819050919050565b6107928361075f565b6107a661079e82610780565b848454610705565b825550505050565b5f90565b6107ba6107ae565b6107c5818484610789565b505050565b5b818110156107e8576107dd5f826107b2565b6001810190506107cb565b5050565b601f82111561082d576107fe816106d8565b610807846106ea565b81016020851015610816578190505b61082a610822856106ea565b8301826107ca565b50505b505050565b5f82821c905092915050565b5f61084d5f1984600802610832565b1980831691505092915050565b5f610865838361083e565b9150826002028217905092915050565b61087e8261039f565b67ffffffffffffffff811115610897576108966104e3565b5b6108a182546106a8565b6108ac8282856107ec565b5f60209050601f8311600181146108dd575f84156108cb578287015190505b6108d5858261085a565b86555061093c565b601f1984166108eb866106d8565b5f5b82811015610912578489015182556001820191506020850194506020810190506108ed565b8683101561092f578489015161092b601f89168261083e565b8355505b6001600288020188555050505b50505050505056fea2646970667358221220224221cac8483473d81be261d103459a5c6d9078c100bbce79423f613d8e010e64736f6c63430008150033",
					"opcodes": "PUSH1 0x80 PUSH1 0x40 MSTORE CALLVALUE DUP1 ISZERO PUSH2 0xF JUMPI PUSH0 DUP1 REVERT JUMPDEST POP PUSH2 0x97A DUP1 PUSH2 0x1D PUSH0 CODECOPY PUSH0 RETURN INVALID PUSH1 0x80 PUSH1 0x40 MSTORE CALLVALUE DUP1 ISZERO PUSH2 0xF JUMPI PUSH0 DUP1 REVERT JUMPDEST POP PUSH1 0x4 CALLDATASIZE LT PUSH2 0x3F JUMPI PUSH0 CALLDATALOAD PUSH1 0xE0 SHR DUP1 PUSH4 0x5F21F8C2 EQ PUSH2 0x43 JUMPI DUP1 PUSH4 0x7FA1680A EQ PUSH2 0x5F JUMPI DUP1 PUSH4 0x95FFEBF5 EQ PUSH2 0x7D JUMPI JUMPDEST PUSH0 DUP1 REVERT JUMPDEST PUSH2 0x5D PUSH1 0x4 DUP1 CALLDATASIZE SUB DUP2 ADD SWAP1 PUSH2 0x58 SWAP2 SWAP1 PUSH2 0x34B JUMP JUMPDEST PUSH2 0xAD JUMP JUMPDEST STOP JUMPDEST PUSH2 0x67 PUSH2 0xD6 JUMP JUMPDEST PUSH1 0x40 MLOAD PUSH2 0x74 SWAP2 SWAP1 PUSH2 0x4BB JUMP JUMPDEST PUSH1 0x40 MLOAD DUP1 SWAP2 SUB SWAP1 RETURN JUMPDEST PUSH2 0x97 PUSH1 0x4 DUP1 CALLDATASIZE SUB DUP2 ADD SWAP1 PUSH2 0x92 SWAP2 SWAP1 PUSH2 0x607 JUMP JUMPDEST PUSH2 0x1A9 JUMP JUMPDEST PUSH1 0x40 MLOAD PUSH2 0xA4 SWAP2 SWAP1 PUSH2 0x4BB JUMP JUMPDEST PUSH1 0x40 MLOAD DUP1 SWAP2 SUB SWAP1 RETURN JUMPDEST PUSH0 DUP2 DUP2 SLOAD DUP2 LT PUSH2 0xC0 JUMPI PUSH2 0xBF PUSH2 0x64E JUMP JUMPDEST JUMPDEST SWAP1 PUSH0 MSTORE PUSH1 0x20 PUSH0 KECCAK256 ADD PUSH0 PUSH2 0xD3 SWAP2 SWAP1 PUSH2 0x2AF JUMP JUMPDEST POP JUMP JUMPDEST PUSH1 0x60 PUSH0 DUP1 SLOAD DUP1 PUSH1 0x20 MUL PUSH1 0x20 ADD PUSH1 0x40 MLOAD SWAP1 DUP2 ADD PUSH1 0x40 MSTORE DUP1 SWAP3 SWAP2 SWAP1 DUP2 DUP2 MSTORE PUSH1 0x20 ADD PUSH0 SWAP1 JUMPDEST DUP3 DUP3 LT ISZERO PUSH2 0x1A0 JUMPI DUP4 DUP3 SWAP1 PUSH0 MSTORE PUSH1 0x20 PUSH0 KECCAK256 ADD DUP1 SLOAD PUSH2 0x115 SWAP1 PUSH2 0x6A8 JUMP JUMPDEST DUP1 PUSH1 0x1F ADD PUSH1 0x20 DUP1 SWAP2 DIV MUL PUSH1 0x20 ADD PUSH1 0x40 MLOAD SWAP1 DUP2 ADD PUSH1 0x40 MSTORE DUP1 SWAP3 SWAP2 SWAP1 DUP2 DUP2 MSTORE PUSH1 0x20 ADD DUP3 DUP1 SLOAD PUSH2 0x141 SWAP1 PUSH2 0x6A8 JUMP JUMPDEST DUP1 ISZERO PUSH2 0x18C JUMPI DUP1 PUSH1 0x1F LT PUSH2 0x163 JUMPI PUSH2 0x100 DUP1 DUP4 SLOAD DIV MUL DUP4 MSTORE SWAP2 PUSH1 0x20 ADD SWAP2 PUSH2 0x18C JUMP JUMPDEST DUP3 ADD SWAP2 SWAP1 PUSH0 MSTORE PUSH1 0x20 PUSH0 KECCAK256 SWAP1 JUMPDEST DUP2 SLOAD DUP2 MSTORE SWAP1 PUSH1 0x1 ADD SWAP1 PUSH1 0x20 ADD DUP1 DUP4 GT PUSH2 0x16F JUMPI DUP3 SWAP1 SUB PUSH1 0x1F AND DUP3 ADD SWAP2 JUMPDEST POP POP POP POP POP DUP2 MSTORE PUSH1 0x20 ADD SWAP1 PUSH1 0x1 ADD SWAP1 PUSH2 0xF8 JUMP JUMPDEST POP POP POP POP SWAP1 POP SWAP1 JUMP JUMPDEST PUSH1 0x60 PUSH0 DUP3 SWAP1 DUP1 PUSH1 0x1 DUP2 SLOAD ADD DUP1 DUP3 SSTORE DUP1 SWAP2 POP POP PUSH1 0x1 SWAP1 SUB SWAP1 PUSH0 MSTORE PUSH1 0x20 PUSH0 KECCAK256 ADD PUSH0 SWAP1 SWAP2 SWAP1 SWAP2 SWAP1 SWAP2 POP SWAP1 DUP2 PUSH2 0x1DB SWAP2 SWAP1 PUSH2 0x875 JUMP JUMPDEST POP PUSH0 DUP1 SLOAD DUP1 PUSH1 0x20 MUL PUSH1 0x20 ADD PUSH1 0x40 MLOAD SWAP1 DUP2 ADD PUSH1 0x40 MSTORE DUP1 SWAP3 SWAP2 SWAP1 DUP2 DUP2 MSTORE PUSH1 0x20 ADD PUSH0 SWAP1 JUMPDEST DUP3 DUP3 LT ISZERO PUSH2 0x2A4 JUMPI DUP4 DUP3 SWAP1 PUSH0 MSTORE PUSH1 0x20 PUSH0 KECCAK256 ADD DUP1 SLOAD PUSH2 0x219 SWAP1 PUSH2 0x6A8 JUMP JUMPDEST DUP1 PUSH1 0x1F ADD PUSH1 0x20 DUP1 SWAP2 DIV MUL PUSH1 0x20 ADD PUSH1 0x40 MLOAD SWAP1 DUP2 ADD PUSH1 0x40 MSTORE DUP1 SWAP3 SWAP2 SWAP1 DUP2 DUP2 MSTORE PUSH1 0x20 ADD DUP3 DUP1 SLOAD PUSH2 0x245 SWAP1 PUSH2 0x6A8 JUMP JUMPDEST DUP1 ISZERO PUSH2 0x290 JUMPI DUP1 PUSH1 0x1F LT PUSH2 0x267 JUMPI PUSH2 0x100 DUP1 DUP4 SLOAD DIV MUL DUP4 MSTORE SWAP2 PUSH1 0x20 ADD SWAP2 PUSH2 0x290 JUMP JUMPDEST DUP3 ADD SWAP2 SWAP1 PUSH0 MSTORE PUSH1 0x20 PUSH0 KECCAK256 SWAP1 JUMPDEST DUP2 SLOAD DUP2 MSTORE SWAP1 PUSH1 0x1 ADD SWAP1 PUSH1 0x20 ADD DUP1 DUP4 GT PUSH2 0x273 JUMPI DUP3 SWAP1 SUB PUSH1 0x1F AND DUP3 ADD SWAP2 JUMPDEST POP POP POP POP POP DUP2 MSTORE PUSH1 0x20 ADD SWAP1 PUSH1 0x1 ADD SWAP1 PUSH2 0x1FC JUMP JUMPDEST POP POP POP POP SWAP1 POP SWAP2 SWAP1 POP JUMP JUMPDEST POP DUP1 SLOAD PUSH2 0x2BB SWAP1 PUSH2 0x6A8 JUMP JUMPDEST PUSH0 DUP3 SSTORE DUP1 PUSH1 0x1F LT PUSH2 0x2CC JUMPI POP PUSH2 0x2E9 JUMP JUMPDEST PUSH1 0x1F ADD PUSH1 0x20 SWAP1 DIV SWAP1 PUSH0 MSTORE PUSH1 0x20 PUSH0 KECCAK256 SWAP1 DUP2 ADD SWAP1 PUSH2 0x2E8 SWAP2 SWAP1 PUSH2 0x2EC JUMP JUMPDEST JUMPDEST POP JUMP JUMPDEST JUMPDEST DUP1 DUP3 GT ISZERO PUSH2 0x303 JUMPI PUSH0 DUP2 PUSH0 SWAP1 SSTORE POP PUSH1 0x1 ADD PUSH2 0x2ED JUMP JUMPDEST POP SWAP1 JUMP JUMPDEST PUSH0 PUSH1 0x40 MLOAD SWAP1 POP SWAP1 JUMP JUMPDEST PUSH0 DUP1 REVERT JUMPDEST PUSH0 DUP1 REVERT JUMPDEST PUSH0 DUP2 SWAP1 POP SWAP2 SWAP1 POP JUMP JUMPDEST PUSH2 0x32A DUP2 PUSH2 0x318 JUMP JUMPDEST DUP2 EQ PUSH2 0x334 JUMPI PUSH0 DUP1 REVERT JUMPDEST POP JUMP JUMPDEST PUSH0 DUP2 CALLDATALOAD SWAP1 POP PUSH2 0x345 DUP2 PUSH2 0x321 JUMP JUMPDEST SWAP3 SWAP2 POP POP JUMP JUMPDEST PUSH0 PUSH1 0x20 DUP3 DUP5 SUB SLT ISZERO PUSH2 0x360 JUMPI PUSH2 0x35F PUSH2 0x310 JUMP JUMPDEST JUMPDEST PUSH0 PUSH2 0x36D DUP5 DUP3 DUP6 ADD PUSH2 0x337 JUMP JUMPDEST SWAP2 POP POP SWAP3 SWAP2 POP POP JUMP JUMPDEST PUSH0 DUP2 MLOAD SWAP1 POP SWAP2 SWAP1 POP JUMP JUMPDEST PUSH0 DUP3 DUP3 MSTORE PUSH1 0x20 DUP3 ADD SWAP1 POP SWAP3 SWAP2 POP POP JUMP JUMPDEST PUSH0 DUP2 SWAP1 POP PUSH1 0x20 DUP3 ADD SWAP1 POP SWAP2 SWAP1 POP JUMP JUMPDEST PUSH0 DUP2 MLOAD SWAP1 POP SWAP2 SWAP1 POP JUMP JUMPDEST PUSH0 DUP3 DUP3 MSTORE PUSH1 0x20 DUP3 ADD SWAP1 POP SWAP3 SWAP2 POP POP JUMP JUMPDEST PUSH0 JUMPDEST DUP4 DUP2 LT ISZERO PUSH2 0x3D6 JUMPI DUP1 DUP3 ADD MLOAD DUP2 DUP5 ADD MSTORE PUSH1 0x20 DUP2 ADD SWAP1 POP PUSH2 0x3BB JUMP JUMPDEST PUSH0 DUP5 DUP5 ADD MSTORE POP POP POP POP JUMP JUMPDEST PUSH0 PUSH1 0x1F NOT PUSH1 0x1F DUP4 ADD AND SWAP1 POP SWAP2 SWAP1 POP JUMP JUMPDEST PUSH0 PUSH2 0x3FB DUP3 PUSH2 0x39F JUMP JUMPDEST PUSH2 0x405 DUP2 DUP6 PUSH2 0x3A9 JUMP JUMPDEST SWAP4 POP PUSH2 0x415 DUP2 DUP6 PUSH1 0x20 DUP7 ADD PUSH2 0x3B9 JUMP JUMPDEST PUSH2 0x41E DUP2 PUSH2 0x3E1 JUMP JUMPDEST DUP5 ADD SWAP2 POP POP SWAP3 SWAP2 POP POP JUMP JUMPDEST PUSH0 PUSH2 0x434 DUP4 DUP4 PUSH2 0x3F1 JUMP JUMPDEST SWAP1 POP SWAP3 SWAP2 POP POP JUMP JUMPDEST PUSH0 PUSH1 0x20 DUP3 ADD SWAP1 POP SWAP2 SWAP1 POP JUMP JUMPDEST PUSH0 PUSH2 0x452 DUP3 PUSH2 0x376 JUMP JUMPDEST PUSH2 0x45C DUP2 DUP6 PUSH2 0x380 JUMP JUMPDEST SWAP4 POP DUP4 PUSH1 0x20 DUP3 MUL DUP6 ADD PUSH2 0x46E DUP6 PUSH2 0x390 JUMP JUMPDEST DUP1 PUSH0 JUMPDEST DUP6 DUP2 LT ISZERO PUSH2 0x4A9 JUMPI DUP5 DUP5 SUB DUP10 MSTORE DUP2 MLOAD PUSH2 0x48A DUP6 DUP3 PUSH2 0x429 JUMP JUMPDEST SWAP5 POP PUSH2 0x495 DUP4 PUSH2 0x43C JUMP JUMPDEST SWAP3 POP PUSH1 0x20 DUP11 ADD SWAP10 POP POP PUSH1 0x1 DUP2 ADD SWAP1 POP PUSH2 0x471 JUMP JUMPDEST POP DUP3 SWAP8 POP DUP8 SWAP6 POP POP POP POP POP POP SWAP3 SWAP2 POP POP JUMP JUMPDEST PUSH0 PUSH1 0x20 DUP3 ADD SWAP1 POP DUP2 DUP2 SUB PUSH0 DUP4 ADD MSTORE PUSH2 0x4D3 DUP2 DUP5 PUSH2 0x448 JUMP JUMPDEST SWAP1 POP SWAP3 SWAP2 POP POP JUMP JUMPDEST PUSH0 DUP1 REVERT JUMPDEST PUSH0 DUP1 REVERT JUMPDEST PUSH32 0x4E487B7100000000000000000000000000000000000000000000000000000000 PUSH0 MSTORE PUSH1 0x41 PUSH1 0x4 MSTORE PUSH1 0x24 PUSH0 REVERT JUMPDEST PUSH2 0x519 DUP3 PUSH2 0x3E1 JUMP JUMPDEST DUP2 ADD DUP2 DUP2 LT PUSH8 0xFFFFFFFFFFFFFFFF DUP3 GT OR ISZERO PUSH2 0x538 JUMPI PUSH2 0x537 PUSH2 0x4E3 JUMP JUMPDEST JUMPDEST DUP1 PUSH1 0x40 MSTORE POP POP POP JUMP JUMPDEST PUSH0 PUSH2 0x54A PUSH2 0x307 JUMP JUMPDEST SWAP1 POP PUSH2 0x556 DUP3 DUP3 PUSH2 0x510 JUMP JUMPDEST SWAP2 SWAP1 POP JUMP JUMPDEST PUSH0 PUSH8 0xFFFFFFFFFFFFFFFF DUP3 GT ISZERO PUSH2 0x575 JUMPI PUSH2 0x574 PUSH2 0x4E3 JUMP JUMPDEST JUMPDEST PUSH2 0x57E DUP3 PUSH2 0x3E1 JUMP JUMPDEST SWAP1 POP PUSH1 0x20 DUP2 ADD SWAP1 POP SWAP2 SWAP1 POP JUMP JUMPDEST DUP3 DUP2 DUP4 CALLDATACOPY PUSH0 DUP4 DUP4 ADD MSTORE POP POP POP JUMP JUMPDEST PUSH0 PUSH2 0x5AB PUSH2 0x5A6 DUP5 PUSH2 0x55B JUMP JUMPDEST PUSH2 0x541 JUMP JUMPDEST SWAP1 POP DUP3 DUP2 MSTORE PUSH1 0x20 DUP2 ADD DUP5 DUP5 DUP5 ADD GT ISZERO PUSH2 0x5C7 JUMPI PUSH2 0x5C6 PUSH2 0x4DF JUMP JUMPDEST JUMPDEST PUSH2 0x5D2 DUP5 DUP3 DUP6 PUSH2 0x58B JUMP JUMPDEST POP SWAP4 SWAP3 POP POP POP JUMP JUMPDEST PUSH0 DUP3 PUSH1 0x1F DUP4 ADD SLT PUSH2 0x5EE JUMPI PUSH2 0x5ED PUSH2 0x4DB JUMP JUMPDEST JUMPDEST DUP2 CALLDATALOAD PUSH2 0x5FE DUP5 DUP3 PUSH1 0x20 DUP7 ADD PUSH2 0x599 JUMP JUMPDEST SWAP2 POP POP SWAP3 SWAP2 POP POP JUMP JUMPDEST PUSH0 PUSH1 0x20 DUP3 DUP5 SUB SLT ISZERO PUSH2 0x61C JUMPI PUSH2 0x61B PUSH2 0x310 JUMP JUMPDEST JUMPDEST PUSH0 DUP3 ADD CALLDATALOAD PUSH8 0xFFFFFFFFFFFFFFFF DUP2 GT ISZERO PUSH2 0x639 JUMPI PUSH2 0x638 PUSH2 0x314 JUMP JUMPDEST JUMPDEST PUSH2 0x645 DUP5 DUP3 DUP6 ADD PUSH2 0x5DA JUMP JUMPDEST SWAP2 POP POP SWAP3 SWAP2 POP POP JUMP JUMPDEST PUSH32 0x4E487B7100000000000000000000000000000000000000000000000000000000 PUSH0 MSTORE PUSH1 0x32 PUSH1 0x4 MSTORE PUSH1 0x24 PUSH0 REVERT JUMPDEST PUSH32 0x4E487B7100000000000000000000000000000000000000000000000000000000 PUSH0 MSTORE PUSH1 0x22 PUSH1 0x4 MSTORE PUSH1 0x24 PUSH0 REVERT JUMPDEST PUSH0 PUSH1 0x2 DUP3 DIV SWAP1 POP PUSH1 0x1 DUP3 AND DUP1 PUSH2 0x6BF JUMPI PUSH1 0x7F DUP3 AND SWAP2 POP JUMPDEST PUSH1 0x20 DUP3 LT DUP2 SUB PUSH2 0x6D2 JUMPI PUSH2 0x6D1 PUSH2 0x67B JUMP JUMPDEST JUMPDEST POP SWAP2 SWAP1 POP JUMP JUMPDEST PUSH0 DUP2 SWAP1 POP DUP2 PUSH0 MSTORE PUSH1 0x20 PUSH0 KECCAK256 SWAP1 POP SWAP2 SWAP1 POP JUMP JUMPDEST PUSH0 PUSH1 0x20 PUSH1 0x1F DUP4 ADD DIV SWAP1 POP SWAP2 SWAP1 POP JUMP JUMPDEST PUSH0 DUP3 DUP3 SHL SWAP1 POP SWAP3 SWAP2 POP POP JUMP JUMPDEST PUSH0 PUSH1 0x8 DUP4 MUL PUSH2 0x734 PUSH32 0xFFFFFFFFFFFFFFFFFFFFFFFFFFFFFFFFFFFFFFFFFFFFFFFFFFFFFFFFFFFFFFFF DUP3 PUSH2 0x6F9 JUMP JUMPDEST PUSH2 0x73E DUP7 DUP4 PUSH2 0x6F9 JUMP JUMPDEST SWAP6 POP DUP1 NOT DUP5 AND SWAP4 POP DUP1 DUP7 AND DUP5 OR SWAP3 POP POP POP SWAP4 SWAP3 POP POP POP JUMP JUMPDEST PUSH0 DUP2 SWAP1 POP SWAP2 SWAP1 POP JUMP JUMPDEST PUSH0 PUSH2 0x779 PUSH2 0x774 PUSH2 0x76F DUP5 PUSH2 0x318 JUMP JUMPDEST PUSH2 0x756 JUMP JUMPDEST PUSH2 0x318 JUMP JUMPDEST SWAP1 POP SWAP2 SWAP1 POP JUMP JUMPDEST PUSH0 DUP2 SWAP1 POP SWAP2 SWAP1 POP JUMP JUMPDEST PUSH2 0x792 DUP4 PUSH2 0x75F JUMP JUMPDEST PUSH2 0x7A6 PUSH2 0x79E DUP3 PUSH2 0x780 JUMP JUMPDEST DUP5 DUP5 SLOAD PUSH2 0x705 JUMP JUMPDEST DUP3 SSTORE POP POP POP POP JUMP JUMPDEST PUSH0 SWAP1 JUMP JUMPDEST PUSH2 0x7BA PUSH2 0x7AE JUMP JUMPDEST PUSH2 0x7C5 DUP2 DUP5 DUP5 PUSH2 0x789 JUMP JUMPDEST POP POP POP JUMP JUMPDEST JUMPDEST DUP2 DUP2 LT ISZERO PUSH2 0x7E8 JUMPI PUSH2 0x7DD PUSH0 DUP3 PUSH2 0x7B2 JUMP JUMPDEST PUSH1 0x1 DUP2 ADD SWAP1 POP PUSH2 0x7CB JUMP JUMPDEST POP POP JUMP JUMPDEST PUSH1 0x1F DUP3 GT ISZERO PUSH2 0x82D JUMPI PUSH2 0x7FE DUP2 PUSH2 0x6D8 JUMP JUMPDEST PUSH2 0x807 DUP5 PUSH2 0x6EA JUMP JUMPDEST DUP2 ADD PUSH1 0x20 DUP6 LT ISZERO PUSH2 0x816 JUMPI DUP2 SWAP1 POP JUMPDEST PUSH2 0x82A PUSH2 0x822 DUP6 PUSH2 0x6EA JUMP JUMPDEST DUP4 ADD DUP3 PUSH2 0x7CA JUMP JUMPDEST POP POP JUMPDEST POP POP POP JUMP JUMPDEST PUSH0 DUP3 DUP3 SHR SWAP1 POP SWAP3 SWAP2 POP POP JUMP JUMPDEST PUSH0 PUSH2 0x84D PUSH0 NOT DUP5 PUSH1 0x8 MUL PUSH2 0x832 JUMP JUMPDEST NOT DUP1 DUP4 AND SWAP2 POP POP SWAP3 SWAP2 POP POP JUMP JUMPDEST PUSH0 PUSH2 0x865 DUP4 DUP4 PUSH2 0x83E JUMP JUMPDEST SWAP2 POP DUP3 PUSH1 0x2 MUL DUP3 OR SWAP1 POP SWAP3 SWAP2 POP POP JUMP JUMPDEST PUSH2 0x87E DUP3 PUSH2 0x39F JUMP JUMPDEST PUSH8 0xFFFFFFFFFFFFFFFF DUP2 GT ISZERO PUSH2 0x897 JUMPI PUSH2 0x896 PUSH2 0x4E3 JUMP JUMPDEST JUMPDEST PUSH2 0x8A1 DUP3 SLOAD PUSH2 0x6A8 JUMP JUMPDEST PUSH2 0x8AC DUP3 DUP3 DUP6 PUSH2 0x7EC JUMP JUMPDEST PUSH0 PUSH1 0x20 SWAP1 POP PUSH1 0x1F DUP4 GT PUSH1 0x1 DUP2 EQ PUSH2 0x8DD JUMPI PUSH0 DUP5 ISZERO PUSH2 0x8CB JUMPI DUP3 DUP8 ADD MLOAD SWAP1 POP JUMPDEST PUSH2 0x8D5 DUP6 DUP3 PUSH2 0x85A JUMP JUMPDEST DUP7 SSTORE POP PUSH2 0x93C JUMP JUMPDEST PUSH1 0x1F NOT DUP5 AND PUSH2 0x8EB DUP7 PUSH2 0x6D8 JUMP JUMPDEST PUSH0 JUMPDEST DUP3 DUP2 LT ISZERO PUSH2 0x912 JUMPI DUP5 DUP10 ADD MLOAD DUP3 SSTORE PUSH1 0x1 DUP3 ADD SWAP2 POP PUSH1 0x20 DUP6 ADD SWAP5 POP PUSH1 0x20 DUP2 ADD SWAP1 POP PUSH2 0x8ED JUMP JUMPDEST DUP7 DUP4 LT ISZERO PUSH2 0x92F JUMPI DUP5 DUP10 ADD MLOAD PUSH2 0x92B PUSH1 0x1F DUP10 AND DUP3 PUSH2 0x83E JUMP JUMPDEST DUP4 SSTORE POP JUMPDEST PUSH1 0x1 PUSH1 0x2 DUP9 MUL ADD DUP9 SSTORE POP POP POP JUMPDEST POP POP POP POP POP POP JUMP INVALID LOG2 PUSH5 0x6970667358 0x22 SLT KECCAK256 0x22 TIMESTAMP 0x21 0xCA 0xC8 BASEFEE CALLVALUE PUSH20 0xD81BE261D103459A5C6D9078C100BBCE79423F61 RETURNDATASIZE DUP15 ADD 0xE PUSH5 0x736F6C6343 STOP ADDMOD ISZERO STOP CALLER "
				},
				"gasEstimates": {
					"creation": {
						"codeDepositCost": "485200",
						"executionCost": "516",
						"totalCost": "485716"
					},
					"external": {
						"addTodo(string)": "infinite",
						"delTodo(uint256)": "infinite",
						"getTodo()": "infinite"
					}
				},
				"methodIdentifiers": {
					"addTodo(string)": "95ffebf5",
					"delTodo(uint256)": "5f21f8c2",
					"getTodo()": "7fa1680a"
				}
			},
			"storageLayout": {
				"storage": [
					{
						"astId": 4,
						"contract": "contracts/projects/4_todo.sol:todo",
						"label": "todoArr",
						"offset": 0,
						"slot": "0",
						"type": "t_array(t_string_storage)dyn_storage"
					}
				],
				"types": {
					"t_array(t_string_storage)dyn_storage": {
						"base": "t_string_storage",
						"encoding": "dynamic_array",
						"label": "string[]",
						"numberOfBytes": "32"
					},
					"t_string_storage": {
						"encoding": "bytes",
						"label": "string",
						"numberOfBytes": "32"
					}
				}
			},
			"userdoc": {
				"kind": "user",
				"methods": {},
				"version": 1
			}
		}
	}
}