{
	"data": {
		"bytecode": {
			"linkReferences": {},
			"object": "608060405234801561001057600080fd5b50610398806100206000396000f3fe608060405234801561001057600080fd5b50600436106100625760003560e01c8063011285da146100675780633205f5fc146100855780635298f36d146100a3578063d826f88f146100bf578063e3ec0251146100c9578063ec597128146100e7575b600080fd5b61006f610105565b60405161007c919061019d565b60405180910390f35b61008d61011c565b60405161009a919061019d565b60405180910390f35b6100bd60048036038101906100b891906101e9565b610133565b005b6100c7610145565b005b6100d1610156565b6040516100de919061019d565b60405180910390f35b6100ef61016d565b6040516100fc919061019d565b60405180910390f35b60006001546000546101179190610258565b905090565b600060015460005461012e91906102c9565b905090565b81600081905550806001819055505050565b600080819055506000600181905550565b600060015460005461016891906102fa565b905090565b600060015460005461017f919061032e565b905090565b6000819050919050565b61019781610184565b82525050565b60006020820190506101b2600083018461018e565b92915050565b600080fd5b6101c681610184565b81146101d157600080fd5b50565b6000813590506101e3816101bd565b92915050565b60008060408385031215610200576101ff6101b8565b5b600061020e858286016101d4565b925050602061021f858286016101d4565b9150509250929050565b7f4e487b7100000000000000000000000000000000000000000000000000000000600052601160045260246000fd5b600061026382610184565b915061026e83610184565b925082820261027c81610184565b9150828204841483151761029357610292610229565b5b5092915050565b7f4e487b7100000000000000000000000000000000000000000000000000000000600052601260045260246000fd5b60006102d482610184565b91506102df83610184565b9250826102ef576102ee61029a565b5b828204905092915050565b600061030582610184565b915061031083610184565b925082820390508181111561032857610327610229565b5b92915050565b600061033982610184565b915061034483610184565b925082820190508082111561035c5761035b610229565b5b9291505056fea264697066735822122007d9d579e673b81ee43a5b5b1156b91b418b5c4c11b5b2f1e0b45810f9fd0d7f64736f6c63430008120033",
			"opcodes": "PUSH1 0x80 PUSH1 0x40 MSTORE CALLVALUE DUP1 ISZERO PUSH2 0x10 JUMPI PUSH1 0x0 DUP1 REVERT JUMPDEST POP PUSH2 0x398 DUP1 PUSH2 0x20 PUSH1 0x0 CODECOPY PUSH1 0x0 RETURN INVALID PUSH1 0x80 PUSH1 0x40 MSTORE CALLVALUE DUP1 ISZERO PUSH2 0x10 JUMPI PUSH1 0x0 DUP1 REVERT JUMPDEST POP PUSH1 0x4 CALLDATASIZE LT PUSH2 0x62 JUMPI PUSH1 0x0 CALLDATALOAD PUSH1 0xE0 SHR DUP1 PUSH4 0x11285DA EQ PUSH2 0x67 JUMPI DUP1 PUSH4 0x3205F5FC EQ PUSH2 0x85 JUMPI DUP1 PUSH4 0x5298F36D EQ PUSH2 0xA3 JUMPI DUP1 PUSH4 0xD826F88F EQ PUSH2 0xBF JUMPI DUP1 PUSH4 0xE3EC0251 EQ PUSH2 0xC9 JUMPI DUP1 PUSH4 0xEC597128 EQ PUSH2 0xE7 JUMPI JUMPDEST PUSH1 0x0 DUP1 REVERT JUMPDEST PUSH2 0x6F PUSH2 0x105 JUMP JUMPDEST PUSH1 0x40 MLOAD PUSH2 0x7C SWAP2 SWAP1 PUSH2 0x19D JUMP JUMPDEST PUSH1 0x40 MLOAD DUP1 SWAP2 SUB SWAP1 RETURN JUMPDEST PUSH2 0x8D PUSH2 0x11C JUMP JUMPDEST PUSH1 0x40 MLOAD PUSH2 0x9A SWAP2 SWAP1 PUSH2 0x19D JUMP JUMPDEST PUSH1 0x40 MLOAD DUP1 SWAP2 SUB SWAP1 RETURN JUMPDEST PUSH2 0xBD PUSH1 0x4 DUP1 CALLDATASIZE SUB DUP2 ADD SWAP1 PUSH2 0xB8 SWAP2 SWAP1 PUSH2 0x1E9 JUMP JUMPDEST PUSH2 0x133 JUMP JUMPDEST STOP JUMPDEST PUSH2 0xC7 PUSH2 0x145 JUMP JUMPDEST STOP JUMPDEST PUSH2 0xD1 PUSH2 0x156 JUMP JUMPDEST PUSH1 0x40 MLOAD PUSH2 0xDE SWAP2 SWAP1 PUSH2 0x19D JUMP JUMPDEST PUSH1 0x40 MLOAD DUP1 SWAP2 SUB SWAP1 RETURN JUMPDEST PUSH2 0xEF PUSH2 0x16D JUMP JUMPDEST PUSH1 0x40 MLOAD PUSH2 0xFC SWAP2 SWAP1 PUSH2 0x19D JUMP JUMPDEST PUSH1 0x40 MLOAD DUP1 SWAP2 SUB SWAP1 RETURN JUMPDEST PUSH1 0x0 PUSH1 0x1 SLOAD PUSH1 0x0 SLOAD PUSH2 0x117 SWAP2 SWAP1 PUSH2 0x258 JUMP JUMPDEST SWAP1 POP SWAP1 JUMP JUMPDEST PUSH1 0x0 PUSH1 0x1 SLOAD PUSH1 0x0 SLOAD PUSH2 0x12E SWAP2 SWAP1 PUSH2 0x2C9 JUMP JUMPDEST SWAP1 POP SWAP1 JUMP JUMPDEST DUP2 PUSH1 0x0 DUP2 SWAP1 SSTORE POP DUP1 PUSH1 0x1 DUP2 SWAP1 SSTORE POP POP POP JUMP JUMPDEST PUSH1 0x0 DUP1 DUP2 SWAP1 SSTORE POP PUSH1 0x0 PUSH1 0x1 DUP2 SWAP1 SSTORE POP JUMP JUMPDEST PUSH1 0x0 PUSH1 0x1 SLOAD PUSH1 0x0 SLOAD PUSH2 0x168 SWAP2 SWAP1 PUSH2 0x2FA JUMP JUMPDEST SWAP1 POP SWAP1 JUMP JUMPDEST PUSH1 0x0 PUSH1 0x1 SLOAD PUSH1 0x0 SLOAD PUSH2 0x17F SWAP2 SWAP1 PUSH2 0x32E JUMP JUMPDEST SWAP1 POP SWAP1 JUMP JUMPDEST PUSH1 0x0 DUP2 SWAP1 POP SWAP2 SWAP1 POP JUMP JUMPDEST PUSH2 0x197 DUP2 PUSH2 0x184 JUMP JUMPDEST DUP3 MSTORE POP POP JUMP JUMPDEST PUSH1 0x0 PUSH1 0x20 DUP3 ADD SWAP1 POP PUSH2 0x1B2 PUSH1 0x0 DUP4 ADD DUP5 PUSH2 0x18E JUMP JUMPDEST SWAP3 SWAP2 POP POP JUMP JUMPDEST PUSH1 0x0 DUP1 REVERT JUMPDEST PUSH2 0x1C6 DUP2 PUSH2 0x184 JUMP JUMPDEST DUP2 EQ PUSH2 0x1D1 JUMPI PUSH1 0x0 DUP1 REVERT JUMPDEST POP JUMP JUMPDEST PUSH1 0x0 DUP2 CALLDATALOAD SWAP1 POP PUSH2 0x1E3 DUP2 PUSH2 0x1BD JUMP JUMPDEST SWAP3 SWAP2 POP POP JUMP JUMPDEST PUSH1 0x0 DUP1 PUSH1 0x40 DUP4 DUP6 SUB SLT ISZERO PUSH2 0x200 JUMPI PUSH2 0x1FF PUSH2 0x1B8 JUMP JUMPDEST JUMPDEST PUSH1 0x0 PUSH2 0x20E DUP6 DUP3 DUP7 ADD PUSH2 0x1D4 JUMP JUMPDEST SWAP3 POP POP PUSH1 0x20 PUSH2 0x21F DUP6 DUP3 DUP7 ADD PUSH2 0x1D4 JUMP JUMPDEST SWAP2 POP POP SWAP3 POP SWAP3 SWAP1 POP JUMP JUMPDEST PUSH32 0x4E487B7100000000000000000000000000000000000000000000000000000000 PUSH1 0x0 MSTORE PUSH1 0x11 PUSH1 0x4 MSTORE PUSH1 0x24 PUSH1 0x0 REVERT JUMPDEST PUSH1 0x0 PUSH2 0x263 DUP3 PUSH2 0x184 JUMP JUMPDEST SWAP2 POP PUSH2 0x26E DUP4 PUSH2 0x184 JUMP JUMPDEST SWAP3 POP DUP3 DUP3 MUL PUSH2 0x27C DUP2 PUSH2 0x184 JUMP JUMPDEST SWAP2 POP DUP3 DUP3 DIV DUP5 EQ DUP4 ISZERO OR PUSH2 0x293 JUMPI PUSH2 0x292 PUSH2 0x229 JUMP JUMPDEST JUMPDEST POP SWAP3 SWAP2 POP POP JUMP JUMPDEST PUSH32 0x4E487B7100000000000000000000000000000000000000000000000000000000 PUSH1 0x0 MSTORE PUSH1 0x12 PUSH1 0x4 MSTORE PUSH1 0x24 PUSH1 0x0 REVERT JUMPDEST PUSH1 0x0 PUSH2 0x2D4 DUP3 PUSH2 0x184 JUMP JUMPDEST SWAP2 POP PUSH2 0x2DF DUP4 PUSH2 0x184 JUMP JUMPDEST SWAP3 POP DUP3 PUSH2 0x2EF JUMPI PUSH2 0x2EE PUSH2 0x29A JUMP JUMPDEST JUMPDEST DUP3 DUP3 DIV SWAP1 POP SWAP3 SWAP2 POP POP JUMP JUMPDEST PUSH1 0x0 PUSH2 0x305 DUP3 PUSH2 0x184 JUMP JUMPDEST SWAP2 POP PUSH2 0x310 DUP4 PUSH2 0x184 JUMP JUMPDEST SWAP3 POP DUP3 DUP3 SUB SWAP1 POP DUP2 DUP2 GT ISZERO PUSH2 0x328 JUMPI PUSH2 0x327 PUSH2 0x229 JUMP JUMPDEST JUMPDEST SWAP3 SWAP2 POP POP JUMP JUMPDEST PUSH1 0x0 PUSH2 0x339 DUP3 PUSH2 0x184 JUMP JUMPDEST SWAP2 POP PUSH2 0x344 DUP4 PUSH2 0x184 JUMP JUMPDEST SWAP3 POP DUP3 DUP3 ADD SWAP1 POP DUP1 DUP3 GT ISZERO PUSH2 0x35C JUMPI PUSH2 0x35B PUSH2 0x229 JUMP JUMPDEST JUMPDEST SWAP3 SWAP2 POP POP JUMP INVALID LOG2 PUSH5 0x6970667358 0x22 SLT KECCAK256 SMOD 0xD9 0xD5 PUSH26 0xE673B81EE43A5B5B1156B91B418B5C4C11B5B2F1E0B45810F9FD 0xD PUSH32 0x64736F6C63430008120033000000000000000000000000000000000000000000 "
		},
		"gasEstimates": {
			"creation": {
				"codeDepositCost": "184000",
				"executionCost": "226",
				"totalCost": "184226"
			},
			"external": {
				"addition()": "infinite",
				"division()": "infinite",
				"multiplication()": "infinite",
				"reset()": "10216",
				"setter(uint256,uint256)": "infinite",
				"subtraction()": "infinite"
			}
		},
		"methodIdentifiers": {
			"addition()": "ec597128",
			"division()": "3205f5fc",
			"multiplication()": "011285da",
			"reset()": "d826f88f",
			"setter(uint256,uint256)": "5298f36d",
			"subtraction()": "e3ec0251"
		}
	},
	"abi": [
		{
			"inputs": [],
			"name": "addition",
			"outputs": [
				{
					"internalType": "uint256",
					"name": "",
					"type": "uint256"
				}
			],
			"stateMutability": "view",
			"type": "function"
		},
		{
			"inputs": [],
			"name": "division",
			"outputs": [
				{
					"internalType": "uint256",
					"name": "",
					"type": "uint256"
				}
			],
			"stateMutability": "view",
			"type": "function"
		},
		{
			"inputs": [],
			"name": "multiplication",
			"outputs": [
				{
					"internalType": "uint256",
					"name": "",
					"type": "uint256"
				}
			],
			"stateMutability": "view",
			"type": "function"
		},
		{
			"inputs": [],
			"name": "reset",
			"outputs": [],
			"stateMutability": "nonpayable",
			"type": "function"
		},
		{
			"inputs": [
				{
					"internalType": "uint256",
					"name": "_operand1",
					"type": "uint256"
				},
				{
					"internalType": "uint256",
					"name": "_operand2",
					"type": "uint256"
				}
			],
			"name": "setter",
			"outputs": [],
			"stateMutability": "nonpayable",
			"type": "function"
		},
		{
			"inputs": [],
			"name": "subtraction",
			"outputs": [
				{
					"internalType": "uint256",
					"name": "",
					"type": "uint256"
				}
			],
			"stateMutability": "view",
			"type": "function"
		}
	]
}