{
	"contracts/21_mappings.sol": {
		"Mappings": {
			"abi": [
				{
					"inputs": [
						{
							"internalType": "uint256",
							"name": "",
							"type": "uint256"
						}
					],
					"name": "result",
					"outputs": [
						{
							"internalType": "string",
							"name": "Name",
							"type": "string"
						},
						{
							"internalType": "uint256",
							"name": "mobileNo",
							"type": "uint256"
						},
						{
							"internalType": "bool",
							"name": "pass",
							"type": "bool"
						}
					],
					"stateMutability": "view",
					"type": "function"
				},
				{
					"inputs": [
						{
							"internalType": "uint256",
							"name": "_rollNo",
							"type": "uint256"
						},
						{
							"internalType": "string",
							"name": "_Name",
							"type": "string"
						},
						{
							"internalType": "uint256",
							"name": "_mobileNo",
							"type": "uint256"
						},
						{
							"internalType": "bool",
							"name": "_pass",
							"type": "bool"
						}
					],
					"name": "setter",
					"outputs": [],
					"stateMutability": "nonpayable",
					"type": "function"
				}
			],
			"devdoc": {
				"kind": "dev",
				"methods": {},
				"version": 1
			},
			"evm": {
				"assembly": "    /* \"contracts/21_mappings.sol\":61:609  contract Mappings {... */\n  mstore(0x40, 0x80)\n  callvalue\n  dup1\n  iszero\n  tag_1\n  jumpi\n  0x00\n  dup1\n  revert\ntag_1:\n  pop\n  dataSize(sub_0)\n  dup1\n  dataOffset(sub_0)\n  0x00\n  codecopy\n  0x00\n  return\nstop\n\nsub_0: assembly {\n        /* \"contracts/21_mappings.sol\":61:609  contract Mappings {... */\n      mstore(0x40, 0x80)\n      callvalue\n      dup1\n      iszero\n      tag_1\n      jumpi\n      0x00\n      dup1\n      revert\n    tag_1:\n      pop\n      jumpi(tag_2, lt(calldatasize, 0x04))\n      shr(0xe0, calldataload(0x00))\n      dup1\n      0x3c594059\n      eq\n      tag_3\n      jumpi\n      dup1\n      0x6f70f9f4\n      eq\n      tag_4\n      jumpi\n    tag_2:\n      0x00\n      dup1\n      revert\n        /* \"contracts/21_mappings.sol\":403:442  mapping (uint => Student) public result */\n    tag_3:\n      tag_5\n      0x04\n      dup1\n      calldatasize\n      sub\n      dup2\n      add\n      swap1\n      tag_6\n      swap2\n      swap1\n      tag_7\n      jump\t// in\n    tag_6:\n      tag_8\n      jump\t// in\n    tag_5:\n      mload(0x40)\n      tag_9\n      swap4\n      swap3\n      swap2\n      swap1\n      tag_10\n      jump\t// in\n    tag_9:\n      mload(0x40)\n      dup1\n      swap2\n      sub\n      swap1\n      return\n        /* \"contracts/21_mappings.sol\":451:606  function setter(uint _rollNo, string memory _Name, uint _mobileNo, bool _pass) public {... */\n    tag_4:\n      tag_11\n      0x04\n      dup1\n      calldatasize\n      sub\n      dup2\n      add\n      swap1\n      tag_12\n      swap2\n      swap1\n      tag_13\n      jump\t// in\n    tag_12:\n      tag_14\n      jump\t// in\n    tag_11:\n      stop\n        /* \"contracts/21_mappings.sol\":403:442  mapping (uint => Student) public result */\n    tag_8:\n      mstore(0x20, 0x00)\n      dup1\n      0x00\n      mstore\n      keccak256(0x00, 0x40)\n      0x00\n      swap2\n      pop\n      swap1\n      pop\n      dup1\n      0x00\n      add\n      dup1\n      sload\n      tag_15\n      swap1\n      tag_16\n      jump\t// in\n    tag_15:\n      dup1\n      0x1f\n      add\n      0x20\n      dup1\n      swap2\n      div\n      mul\n      0x20\n      add\n      mload(0x40)\n      swap1\n      dup2\n      add\n      0x40\n      mstore\n      dup1\n      swap3\n      swap2\n      swap1\n      dup2\n      dup2\n      mstore\n      0x20\n      add\n      dup3\n      dup1\n      sload\n      tag_17\n      swap1\n      tag_16\n      jump\t// in\n    tag_17:\n      dup1\n      iszero\n      tag_18\n      jumpi\n      dup1\n      0x1f\n      lt\n      tag_19\n      jumpi\n      0x0100\n      dup1\n      dup4\n      sload\n      div\n      mul\n      dup4\n      mstore\n      swap2\n      0x20\n      add\n      swap2\n      jump(tag_18)\n    tag_19:\n      dup3\n      add\n      swap2\n      swap1\n      0x00\n      mstore\n      keccak256(0x00, 0x20)\n      swap1\n    tag_20:\n      dup2\n      sload\n      dup2\n      mstore\n      swap1\n      0x01\n      add\n      swap1\n      0x20\n      add\n      dup1\n      dup4\n      gt\n      tag_20\n      jumpi\n      dup3\n      swap1\n      sub\n      0x1f\n      and\n      dup3\n      add\n      swap2\n    tag_18:\n      pop\n      pop\n      pop\n      pop\n      pop\n      swap1\n      dup1\n      0x01\n      add\n      sload\n      swap1\n      dup1\n      0x02\n      add\n      0x00\n      swap1\n      sload\n      swap1\n      0x0100\n      exp\n      swap1\n      div\n      0xff\n      and\n      swap1\n      pop\n      dup4\n      jump\t// out\n        /* \"contracts/21_mappings.sol\":451:606  function setter(uint _rollNo, string memory _Name, uint _mobileNo, bool _pass) public {... */\n    tag_14:\n        /* \"contracts/21_mappings.sol\":566:598  Student(_Name, _mobileNo, _pass) */\n      mload(0x40)\n      dup1\n      0x60\n      add\n      0x40\n      mstore\n      dup1\n        /* \"contracts/21_mappings.sol\":574:579  _Name */\n      dup5\n        /* \"contracts/21_mappings.sol\":566:598  Student(_Name, _mobileNo, _pass) */\n      dup2\n      mstore\n      0x20\n      add\n        /* \"contracts/21_mappings.sol\":581:590  _mobileNo */\n      dup4\n        /* \"contracts/21_mappings.sol\":566:598  Student(_Name, _mobileNo, _pass) */\n      dup2\n      mstore\n      0x20\n      add\n        /* \"contracts/21_mappings.sol\":592:597  _pass */\n      dup3\n        /* \"contracts/21_mappings.sol\":566:598  Student(_Name, _mobileNo, _pass) */\n      iszero\n      iszero\n      dup2\n      mstore\n      pop\n        /* \"contracts/21_mappings.sol\":548:554  result */\n      0x00\n        /* \"contracts/21_mappings.sol\":548:563  result[_rollNo] */\n      dup1\n        /* \"contracts/21_mappings.sol\":555:562  _rollNo */\n      dup7\n        /* \"contracts/21_mappings.sol\":548:563  result[_rollNo] */\n      dup2\n      mstore\n      0x20\n      add\n      swap1\n      dup2\n      mstore\n      0x20\n      add\n      0x00\n      keccak256\n        /* \"contracts/21_mappings.sol\":548:598  result[_rollNo] = Student(_Name, _mobileNo, _pass) */\n      0x00\n      dup3\n      add\n      mload\n      dup2\n      0x00\n      add\n      swap1\n      dup2\n      tag_22\n      swap2\n      swap1\n      tag_23\n      jump\t// in\n    tag_22:\n      pop\n      0x20\n      dup3\n      add\n      mload\n      dup2\n      0x01\n      add\n      sstore\n      0x40\n      dup3\n      add\n      mload\n      dup2\n      0x02\n      add\n      exp(0x0100, 0x00)\n      dup2\n      sload\n      dup2\n      0xff\n      mul\n      not\n      and\n      swap1\n      dup4\n      iszero\n      iszero\n      mul\n      or\n      swap1\n      sstore\n      pop\n      swap1\n      pop\n      pop\n        /* \"contracts/21_mappings.sol\":451:606  function setter(uint _rollNo, string memory _Name, uint _mobileNo, bool _pass) public {... */\n      pop\n      pop\n      pop\n      pop\n      jump\t// out\n        /* \"#utility.yul\":7:82   */\n    tag_24:\n        /* \"#utility.yul\":40:46   */\n      0x00\n        /* \"#utility.yul\":73:75   */\n      0x40\n        /* \"#utility.yul\":67:76   */\n      mload\n        /* \"#utility.yul\":57:76   */\n      swap1\n      pop\n        /* \"#utility.yul\":7:82   */\n      swap1\n      jump\t// out\n        /* \"#utility.yul\":88:205   */\n    tag_25:\n        /* \"#utility.yul\":197:198   */\n      0x00\n        /* \"#utility.yul\":194:195   */\n      dup1\n        /* \"#utility.yul\":187:199   */\n      revert\n        /* \"#utility.yul\":211:328   */\n    tag_26:\n        /* \"#utility.yul\":320:321   */\n      0x00\n        /* \"#utility.yul\":317:318   */\n      dup1\n        /* \"#utility.yul\":310:322   */\n      revert\n        /* \"#utility.yul\":334:411   */\n    tag_27:\n        /* \"#utility.yul\":371:378   */\n      0x00\n        /* \"#utility.yul\":400:405   */\n      dup2\n        /* \"#utility.yul\":389:405   */\n      swap1\n      pop\n        /* \"#utility.yul\":334:411   */\n      swap2\n      swap1\n      pop\n      jump\t// out\n        /* \"#utility.yul\":417:539   */\n    tag_28:\n        /* \"#utility.yul\":490:514   */\n      tag_71\n        /* \"#utility.yul\":508:513   */\n      dup2\n        /* \"#utility.yul\":490:514   */\n      tag_27\n      jump\t// in\n    tag_71:\n        /* \"#utility.yul\":483:488   */\n      dup2\n        /* \"#utility.yul\":480:515   */\n      eq\n        /* \"#utility.yul\":470:533   */\n      tag_72\n      jumpi\n        /* \"#utility.yul\":529:530   */\n      0x00\n        /* \"#utility.yul\":526:527   */\n      dup1\n        /* \"#utility.yul\":519:531   */\n      revert\n        /* \"#utility.yul\":470:533   */\n    tag_72:\n        /* \"#utility.yul\":417:539   */\n      pop\n      jump\t// out\n        /* \"#utility.yul\":545:684   */\n    tag_29:\n        /* \"#utility.yul\":591:596   */\n      0x00\n        /* \"#utility.yul\":629:635   */\n      dup2\n        /* \"#utility.yul\":616:636   */\n      calldataload\n        /* \"#utility.yul\":607:636   */\n      swap1\n      pop\n        /* \"#utility.yul\":645:678   */\n      tag_74\n        /* \"#utility.yul\":672:677   */\n      dup2\n        /* \"#utility.yul\":645:678   */\n      tag_28\n      jump\t// in\n    tag_74:\n        /* \"#utility.yul\":545:684   */\n      swap3\n      swap2\n      pop\n      pop\n      jump\t// out\n        /* \"#utility.yul\":690:1019   */\n    tag_7:\n        /* \"#utility.yul\":749:755   */\n      0x00\n        /* \"#utility.yul\":798:800   */\n      0x20\n        /* \"#utility.yul\":786:795   */\n      dup3\n        /* \"#utility.yul\":777:784   */\n      dup5\n        /* \"#utility.yul\":773:796   */\n      sub\n        /* \"#utility.yul\":769:801   */\n      slt\n        /* \"#utility.yul\":766:885   */\n      iszero\n      tag_76\n      jumpi\n        /* \"#utility.yul\":804:883   */\n      tag_77\n      tag_25\n      jump\t// in\n    tag_77:\n        /* \"#utility.yul\":766:885   */\n    tag_76:\n        /* \"#utility.yul\":924:925   */\n      0x00\n        /* \"#utility.yul\":949:1002   */\n      tag_78\n        /* \"#utility.yul\":994:1001   */\n      dup5\n        /* \"#utility.yul\":985:991   */\n      dup3\n        /* \"#utility.yul\":974:983   */\n      dup6\n        /* \"#utility.yul\":970:992   */\n      add\n        /* \"#utility.yul\":949:1002   */\n      tag_29\n      jump\t// in\n    tag_78:\n        /* \"#utility.yul\":939:1002   */\n      swap2\n      pop\n        /* \"#utility.yul\":895:1012   */\n      pop\n        /* \"#utility.yul\":690:1019   */\n      swap3\n      swap2\n      pop\n      pop\n      jump\t// out\n        /* \"#utility.yul\":1025:1124   */\n    tag_30:\n        /* \"#utility.yul\":1077:1083   */\n      0x00\n        /* \"#utility.yul\":1111:1116   */\n      dup2\n        /* \"#utility.yul\":1105:1117   */\n      mload\n        /* \"#utility.yul\":1095:1117   */\n      swap1\n      pop\n        /* \"#utility.yul\":1025:1124   */\n      swap2\n      swap1\n      pop\n      jump\t// out\n        /* \"#utility.yul\":1130:1299   */\n    tag_31:\n        /* \"#utility.yul\":1214:1225   */\n      0x00\n        /* \"#utility.yul\":1248:1254   */\n      dup3\n        /* \"#utility.yul\":1243:1246   */\n      dup3\n        /* \"#utility.yul\":1236:1255   */\n      mstore\n        /* \"#utility.yul\":1288:1292   */\n      0x20\n        /* \"#utility.yul\":1283:1286   */\n      dup3\n        /* \"#utility.yul\":1279:1293   */\n      add\n        /* \"#utility.yul\":1264:1293   */\n      swap1\n      pop\n        /* \"#utility.yul\":1130:1299   */\n      swap3\n      swap2\n      pop\n      pop\n      jump\t// out\n        /* \"#utility.yul\":1305:1551   */\n    tag_32:\n        /* \"#utility.yul\":1386:1387   */\n      0x00\n        /* \"#utility.yul\":1396:1509   */\n    tag_82:\n        /* \"#utility.yul\":1410:1416   */\n      dup4\n        /* \"#utility.yul\":1407:1408   */\n      dup2\n        /* \"#utility.yul\":1404:1417   */\n      lt\n        /* \"#utility.yul\":1396:1509   */\n      iszero\n      tag_84\n      jumpi\n        /* \"#utility.yul\":1495:1496   */\n      dup1\n        /* \"#utility.yul\":1490:1493   */\n      dup3\n        /* \"#utility.yul\":1486:1497   */\n      add\n        /* \"#utility.yul\":1480:1498   */\n      mload\n        /* \"#utility.yul\":1476:1477   */\n      dup2\n        /* \"#utility.yul\":1471:1474   */\n      dup5\n        /* \"#utility.yul\":1467:1478   */\n      add\n        /* \"#utility.yul\":1460:1499   */\n      mstore\n        /* \"#utility.yul\":1432:1434   */\n      0x20\n        /* \"#utility.yul\":1429:1430   */\n      dup2\n        /* \"#utility.yul\":1425:1435   */\n      add\n        /* \"#utility.yul\":1420:1435   */\n      swap1\n      pop\n        /* \"#utility.yul\":1396:1509   */\n      jump(tag_82)\n    tag_84:\n        /* \"#utility.yul\":1543:1544   */\n      0x00\n        /* \"#utility.yul\":1534:1540   */\n      dup5\n        /* \"#utility.yul\":1529:1532   */\n      dup5\n        /* \"#utility.yul\":1525:1541   */\n      add\n        /* \"#utility.yul\":1518:1545   */\n      mstore\n        /* \"#utility.yul\":1367:1551   */\n      pop\n        /* \"#utility.yul\":1305:1551   */\n      pop\n      pop\n      pop\n      jump\t// out\n        /* \"#utility.yul\":1557:1659   */\n    tag_33:\n        /* \"#utility.yul\":1598:1604   */\n      0x00\n        /* \"#utility.yul\":1649:1651   */\n      0x1f\n        /* \"#utility.yul\":1645:1652   */\n      not\n        /* \"#utility.yul\":1640:1642   */\n      0x1f\n        /* \"#utility.yul\":1633:1638   */\n      dup4\n        /* \"#utility.yul\":1629:1643   */\n      add\n        /* \"#utility.yul\":1625:1653   */\n      and\n        /* \"#utility.yul\":1615:1653   */\n      swap1\n      pop\n        /* \"#utility.yul\":1557:1659   */\n      swap2\n      swap1\n      pop\n      jump\t// out\n        /* \"#utility.yul\":1665:2042   */\n    tag_34:\n        /* \"#utility.yul\":1753:1756   */\n      0x00\n        /* \"#utility.yul\":1781:1820   */\n      tag_87\n        /* \"#utility.yul\":1814:1819   */\n      dup3\n        /* \"#utility.yul\":1781:1820   */\n      tag_30\n      jump\t// in\n    tag_87:\n        /* \"#utility.yul\":1836:1907   */\n      tag_88\n        /* \"#utility.yul\":1900:1906   */\n      dup2\n        /* \"#utility.yul\":1895:1898   */\n      dup6\n        /* \"#utility.yul\":1836:1907   */\n      tag_31\n      jump\t// in\n    tag_88:\n        /* \"#utility.yul\":1829:1907   */\n      swap4\n      pop\n        /* \"#utility.yul\":1916:1981   */\n      tag_89\n        /* \"#utility.yul\":1974:1980   */\n      dup2\n        /* \"#utility.yul\":1969:1972   */\n      dup6\n        /* \"#utility.yul\":1962:1966   */\n      0x20\n        /* \"#utility.yul\":1955:1960   */\n      dup7\n        /* \"#utility.yul\":1951:1967   */\n      add\n        /* \"#utility.yul\":1916:1981   */\n      tag_32\n      jump\t// in\n    tag_89:\n        /* \"#utility.yul\":2006:2035   */\n      tag_90\n        /* \"#utility.yul\":2028:2034   */\n      dup2\n        /* \"#utility.yul\":2006:2035   */\n      tag_33\n      jump\t// in\n    tag_90:\n        /* \"#utility.yul\":2001:2004   */\n      dup5\n        /* \"#utility.yul\":1997:2036   */\n      add\n        /* \"#utility.yul\":1990:2036   */\n      swap2\n      pop\n        /* \"#utility.yul\":1757:2042   */\n      pop\n        /* \"#utility.yul\":1665:2042   */\n      swap3\n      swap2\n      pop\n      pop\n      jump\t// out\n        /* \"#utility.yul\":2048:2166   */\n    tag_35:\n        /* \"#utility.yul\":2135:2159   */\n      tag_92\n        /* \"#utility.yul\":2153:2158   */\n      dup2\n        /* \"#utility.yul\":2135:2159   */\n      tag_27\n      jump\t// in\n    tag_92:\n        /* \"#utility.yul\":2130:2133   */\n      dup3\n        /* \"#utility.yul\":2123:2160   */\n      mstore\n        /* \"#utility.yul\":2048:2166   */\n      pop\n      pop\n      jump\t// out\n        /* \"#utility.yul\":2172:2262   */\n    tag_36:\n        /* \"#utility.yul\":2206:2213   */\n      0x00\n        /* \"#utility.yul\":2249:2254   */\n      dup2\n        /* \"#utility.yul\":2242:2255   */\n      iszero\n        /* \"#utility.yul\":2235:2256   */\n      iszero\n        /* \"#utility.yul\":2224:2256   */\n      swap1\n      pop\n        /* \"#utility.yul\":2172:2262   */\n      swap2\n      swap1\n      pop\n      jump\t// out\n        /* \"#utility.yul\":2268:2377   */\n    tag_37:\n        /* \"#utility.yul\":2349:2370   */\n      tag_95\n        /* \"#utility.yul\":2364:2369   */\n      dup2\n        /* \"#utility.yul\":2349:2370   */\n      tag_36\n      jump\t// in\n    tag_95:\n        /* \"#utility.yul\":2344:2347   */\n      dup3\n        /* \"#utility.yul\":2337:2371   */\n      mstore\n        /* \"#utility.yul\":2268:2377   */\n      pop\n      pop\n      jump\t// out\n        /* \"#utility.yul\":2383:2904   */\n    tag_10:\n        /* \"#utility.yul\":2546:2550   */\n      0x00\n        /* \"#utility.yul\":2584:2586   */\n      0x60\n        /* \"#utility.yul\":2573:2582   */\n      dup3\n        /* \"#utility.yul\":2569:2587   */\n      add\n        /* \"#utility.yul\":2561:2587   */\n      swap1\n      pop\n        /* \"#utility.yul\":2633:2642   */\n      dup2\n        /* \"#utility.yul\":2627:2631   */\n      dup2\n        /* \"#utility.yul\":2623:2643   */\n      sub\n        /* \"#utility.yul\":2619:2620   */\n      0x00\n        /* \"#utility.yul\":2608:2617   */\n      dup4\n        /* \"#utility.yul\":2604:2621   */\n      add\n        /* \"#utility.yul\":2597:2644   */\n      mstore\n        /* \"#utility.yul\":2661:2739   */\n      tag_97\n        /* \"#utility.yul\":2734:2738   */\n      dup2\n        /* \"#utility.yul\":2725:2731   */\n      dup7\n        /* \"#utility.yul\":2661:2739   */\n      tag_34\n      jump\t// in\n    tag_97:\n        /* \"#utility.yul\":2653:2739   */\n      swap1\n      pop\n        /* \"#utility.yul\":2749:2821   */\n      tag_98\n        /* \"#utility.yul\":2817:2819   */\n      0x20\n        /* \"#utility.yul\":2806:2815   */\n      dup4\n        /* \"#utility.yul\":2802:2820   */\n      add\n        /* \"#utility.yul\":2793:2799   */\n      dup6\n        /* \"#utility.yul\":2749:2821   */\n      tag_35\n      jump\t// in\n    tag_98:\n        /* \"#utility.yul\":2831:2897   */\n      tag_99\n        /* \"#utility.yul\":2893:2895   */\n      0x40\n        /* \"#utility.yul\":2882:2891   */\n      dup4\n        /* \"#utility.yul\":2878:2896   */\n      add\n        /* \"#utility.yul\":2869:2875   */\n      dup5\n        /* \"#utility.yul\":2831:2897   */\n      tag_37\n      jump\t// in\n    tag_99:\n        /* \"#utility.yul\":2383:2904   */\n      swap5\n      swap4\n      pop\n      pop\n      pop\n      pop\n      jump\t// out\n        /* \"#utility.yul\":2910:3027   */\n    tag_38:\n        /* \"#utility.yul\":3019:3020   */\n      0x00\n        /* \"#utility.yul\":3016:3017   */\n      dup1\n        /* \"#utility.yul\":3009:3021   */\n      revert\n        /* \"#utility.yul\":3033:3150   */\n    tag_39:\n        /* \"#utility.yul\":3142:3143   */\n      0x00\n        /* \"#utility.yul\":3139:3140   */\n      dup1\n        /* \"#utility.yul\":3132:3144   */\n      revert\n        /* \"#utility.yul\":3156:3336   */\n    tag_40:\n        /* \"#utility.yul\":3204:3281   */\n      0x4e487b7100000000000000000000000000000000000000000000000000000000\n        /* \"#utility.yul\":3201:3202   */\n      0x00\n        /* \"#utility.yul\":3194:3282   */\n      mstore\n        /* \"#utility.yul\":3301:3305   */\n      0x41\n        /* \"#utility.yul\":3298:3299   */\n      0x04\n        /* \"#utility.yul\":3291:3306   */\n      mstore\n        /* \"#utility.yul\":3325:3329   */\n      0x24\n        /* \"#utility.yul\":3322:3323   */\n      0x00\n        /* \"#utility.yul\":3315:3330   */\n      revert\n        /* \"#utility.yul\":3342:3623   */\n    tag_41:\n        /* \"#utility.yul\":3425:3452   */\n      tag_104\n        /* \"#utility.yul\":3447:3451   */\n      dup3\n        /* \"#utility.yul\":3425:3452   */\n      tag_33\n      jump\t// in\n    tag_104:\n        /* \"#utility.yul\":3417:3423   */\n      dup2\n        /* \"#utility.yul\":3413:3453   */\n      add\n        /* \"#utility.yul\":3555:3561   */\n      dup2\n        /* \"#utility.yul\":3543:3553   */\n      dup2\n        /* \"#utility.yul\":3540:3562   */\n      lt\n        /* \"#utility.yul\":3519:3537   */\n      0xffffffffffffffff\n        /* \"#utility.yul\":3507:3517   */\n      dup3\n        /* \"#utility.yul\":3504:3538   */\n      gt\n        /* \"#utility.yul\":3501:3563   */\n      or\n        /* \"#utility.yul\":3498:3586   */\n      iszero\n      tag_105\n      jumpi\n        /* \"#utility.yul\":3566:3584   */\n      tag_106\n      tag_40\n      jump\t// in\n    tag_106:\n        /* \"#utility.yul\":3498:3586   */\n    tag_105:\n        /* \"#utility.yul\":3606:3616   */\n      dup1\n        /* \"#utility.yul\":3602:3604   */\n      0x40\n        /* \"#utility.yul\":3595:3617   */\n      mstore\n        /* \"#utility.yul\":3385:3623   */\n      pop\n        /* \"#utility.yul\":3342:3623   */\n      pop\n      pop\n      jump\t// out\n        /* \"#utility.yul\":3629:3758   */\n    tag_42:\n        /* \"#utility.yul\":3663:3669   */\n      0x00\n        /* \"#utility.yul\":3690:3710   */\n      tag_108\n      tag_24\n      jump\t// in\n    tag_108:\n        /* \"#utility.yul\":3680:3710   */\n      swap1\n      pop\n        /* \"#utility.yul\":3719:3752   */\n      tag_109\n        /* \"#utility.yul\":3747:3751   */\n      dup3\n        /* \"#utility.yul\":3739:3745   */\n      dup3\n        /* \"#utility.yul\":3719:3752   */\n      tag_41\n      jump\t// in\n    tag_109:\n        /* \"#utility.yul\":3629:3758   */\n      swap2\n      swap1\n      pop\n      jump\t// out\n        /* \"#utility.yul\":3764:4072   */\n    tag_43:\n        /* \"#utility.yul\":3826:3830   */\n      0x00\n        /* \"#utility.yul\":3916:3934   */\n      0xffffffffffffffff\n        /* \"#utility.yul\":3908:3914   */\n      dup3\n        /* \"#utility.yul\":3905:3935   */\n      gt\n        /* \"#utility.yul\":3902:3958   */\n      iszero\n      tag_111\n      jumpi\n        /* \"#utility.yul\":3938:3956   */\n      tag_112\n      tag_40\n      jump\t// in\n    tag_112:\n        /* \"#utility.yul\":3902:3958   */\n    tag_111:\n        /* \"#utility.yul\":3976:4005   */\n      tag_113\n        /* \"#utility.yul\":3998:4004   */\n      dup3\n        /* \"#utility.yul\":3976:4005   */\n      tag_33\n      jump\t// in\n    tag_113:\n        /* \"#utility.yul\":3968:4005   */\n      swap1\n      pop\n        /* \"#utility.yul\":4060:4064   */\n      0x20\n        /* \"#utility.yul\":4054:4058   */\n      dup2\n        /* \"#utility.yul\":4050:4065   */\n      add\n        /* \"#utility.yul\":4042:4065   */\n      swap1\n      pop\n        /* \"#utility.yul\":3764:4072   */\n      swap2\n      swap1\n      pop\n      jump\t// out\n        /* \"#utility.yul\":4078:4224   */\n    tag_44:\n        /* \"#utility.yul\":4175:4181   */\n      dup3\n        /* \"#utility.yul\":4170:4173   */\n      dup2\n        /* \"#utility.yul\":4165:4168   */\n      dup4\n        /* \"#utility.yul\":4152:4182   */\n      calldatacopy\n        /* \"#utility.yul\":4216:4217   */\n      0x00\n        /* \"#utility.yul\":4207:4213   */\n      dup4\n        /* \"#utility.yul\":4202:4205   */\n      dup4\n        /* \"#utility.yul\":4198:4214   */\n      add\n        /* \"#utility.yul\":4191:4218   */\n      mstore\n        /* \"#utility.yul\":4078:4224   */\n      pop\n      pop\n      pop\n      jump\t// out\n        /* \"#utility.yul\":4230:4655   */\n    tag_45:\n        /* \"#utility.yul\":4308:4313   */\n      0x00\n        /* \"#utility.yul\":4333:4399   */\n      tag_116\n        /* \"#utility.yul\":4349:4398   */\n      tag_117\n        /* \"#utility.yul\":4391:4397   */\n      dup5\n        /* \"#utility.yul\":4349:4398   */\n      tag_43\n      jump\t// in\n    tag_117:\n        /* \"#utility.yul\":4333:4399   */\n      tag_42\n      jump\t// in\n    tag_116:\n        /* \"#utility.yul\":4324:4399   */\n      swap1\n      pop\n        /* \"#utility.yul\":4422:4428   */\n      dup3\n        /* \"#utility.yul\":4415:4420   */\n      dup2\n        /* \"#utility.yul\":4408:4429   */\n      mstore\n        /* \"#utility.yul\":4460:4464   */\n      0x20\n        /* \"#utility.yul\":4453:4458   */\n      dup2\n        /* \"#utility.yul\":4449:4465   */\n      add\n        /* \"#utility.yul\":4498:4501   */\n      dup5\n        /* \"#utility.yul\":4489:4495   */\n      dup5\n        /* \"#utility.yul\":4484:4487   */\n      dup5\n        /* \"#utility.yul\":4480:4496   */\n      add\n        /* \"#utility.yul\":4477:4502   */\n      gt\n        /* \"#utility.yul\":4474:4586   */\n      iszero\n      tag_118\n      jumpi\n        /* \"#utility.yul\":4505:4584   */\n      tag_119\n      tag_39\n      jump\t// in\n    tag_119:\n        /* \"#utility.yul\":4474:4586   */\n    tag_118:\n        /* \"#utility.yul\":4595:4649   */\n      tag_120\n        /* \"#utility.yul\":4642:4648   */\n      dup5\n        /* \"#utility.yul\":4637:4640   */\n      dup3\n        /* \"#utility.yul\":4632:4635   */\n      dup6\n        /* \"#utility.yul\":4595:4649   */\n      tag_44\n      jump\t// in\n    tag_120:\n        /* \"#utility.yul\":4314:4655   */\n      pop\n        /* \"#utility.yul\":4230:4655   */\n      swap4\n      swap3\n      pop\n      pop\n      pop\n      jump\t// out\n        /* \"#utility.yul\":4675:5015   */\n    tag_46:\n        /* \"#utility.yul\":4731:4736   */\n      0x00\n        /* \"#utility.yul\":4780:4783   */\n      dup3\n        /* \"#utility.yul\":4773:4777   */\n      0x1f\n        /* \"#utility.yul\":4765:4771   */\n      dup4\n        /* \"#utility.yul\":4761:4778   */\n      add\n        /* \"#utility.yul\":4757:4784   */\n      slt\n        /* \"#utility.yul\":4747:4869   */\n      tag_122\n      jumpi\n        /* \"#utility.yul\":4788:4867   */\n      tag_123\n      tag_38\n      jump\t// in\n    tag_123:\n        /* \"#utility.yul\":4747:4869   */\n    tag_122:\n        /* \"#utility.yul\":4905:4911   */\n      dup2\n        /* \"#utility.yul\":4892:4912   */\n      calldataload\n        /* \"#utility.yul\":4930:5009   */\n      tag_124\n        /* \"#utility.yul\":5005:5008   */\n      dup5\n        /* \"#utility.yul\":4997:5003   */\n      dup3\n        /* \"#utility.yul\":4990:4994   */\n      0x20\n        /* \"#utility.yul\":4982:4988   */\n      dup7\n        /* \"#utility.yul\":4978:4995   */\n      add\n        /* \"#utility.yul\":4930:5009   */\n      tag_45\n      jump\t// in\n    tag_124:\n        /* \"#utility.yul\":4921:5009   */\n      swap2\n      pop\n        /* \"#utility.yul\":4737:5015   */\n      pop\n        /* \"#utility.yul\":4675:5015   */\n      swap3\n      swap2\n      pop\n      pop\n      jump\t// out\n        /* \"#utility.yul\":5021:5137   */\n    tag_47:\n        /* \"#utility.yul\":5091:5112   */\n      tag_126\n        /* \"#utility.yul\":5106:5111   */\n      dup2\n        /* \"#utility.yul\":5091:5112   */\n      tag_36\n      jump\t// in\n    tag_126:\n        /* \"#utility.yul\":5084:5089   */\n      dup2\n        /* \"#utility.yul\":5081:5113   */\n      eq\n        /* \"#utility.yul\":5071:5131   */\n      tag_127\n      jumpi\n        /* \"#utility.yul\":5127:5128   */\n      0x00\n        /* \"#utility.yul\":5124:5125   */\n      dup1\n        /* \"#utility.yul\":5117:5129   */\n      revert\n        /* \"#utility.yul\":5071:5131   */\n    tag_127:\n        /* \"#utility.yul\":5021:5137   */\n      pop\n      jump\t// out\n        /* \"#utility.yul\":5143:5276   */\n    tag_48:\n        /* \"#utility.yul\":5186:5191   */\n      0x00\n        /* \"#utility.yul\":5224:5230   */\n      dup2\n        /* \"#utility.yul\":5211:5231   */\n      calldataload\n        /* \"#utility.yul\":5202:5231   */\n      swap1\n      pop\n        /* \"#utility.yul\":5240:5270   */\n      tag_129\n        /* \"#utility.yul\":5264:5269   */\n      dup2\n        /* \"#utility.yul\":5240:5270   */\n      tag_47\n      jump\t// in\n    tag_129:\n        /* \"#utility.yul\":5143:5276   */\n      swap3\n      swap2\n      pop\n      pop\n      jump\t// out\n        /* \"#utility.yul\":5282:6221   */\n    tag_13:\n        /* \"#utility.yul\":5375:5381   */\n      0x00\n        /* \"#utility.yul\":5383:5389   */\n      dup1\n        /* \"#utility.yul\":5391:5397   */\n      0x00\n        /* \"#utility.yul\":5399:5405   */\n      dup1\n        /* \"#utility.yul\":5448:5451   */\n      0x80\n        /* \"#utility.yul\":5436:5445   */\n      dup6\n        /* \"#utility.yul\":5427:5434   */\n      dup8\n        /* \"#utility.yul\":5423:5446   */\n      sub\n        /* \"#utility.yul\":5419:5452   */\n      slt\n        /* \"#utility.yul\":5416:5536   */\n      iszero\n      tag_131\n      jumpi\n        /* \"#utility.yul\":5455:5534   */\n      tag_132\n      tag_25\n      jump\t// in\n    tag_132:\n        /* \"#utility.yul\":5416:5536   */\n    tag_131:\n        /* \"#utility.yul\":5575:5576   */\n      0x00\n        /* \"#utility.yul\":5600:5653   */\n      tag_133\n        /* \"#utility.yul\":5645:5652   */\n      dup8\n        /* \"#utility.yul\":5636:5642   */\n      dup3\n        /* \"#utility.yul\":5625:5634   */\n      dup9\n        /* \"#utility.yul\":5621:5643   */\n      add\n        /* \"#utility.yul\":5600:5653   */\n      tag_29\n      jump\t// in\n    tag_133:\n        /* \"#utility.yul\":5590:5653   */\n      swap5\n      pop\n        /* \"#utility.yul\":5546:5663   */\n      pop\n        /* \"#utility.yul\":5730:5732   */\n      0x20\n        /* \"#utility.yul\":5719:5728   */\n      dup6\n        /* \"#utility.yul\":5715:5733   */\n      add\n        /* \"#utility.yul\":5702:5734   */\n      calldataload\n        /* \"#utility.yul\":5761:5779   */\n      0xffffffffffffffff\n        /* \"#utility.yul\":5753:5759   */\n      dup2\n        /* \"#utility.yul\":5750:5780   */\n      gt\n        /* \"#utility.yul\":5747:5864   */\n      iszero\n      tag_134\n      jumpi\n        /* \"#utility.yul\":5783:5862   */\n      tag_135\n      tag_26\n      jump\t// in\n    tag_135:\n        /* \"#utility.yul\":5747:5864   */\n    tag_134:\n        /* \"#utility.yul\":5888:5951   */\n      tag_136\n        /* \"#utility.yul\":5943:5950   */\n      dup8\n        /* \"#utility.yul\":5934:5940   */\n      dup3\n        /* \"#utility.yul\":5923:5932   */\n      dup9\n        /* \"#utility.yul\":5919:5941   */\n      add\n        /* \"#utility.yul\":5888:5951   */\n      tag_46\n      jump\t// in\n    tag_136:\n        /* \"#utility.yul\":5878:5951   */\n      swap4\n      pop\n        /* \"#utility.yul\":5673:5961   */\n      pop\n        /* \"#utility.yul\":6000:6002   */\n      0x40\n        /* \"#utility.yul\":6026:6079   */\n      tag_137\n        /* \"#utility.yul\":6071:6078   */\n      dup8\n        /* \"#utility.yul\":6062:6068   */\n      dup3\n        /* \"#utility.yul\":6051:6060   */\n      dup9\n        /* \"#utility.yul\":6047:6069   */\n      add\n        /* \"#utility.yul\":6026:6079   */\n      tag_29\n      jump\t// in\n    tag_137:\n        /* \"#utility.yul\":6016:6079   */\n      swap3\n      pop\n        /* \"#utility.yul\":5971:6089   */\n      pop\n        /* \"#utility.yul\":6128:6130   */\n      0x60\n        /* \"#utility.yul\":6154:6204   */\n      tag_138\n        /* \"#utility.yul\":6196:6203   */\n      dup8\n        /* \"#utility.yul\":6187:6193   */\n      dup3\n        /* \"#utility.yul\":6176:6185   */\n      dup9\n        /* \"#utility.yul\":6172:6194   */\n      add\n        /* \"#utility.yul\":6154:6204   */\n      tag_48\n      jump\t// in\n    tag_138:\n        /* \"#utility.yul\":6144:6204   */\n      swap2\n      pop\n        /* \"#utility.yul\":6099:6214   */\n      pop\n        /* \"#utility.yul\":5282:6221   */\n      swap3\n      swap6\n      swap2\n      swap5\n      pop\n      swap3\n      pop\n      jump\t// out\n        /* \"#utility.yul\":6227:6407   */\n    tag_49:\n        /* \"#utility.yul\":6275:6352   */\n      0x4e487b7100000000000000000000000000000000000000000000000000000000\n        /* \"#utility.yul\":6272:6273   */\n      0x00\n        /* \"#utility.yul\":6265:6353   */\n      mstore\n        /* \"#utility.yul\":6372:6376   */\n      0x22\n        /* \"#utility.yul\":6369:6370   */\n      0x04\n        /* \"#utility.yul\":6362:6377   */\n      mstore\n        /* \"#utility.yul\":6396:6400   */\n      0x24\n        /* \"#utility.yul\":6393:6394   */\n      0x00\n        /* \"#utility.yul\":6386:6401   */\n      revert\n        /* \"#utility.yul\":6413:6733   */\n    tag_16:\n        /* \"#utility.yul\":6457:6463   */\n      0x00\n        /* \"#utility.yul\":6494:6495   */\n      0x02\n        /* \"#utility.yul\":6488:6492   */\n      dup3\n        /* \"#utility.yul\":6484:6496   */\n      div\n        /* \"#utility.yul\":6474:6496   */\n      swap1\n      pop\n        /* \"#utility.yul\":6541:6542   */\n      0x01\n        /* \"#utility.yul\":6535:6539   */\n      dup3\n        /* \"#utility.yul\":6531:6543   */\n      and\n        /* \"#utility.yul\":6562:6580   */\n      dup1\n        /* \"#utility.yul\":6552:6633   */\n      tag_141\n      jumpi\n        /* \"#utility.yul\":6618:6622   */\n      0x7f\n        /* \"#utility.yul\":6610:6616   */\n      dup3\n        /* \"#utility.yul\":6606:6623   */\n      and\n        /* \"#utility.yul\":6596:6623   */\n      swap2\n      pop\n        /* \"#utility.yul\":6552:6633   */\n    tag_141:\n        /* \"#utility.yul\":6680:6682   */\n      0x20\n        /* \"#utility.yul\":6672:6678   */\n      dup3\n        /* \"#utility.yul\":6669:6683   */\n      lt\n        /* \"#utility.yul\":6649:6667   */\n      dup2\n        /* \"#utility.yul\":6646:6684   */\n      sub\n        /* \"#utility.yul\":6643:6727   */\n      tag_142\n      jumpi\n        /* \"#utility.yul\":6699:6717   */\n      tag_143\n      tag_49\n      jump\t// in\n    tag_143:\n        /* \"#utility.yul\":6643:6727   */\n    tag_142:\n        /* \"#utility.yul\":6464:6733   */\n      pop\n        /* \"#utility.yul\":6413:6733   */\n      swap2\n      swap1\n      pop\n      jump\t// out\n        /* \"#utility.yul\":6739:6880   */\n    tag_50:\n        /* \"#utility.yul\":6788:6792   */\n      0x00\n        /* \"#utility.yul\":6811:6814   */\n      dup2\n        /* \"#utility.yul\":6803:6814   */\n      swap1\n      pop\n        /* \"#utility.yul\":6834:6837   */\n      dup2\n        /* \"#utility.yul\":6831:6832   */\n      0x00\n        /* \"#utility.yul\":6824:6838   */\n      mstore\n        /* \"#utility.yul\":6868:6872   */\n      0x20\n        /* \"#utility.yul\":6865:6866   */\n      0x00\n        /* \"#utility.yul\":6855:6873   */\n      keccak256\n        /* \"#utility.yul\":6847:6873   */\n      swap1\n      pop\n        /* \"#utility.yul\":6739:6880   */\n      swap2\n      swap1\n      pop\n      jump\t// out\n        /* \"#utility.yul\":6886:6979   */\n    tag_51:\n        /* \"#utility.yul\":6923:6929   */\n      0x00\n        /* \"#utility.yul\":6970:6972   */\n      0x20\n        /* \"#utility.yul\":6965:6967   */\n      0x1f\n        /* \"#utility.yul\":6958:6963   */\n      dup4\n        /* \"#utility.yul\":6954:6968   */\n      add\n        /* \"#utility.yul\":6950:6973   */\n      div\n        /* \"#utility.yul\":6940:6973   */\n      swap1\n      pop\n        /* \"#utility.yul\":6886:6979   */\n      swap2\n      swap1\n      pop\n      jump\t// out\n        /* \"#utility.yul\":6985:7092   */\n    tag_52:\n        /* \"#utility.yul\":7029:7037   */\n      0x00\n        /* \"#utility.yul\":7079:7084   */\n      dup3\n        /* \"#utility.yul\":7073:7077   */\n      dup3\n        /* \"#utility.yul\":7069:7085   */\n      shl\n        /* \"#utility.yul\":7048:7085   */\n      swap1\n      pop\n        /* \"#utility.yul\":6985:7092   */\n      swap3\n      swap2\n      pop\n      pop\n      jump\t// out\n        /* \"#utility.yul\":7098:7491   */\n    tag_53:\n        /* \"#utility.yul\":7167:7173   */\n      0x00\n        /* \"#utility.yul\":7217:7218   */\n      0x08\n        /* \"#utility.yul\":7205:7215   */\n      dup4\n        /* \"#utility.yul\":7201:7219   */\n      mul\n        /* \"#utility.yul\":7240:7337   */\n      tag_148\n        /* \"#utility.yul\":7270:7336   */\n      0xffffffffffffffffffffffffffffffffffffffffffffffffffffffffffffffff\n        /* \"#utility.yul\":7259:7268   */\n      dup3\n        /* \"#utility.yul\":7240:7337   */\n      tag_52\n      jump\t// in\n    tag_148:\n        /* \"#utility.yul\":7358:7397   */\n      tag_149\n        /* \"#utility.yul\":7388:7396   */\n      dup7\n        /* \"#utility.yul\":7377:7386   */\n      dup4\n        /* \"#utility.yul\":7358:7397   */\n      tag_52\n      jump\t// in\n    tag_149:\n        /* \"#utility.yul\":7346:7397   */\n      swap6\n      pop\n        /* \"#utility.yul\":7430:7434   */\n      dup1\n        /* \"#utility.yul\":7426:7435   */\n      not\n        /* \"#utility.yul\":7419:7424   */\n      dup5\n        /* \"#utility.yul\":7415:7436   */\n      and\n        /* \"#utility.yul\":7406:7436   */\n      swap4\n      pop\n        /* \"#utility.yul\":7479:7483   */\n      dup1\n        /* \"#utility.yul\":7469:7477   */\n      dup7\n        /* \"#utility.yul\":7465:7484   */\n      and\n        /* \"#utility.yul\":7458:7463   */\n      dup5\n        /* \"#utility.yul\":7455:7485   */\n      or\n        /* \"#utility.yul\":7445:7485   */\n      swap3\n      pop\n        /* \"#utility.yul\":7174:7491   */\n      pop\n      pop\n        /* \"#utility.yul\":7098:7491   */\n      swap4\n      swap3\n      pop\n      pop\n      pop\n      jump\t// out\n        /* \"#utility.yul\":7497:7557   */\n    tag_54:\n        /* \"#utility.yul\":7525:7528   */\n      0x00\n        /* \"#utility.yul\":7546:7551   */\n      dup2\n        /* \"#utility.yul\":7539:7551   */\n      swap1\n      pop\n        /* \"#utility.yul\":7497:7557   */\n      swap2\n      swap1\n      pop\n      jump\t// out\n        /* \"#utility.yul\":7563:7705   */\n    tag_55:\n        /* \"#utility.yul\":7613:7622   */\n      0x00\n        /* \"#utility.yul\":7646:7699   */\n      tag_152\n        /* \"#utility.yul\":7664:7698   */\n      tag_153\n        /* \"#utility.yul\":7673:7697   */\n      tag_154\n        /* \"#utility.yul\":7691:7696   */\n      dup5\n        /* \"#utility.yul\":7673:7697   */\n      tag_27\n      jump\t// in\n    tag_154:\n        /* \"#utility.yul\":7664:7698   */\n      tag_54\n      jump\t// in\n    tag_153:\n        /* \"#utility.yul\":7646:7699   */\n      tag_27\n      jump\t// in\n    tag_152:\n        /* \"#utility.yul\":7633:7699   */\n      swap1\n      pop\n        /* \"#utility.yul\":7563:7705   */\n      swap2\n      swap1\n      pop\n      jump\t// out\n        /* \"#utility.yul\":7711:7786   */\n    tag_56:\n        /* \"#utility.yul\":7754:7757   */\n      0x00\n        /* \"#utility.yul\":7775:7780   */\n      dup2\n        /* \"#utility.yul\":7768:7780   */\n      swap1\n      pop\n        /* \"#utility.yul\":7711:7786   */\n      swap2\n      swap1\n      pop\n      jump\t// out\n        /* \"#utility.yul\":7792:8061   */\n    tag_57:\n        /* \"#utility.yul\":7902:7941   */\n      tag_157\n        /* \"#utility.yul\":7933:7940   */\n      dup4\n        /* \"#utility.yul\":7902:7941   */\n      tag_55\n      jump\t// in\n    tag_157:\n        /* \"#utility.yul\":7963:8054   */\n      tag_158\n        /* \"#utility.yul\":8012:8053   */\n      tag_159\n        /* \"#utility.yul\":8036:8052   */\n      dup3\n        /* \"#utility.yul\":8012:8053   */\n      tag_56\n      jump\t// in\n    tag_159:\n        /* \"#utility.yul\":8004:8010   */\n      dup5\n        /* \"#utility.yul\":7997:8001   */\n      dup5\n        /* \"#utility.yul\":7991:8002   */\n      sload\n        /* \"#utility.yul\":7963:8054   */\n      tag_53\n      jump\t// in\n    tag_158:\n        /* \"#utility.yul\":7957:7961   */\n      dup3\n        /* \"#utility.yul\":7950:8055   */\n      sstore\n        /* \"#utility.yul\":7868:8061   */\n      pop\n        /* \"#utility.yul\":7792:8061   */\n      pop\n      pop\n      pop\n      jump\t// out\n        /* \"#utility.yul\":8067:8140   */\n    tag_58:\n        /* \"#utility.yul\":8112:8115   */\n      0x00\n        /* \"#utility.yul\":8067:8140   */\n      swap1\n      jump\t// out\n        /* \"#utility.yul\":8146:8335   */\n    tag_59:\n        /* \"#utility.yul\":8223:8255   */\n      tag_162\n      tag_58\n      jump\t// in\n    tag_162:\n        /* \"#utility.yul\":8264:8329   */\n      tag_163\n        /* \"#utility.yul\":8322:8328   */\n      dup2\n        /* \"#utility.yul\":8314:8320   */\n      dup5\n        /* \"#utility.yul\":8308:8312   */\n      dup5\n        /* \"#utility.yul\":8264:8329   */\n      tag_57\n      jump\t// in\n    tag_163:\n        /* \"#utility.yul\":8199:8335   */\n      pop\n        /* \"#utility.yul\":8146:8335   */\n      pop\n      pop\n      jump\t// out\n        /* \"#utility.yul\":8341:8527   */\n    tag_60:\n        /* \"#utility.yul\":8401:8521   */\n    tag_165:\n        /* \"#utility.yul\":8418:8421   */\n      dup2\n        /* \"#utility.yul\":8411:8416   */\n      dup2\n        /* \"#utility.yul\":8408:8422   */\n      lt\n        /* \"#utility.yul\":8401:8521   */\n      iszero\n      tag_167\n      jumpi\n        /* \"#utility.yul\":8472:8511   */\n      tag_168\n        /* \"#utility.yul\":8509:8510   */\n      0x00\n        /* \"#utility.yul\":8502:8507   */\n      dup3\n        /* \"#utility.yul\":8472:8511   */\n      tag_59\n      jump\t// in\n    tag_168:\n        /* \"#utility.yul\":8445:8446   */\n      0x01\n        /* \"#utility.yul\":8438:8443   */\n      dup2\n        /* \"#utility.yul\":8434:8447   */\n      add\n        /* \"#utility.yul\":8425:8447   */\n      swap1\n      pop\n        /* \"#utility.yul\":8401:8521   */\n      jump(tag_165)\n    tag_167:\n        /* \"#utility.yul\":8341:8527   */\n      pop\n      pop\n      jump\t// out\n        /* \"#utility.yul\":8533:9076   */\n    tag_61:\n        /* \"#utility.yul\":8634:8636   */\n      0x1f\n        /* \"#utility.yul\":8629:8632   */\n      dup3\n        /* \"#utility.yul\":8626:8637   */\n      gt\n        /* \"#utility.yul\":8623:9069   */\n      iszero\n      tag_170\n      jumpi\n        /* \"#utility.yul\":8668:8706   */\n      tag_171\n        /* \"#utility.yul\":8700:8705   */\n      dup2\n        /* \"#utility.yul\":8668:8706   */\n      tag_50\n      jump\t// in\n    tag_171:\n        /* \"#utility.yul\":8752:8781   */\n      tag_172\n        /* \"#utility.yul\":8770:8780   */\n      dup5\n        /* \"#utility.yul\":8752:8781   */\n      tag_51\n      jump\t// in\n    tag_172:\n        /* \"#utility.yul\":8742:8750   */\n      dup2\n        /* \"#utility.yul\":8738:8782   */\n      add\n        /* \"#utility.yul\":8935:8937   */\n      0x20\n        /* \"#utility.yul\":8923:8933   */\n      dup6\n        /* \"#utility.yul\":8920:8938   */\n      lt\n        /* \"#utility.yul\":8917:8966   */\n      iszero\n      tag_173\n      jumpi\n        /* \"#utility.yul\":8956:8964   */\n      dup2\n        /* \"#utility.yul\":8941:8964   */\n      swap1\n      pop\n        /* \"#utility.yul\":8917:8966   */\n    tag_173:\n        /* \"#utility.yul\":8979:9059   */\n      tag_174\n        /* \"#utility.yul\":9035:9057   */\n      tag_175\n        /* \"#utility.yul\":9053:9056   */\n      dup6\n        /* \"#utility.yul\":9035:9057   */\n      tag_51\n      jump\t// in\n    tag_175:\n        /* \"#utility.yul\":9025:9033   */\n      dup4\n        /* \"#utility.yul\":9021:9058   */\n      add\n        /* \"#utility.yul\":9008:9019   */\n      dup3\n        /* \"#utility.yul\":8979:9059   */\n      tag_60\n      jump\t// in\n    tag_174:\n        /* \"#utility.yul\":8638:9069   */\n      pop\n      pop\n        /* \"#utility.yul\":8623:9069   */\n    tag_170:\n        /* \"#utility.yul\":8533:9076   */\n      pop\n      pop\n      pop\n      jump\t// out\n        /* \"#utility.yul\":9082:9199   */\n    tag_62:\n        /* \"#utility.yul\":9136:9144   */\n      0x00\n        /* \"#utility.yul\":9186:9191   */\n      dup3\n        /* \"#utility.yul\":9180:9184   */\n      dup3\n        /* \"#utility.yul\":9176:9192   */\n      shr\n        /* \"#utility.yul\":9155:9192   */\n      swap1\n      pop\n        /* \"#utility.yul\":9082:9199   */\n      swap3\n      swap2\n      pop\n      pop\n      jump\t// out\n        /* \"#utility.yul\":9205:9374   */\n    tag_63:\n        /* \"#utility.yul\":9249:9255   */\n      0x00\n        /* \"#utility.yul\":9282:9333   */\n      tag_178\n        /* \"#utility.yul\":9330:9331   */\n      0x00\n        /* \"#utility.yul\":9326:9332   */\n      not\n        /* \"#utility.yul\":9318:9323   */\n      dup5\n        /* \"#utility.yul\":9315:9316   */\n      0x08\n        /* \"#utility.yul\":9311:9324   */\n      mul\n        /* \"#utility.yul\":9282:9333   */\n      tag_62\n      jump\t// in\n    tag_178:\n        /* \"#utility.yul\":9278:9334   */\n      not\n        /* \"#utility.yul\":9363:9367   */\n      dup1\n        /* \"#utility.yul\":9357:9361   */\n      dup4\n        /* \"#utility.yul\":9353:9368   */\n      and\n        /* \"#utility.yul\":9343:9368   */\n      swap2\n      pop\n        /* \"#utility.yul\":9256:9374   */\n      pop\n        /* \"#utility.yul\":9205:9374   */\n      swap3\n      swap2\n      pop\n      pop\n      jump\t// out\n        /* \"#utility.yul\":9379:9674   */\n    tag_64:\n        /* \"#utility.yul\":9455:9459   */\n      0x00\n        /* \"#utility.yul\":9601:9630   */\n      tag_180\n        /* \"#utility.yul\":9626:9629   */\n      dup4\n        /* \"#utility.yul\":9620:9624   */\n      dup4\n        /* \"#utility.yul\":9601:9630   */\n      tag_63\n      jump\t// in\n    tag_180:\n        /* \"#utility.yul\":9593:9630   */\n      swap2\n      pop\n        /* \"#utility.yul\":9663:9666   */\n      dup3\n        /* \"#utility.yul\":9660:9661   */\n      0x02\n        /* \"#utility.yul\":9656:9667   */\n      mul\n        /* \"#utility.yul\":9650:9654   */\n      dup3\n        /* \"#utility.yul\":9647:9668   */\n      or\n        /* \"#utility.yul\":9639:9668   */\n      swap1\n      pop\n        /* \"#utility.yul\":9379:9674   */\n      swap3\n      swap2\n      pop\n      pop\n      jump\t// out\n        /* \"#utility.yul\":9679:11074   */\n    tag_23:\n        /* \"#utility.yul\":9796:9833   */\n      tag_182\n        /* \"#utility.yul\":9829:9832   */\n      dup3\n        /* \"#utility.yul\":9796:9833   */\n      tag_30\n      jump\t// in\n    tag_182:\n        /* \"#utility.yul\":9898:9916   */\n      0xffffffffffffffff\n        /* \"#utility.yul\":9890:9896   */\n      dup2\n        /* \"#utility.yul\":9887:9917   */\n      gt\n        /* \"#utility.yul\":9884:9940   */\n      iszero\n      tag_183\n      jumpi\n        /* \"#utility.yul\":9920:9938   */\n      tag_184\n      tag_40\n      jump\t// in\n    tag_184:\n        /* \"#utility.yul\":9884:9940   */\n    tag_183:\n        /* \"#utility.yul\":9964:10002   */\n      tag_185\n        /* \"#utility.yul\":9996:10000   */\n      dup3\n        /* \"#utility.yul\":9990:10001   */\n      sload\n        /* \"#utility.yul\":9964:10002   */\n      tag_16\n      jump\t// in\n    tag_185:\n        /* \"#utility.yul\":10049:10116   */\n      tag_186\n        /* \"#utility.yul\":10109:10115   */\n      dup3\n        /* \"#utility.yul\":10101:10107   */\n      dup3\n        /* \"#utility.yul\":10095:10099   */\n      dup6\n        /* \"#utility.yul\":10049:10116   */\n      tag_61\n      jump\t// in\n    tag_186:\n        /* \"#utility.yul\":10143:10144   */\n      0x00\n        /* \"#utility.yul\":10167:10171   */\n      0x20\n        /* \"#utility.yul\":10154:10171   */\n      swap1\n      pop\n        /* \"#utility.yul\":10199:10201   */\n      0x1f\n        /* \"#utility.yul\":10191:10197   */\n      dup4\n        /* \"#utility.yul\":10188:10202   */\n      gt\n        /* \"#utility.yul\":10216:10217   */\n      0x01\n        /* \"#utility.yul\":10211:10829   */\n      dup2\n      eq\n      tag_188\n      jumpi\n        /* \"#utility.yul\":10873:10874   */\n      0x00\n        /* \"#utility.yul\":10890:10896   */\n      dup5\n        /* \"#utility.yul\":10887:10964   */\n      iszero\n      tag_189\n      jumpi\n        /* \"#utility.yul\":10939:10948   */\n      dup3\n        /* \"#utility.yul\":10934:10937   */\n      dup8\n        /* \"#utility.yul\":10930:10949   */\n      add\n        /* \"#utility.yul\":10924:10950   */\n      mload\n        /* \"#utility.yul\":10915:10950   */\n      swap1\n      pop\n        /* \"#utility.yul\":10887:10964   */\n    tag_189:\n        /* \"#utility.yul\":10990:11057   */\n      tag_190\n        /* \"#utility.yul\":11050:11056   */\n      dup6\n        /* \"#utility.yul\":11043:11048   */\n      dup3\n        /* \"#utility.yul\":10990:11057   */\n      tag_64\n      jump\t// in\n    tag_190:\n        /* \"#utility.yul\":10984:10988   */\n      dup7\n        /* \"#utility.yul\":10977:11058   */\n      sstore\n        /* \"#utility.yul\":10846:11068   */\n      pop\n        /* \"#utility.yul\":10181:11068   */\n      jump(tag_187)\n        /* \"#utility.yul\":10211:10829   */\n    tag_188:\n        /* \"#utility.yul\":10263:10267   */\n      0x1f\n        /* \"#utility.yul\":10259:10268   */\n      not\n        /* \"#utility.yul\":10251:10257   */\n      dup5\n        /* \"#utility.yul\":10247:10269   */\n      and\n        /* \"#utility.yul\":10297:10334   */\n      tag_191\n        /* \"#utility.yul\":10329:10333   */\n      dup7\n        /* \"#utility.yul\":10297:10334   */\n      tag_50\n      jump\t// in\n    tag_191:\n        /* \"#utility.yul\":10356:10357   */\n      0x00\n        /* \"#utility.yul\":10370:10578   */\n    tag_192:\n        /* \"#utility.yul\":10384:10391   */\n      dup3\n        /* \"#utility.yul\":10381:10382   */\n      dup2\n        /* \"#utility.yul\":10378:10392   */\n      lt\n        /* \"#utility.yul\":10370:10578   */\n      iszero\n      tag_194\n      jumpi\n        /* \"#utility.yul\":10463:10472   */\n      dup5\n        /* \"#utility.yul\":10458:10461   */\n      dup10\n        /* \"#utility.yul\":10454:10473   */\n      add\n        /* \"#utility.yul\":10448:10474   */\n      mload\n        /* \"#utility.yul\":10440:10446   */\n      dup3\n        /* \"#utility.yul\":10433:10475   */\n      sstore\n        /* \"#utility.yul\":10514:10515   */\n      0x01\n        /* \"#utility.yul\":10506:10512   */\n      dup3\n        /* \"#utility.yul\":10502:10516   */\n      add\n        /* \"#utility.yul\":10492:10516   */\n      swap2\n      pop\n        /* \"#utility.yul\":10561:10563   */\n      0x20\n        /* \"#utility.yul\":10550:10559   */\n      dup6\n        /* \"#utility.yul\":10546:10564   */\n      add\n        /* \"#utility.yul\":10533:10564   */\n      swap5\n      pop\n        /* \"#utility.yul\":10407:10411   */\n      0x20\n        /* \"#utility.yul\":10404:10405   */\n      dup2\n        /* \"#utility.yul\":10400:10412   */\n      add\n        /* \"#utility.yul\":10395:10412   */\n      swap1\n      pop\n        /* \"#utility.yul\":10370:10578   */\n      jump(tag_192)\n    tag_194:\n        /* \"#utility.yul\":10606:10612   */\n      dup7\n        /* \"#utility.yul\":10597:10604   */\n      dup4\n        /* \"#utility.yul\":10594:10613   */\n      lt\n        /* \"#utility.yul\":10591:10770   */\n      iszero\n      tag_195\n      jumpi\n        /* \"#utility.yul\":10664:10673   */\n      dup5\n        /* \"#utility.yul\":10659:10662   */\n      dup10\n        /* \"#utility.yul\":10655:10674   */\n      add\n        /* \"#utility.yul\":10649:10675   */\n      mload\n        /* \"#utility.yul\":10707:10755   */\n      tag_196\n        /* \"#utility.yul\":10749:10753   */\n      0x1f\n        /* \"#utility.yul\":10741:10747   */\n      dup10\n        /* \"#utility.yul\":10737:10754   */\n      and\n        /* \"#utility.yul\":10726:10735   */\n      dup3\n        /* \"#utility.yul\":10707:10755   */\n      tag_63\n      jump\t// in\n    tag_196:\n        /* \"#utility.yul\":10699:10705   */\n      dup4\n        /* \"#utility.yul\":10692:10756   */\n      sstore\n        /* \"#utility.yul\":10614:10770   */\n      pop\n        /* \"#utility.yul\":10591:10770   */\n    tag_195:\n        /* \"#utility.yul\":10816:10817   */\n      0x01\n        /* \"#utility.yul\":10812:10813   */\n      0x02\n        /* \"#utility.yul\":10804:10810   */\n      dup9\n        /* \"#utility.yul\":10800:10814   */\n      mul\n        /* \"#utility.yul\":10796:10818   */\n      add\n        /* \"#utility.yul\":10790:10794   */\n      dup9\n        /* \"#utility.yul\":10783:10819   */\n      sstore\n        /* \"#utility.yul\":10218:10829   */\n      pop\n      pop\n      pop\n        /* \"#utility.yul\":10181:11068   */\n    tag_187:\n      pop\n        /* \"#utility.yul\":9771:11074   */\n      pop\n      pop\n      pop\n        /* \"#utility.yul\":9679:11074   */\n      pop\n      pop\n      jump\t// out\n\n    auxdata: 0xa264697066735822122053edc4b8c267691b4c8f4ac5d2dbb5de470fac2ac10c0f88f27b6ca264e834ef64736f6c63430008160033\n}\n",
				"bytecode": {
					"linkReferences": {},
					"object": "608060405234801561000f575f80fd5b506107e38061001d5f395ff3fe608060405234801561000f575f80fd5b5060043610610034575f3560e01c80633c594059146100385780636f70f9f41461006a575b5f80fd5b610052600480360381019061004d91906101f4565b610086565b604051610061939291906102d2565b60405180910390f35b610084600480360381019061007f9190610464565b61013d565b005b5f602052805f5260405f205f91509050805f0180546100a490610511565b80601f01602080910402602001604051908101604052809291908181526020018280546100d090610511565b801561011b5780601f106100f25761010080835404028352916020019161011b565b820191905f5260205f20905b8154815290600101906020018083116100fe57829003601f168201915b505050505090806001015490806002015f9054906101000a900460ff16905083565b60405180606001604052808481526020018381526020018215158152505f808681526020019081526020015f205f820151815f01908161017d91906106de565b50602082015181600101556040820151816002015f6101000a81548160ff02191690831515021790555090505050505050565b5f604051905090565b5f80fd5b5f80fd5b5f819050919050565b6101d3816101c1565b81146101dd575f80fd5b50565b5f813590506101ee816101ca565b92915050565b5f60208284031215610209576102086101b9565b5b5f610216848285016101e0565b91505092915050565b5f81519050919050565b5f82825260208201905092915050565b5f5b8381101561025657808201518184015260208101905061023b565b5f8484015250505050565b5f601f19601f8301169050919050565b5f61027b8261021f565b6102858185610229565b9350610295818560208601610239565b61029e81610261565b840191505092915050565b6102b2816101c1565b82525050565b5f8115159050919050565b6102cc816102b8565b82525050565b5f6060820190508181035f8301526102ea8186610271565b90506102f960208301856102a9565b61030660408301846102c3565b949350505050565b5f80fd5b5f80fd5b7f4e487b71000000000000000000000000000000000000000000000000000000005f52604160045260245ffd5b61034c82610261565b810181811067ffffffffffffffff8211171561036b5761036a610316565b5b80604052505050565b5f61037d6101b0565b90506103898282610343565b919050565b5f67ffffffffffffffff8211156103a8576103a7610316565b5b6103b182610261565b9050602081019050919050565b828183375f83830152505050565b5f6103de6103d98461038e565b610374565b9050828152602081018484840111156103fa576103f9610312565b5b6104058482856103be565b509392505050565b5f82601f8301126104215761042061030e565b5b81356104318482602086016103cc565b91505092915050565b610443816102b8565b811461044d575f80fd5b50565b5f8135905061045e8161043a565b92915050565b5f805f806080858703121561047c5761047b6101b9565b5b5f610489878288016101e0565b945050602085013567ffffffffffffffff8111156104aa576104a96101bd565b5b6104b68782880161040d565b93505060406104c7878288016101e0565b92505060606104d887828801610450565b91505092959194509250565b7f4e487b71000000000000000000000000000000000000000000000000000000005f52602260045260245ffd5b5f600282049050600182168061052857607f821691505b60208210810361053b5761053a6104e4565b5b50919050565b5f819050815f5260205f209050919050565b5f6020601f8301049050919050565b5f82821b905092915050565b5f6008830261059d7fffffffffffffffffffffffffffffffffffffffffffffffffffffffffffffffff82610562565b6105a78683610562565b95508019841693508086168417925050509392505050565b5f819050919050565b5f6105e26105dd6105d8846101c1565b6105bf565b6101c1565b9050919050565b5f819050919050565b6105fb836105c8565b61060f610607826105e9565b84845461056e565b825550505050565b5f90565b610623610617565b61062e8184846105f2565b505050565b5b81811015610651576106465f8261061b565b600181019050610634565b5050565b601f8211156106965761066781610541565b61067084610553565b8101602085101561067f578190505b61069361068b85610553565b830182610633565b50505b505050565b5f82821c905092915050565b5f6106b65f198460080261069b565b1980831691505092915050565b5f6106ce83836106a7565b9150826002028217905092915050565b6106e78261021f565b67ffffffffffffffff811115610700576106ff610316565b5b61070a8254610511565b610715828285610655565b5f60209050601f831160018114610746575f8415610734578287015190505b61073e85826106c3565b8655506107a5565b601f19841661075486610541565b5f5b8281101561077b57848901518255600182019150602085019450602081019050610756565b868310156107985784890151610794601f8916826106a7565b8355505b6001600288020188555050505b50505050505056fea264697066735822122053edc4b8c267691b4c8f4ac5d2dbb5de470fac2ac10c0f88f27b6ca264e834ef64736f6c63430008160033",
					"opcodes": "PUSH1 0x80 PUSH1 0x40 MSTORE CALLVALUE DUP1 ISZERO PUSH2 0xF JUMPI PUSH0 DUP1 REVERT JUMPDEST POP PUSH2 0x7E3 DUP1 PUSH2 0x1D PUSH0 CODECOPY PUSH0 RETURN INVALID PUSH1 0x80 PUSH1 0x40 MSTORE CALLVALUE DUP1 ISZERO PUSH2 0xF JUMPI PUSH0 DUP1 REVERT JUMPDEST POP PUSH1 0x4 CALLDATASIZE LT PUSH2 0x34 JUMPI PUSH0 CALLDATALOAD PUSH1 0xE0 SHR DUP1 PUSH4 0x3C594059 EQ PUSH2 0x38 JUMPI DUP1 PUSH4 0x6F70F9F4 EQ PUSH2 0x6A JUMPI JUMPDEST PUSH0 DUP1 REVERT JUMPDEST PUSH2 0x52 PUSH1 0x4 DUP1 CALLDATASIZE SUB DUP2 ADD SWAP1 PUSH2 0x4D SWAP2 SWAP1 PUSH2 0x1F4 JUMP JUMPDEST PUSH2 0x86 JUMP JUMPDEST PUSH1 0x40 MLOAD PUSH2 0x61 SWAP4 SWAP3 SWAP2 SWAP1 PUSH2 0x2D2 JUMP JUMPDEST PUSH1 0x40 MLOAD DUP1 SWAP2 SUB SWAP1 RETURN JUMPDEST PUSH2 0x84 PUSH1 0x4 DUP1 CALLDATASIZE SUB DUP2 ADD SWAP1 PUSH2 0x7F SWAP2 SWAP1 PUSH2 0x464 JUMP JUMPDEST PUSH2 0x13D JUMP JUMPDEST STOP JUMPDEST PUSH0 PUSH1 0x20 MSTORE DUP1 PUSH0 MSTORE PUSH1 0x40 PUSH0 KECCAK256 PUSH0 SWAP2 POP SWAP1 POP DUP1 PUSH0 ADD DUP1 SLOAD PUSH2 0xA4 SWAP1 PUSH2 0x511 JUMP JUMPDEST DUP1 PUSH1 0x1F ADD PUSH1 0x20 DUP1 SWAP2 DIV MUL PUSH1 0x20 ADD PUSH1 0x40 MLOAD SWAP1 DUP2 ADD PUSH1 0x40 MSTORE DUP1 SWAP3 SWAP2 SWAP1 DUP2 DUP2 MSTORE PUSH1 0x20 ADD DUP3 DUP1 SLOAD PUSH2 0xD0 SWAP1 PUSH2 0x511 JUMP JUMPDEST DUP1 ISZERO PUSH2 0x11B JUMPI DUP1 PUSH1 0x1F LT PUSH2 0xF2 JUMPI PUSH2 0x100 DUP1 DUP4 SLOAD DIV MUL DUP4 MSTORE SWAP2 PUSH1 0x20 ADD SWAP2 PUSH2 0x11B JUMP JUMPDEST DUP3 ADD SWAP2 SWAP1 PUSH0 MSTORE PUSH1 0x20 PUSH0 KECCAK256 SWAP1 JUMPDEST DUP2 SLOAD DUP2 MSTORE SWAP1 PUSH1 0x1 ADD SWAP1 PUSH1 0x20 ADD DUP1 DUP4 GT PUSH2 0xFE JUMPI DUP3 SWAP1 SUB PUSH1 0x1F AND DUP3 ADD SWAP2 JUMPDEST POP POP POP POP POP SWAP1 DUP1 PUSH1 0x1 ADD SLOAD SWAP1 DUP1 PUSH1 0x2 ADD PUSH0 SWAP1 SLOAD SWAP1 PUSH2 0x100 EXP SWAP1 DIV PUSH1 0xFF AND SWAP1 POP DUP4 JUMP JUMPDEST PUSH1 0x40 MLOAD DUP1 PUSH1 0x60 ADD PUSH1 0x40 MSTORE DUP1 DUP5 DUP2 MSTORE PUSH1 0x20 ADD DUP4 DUP2 MSTORE PUSH1 0x20 ADD DUP3 ISZERO ISZERO DUP2 MSTORE POP PUSH0 DUP1 DUP7 DUP2 MSTORE PUSH1 0x20 ADD SWAP1 DUP2 MSTORE PUSH1 0x20 ADD PUSH0 KECCAK256 PUSH0 DUP3 ADD MLOAD DUP2 PUSH0 ADD SWAP1 DUP2 PUSH2 0x17D SWAP2 SWAP1 PUSH2 0x6DE JUMP JUMPDEST POP PUSH1 0x20 DUP3 ADD MLOAD DUP2 PUSH1 0x1 ADD SSTORE PUSH1 0x40 DUP3 ADD MLOAD DUP2 PUSH1 0x2 ADD PUSH0 PUSH2 0x100 EXP DUP2 SLOAD DUP2 PUSH1 0xFF MUL NOT AND SWAP1 DUP4 ISZERO ISZERO MUL OR SWAP1 SSTORE POP SWAP1 POP POP POP POP POP POP JUMP JUMPDEST PUSH0 PUSH1 0x40 MLOAD SWAP1 POP SWAP1 JUMP JUMPDEST PUSH0 DUP1 REVERT JUMPDEST PUSH0 DUP1 REVERT JUMPDEST PUSH0 DUP2 SWAP1 POP SWAP2 SWAP1 POP JUMP JUMPDEST PUSH2 0x1D3 DUP2 PUSH2 0x1C1 JUMP JUMPDEST DUP2 EQ PUSH2 0x1DD JUMPI PUSH0 DUP1 REVERT JUMPDEST POP JUMP JUMPDEST PUSH0 DUP2 CALLDATALOAD SWAP1 POP PUSH2 0x1EE DUP2 PUSH2 0x1CA JUMP JUMPDEST SWAP3 SWAP2 POP POP JUMP JUMPDEST PUSH0 PUSH1 0x20 DUP3 DUP5 SUB SLT ISZERO PUSH2 0x209 JUMPI PUSH2 0x208 PUSH2 0x1B9 JUMP JUMPDEST JUMPDEST PUSH0 PUSH2 0x216 DUP5 DUP3 DUP6 ADD PUSH2 0x1E0 JUMP JUMPDEST SWAP2 POP POP SWAP3 SWAP2 POP POP JUMP JUMPDEST PUSH0 DUP2 MLOAD SWAP1 POP SWAP2 SWAP1 POP JUMP JUMPDEST PUSH0 DUP3 DUP3 MSTORE PUSH1 0x20 DUP3 ADD SWAP1 POP SWAP3 SWAP2 POP POP JUMP JUMPDEST PUSH0 JUMPDEST DUP4 DUP2 LT ISZERO PUSH2 0x256 JUMPI DUP1 DUP3 ADD MLOAD DUP2 DUP5 ADD MSTORE PUSH1 0x20 DUP2 ADD SWAP1 POP PUSH2 0x23B JUMP JUMPDEST PUSH0 DUP5 DUP5 ADD MSTORE POP POP POP POP JUMP JUMPDEST PUSH0 PUSH1 0x1F NOT PUSH1 0x1F DUP4 ADD AND SWAP1 POP SWAP2 SWAP1 POP JUMP JUMPDEST PUSH0 PUSH2 0x27B DUP3 PUSH2 0x21F JUMP JUMPDEST PUSH2 0x285 DUP2 DUP6 PUSH2 0x229 JUMP JUMPDEST SWAP4 POP PUSH2 0x295 DUP2 DUP6 PUSH1 0x20 DUP7 ADD PUSH2 0x239 JUMP JUMPDEST PUSH2 0x29E DUP2 PUSH2 0x261 JUMP JUMPDEST DUP5 ADD SWAP2 POP POP SWAP3 SWAP2 POP POP JUMP JUMPDEST PUSH2 0x2B2 DUP2 PUSH2 0x1C1 JUMP JUMPDEST DUP3 MSTORE POP POP JUMP JUMPDEST PUSH0 DUP2 ISZERO ISZERO SWAP1 POP SWAP2 SWAP1 POP JUMP JUMPDEST PUSH2 0x2CC DUP2 PUSH2 0x2B8 JUMP JUMPDEST DUP3 MSTORE POP POP JUMP JUMPDEST PUSH0 PUSH1 0x60 DUP3 ADD SWAP1 POP DUP2 DUP2 SUB PUSH0 DUP4 ADD MSTORE PUSH2 0x2EA DUP2 DUP7 PUSH2 0x271 JUMP JUMPDEST SWAP1 POP PUSH2 0x2F9 PUSH1 0x20 DUP4 ADD DUP6 PUSH2 0x2A9 JUMP JUMPDEST PUSH2 0x306 PUSH1 0x40 DUP4 ADD DUP5 PUSH2 0x2C3 JUMP JUMPDEST SWAP5 SWAP4 POP POP POP POP JUMP JUMPDEST PUSH0 DUP1 REVERT JUMPDEST PUSH0 DUP1 REVERT JUMPDEST PUSH32 0x4E487B7100000000000000000000000000000000000000000000000000000000 PUSH0 MSTORE PUSH1 0x41 PUSH1 0x4 MSTORE PUSH1 0x24 PUSH0 REVERT JUMPDEST PUSH2 0x34C DUP3 PUSH2 0x261 JUMP JUMPDEST DUP2 ADD DUP2 DUP2 LT PUSH8 0xFFFFFFFFFFFFFFFF DUP3 GT OR ISZERO PUSH2 0x36B JUMPI PUSH2 0x36A PUSH2 0x316 JUMP JUMPDEST JUMPDEST DUP1 PUSH1 0x40 MSTORE POP POP POP JUMP JUMPDEST PUSH0 PUSH2 0x37D PUSH2 0x1B0 JUMP JUMPDEST SWAP1 POP PUSH2 0x389 DUP3 DUP3 PUSH2 0x343 JUMP JUMPDEST SWAP2 SWAP1 POP JUMP JUMPDEST PUSH0 PUSH8 0xFFFFFFFFFFFFFFFF DUP3 GT ISZERO PUSH2 0x3A8 JUMPI PUSH2 0x3A7 PUSH2 0x316 JUMP JUMPDEST JUMPDEST PUSH2 0x3B1 DUP3 PUSH2 0x261 JUMP JUMPDEST SWAP1 POP PUSH1 0x20 DUP2 ADD SWAP1 POP SWAP2 SWAP1 POP JUMP JUMPDEST DUP3 DUP2 DUP4 CALLDATACOPY PUSH0 DUP4 DUP4 ADD MSTORE POP POP POP JUMP JUMPDEST PUSH0 PUSH2 0x3DE PUSH2 0x3D9 DUP5 PUSH2 0x38E JUMP JUMPDEST PUSH2 0x374 JUMP JUMPDEST SWAP1 POP DUP3 DUP2 MSTORE PUSH1 0x20 DUP2 ADD DUP5 DUP5 DUP5 ADD GT ISZERO PUSH2 0x3FA JUMPI PUSH2 0x3F9 PUSH2 0x312 JUMP JUMPDEST JUMPDEST PUSH2 0x405 DUP5 DUP3 DUP6 PUSH2 0x3BE JUMP JUMPDEST POP SWAP4 SWAP3 POP POP POP JUMP JUMPDEST PUSH0 DUP3 PUSH1 0x1F DUP4 ADD SLT PUSH2 0x421 JUMPI PUSH2 0x420 PUSH2 0x30E JUMP JUMPDEST JUMPDEST DUP2 CALLDATALOAD PUSH2 0x431 DUP5 DUP3 PUSH1 0x20 DUP7 ADD PUSH2 0x3CC JUMP JUMPDEST SWAP2 POP POP SWAP3 SWAP2 POP POP JUMP JUMPDEST PUSH2 0x443 DUP2 PUSH2 0x2B8 JUMP JUMPDEST DUP2 EQ PUSH2 0x44D JUMPI PUSH0 DUP1 REVERT JUMPDEST POP JUMP JUMPDEST PUSH0 DUP2 CALLDATALOAD SWAP1 POP PUSH2 0x45E DUP2 PUSH2 0x43A JUMP JUMPDEST SWAP3 SWAP2 POP POP JUMP JUMPDEST PUSH0 DUP1 PUSH0 DUP1 PUSH1 0x80 DUP6 DUP8 SUB SLT ISZERO PUSH2 0x47C JUMPI PUSH2 0x47B PUSH2 0x1B9 JUMP JUMPDEST JUMPDEST PUSH0 PUSH2 0x489 DUP8 DUP3 DUP9 ADD PUSH2 0x1E0 JUMP JUMPDEST SWAP5 POP POP PUSH1 0x20 DUP6 ADD CALLDATALOAD PUSH8 0xFFFFFFFFFFFFFFFF DUP2 GT ISZERO PUSH2 0x4AA JUMPI PUSH2 0x4A9 PUSH2 0x1BD JUMP JUMPDEST JUMPDEST PUSH2 0x4B6 DUP8 DUP3 DUP9 ADD PUSH2 0x40D JUMP JUMPDEST SWAP4 POP POP PUSH1 0x40 PUSH2 0x4C7 DUP8 DUP3 DUP9 ADD PUSH2 0x1E0 JUMP JUMPDEST SWAP3 POP POP PUSH1 0x60 PUSH2 0x4D8 DUP8 DUP3 DUP9 ADD PUSH2 0x450 JUMP JUMPDEST SWAP2 POP POP SWAP3 SWAP6 SWAP2 SWAP5 POP SWAP3 POP JUMP JUMPDEST PUSH32 0x4E487B7100000000000000000000000000000000000000000000000000000000 PUSH0 MSTORE PUSH1 0x22 PUSH1 0x4 MSTORE PUSH1 0x24 PUSH0 REVERT JUMPDEST PUSH0 PUSH1 0x2 DUP3 DIV SWAP1 POP PUSH1 0x1 DUP3 AND DUP1 PUSH2 0x528 JUMPI PUSH1 0x7F DUP3 AND SWAP2 POP JUMPDEST PUSH1 0x20 DUP3 LT DUP2 SUB PUSH2 0x53B JUMPI PUSH2 0x53A PUSH2 0x4E4 JUMP JUMPDEST JUMPDEST POP SWAP2 SWAP1 POP JUMP JUMPDEST PUSH0 DUP2 SWAP1 POP DUP2 PUSH0 MSTORE PUSH1 0x20 PUSH0 KECCAK256 SWAP1 POP SWAP2 SWAP1 POP JUMP JUMPDEST PUSH0 PUSH1 0x20 PUSH1 0x1F DUP4 ADD DIV SWAP1 POP SWAP2 SWAP1 POP JUMP JUMPDEST PUSH0 DUP3 DUP3 SHL SWAP1 POP SWAP3 SWAP2 POP POP JUMP JUMPDEST PUSH0 PUSH1 0x8 DUP4 MUL PUSH2 0x59D PUSH32 0xFFFFFFFFFFFFFFFFFFFFFFFFFFFFFFFFFFFFFFFFFFFFFFFFFFFFFFFFFFFFFFFF DUP3 PUSH2 0x562 JUMP JUMPDEST PUSH2 0x5A7 DUP7 DUP4 PUSH2 0x562 JUMP JUMPDEST SWAP6 POP DUP1 NOT DUP5 AND SWAP4 POP DUP1 DUP7 AND DUP5 OR SWAP3 POP POP POP SWAP4 SWAP3 POP POP POP JUMP JUMPDEST PUSH0 DUP2 SWAP1 POP SWAP2 SWAP1 POP JUMP JUMPDEST PUSH0 PUSH2 0x5E2 PUSH2 0x5DD PUSH2 0x5D8 DUP5 PUSH2 0x1C1 JUMP JUMPDEST PUSH2 0x5BF JUMP JUMPDEST PUSH2 0x1C1 JUMP JUMPDEST SWAP1 POP SWAP2 SWAP1 POP JUMP JUMPDEST PUSH0 DUP2 SWAP1 POP SWAP2 SWAP1 POP JUMP JUMPDEST PUSH2 0x5FB DUP4 PUSH2 0x5C8 JUMP JUMPDEST PUSH2 0x60F PUSH2 0x607 DUP3 PUSH2 0x5E9 JUMP JUMPDEST DUP5 DUP5 SLOAD PUSH2 0x56E JUMP JUMPDEST DUP3 SSTORE POP POP POP POP JUMP JUMPDEST PUSH0 SWAP1 JUMP JUMPDEST PUSH2 0x623 PUSH2 0x617 JUMP JUMPDEST PUSH2 0x62E DUP2 DUP5 DUP5 PUSH2 0x5F2 JUMP JUMPDEST POP POP POP JUMP JUMPDEST JUMPDEST DUP2 DUP2 LT ISZERO PUSH2 0x651 JUMPI PUSH2 0x646 PUSH0 DUP3 PUSH2 0x61B JUMP JUMPDEST PUSH1 0x1 DUP2 ADD SWAP1 POP PUSH2 0x634 JUMP JUMPDEST POP POP JUMP JUMPDEST PUSH1 0x1F DUP3 GT ISZERO PUSH2 0x696 JUMPI PUSH2 0x667 DUP2 PUSH2 0x541 JUMP JUMPDEST PUSH2 0x670 DUP5 PUSH2 0x553 JUMP JUMPDEST DUP2 ADD PUSH1 0x20 DUP6 LT ISZERO PUSH2 0x67F JUMPI DUP2 SWAP1 POP JUMPDEST PUSH2 0x693 PUSH2 0x68B DUP6 PUSH2 0x553 JUMP JUMPDEST DUP4 ADD DUP3 PUSH2 0x633 JUMP JUMPDEST POP POP JUMPDEST POP POP POP JUMP JUMPDEST PUSH0 DUP3 DUP3 SHR SWAP1 POP SWAP3 SWAP2 POP POP JUMP JUMPDEST PUSH0 PUSH2 0x6B6 PUSH0 NOT DUP5 PUSH1 0x8 MUL PUSH2 0x69B JUMP JUMPDEST NOT DUP1 DUP4 AND SWAP2 POP POP SWAP3 SWAP2 POP POP JUMP JUMPDEST PUSH0 PUSH2 0x6CE DUP4 DUP4 PUSH2 0x6A7 JUMP JUMPDEST SWAP2 POP DUP3 PUSH1 0x2 MUL DUP3 OR SWAP1 POP SWAP3 SWAP2 POP POP JUMP JUMPDEST PUSH2 0x6E7 DUP3 PUSH2 0x21F JUMP JUMPDEST PUSH8 0xFFFFFFFFFFFFFFFF DUP2 GT ISZERO PUSH2 0x700 JUMPI PUSH2 0x6FF PUSH2 0x316 JUMP JUMPDEST JUMPDEST PUSH2 0x70A DUP3 SLOAD PUSH2 0x511 JUMP JUMPDEST PUSH2 0x715 DUP3 DUP3 DUP6 PUSH2 0x655 JUMP JUMPDEST PUSH0 PUSH1 0x20 SWAP1 POP PUSH1 0x1F DUP4 GT PUSH1 0x1 DUP2 EQ PUSH2 0x746 JUMPI PUSH0 DUP5 ISZERO PUSH2 0x734 JUMPI DUP3 DUP8 ADD MLOAD SWAP1 POP JUMPDEST PUSH2 0x73E DUP6 DUP3 PUSH2 0x6C3 JUMP JUMPDEST DUP7 SSTORE POP PUSH2 0x7A5 JUMP JUMPDEST PUSH1 0x1F NOT DUP5 AND PUSH2 0x754 DUP7 PUSH2 0x541 JUMP JUMPDEST PUSH0 JUMPDEST DUP3 DUP2 LT ISZERO PUSH2 0x77B JUMPI DUP5 DUP10 ADD MLOAD DUP3 SSTORE PUSH1 0x1 DUP3 ADD SWAP2 POP PUSH1 0x20 DUP6 ADD SWAP5 POP PUSH1 0x20 DUP2 ADD SWAP1 POP PUSH2 0x756 JUMP JUMPDEST DUP7 DUP4 LT ISZERO PUSH2 0x798 JUMPI DUP5 DUP10 ADD MLOAD PUSH2 0x794 PUSH1 0x1F DUP10 AND DUP3 PUSH2 0x6A7 JUMP JUMPDEST DUP4 SSTORE POP JUMPDEST PUSH1 0x1 PUSH1 0x2 DUP9 MUL ADD DUP9 SSTORE POP POP POP JUMPDEST POP POP POP POP POP POP JUMP INVALID LOG2 PUSH5 0x6970667358 0x22 SLT KECCAK256 MSTORE8 0xED 0xC4 0xB8 0xC2 PUSH8 0x691B4C8F4AC5D2DB 0xB5 0xDE SELFBALANCE 0xF 0xAC 0x2A 0xC1 0xC 0xF DUP9 CALLCODE PUSH28 0x6CA264E834EF64736F6C634300081600330000000000000000000000 "
				},
				"gasEstimates": {
					"creation": {
						"codeDepositCost": "403800",
						"executionCost": "441",
						"totalCost": "404241"
					},
					"external": {
						"result(uint256)": "infinite",
						"setter(uint256,string,uint256,bool)": "infinite"
					}
				},
				"methodIdentifiers": {
					"result(uint256)": "3c594059",
					"setter(uint256,string,uint256,bool)": "6f70f9f4"
				}
			},
			"storageLayout": {
				"storage": [
					{
						"astId": 13,
						"contract": "contracts/21_mappings.sol:Mappings",
						"label": "result",
						"offset": 0,
						"slot": "0",
						"type": "t_mapping(t_uint256,t_struct(Student)8_storage)"
					}
				],
				"types": {
					"t_bool": {
						"encoding": "inplace",
						"label": "bool",
						"numberOfBytes": "1"
					},
					"t_mapping(t_uint256,t_struct(Student)8_storage)": {
						"encoding": "mapping",
						"key": "t_uint256",
						"label": "mapping(uint256 => struct Mappings.Student)",
						"numberOfBytes": "32",
						"value": "t_struct(Student)8_storage"
					},
					"t_string_storage": {
						"encoding": "bytes",
						"label": "string",
						"numberOfBytes": "32"
					},
					"t_struct(Student)8_storage": {
						"encoding": "inplace",
						"label": "struct Mappings.Student",
						"members": [
							{
								"astId": 3,
								"contract": "contracts/21_mappings.sol:Mappings",
								"label": "Name",
								"offset": 0,
								"slot": "0",
								"type": "t_string_storage"
							},
							{
								"astId": 5,
								"contract": "contracts/21_mappings.sol:Mappings",
								"label": "mobileNo",
								"offset": 0,
								"slot": "1",
								"type": "t_uint256"
							},
							{
								"astId": 7,
								"contract": "contracts/21_mappings.sol:Mappings",
								"label": "pass",
								"offset": 0,
								"slot": "2",
								"type": "t_bool"
							}
						],
						"numberOfBytes": "96"
					},
					"t_uint256": {
						"encoding": "inplace",
						"label": "uint256",
						"numberOfBytes": "32"
					}
				}
			},
			"userdoc": {
				"kind": "user",
				"methods": {},
				"version": 1
			}
		}
	}
}