{
	"contracts/20_array_struct.sol": {
		"arrayStruct": {
			"abi": [
				{
					"inputs": [
						{
							"internalType": "uint256",
							"name": "",
							"type": "uint256"
						}
					],
					"name": "s",
					"outputs": [
						{
							"internalType": "string",
							"name": "Name",
							"type": "string"
						},
						{
							"internalType": "uint256",
							"name": "moibleNo",
							"type": "uint256"
						},
						{
							"internalType": "bool",
							"name": "result",
							"type": "bool"
						}
					],
					"stateMutability": "view",
					"type": "function"
				},
				{
					"inputs": [
						{
							"internalType": "string",
							"name": "_Name",
							"type": "string"
						},
						{
							"internalType": "uint256",
							"name": "_mobileNo",
							"type": "uint256"
						},
						{
							"internalType": "bool",
							"name": "_result",
							"type": "bool"
						}
					],
					"name": "setter",
					"outputs": [],
					"stateMutability": "nonpayable",
					"type": "function"
				}
			],
			"devdoc": {
				"kind": "dev",
				"methods": {},
				"version": 1
			},
			"evm": {
				"assembly": "    /* \"contracts/20_array_struct.sol\":65:357  contract arrayStruct {... */\n  mstore(0x40, 0x80)\n  callvalue\n  dup1\n  iszero\n  tag_1\n  jumpi\n  0x00\n  dup1\n  revert\ntag_1:\n  pop\n  dataSize(sub_0)\n  dup1\n  dataOffset(sub_0)\n  0x00\n  codecopy\n  0x00\n  return\nstop\n\nsub_0: assembly {\n        /* \"contracts/20_array_struct.sol\":65:357  contract arrayStruct {... */\n      mstore(0x40, 0x80)\n      callvalue\n      dup1\n      iszero\n      tag_1\n      jumpi\n      0x00\n      dup1\n      revert\n    tag_1:\n      pop\n      jumpi(tag_2, lt(calldatasize, 0x04))\n      shr(0xe0, calldataload(0x00))\n      dup1\n      0x52efd685\n      eq\n      tag_3\n      jumpi\n      dup1\n      0xbbab9df2\n      eq\n      tag_4\n      jumpi\n    tag_2:\n      0x00\n      dup1\n      revert\n        /* \"contracts/20_array_struct.sol\":192:210  Student[] public s */\n    tag_3:\n      tag_5\n      0x04\n      dup1\n      calldatasize\n      sub\n      dup2\n      add\n      swap1\n      tag_6\n      swap2\n      swap1\n      tag_7\n      jump\t// in\n    tag_6:\n      tag_8\n      jump\t// in\n    tag_5:\n      mload(0x40)\n      tag_9\n      swap4\n      swap3\n      swap2\n      swap1\n      tag_10\n      jump\t// in\n    tag_9:\n      mload(0x40)\n      dup1\n      swap2\n      sub\n      swap1\n      return\n        /* \"contracts/20_array_struct.sol\":219:354  function setter(string memory _Name, uint _mobileNo, bool _result) public {... */\n    tag_4:\n      tag_11\n      0x04\n      dup1\n      calldatasize\n      sub\n      dup2\n      add\n      swap1\n      tag_12\n      swap2\n      swap1\n      tag_13\n      jump\t// in\n    tag_12:\n      tag_14\n      jump\t// in\n    tag_11:\n      stop\n        /* \"contracts/20_array_struct.sol\":192:210  Student[] public s */\n    tag_8:\n      0x00\n      dup2\n      dup2\n      sload\n      dup2\n      lt\n      tag_15\n      jumpi\n      0x00\n      dup1\n      revert\n    tag_15:\n      swap1\n      0x00\n      mstore\n      keccak256(0x00, 0x20)\n      swap1\n      0x03\n      mul\n      add\n      0x00\n      swap2\n      pop\n      swap1\n      pop\n      dup1\n      0x00\n      add\n      dup1\n      sload\n      tag_17\n      swap1\n      tag_18\n      jump\t// in\n    tag_17:\n      dup1\n      0x1f\n      add\n      0x20\n      dup1\n      swap2\n      div\n      mul\n      0x20\n      add\n      mload(0x40)\n      swap1\n      dup2\n      add\n      0x40\n      mstore\n      dup1\n      swap3\n      swap2\n      swap1\n      dup2\n      dup2\n      mstore\n      0x20\n      add\n      dup3\n      dup1\n      sload\n      tag_19\n      swap1\n      tag_18\n      jump\t// in\n    tag_19:\n      dup1\n      iszero\n      tag_20\n      jumpi\n      dup1\n      0x1f\n      lt\n      tag_21\n      jumpi\n      0x0100\n      dup1\n      dup4\n      sload\n      div\n      mul\n      dup4\n      mstore\n      swap2\n      0x20\n      add\n      swap2\n      jump(tag_20)\n    tag_21:\n      dup3\n      add\n      swap2\n      swap1\n      0x00\n      mstore\n      keccak256(0x00, 0x20)\n      swap1\n    tag_22:\n      dup2\n      sload\n      dup2\n      mstore\n      swap1\n      0x01\n      add\n      swap1\n      0x20\n      add\n      dup1\n      dup4\n      gt\n      tag_22\n      jumpi\n      dup3\n      swap1\n      sub\n      0x1f\n      and\n      dup3\n      add\n      swap2\n    tag_20:\n      pop\n      pop\n      pop\n      pop\n      pop\n      swap1\n      dup1\n      0x01\n      add\n      sload\n      swap1\n      dup1\n      0x02\n      add\n      0x00\n      swap1\n      sload\n      swap1\n      0x0100\n      exp\n      swap1\n      div\n      0xff\n      and\n      swap1\n      pop\n      dup4\n      jump\t// out\n        /* \"contracts/20_array_struct.sol\":219:354  function setter(string memory _Name, uint _mobileNo, bool _result) public {... */\n    tag_14:\n        /* \"contracts/20_array_struct.sol\":304:305  s */\n      0x00\n        /* \"contracts/20_array_struct.sol\":311:345  Student(_Name, _mobileNo, _result) */\n      mload(0x40)\n      dup1\n      0x60\n      add\n      0x40\n      mstore\n      dup1\n        /* \"contracts/20_array_struct.sol\":319:324  _Name */\n      dup6\n        /* \"contracts/20_array_struct.sol\":311:345  Student(_Name, _mobileNo, _result) */\n      dup2\n      mstore\n      0x20\n      add\n        /* \"contracts/20_array_struct.sol\":326:335  _mobileNo */\n      dup5\n        /* \"contracts/20_array_struct.sol\":311:345  Student(_Name, _mobileNo, _result) */\n      dup2\n      mstore\n      0x20\n      add\n        /* \"contracts/20_array_struct.sol\":337:344  _result */\n      dup4\n        /* \"contracts/20_array_struct.sol\":311:345  Student(_Name, _mobileNo, _result) */\n      iszero\n      iszero\n      dup2\n      mstore\n      pop\n        /* \"contracts/20_array_struct.sol\":304:346  s.push(Student(_Name, _mobileNo, _result)) */\n      swap1\n      dup1\n      0x01\n      dup2\n      sload\n      add\n      dup1\n      dup3\n      sstore\n      dup1\n      swap2\n      pop\n      pop\n      0x01\n      swap1\n      sub\n      swap1\n      0x00\n      mstore\n      keccak256(0x00, 0x20)\n      swap1\n      0x03\n      mul\n      add\n      0x00\n      swap1\n      swap2\n      swap1\n      swap2\n      swap1\n      swap2\n      pop\n      0x00\n      dup3\n      add\n      mload\n      dup2\n      0x00\n      add\n      swap1\n      dup2\n      tag_25\n      swap2\n      swap1\n      tag_26\n      jump\t// in\n    tag_25:\n      pop\n      0x20\n      dup3\n      add\n      mload\n      dup2\n      0x01\n      add\n      sstore\n      0x40\n      dup3\n      add\n      mload\n      dup2\n      0x02\n      add\n      exp(0x0100, 0x00)\n      dup2\n      sload\n      dup2\n      0xff\n      mul\n      not\n      and\n      swap1\n      dup4\n      iszero\n      iszero\n      mul\n      or\n      swap1\n      sstore\n      pop\n      pop\n      pop\n        /* \"contracts/20_array_struct.sol\":219:354  function setter(string memory _Name, uint _mobileNo, bool _result) public {... */\n      pop\n      pop\n      pop\n      jump\t// out\n        /* \"#utility.yul\":7:82   */\n    tag_27:\n        /* \"#utility.yul\":40:46   */\n      0x00\n        /* \"#utility.yul\":73:75   */\n      0x40\n        /* \"#utility.yul\":67:76   */\n      mload\n        /* \"#utility.yul\":57:76   */\n      swap1\n      pop\n        /* \"#utility.yul\":7:82   */\n      swap1\n      jump\t// out\n        /* \"#utility.yul\":88:205   */\n    tag_28:\n        /* \"#utility.yul\":197:198   */\n      0x00\n        /* \"#utility.yul\":194:195   */\n      dup1\n        /* \"#utility.yul\":187:199   */\n      revert\n        /* \"#utility.yul\":211:328   */\n    tag_29:\n        /* \"#utility.yul\":320:321   */\n      0x00\n        /* \"#utility.yul\":317:318   */\n      dup1\n        /* \"#utility.yul\":310:322   */\n      revert\n        /* \"#utility.yul\":334:411   */\n    tag_30:\n        /* \"#utility.yul\":371:378   */\n      0x00\n        /* \"#utility.yul\":400:405   */\n      dup2\n        /* \"#utility.yul\":389:405   */\n      swap1\n      pop\n        /* \"#utility.yul\":334:411   */\n      swap2\n      swap1\n      pop\n      jump\t// out\n        /* \"#utility.yul\":417:539   */\n    tag_31:\n        /* \"#utility.yul\":490:514   */\n      tag_74\n        /* \"#utility.yul\":508:513   */\n      dup2\n        /* \"#utility.yul\":490:514   */\n      tag_30\n      jump\t// in\n    tag_74:\n        /* \"#utility.yul\":483:488   */\n      dup2\n        /* \"#utility.yul\":480:515   */\n      eq\n        /* \"#utility.yul\":470:533   */\n      tag_75\n      jumpi\n        /* \"#utility.yul\":529:530   */\n      0x00\n        /* \"#utility.yul\":526:527   */\n      dup1\n        /* \"#utility.yul\":519:531   */\n      revert\n        /* \"#utility.yul\":470:533   */\n    tag_75:\n        /* \"#utility.yul\":417:539   */\n      pop\n      jump\t// out\n        /* \"#utility.yul\":545:684   */\n    tag_32:\n        /* \"#utility.yul\":591:596   */\n      0x00\n        /* \"#utility.yul\":629:635   */\n      dup2\n        /* \"#utility.yul\":616:636   */\n      calldataload\n        /* \"#utility.yul\":607:636   */\n      swap1\n      pop\n        /* \"#utility.yul\":645:678   */\n      tag_77\n        /* \"#utility.yul\":672:677   */\n      dup2\n        /* \"#utility.yul\":645:678   */\n      tag_31\n      jump\t// in\n    tag_77:\n        /* \"#utility.yul\":545:684   */\n      swap3\n      swap2\n      pop\n      pop\n      jump\t// out\n        /* \"#utility.yul\":690:1019   */\n    tag_7:\n        /* \"#utility.yul\":749:755   */\n      0x00\n        /* \"#utility.yul\":798:800   */\n      0x20\n        /* \"#utility.yul\":786:795   */\n      dup3\n        /* \"#utility.yul\":777:784   */\n      dup5\n        /* \"#utility.yul\":773:796   */\n      sub\n        /* \"#utility.yul\":769:801   */\n      slt\n        /* \"#utility.yul\":766:885   */\n      iszero\n      tag_79\n      jumpi\n        /* \"#utility.yul\":804:883   */\n      tag_80\n      tag_28\n      jump\t// in\n    tag_80:\n        /* \"#utility.yul\":766:885   */\n    tag_79:\n        /* \"#utility.yul\":924:925   */\n      0x00\n        /* \"#utility.yul\":949:1002   */\n      tag_81\n        /* \"#utility.yul\":994:1001   */\n      dup5\n        /* \"#utility.yul\":985:991   */\n      dup3\n        /* \"#utility.yul\":974:983   */\n      dup6\n        /* \"#utility.yul\":970:992   */\n      add\n        /* \"#utility.yul\":949:1002   */\n      tag_32\n      jump\t// in\n    tag_81:\n        /* \"#utility.yul\":939:1002   */\n      swap2\n      pop\n        /* \"#utility.yul\":895:1012   */\n      pop\n        /* \"#utility.yul\":690:1019   */\n      swap3\n      swap2\n      pop\n      pop\n      jump\t// out\n        /* \"#utility.yul\":1025:1124   */\n    tag_33:\n        /* \"#utility.yul\":1077:1083   */\n      0x00\n        /* \"#utility.yul\":1111:1116   */\n      dup2\n        /* \"#utility.yul\":1105:1117   */\n      mload\n        /* \"#utility.yul\":1095:1117   */\n      swap1\n      pop\n        /* \"#utility.yul\":1025:1124   */\n      swap2\n      swap1\n      pop\n      jump\t// out\n        /* \"#utility.yul\":1130:1299   */\n    tag_34:\n        /* \"#utility.yul\":1214:1225   */\n      0x00\n        /* \"#utility.yul\":1248:1254   */\n      dup3\n        /* \"#utility.yul\":1243:1246   */\n      dup3\n        /* \"#utility.yul\":1236:1255   */\n      mstore\n        /* \"#utility.yul\":1288:1292   */\n      0x20\n        /* \"#utility.yul\":1283:1286   */\n      dup3\n        /* \"#utility.yul\":1279:1293   */\n      add\n        /* \"#utility.yul\":1264:1293   */\n      swap1\n      pop\n        /* \"#utility.yul\":1130:1299   */\n      swap3\n      swap2\n      pop\n      pop\n      jump\t// out\n        /* \"#utility.yul\":1305:1551   */\n    tag_35:\n        /* \"#utility.yul\":1386:1387   */\n      0x00\n        /* \"#utility.yul\":1396:1509   */\n    tag_85:\n        /* \"#utility.yul\":1410:1416   */\n      dup4\n        /* \"#utility.yul\":1407:1408   */\n      dup2\n        /* \"#utility.yul\":1404:1417   */\n      lt\n        /* \"#utility.yul\":1396:1509   */\n      iszero\n      tag_87\n      jumpi\n        /* \"#utility.yul\":1495:1496   */\n      dup1\n        /* \"#utility.yul\":1490:1493   */\n      dup3\n        /* \"#utility.yul\":1486:1497   */\n      add\n        /* \"#utility.yul\":1480:1498   */\n      mload\n        /* \"#utility.yul\":1476:1477   */\n      dup2\n        /* \"#utility.yul\":1471:1474   */\n      dup5\n        /* \"#utility.yul\":1467:1478   */\n      add\n        /* \"#utility.yul\":1460:1499   */\n      mstore\n        /* \"#utility.yul\":1432:1434   */\n      0x20\n        /* \"#utility.yul\":1429:1430   */\n      dup2\n        /* \"#utility.yul\":1425:1435   */\n      add\n        /* \"#utility.yul\":1420:1435   */\n      swap1\n      pop\n        /* \"#utility.yul\":1396:1509   */\n      jump(tag_85)\n    tag_87:\n        /* \"#utility.yul\":1543:1544   */\n      0x00\n        /* \"#utility.yul\":1534:1540   */\n      dup5\n        /* \"#utility.yul\":1529:1532   */\n      dup5\n        /* \"#utility.yul\":1525:1541   */\n      add\n        /* \"#utility.yul\":1518:1545   */\n      mstore\n        /* \"#utility.yul\":1367:1551   */\n      pop\n        /* \"#utility.yul\":1305:1551   */\n      pop\n      pop\n      pop\n      jump\t// out\n        /* \"#utility.yul\":1557:1659   */\n    tag_36:\n        /* \"#utility.yul\":1598:1604   */\n      0x00\n        /* \"#utility.yul\":1649:1651   */\n      0x1f\n        /* \"#utility.yul\":1645:1652   */\n      not\n        /* \"#utility.yul\":1640:1642   */\n      0x1f\n        /* \"#utility.yul\":1633:1638   */\n      dup4\n        /* \"#utility.yul\":1629:1643   */\n      add\n        /* \"#utility.yul\":1625:1653   */\n      and\n        /* \"#utility.yul\":1615:1653   */\n      swap1\n      pop\n        /* \"#utility.yul\":1557:1659   */\n      swap2\n      swap1\n      pop\n      jump\t// out\n        /* \"#utility.yul\":1665:2042   */\n    tag_37:\n        /* \"#utility.yul\":1753:1756   */\n      0x00\n        /* \"#utility.yul\":1781:1820   */\n      tag_90\n        /* \"#utility.yul\":1814:1819   */\n      dup3\n        /* \"#utility.yul\":1781:1820   */\n      tag_33\n      jump\t// in\n    tag_90:\n        /* \"#utility.yul\":1836:1907   */\n      tag_91\n        /* \"#utility.yul\":1900:1906   */\n      dup2\n        /* \"#utility.yul\":1895:1898   */\n      dup6\n        /* \"#utility.yul\":1836:1907   */\n      tag_34\n      jump\t// in\n    tag_91:\n        /* \"#utility.yul\":1829:1907   */\n      swap4\n      pop\n        /* \"#utility.yul\":1916:1981   */\n      tag_92\n        /* \"#utility.yul\":1974:1980   */\n      dup2\n        /* \"#utility.yul\":1969:1972   */\n      dup6\n        /* \"#utility.yul\":1962:1966   */\n      0x20\n        /* \"#utility.yul\":1955:1960   */\n      dup7\n        /* \"#utility.yul\":1951:1967   */\n      add\n        /* \"#utility.yul\":1916:1981   */\n      tag_35\n      jump\t// in\n    tag_92:\n        /* \"#utility.yul\":2006:2035   */\n      tag_93\n        /* \"#utility.yul\":2028:2034   */\n      dup2\n        /* \"#utility.yul\":2006:2035   */\n      tag_36\n      jump\t// in\n    tag_93:\n        /* \"#utility.yul\":2001:2004   */\n      dup5\n        /* \"#utility.yul\":1997:2036   */\n      add\n        /* \"#utility.yul\":1990:2036   */\n      swap2\n      pop\n        /* \"#utility.yul\":1757:2042   */\n      pop\n        /* \"#utility.yul\":1665:2042   */\n      swap3\n      swap2\n      pop\n      pop\n      jump\t// out\n        /* \"#utility.yul\":2048:2166   */\n    tag_38:\n        /* \"#utility.yul\":2135:2159   */\n      tag_95\n        /* \"#utility.yul\":2153:2158   */\n      dup2\n        /* \"#utility.yul\":2135:2159   */\n      tag_30\n      jump\t// in\n    tag_95:\n        /* \"#utility.yul\":2130:2133   */\n      dup3\n        /* \"#utility.yul\":2123:2160   */\n      mstore\n        /* \"#utility.yul\":2048:2166   */\n      pop\n      pop\n      jump\t// out\n        /* \"#utility.yul\":2172:2262   */\n    tag_39:\n        /* \"#utility.yul\":2206:2213   */\n      0x00\n        /* \"#utility.yul\":2249:2254   */\n      dup2\n        /* \"#utility.yul\":2242:2255   */\n      iszero\n        /* \"#utility.yul\":2235:2256   */\n      iszero\n        /* \"#utility.yul\":2224:2256   */\n      swap1\n      pop\n        /* \"#utility.yul\":2172:2262   */\n      swap2\n      swap1\n      pop\n      jump\t// out\n        /* \"#utility.yul\":2268:2377   */\n    tag_40:\n        /* \"#utility.yul\":2349:2370   */\n      tag_98\n        /* \"#utility.yul\":2364:2369   */\n      dup2\n        /* \"#utility.yul\":2349:2370   */\n      tag_39\n      jump\t// in\n    tag_98:\n        /* \"#utility.yul\":2344:2347   */\n      dup3\n        /* \"#utility.yul\":2337:2371   */\n      mstore\n        /* \"#utility.yul\":2268:2377   */\n      pop\n      pop\n      jump\t// out\n        /* \"#utility.yul\":2383:2904   */\n    tag_10:\n        /* \"#utility.yul\":2546:2550   */\n      0x00\n        /* \"#utility.yul\":2584:2586   */\n      0x60\n        /* \"#utility.yul\":2573:2582   */\n      dup3\n        /* \"#utility.yul\":2569:2587   */\n      add\n        /* \"#utility.yul\":2561:2587   */\n      swap1\n      pop\n        /* \"#utility.yul\":2633:2642   */\n      dup2\n        /* \"#utility.yul\":2627:2631   */\n      dup2\n        /* \"#utility.yul\":2623:2643   */\n      sub\n        /* \"#utility.yul\":2619:2620   */\n      0x00\n        /* \"#utility.yul\":2608:2617   */\n      dup4\n        /* \"#utility.yul\":2604:2621   */\n      add\n        /* \"#utility.yul\":2597:2644   */\n      mstore\n        /* \"#utility.yul\":2661:2739   */\n      tag_100\n        /* \"#utility.yul\":2734:2738   */\n      dup2\n        /* \"#utility.yul\":2725:2731   */\n      dup7\n        /* \"#utility.yul\":2661:2739   */\n      tag_37\n      jump\t// in\n    tag_100:\n        /* \"#utility.yul\":2653:2739   */\n      swap1\n      pop\n        /* \"#utility.yul\":2749:2821   */\n      tag_101\n        /* \"#utility.yul\":2817:2819   */\n      0x20\n        /* \"#utility.yul\":2806:2815   */\n      dup4\n        /* \"#utility.yul\":2802:2820   */\n      add\n        /* \"#utility.yul\":2793:2799   */\n      dup6\n        /* \"#utility.yul\":2749:2821   */\n      tag_38\n      jump\t// in\n    tag_101:\n        /* \"#utility.yul\":2831:2897   */\n      tag_102\n        /* \"#utility.yul\":2893:2895   */\n      0x40\n        /* \"#utility.yul\":2882:2891   */\n      dup4\n        /* \"#utility.yul\":2878:2896   */\n      add\n        /* \"#utility.yul\":2869:2875   */\n      dup5\n        /* \"#utility.yul\":2831:2897   */\n      tag_40\n      jump\t// in\n    tag_102:\n        /* \"#utility.yul\":2383:2904   */\n      swap5\n      swap4\n      pop\n      pop\n      pop\n      pop\n      jump\t// out\n        /* \"#utility.yul\":2910:3027   */\n    tag_41:\n        /* \"#utility.yul\":3019:3020   */\n      0x00\n        /* \"#utility.yul\":3016:3017   */\n      dup1\n        /* \"#utility.yul\":3009:3021   */\n      revert\n        /* \"#utility.yul\":3033:3150   */\n    tag_42:\n        /* \"#utility.yul\":3142:3143   */\n      0x00\n        /* \"#utility.yul\":3139:3140   */\n      dup1\n        /* \"#utility.yul\":3132:3144   */\n      revert\n        /* \"#utility.yul\":3156:3336   */\n    tag_43:\n        /* \"#utility.yul\":3204:3281   */\n      0x4e487b7100000000000000000000000000000000000000000000000000000000\n        /* \"#utility.yul\":3201:3202   */\n      0x00\n        /* \"#utility.yul\":3194:3282   */\n      mstore\n        /* \"#utility.yul\":3301:3305   */\n      0x41\n        /* \"#utility.yul\":3298:3299   */\n      0x04\n        /* \"#utility.yul\":3291:3306   */\n      mstore\n        /* \"#utility.yul\":3325:3329   */\n      0x24\n        /* \"#utility.yul\":3322:3323   */\n      0x00\n        /* \"#utility.yul\":3315:3330   */\n      revert\n        /* \"#utility.yul\":3342:3623   */\n    tag_44:\n        /* \"#utility.yul\":3425:3452   */\n      tag_107\n        /* \"#utility.yul\":3447:3451   */\n      dup3\n        /* \"#utility.yul\":3425:3452   */\n      tag_36\n      jump\t// in\n    tag_107:\n        /* \"#utility.yul\":3417:3423   */\n      dup2\n        /* \"#utility.yul\":3413:3453   */\n      add\n        /* \"#utility.yul\":3555:3561   */\n      dup2\n        /* \"#utility.yul\":3543:3553   */\n      dup2\n        /* \"#utility.yul\":3540:3562   */\n      lt\n        /* \"#utility.yul\":3519:3537   */\n      0xffffffffffffffff\n        /* \"#utility.yul\":3507:3517   */\n      dup3\n        /* \"#utility.yul\":3504:3538   */\n      gt\n        /* \"#utility.yul\":3501:3563   */\n      or\n        /* \"#utility.yul\":3498:3586   */\n      iszero\n      tag_108\n      jumpi\n        /* \"#utility.yul\":3566:3584   */\n      tag_109\n      tag_43\n      jump\t// in\n    tag_109:\n        /* \"#utility.yul\":3498:3586   */\n    tag_108:\n        /* \"#utility.yul\":3606:3616   */\n      dup1\n        /* \"#utility.yul\":3602:3604   */\n      0x40\n        /* \"#utility.yul\":3595:3617   */\n      mstore\n        /* \"#utility.yul\":3385:3623   */\n      pop\n        /* \"#utility.yul\":3342:3623   */\n      pop\n      pop\n      jump\t// out\n        /* \"#utility.yul\":3629:3758   */\n    tag_45:\n        /* \"#utility.yul\":3663:3669   */\n      0x00\n        /* \"#utility.yul\":3690:3710   */\n      tag_111\n      tag_27\n      jump\t// in\n    tag_111:\n        /* \"#utility.yul\":3680:3710   */\n      swap1\n      pop\n        /* \"#utility.yul\":3719:3752   */\n      tag_112\n        /* \"#utility.yul\":3747:3751   */\n      dup3\n        /* \"#utility.yul\":3739:3745   */\n      dup3\n        /* \"#utility.yul\":3719:3752   */\n      tag_44\n      jump\t// in\n    tag_112:\n        /* \"#utility.yul\":3629:3758   */\n      swap2\n      swap1\n      pop\n      jump\t// out\n        /* \"#utility.yul\":3764:4072   */\n    tag_46:\n        /* \"#utility.yul\":3826:3830   */\n      0x00\n        /* \"#utility.yul\":3916:3934   */\n      0xffffffffffffffff\n        /* \"#utility.yul\":3908:3914   */\n      dup3\n        /* \"#utility.yul\":3905:3935   */\n      gt\n        /* \"#utility.yul\":3902:3958   */\n      iszero\n      tag_114\n      jumpi\n        /* \"#utility.yul\":3938:3956   */\n      tag_115\n      tag_43\n      jump\t// in\n    tag_115:\n        /* \"#utility.yul\":3902:3958   */\n    tag_114:\n        /* \"#utility.yul\":3976:4005   */\n      tag_116\n        /* \"#utility.yul\":3998:4004   */\n      dup3\n        /* \"#utility.yul\":3976:4005   */\n      tag_36\n      jump\t// in\n    tag_116:\n        /* \"#utility.yul\":3968:4005   */\n      swap1\n      pop\n        /* \"#utility.yul\":4060:4064   */\n      0x20\n        /* \"#utility.yul\":4054:4058   */\n      dup2\n        /* \"#utility.yul\":4050:4065   */\n      add\n        /* \"#utility.yul\":4042:4065   */\n      swap1\n      pop\n        /* \"#utility.yul\":3764:4072   */\n      swap2\n      swap1\n      pop\n      jump\t// out\n        /* \"#utility.yul\":4078:4224   */\n    tag_47:\n        /* \"#utility.yul\":4175:4181   */\n      dup3\n        /* \"#utility.yul\":4170:4173   */\n      dup2\n        /* \"#utility.yul\":4165:4168   */\n      dup4\n        /* \"#utility.yul\":4152:4182   */\n      calldatacopy\n        /* \"#utility.yul\":4216:4217   */\n      0x00\n        /* \"#utility.yul\":4207:4213   */\n      dup4\n        /* \"#utility.yul\":4202:4205   */\n      dup4\n        /* \"#utility.yul\":4198:4214   */\n      add\n        /* \"#utility.yul\":4191:4218   */\n      mstore\n        /* \"#utility.yul\":4078:4224   */\n      pop\n      pop\n      pop\n      jump\t// out\n        /* \"#utility.yul\":4230:4655   */\n    tag_48:\n        /* \"#utility.yul\":4308:4313   */\n      0x00\n        /* \"#utility.yul\":4333:4399   */\n      tag_119\n        /* \"#utility.yul\":4349:4398   */\n      tag_120\n        /* \"#utility.yul\":4391:4397   */\n      dup5\n        /* \"#utility.yul\":4349:4398   */\n      tag_46\n      jump\t// in\n    tag_120:\n        /* \"#utility.yul\":4333:4399   */\n      tag_45\n      jump\t// in\n    tag_119:\n        /* \"#utility.yul\":4324:4399   */\n      swap1\n      pop\n        /* \"#utility.yul\":4422:4428   */\n      dup3\n        /* \"#utility.yul\":4415:4420   */\n      dup2\n        /* \"#utility.yul\":4408:4429   */\n      mstore\n        /* \"#utility.yul\":4460:4464   */\n      0x20\n        /* \"#utility.yul\":4453:4458   */\n      dup2\n        /* \"#utility.yul\":4449:4465   */\n      add\n        /* \"#utility.yul\":4498:4501   */\n      dup5\n        /* \"#utility.yul\":4489:4495   */\n      dup5\n        /* \"#utility.yul\":4484:4487   */\n      dup5\n        /* \"#utility.yul\":4480:4496   */\n      add\n        /* \"#utility.yul\":4477:4502   */\n      gt\n        /* \"#utility.yul\":4474:4586   */\n      iszero\n      tag_121\n      jumpi\n        /* \"#utility.yul\":4505:4584   */\n      tag_122\n      tag_42\n      jump\t// in\n    tag_122:\n        /* \"#utility.yul\":4474:4586   */\n    tag_121:\n        /* \"#utility.yul\":4595:4649   */\n      tag_123\n        /* \"#utility.yul\":4642:4648   */\n      dup5\n        /* \"#utility.yul\":4637:4640   */\n      dup3\n        /* \"#utility.yul\":4632:4635   */\n      dup6\n        /* \"#utility.yul\":4595:4649   */\n      tag_47\n      jump\t// in\n    tag_123:\n        /* \"#utility.yul\":4314:4655   */\n      pop\n        /* \"#utility.yul\":4230:4655   */\n      swap4\n      swap3\n      pop\n      pop\n      pop\n      jump\t// out\n        /* \"#utility.yul\":4675:5015   */\n    tag_49:\n        /* \"#utility.yul\":4731:4736   */\n      0x00\n        /* \"#utility.yul\":4780:4783   */\n      dup3\n        /* \"#utility.yul\":4773:4777   */\n      0x1f\n        /* \"#utility.yul\":4765:4771   */\n      dup4\n        /* \"#utility.yul\":4761:4778   */\n      add\n        /* \"#utility.yul\":4757:4784   */\n      slt\n        /* \"#utility.yul\":4747:4869   */\n      tag_125\n      jumpi\n        /* \"#utility.yul\":4788:4867   */\n      tag_126\n      tag_41\n      jump\t// in\n    tag_126:\n        /* \"#utility.yul\":4747:4869   */\n    tag_125:\n        /* \"#utility.yul\":4905:4911   */\n      dup2\n        /* \"#utility.yul\":4892:4912   */\n      calldataload\n        /* \"#utility.yul\":4930:5009   */\n      tag_127\n        /* \"#utility.yul\":5005:5008   */\n      dup5\n        /* \"#utility.yul\":4997:5003   */\n      dup3\n        /* \"#utility.yul\":4990:4994   */\n      0x20\n        /* \"#utility.yul\":4982:4988   */\n      dup7\n        /* \"#utility.yul\":4978:4995   */\n      add\n        /* \"#utility.yul\":4930:5009   */\n      tag_48\n      jump\t// in\n    tag_127:\n        /* \"#utility.yul\":4921:5009   */\n      swap2\n      pop\n        /* \"#utility.yul\":4737:5015   */\n      pop\n        /* \"#utility.yul\":4675:5015   */\n      swap3\n      swap2\n      pop\n      pop\n      jump\t// out\n        /* \"#utility.yul\":5021:5137   */\n    tag_50:\n        /* \"#utility.yul\":5091:5112   */\n      tag_129\n        /* \"#utility.yul\":5106:5111   */\n      dup2\n        /* \"#utility.yul\":5091:5112   */\n      tag_39\n      jump\t// in\n    tag_129:\n        /* \"#utility.yul\":5084:5089   */\n      dup2\n        /* \"#utility.yul\":5081:5113   */\n      eq\n        /* \"#utility.yul\":5071:5131   */\n      tag_130\n      jumpi\n        /* \"#utility.yul\":5127:5128   */\n      0x00\n        /* \"#utility.yul\":5124:5125   */\n      dup1\n        /* \"#utility.yul\":5117:5129   */\n      revert\n        /* \"#utility.yul\":5071:5131   */\n    tag_130:\n        /* \"#utility.yul\":5021:5137   */\n      pop\n      jump\t// out\n        /* \"#utility.yul\":5143:5276   */\n    tag_51:\n        /* \"#utility.yul\":5186:5191   */\n      0x00\n        /* \"#utility.yul\":5224:5230   */\n      dup2\n        /* \"#utility.yul\":5211:5231   */\n      calldataload\n        /* \"#utility.yul\":5202:5231   */\n      swap1\n      pop\n        /* \"#utility.yul\":5240:5270   */\n      tag_132\n        /* \"#utility.yul\":5264:5269   */\n      dup2\n        /* \"#utility.yul\":5240:5270   */\n      tag_50\n      jump\t// in\n    tag_132:\n        /* \"#utility.yul\":5143:5276   */\n      swap3\n      swap2\n      pop\n      pop\n      jump\t// out\n        /* \"#utility.yul\":5282:6075   */\n    tag_13:\n        /* \"#utility.yul\":5366:5372   */\n      0x00\n        /* \"#utility.yul\":5374:5380   */\n      dup1\n        /* \"#utility.yul\":5382:5388   */\n      0x00\n        /* \"#utility.yul\":5431:5433   */\n      0x60\n        /* \"#utility.yul\":5419:5428   */\n      dup5\n        /* \"#utility.yul\":5410:5417   */\n      dup7\n        /* \"#utility.yul\":5406:5429   */\n      sub\n        /* \"#utility.yul\":5402:5434   */\n      slt\n        /* \"#utility.yul\":5399:5518   */\n      iszero\n      tag_134\n      jumpi\n        /* \"#utility.yul\":5437:5516   */\n      tag_135\n      tag_28\n      jump\t// in\n    tag_135:\n        /* \"#utility.yul\":5399:5518   */\n    tag_134:\n        /* \"#utility.yul\":5585:5586   */\n      0x00\n        /* \"#utility.yul\":5574:5583   */\n      dup5\n        /* \"#utility.yul\":5570:5587   */\n      add\n        /* \"#utility.yul\":5557:5588   */\n      calldataload\n        /* \"#utility.yul\":5615:5633   */\n      0xffffffffffffffff\n        /* \"#utility.yul\":5607:5613   */\n      dup2\n        /* \"#utility.yul\":5604:5634   */\n      gt\n        /* \"#utility.yul\":5601:5718   */\n      iszero\n      tag_136\n      jumpi\n        /* \"#utility.yul\":5637:5716   */\n      tag_137\n      tag_29\n      jump\t// in\n    tag_137:\n        /* \"#utility.yul\":5601:5718   */\n    tag_136:\n        /* \"#utility.yul\":5742:5805   */\n      tag_138\n        /* \"#utility.yul\":5797:5804   */\n      dup7\n        /* \"#utility.yul\":5788:5794   */\n      dup3\n        /* \"#utility.yul\":5777:5786   */\n      dup8\n        /* \"#utility.yul\":5773:5795   */\n      add\n        /* \"#utility.yul\":5742:5805   */\n      tag_49\n      jump\t// in\n    tag_138:\n        /* \"#utility.yul\":5732:5805   */\n      swap4\n      pop\n        /* \"#utility.yul\":5528:5815   */\n      pop\n        /* \"#utility.yul\":5854:5856   */\n      0x20\n        /* \"#utility.yul\":5880:5933   */\n      tag_139\n        /* \"#utility.yul\":5925:5932   */\n      dup7\n        /* \"#utility.yul\":5916:5922   */\n      dup3\n        /* \"#utility.yul\":5905:5914   */\n      dup8\n        /* \"#utility.yul\":5901:5923   */\n      add\n        /* \"#utility.yul\":5880:5933   */\n      tag_32\n      jump\t// in\n    tag_139:\n        /* \"#utility.yul\":5870:5933   */\n      swap3\n      pop\n        /* \"#utility.yul\":5825:5943   */\n      pop\n        /* \"#utility.yul\":5982:5984   */\n      0x40\n        /* \"#utility.yul\":6008:6058   */\n      tag_140\n        /* \"#utility.yul\":6050:6057   */\n      dup7\n        /* \"#utility.yul\":6041:6047   */\n      dup3\n        /* \"#utility.yul\":6030:6039   */\n      dup8\n        /* \"#utility.yul\":6026:6048   */\n      add\n        /* \"#utility.yul\":6008:6058   */\n      tag_51\n      jump\t// in\n    tag_140:\n        /* \"#utility.yul\":5998:6058   */\n      swap2\n      pop\n        /* \"#utility.yul\":5953:6068   */\n      pop\n        /* \"#utility.yul\":5282:6075   */\n      swap3\n      pop\n      swap3\n      pop\n      swap3\n      jump\t// out\n        /* \"#utility.yul\":6081:6261   */\n    tag_52:\n        /* \"#utility.yul\":6129:6206   */\n      0x4e487b7100000000000000000000000000000000000000000000000000000000\n        /* \"#utility.yul\":6126:6127   */\n      0x00\n        /* \"#utility.yul\":6119:6207   */\n      mstore\n        /* \"#utility.yul\":6226:6230   */\n      0x22\n        /* \"#utility.yul\":6223:6224   */\n      0x04\n        /* \"#utility.yul\":6216:6231   */\n      mstore\n        /* \"#utility.yul\":6250:6254   */\n      0x24\n        /* \"#utility.yul\":6247:6248   */\n      0x00\n        /* \"#utility.yul\":6240:6255   */\n      revert\n        /* \"#utility.yul\":6267:6587   */\n    tag_18:\n        /* \"#utility.yul\":6311:6317   */\n      0x00\n        /* \"#utility.yul\":6348:6349   */\n      0x02\n        /* \"#utility.yul\":6342:6346   */\n      dup3\n        /* \"#utility.yul\":6338:6350   */\n      div\n        /* \"#utility.yul\":6328:6350   */\n      swap1\n      pop\n        /* \"#utility.yul\":6395:6396   */\n      0x01\n        /* \"#utility.yul\":6389:6393   */\n      dup3\n        /* \"#utility.yul\":6385:6397   */\n      and\n        /* \"#utility.yul\":6416:6434   */\n      dup1\n        /* \"#utility.yul\":6406:6487   */\n      tag_143\n      jumpi\n        /* \"#utility.yul\":6472:6476   */\n      0x7f\n        /* \"#utility.yul\":6464:6470   */\n      dup3\n        /* \"#utility.yul\":6460:6477   */\n      and\n        /* \"#utility.yul\":6450:6477   */\n      swap2\n      pop\n        /* \"#utility.yul\":6406:6487   */\n    tag_143:\n        /* \"#utility.yul\":6534:6536   */\n      0x20\n        /* \"#utility.yul\":6526:6532   */\n      dup3\n        /* \"#utility.yul\":6523:6537   */\n      lt\n        /* \"#utility.yul\":6503:6521   */\n      dup2\n        /* \"#utility.yul\":6500:6538   */\n      sub\n        /* \"#utility.yul\":6497:6581   */\n      tag_144\n      jumpi\n        /* \"#utility.yul\":6553:6571   */\n      tag_145\n      tag_52\n      jump\t// in\n    tag_145:\n        /* \"#utility.yul\":6497:6581   */\n    tag_144:\n        /* \"#utility.yul\":6318:6587   */\n      pop\n        /* \"#utility.yul\":6267:6587   */\n      swap2\n      swap1\n      pop\n      jump\t// out\n        /* \"#utility.yul\":6593:6734   */\n    tag_53:\n        /* \"#utility.yul\":6642:6646   */\n      0x00\n        /* \"#utility.yul\":6665:6668   */\n      dup2\n        /* \"#utility.yul\":6657:6668   */\n      swap1\n      pop\n        /* \"#utility.yul\":6688:6691   */\n      dup2\n        /* \"#utility.yul\":6685:6686   */\n      0x00\n        /* \"#utility.yul\":6678:6692   */\n      mstore\n        /* \"#utility.yul\":6722:6726   */\n      0x20\n        /* \"#utility.yul\":6719:6720   */\n      0x00\n        /* \"#utility.yul\":6709:6727   */\n      keccak256\n        /* \"#utility.yul\":6701:6727   */\n      swap1\n      pop\n        /* \"#utility.yul\":6593:6734   */\n      swap2\n      swap1\n      pop\n      jump\t// out\n        /* \"#utility.yul\":6740:6833   */\n    tag_54:\n        /* \"#utility.yul\":6777:6783   */\n      0x00\n        /* \"#utility.yul\":6824:6826   */\n      0x20\n        /* \"#utility.yul\":6819:6821   */\n      0x1f\n        /* \"#utility.yul\":6812:6817   */\n      dup4\n        /* \"#utility.yul\":6808:6822   */\n      add\n        /* \"#utility.yul\":6804:6827   */\n      div\n        /* \"#utility.yul\":6794:6827   */\n      swap1\n      pop\n        /* \"#utility.yul\":6740:6833   */\n      swap2\n      swap1\n      pop\n      jump\t// out\n        /* \"#utility.yul\":6839:6946   */\n    tag_55:\n        /* \"#utility.yul\":6883:6891   */\n      0x00\n        /* \"#utility.yul\":6933:6938   */\n      dup3\n        /* \"#utility.yul\":6927:6931   */\n      dup3\n        /* \"#utility.yul\":6923:6939   */\n      shl\n        /* \"#utility.yul\":6902:6939   */\n      swap1\n      pop\n        /* \"#utility.yul\":6839:6946   */\n      swap3\n      swap2\n      pop\n      pop\n      jump\t// out\n        /* \"#utility.yul\":6952:7345   */\n    tag_56:\n        /* \"#utility.yul\":7021:7027   */\n      0x00\n        /* \"#utility.yul\":7071:7072   */\n      0x08\n        /* \"#utility.yul\":7059:7069   */\n      dup4\n        /* \"#utility.yul\":7055:7073   */\n      mul\n        /* \"#utility.yul\":7094:7191   */\n      tag_150\n        /* \"#utility.yul\":7124:7190   */\n      0xffffffffffffffffffffffffffffffffffffffffffffffffffffffffffffffff\n        /* \"#utility.yul\":7113:7122   */\n      dup3\n        /* \"#utility.yul\":7094:7191   */\n      tag_55\n      jump\t// in\n    tag_150:\n        /* \"#utility.yul\":7212:7251   */\n      tag_151\n        /* \"#utility.yul\":7242:7250   */\n      dup7\n        /* \"#utility.yul\":7231:7240   */\n      dup4\n        /* \"#utility.yul\":7212:7251   */\n      tag_55\n      jump\t// in\n    tag_151:\n        /* \"#utility.yul\":7200:7251   */\n      swap6\n      pop\n        /* \"#utility.yul\":7284:7288   */\n      dup1\n        /* \"#utility.yul\":7280:7289   */\n      not\n        /* \"#utility.yul\":7273:7278   */\n      dup5\n        /* \"#utility.yul\":7269:7290   */\n      and\n        /* \"#utility.yul\":7260:7290   */\n      swap4\n      pop\n        /* \"#utility.yul\":7333:7337   */\n      dup1\n        /* \"#utility.yul\":7323:7331   */\n      dup7\n        /* \"#utility.yul\":7319:7338   */\n      and\n        /* \"#utility.yul\":7312:7317   */\n      dup5\n        /* \"#utility.yul\":7309:7339   */\n      or\n        /* \"#utility.yul\":7299:7339   */\n      swap3\n      pop\n        /* \"#utility.yul\":7028:7345   */\n      pop\n      pop\n        /* \"#utility.yul\":6952:7345   */\n      swap4\n      swap3\n      pop\n      pop\n      pop\n      jump\t// out\n        /* \"#utility.yul\":7351:7411   */\n    tag_57:\n        /* \"#utility.yul\":7379:7382   */\n      0x00\n        /* \"#utility.yul\":7400:7405   */\n      dup2\n        /* \"#utility.yul\":7393:7405   */\n      swap1\n      pop\n        /* \"#utility.yul\":7351:7411   */\n      swap2\n      swap1\n      pop\n      jump\t// out\n        /* \"#utility.yul\":7417:7559   */\n    tag_58:\n        /* \"#utility.yul\":7467:7476   */\n      0x00\n        /* \"#utility.yul\":7500:7553   */\n      tag_154\n        /* \"#utility.yul\":7518:7552   */\n      tag_155\n        /* \"#utility.yul\":7527:7551   */\n      tag_156\n        /* \"#utility.yul\":7545:7550   */\n      dup5\n        /* \"#utility.yul\":7527:7551   */\n      tag_30\n      jump\t// in\n    tag_156:\n        /* \"#utility.yul\":7518:7552   */\n      tag_57\n      jump\t// in\n    tag_155:\n        /* \"#utility.yul\":7500:7553   */\n      tag_30\n      jump\t// in\n    tag_154:\n        /* \"#utility.yul\":7487:7553   */\n      swap1\n      pop\n        /* \"#utility.yul\":7417:7559   */\n      swap2\n      swap1\n      pop\n      jump\t// out\n        /* \"#utility.yul\":7565:7640   */\n    tag_59:\n        /* \"#utility.yul\":7608:7611   */\n      0x00\n        /* \"#utility.yul\":7629:7634   */\n      dup2\n        /* \"#utility.yul\":7622:7634   */\n      swap1\n      pop\n        /* \"#utility.yul\":7565:7640   */\n      swap2\n      swap1\n      pop\n      jump\t// out\n        /* \"#utility.yul\":7646:7915   */\n    tag_60:\n        /* \"#utility.yul\":7756:7795   */\n      tag_159\n        /* \"#utility.yul\":7787:7794   */\n      dup4\n        /* \"#utility.yul\":7756:7795   */\n      tag_58\n      jump\t// in\n    tag_159:\n        /* \"#utility.yul\":7817:7908   */\n      tag_160\n        /* \"#utility.yul\":7866:7907   */\n      tag_161\n        /* \"#utility.yul\":7890:7906   */\n      dup3\n        /* \"#utility.yul\":7866:7907   */\n      tag_59\n      jump\t// in\n    tag_161:\n        /* \"#utility.yul\":7858:7864   */\n      dup5\n        /* \"#utility.yul\":7851:7855   */\n      dup5\n        /* \"#utility.yul\":7845:7856   */\n      sload\n        /* \"#utility.yul\":7817:7908   */\n      tag_56\n      jump\t// in\n    tag_160:\n        /* \"#utility.yul\":7811:7815   */\n      dup3\n        /* \"#utility.yul\":7804:7909   */\n      sstore\n        /* \"#utility.yul\":7722:7915   */\n      pop\n        /* \"#utility.yul\":7646:7915   */\n      pop\n      pop\n      pop\n      jump\t// out\n        /* \"#utility.yul\":7921:7994   */\n    tag_61:\n        /* \"#utility.yul\":7966:7969   */\n      0x00\n        /* \"#utility.yul\":7921:7994   */\n      swap1\n      jump\t// out\n        /* \"#utility.yul\":8000:8189   */\n    tag_62:\n        /* \"#utility.yul\":8077:8109   */\n      tag_164\n      tag_61\n      jump\t// in\n    tag_164:\n        /* \"#utility.yul\":8118:8183   */\n      tag_165\n        /* \"#utility.yul\":8176:8182   */\n      dup2\n        /* \"#utility.yul\":8168:8174   */\n      dup5\n        /* \"#utility.yul\":8162:8166   */\n      dup5\n        /* \"#utility.yul\":8118:8183   */\n      tag_60\n      jump\t// in\n    tag_165:\n        /* \"#utility.yul\":8053:8189   */\n      pop\n        /* \"#utility.yul\":8000:8189   */\n      pop\n      pop\n      jump\t// out\n        /* \"#utility.yul\":8195:8381   */\n    tag_63:\n        /* \"#utility.yul\":8255:8375   */\n    tag_167:\n        /* \"#utility.yul\":8272:8275   */\n      dup2\n        /* \"#utility.yul\":8265:8270   */\n      dup2\n        /* \"#utility.yul\":8262:8276   */\n      lt\n        /* \"#utility.yul\":8255:8375   */\n      iszero\n      tag_169\n      jumpi\n        /* \"#utility.yul\":8326:8365   */\n      tag_170\n        /* \"#utility.yul\":8363:8364   */\n      0x00\n        /* \"#utility.yul\":8356:8361   */\n      dup3\n        /* \"#utility.yul\":8326:8365   */\n      tag_62\n      jump\t// in\n    tag_170:\n        /* \"#utility.yul\":8299:8300   */\n      0x01\n        /* \"#utility.yul\":8292:8297   */\n      dup2\n        /* \"#utility.yul\":8288:8301   */\n      add\n        /* \"#utility.yul\":8279:8301   */\n      swap1\n      pop\n        /* \"#utility.yul\":8255:8375   */\n      jump(tag_167)\n    tag_169:\n        /* \"#utility.yul\":8195:8381   */\n      pop\n      pop\n      jump\t// out\n        /* \"#utility.yul\":8387:8930   */\n    tag_64:\n        /* \"#utility.yul\":8488:8490   */\n      0x1f\n        /* \"#utility.yul\":8483:8486   */\n      dup3\n        /* \"#utility.yul\":8480:8491   */\n      gt\n        /* \"#utility.yul\":8477:8923   */\n      iszero\n      tag_172\n      jumpi\n        /* \"#utility.yul\":8522:8560   */\n      tag_173\n        /* \"#utility.yul\":8554:8559   */\n      dup2\n        /* \"#utility.yul\":8522:8560   */\n      tag_53\n      jump\t// in\n    tag_173:\n        /* \"#utility.yul\":8606:8635   */\n      tag_174\n        /* \"#utility.yul\":8624:8634   */\n      dup5\n        /* \"#utility.yul\":8606:8635   */\n      tag_54\n      jump\t// in\n    tag_174:\n        /* \"#utility.yul\":8596:8604   */\n      dup2\n        /* \"#utility.yul\":8592:8636   */\n      add\n        /* \"#utility.yul\":8789:8791   */\n      0x20\n        /* \"#utility.yul\":8777:8787   */\n      dup6\n        /* \"#utility.yul\":8774:8792   */\n      lt\n        /* \"#utility.yul\":8771:8820   */\n      iszero\n      tag_175\n      jumpi\n        /* \"#utility.yul\":8810:8818   */\n      dup2\n        /* \"#utility.yul\":8795:8818   */\n      swap1\n      pop\n        /* \"#utility.yul\":8771:8820   */\n    tag_175:\n        /* \"#utility.yul\":8833:8913   */\n      tag_176\n        /* \"#utility.yul\":8889:8911   */\n      tag_177\n        /* \"#utility.yul\":8907:8910   */\n      dup6\n        /* \"#utility.yul\":8889:8911   */\n      tag_54\n      jump\t// in\n    tag_177:\n        /* \"#utility.yul\":8879:8887   */\n      dup4\n        /* \"#utility.yul\":8875:8912   */\n      add\n        /* \"#utility.yul\":8862:8873   */\n      dup3\n        /* \"#utility.yul\":8833:8913   */\n      tag_63\n      jump\t// in\n    tag_176:\n        /* \"#utility.yul\":8492:8923   */\n      pop\n      pop\n        /* \"#utility.yul\":8477:8923   */\n    tag_172:\n        /* \"#utility.yul\":8387:8930   */\n      pop\n      pop\n      pop\n      jump\t// out\n        /* \"#utility.yul\":8936:9053   */\n    tag_65:\n        /* \"#utility.yul\":8990:8998   */\n      0x00\n        /* \"#utility.yul\":9040:9045   */\n      dup3\n        /* \"#utility.yul\":9034:9038   */\n      dup3\n        /* \"#utility.yul\":9030:9046   */\n      shr\n        /* \"#utility.yul\":9009:9046   */\n      swap1\n      pop\n        /* \"#utility.yul\":8936:9053   */\n      swap3\n      swap2\n      pop\n      pop\n      jump\t// out\n        /* \"#utility.yul\":9059:9228   */\n    tag_66:\n        /* \"#utility.yul\":9103:9109   */\n      0x00\n        /* \"#utility.yul\":9136:9187   */\n      tag_180\n        /* \"#utility.yul\":9184:9185   */\n      0x00\n        /* \"#utility.yul\":9180:9186   */\n      not\n        /* \"#utility.yul\":9172:9177   */\n      dup5\n        /* \"#utility.yul\":9169:9170   */\n      0x08\n        /* \"#utility.yul\":9165:9178   */\n      mul\n        /* \"#utility.yul\":9136:9187   */\n      tag_65\n      jump\t// in\n    tag_180:\n        /* \"#utility.yul\":9132:9188   */\n      not\n        /* \"#utility.yul\":9217:9221   */\n      dup1\n        /* \"#utility.yul\":9211:9215   */\n      dup4\n        /* \"#utility.yul\":9207:9222   */\n      and\n        /* \"#utility.yul\":9197:9222   */\n      swap2\n      pop\n        /* \"#utility.yul\":9110:9228   */\n      pop\n        /* \"#utility.yul\":9059:9228   */\n      swap3\n      swap2\n      pop\n      pop\n      jump\t// out\n        /* \"#utility.yul\":9233:9528   */\n    tag_67:\n        /* \"#utility.yul\":9309:9313   */\n      0x00\n        /* \"#utility.yul\":9455:9484   */\n      tag_182\n        /* \"#utility.yul\":9480:9483   */\n      dup4\n        /* \"#utility.yul\":9474:9478   */\n      dup4\n        /* \"#utility.yul\":9455:9484   */\n      tag_66\n      jump\t// in\n    tag_182:\n        /* \"#utility.yul\":9447:9484   */\n      swap2\n      pop\n        /* \"#utility.yul\":9517:9520   */\n      dup3\n        /* \"#utility.yul\":9514:9515   */\n      0x02\n        /* \"#utility.yul\":9510:9521   */\n      mul\n        /* \"#utility.yul\":9504:9508   */\n      dup3\n        /* \"#utility.yul\":9501:9522   */\n      or\n        /* \"#utility.yul\":9493:9522   */\n      swap1\n      pop\n        /* \"#utility.yul\":9233:9528   */\n      swap3\n      swap2\n      pop\n      pop\n      jump\t// out\n        /* \"#utility.yul\":9533:10928   */\n    tag_26:\n        /* \"#utility.yul\":9650:9687   */\n      tag_184\n        /* \"#utility.yul\":9683:9686   */\n      dup3\n        /* \"#utility.yul\":9650:9687   */\n      tag_33\n      jump\t// in\n    tag_184:\n        /* \"#utility.yul\":9752:9770   */\n      0xffffffffffffffff\n        /* \"#utility.yul\":9744:9750   */\n      dup2\n        /* \"#utility.yul\":9741:9771   */\n      gt\n        /* \"#utility.yul\":9738:9794   */\n      iszero\n      tag_185\n      jumpi\n        /* \"#utility.yul\":9774:9792   */\n      tag_186\n      tag_43\n      jump\t// in\n    tag_186:\n        /* \"#utility.yul\":9738:9794   */\n    tag_185:\n        /* \"#utility.yul\":9818:9856   */\n      tag_187\n        /* \"#utility.yul\":9850:9854   */\n      dup3\n        /* \"#utility.yul\":9844:9855   */\n      sload\n        /* \"#utility.yul\":9818:9856   */\n      tag_18\n      jump\t// in\n    tag_187:\n        /* \"#utility.yul\":9903:9970   */\n      tag_188\n        /* \"#utility.yul\":9963:9969   */\n      dup3\n        /* \"#utility.yul\":9955:9961   */\n      dup3\n        /* \"#utility.yul\":9949:9953   */\n      dup6\n        /* \"#utility.yul\":9903:9970   */\n      tag_64\n      jump\t// in\n    tag_188:\n        /* \"#utility.yul\":9997:9998   */\n      0x00\n        /* \"#utility.yul\":10021:10025   */\n      0x20\n        /* \"#utility.yul\":10008:10025   */\n      swap1\n      pop\n        /* \"#utility.yul\":10053:10055   */\n      0x1f\n        /* \"#utility.yul\":10045:10051   */\n      dup4\n        /* \"#utility.yul\":10042:10056   */\n      gt\n        /* \"#utility.yul\":10070:10071   */\n      0x01\n        /* \"#utility.yul\":10065:10683   */\n      dup2\n      eq\n      tag_190\n      jumpi\n        /* \"#utility.yul\":10727:10728   */\n      0x00\n        /* \"#utility.yul\":10744:10750   */\n      dup5\n        /* \"#utility.yul\":10741:10818   */\n      iszero\n      tag_191\n      jumpi\n        /* \"#utility.yul\":10793:10802   */\n      dup3\n        /* \"#utility.yul\":10788:10791   */\n      dup8\n        /* \"#utility.yul\":10784:10803   */\n      add\n        /* \"#utility.yul\":10778:10804   */\n      mload\n        /* \"#utility.yul\":10769:10804   */\n      swap1\n      pop\n        /* \"#utility.yul\":10741:10818   */\n    tag_191:\n        /* \"#utility.yul\":10844:10911   */\n      tag_192\n        /* \"#utility.yul\":10904:10910   */\n      dup6\n        /* \"#utility.yul\":10897:10902   */\n      dup3\n        /* \"#utility.yul\":10844:10911   */\n      tag_67\n      jump\t// in\n    tag_192:\n        /* \"#utility.yul\":10838:10842   */\n      dup7\n        /* \"#utility.yul\":10831:10912   */\n      sstore\n        /* \"#utility.yul\":10700:10922   */\n      pop\n        /* \"#utility.yul\":10035:10922   */\n      jump(tag_189)\n        /* \"#utility.yul\":10065:10683   */\n    tag_190:\n        /* \"#utility.yul\":10117:10121   */\n      0x1f\n        /* \"#utility.yul\":10113:10122   */\n      not\n        /* \"#utility.yul\":10105:10111   */\n      dup5\n        /* \"#utility.yul\":10101:10123   */\n      and\n        /* \"#utility.yul\":10151:10188   */\n      tag_193\n        /* \"#utility.yul\":10183:10187   */\n      dup7\n        /* \"#utility.yul\":10151:10188   */\n      tag_53\n      jump\t// in\n    tag_193:\n        /* \"#utility.yul\":10210:10211   */\n      0x00\n        /* \"#utility.yul\":10224:10432   */\n    tag_194:\n        /* \"#utility.yul\":10238:10245   */\n      dup3\n        /* \"#utility.yul\":10235:10236   */\n      dup2\n        /* \"#utility.yul\":10232:10246   */\n      lt\n        /* \"#utility.yul\":10224:10432   */\n      iszero\n      tag_196\n      jumpi\n        /* \"#utility.yul\":10317:10326   */\n      dup5\n        /* \"#utility.yul\":10312:10315   */\n      dup10\n        /* \"#utility.yul\":10308:10327   */\n      add\n        /* \"#utility.yul\":10302:10328   */\n      mload\n        /* \"#utility.yul\":10294:10300   */\n      dup3\n        /* \"#utility.yul\":10287:10329   */\n      sstore\n        /* \"#utility.yul\":10368:10369   */\n      0x01\n        /* \"#utility.yul\":10360:10366   */\n      dup3\n        /* \"#utility.yul\":10356:10370   */\n      add\n        /* \"#utility.yul\":10346:10370   */\n      swap2\n      pop\n        /* \"#utility.yul\":10415:10417   */\n      0x20\n        /* \"#utility.yul\":10404:10413   */\n      dup6\n        /* \"#utility.yul\":10400:10418   */\n      add\n        /* \"#utility.yul\":10387:10418   */\n      swap5\n      pop\n        /* \"#utility.yul\":10261:10265   */\n      0x20\n        /* \"#utility.yul\":10258:10259   */\n      dup2\n        /* \"#utility.yul\":10254:10266   */\n      add\n        /* \"#utility.yul\":10249:10266   */\n      swap1\n      pop\n        /* \"#utility.yul\":10224:10432   */\n      jump(tag_194)\n    tag_196:\n        /* \"#utility.yul\":10460:10466   */\n      dup7\n        /* \"#utility.yul\":10451:10458   */\n      dup4\n        /* \"#utility.yul\":10448:10467   */\n      lt\n        /* \"#utility.yul\":10445:10624   */\n      iszero\n      tag_197\n      jumpi\n        /* \"#utility.yul\":10518:10527   */\n      dup5\n        /* \"#utility.yul\":10513:10516   */\n      dup10\n        /* \"#utility.yul\":10509:10528   */\n      add\n        /* \"#utility.yul\":10503:10529   */\n      mload\n        /* \"#utility.yul\":10561:10609   */\n      tag_198\n        /* \"#utility.yul\":10603:10607   */\n      0x1f\n        /* \"#utility.yul\":10595:10601   */\n      dup10\n        /* \"#utility.yul\":10591:10608   */\n      and\n        /* \"#utility.yul\":10580:10589   */\n      dup3\n        /* \"#utility.yul\":10561:10609   */\n      tag_66\n      jump\t// in\n    tag_198:\n        /* \"#utility.yul\":10553:10559   */\n      dup4\n        /* \"#utility.yul\":10546:10610   */\n      sstore\n        /* \"#utility.yul\":10468:10624   */\n      pop\n        /* \"#utility.yul\":10445:10624   */\n    tag_197:\n        /* \"#utility.yul\":10670:10671   */\n      0x01\n        /* \"#utility.yul\":10666:10667   */\n      0x02\n        /* \"#utility.yul\":10658:10664   */\n      dup9\n        /* \"#utility.yul\":10654:10668   */\n      mul\n        /* \"#utility.yul\":10650:10672   */\n      add\n        /* \"#utility.yul\":10644:10648   */\n      dup9\n        /* \"#utility.yul\":10637:10673   */\n      sstore\n        /* \"#utility.yul\":10072:10683   */\n      pop\n      pop\n      pop\n        /* \"#utility.yul\":10035:10922   */\n    tag_189:\n      pop\n        /* \"#utility.yul\":9625:10928   */\n      pop\n      pop\n      pop\n        /* \"#utility.yul\":9533:10928   */\n      pop\n      pop\n      jump\t// out\n\n    auxdata: 0xa2646970667358221220820cd63056ac58dfad03c9e14ae534401e0d7994e79176dee3c23872e43f297b64736f6c63430008160033\n}\n",
				"bytecode": {
					"linkReferences": {},
					"object": "608060405234801561000f575f80fd5b506107f38061001d5f395ff3fe608060405234801561000f575f80fd5b5060043610610034575f3560e01c806352efd68514610038578063bbab9df21461006a575b5f80fd5b610052600480360381019061004d9190610218565b610086565b604051610061939291906102f6565b60405180910390f35b610084600480360381019061007f9190610488565b61014c565b005b5f8181548110610094575f80fd5b905f5260205f2090600302015f91509050805f0180546100b390610521565b80601f01602080910402602001604051908101604052809291908181526020018280546100df90610521565b801561012a5780601f106101015761010080835404028352916020019161012a565b820191905f5260205f20905b81548152906001019060200180831161010d57829003601f168201915b505050505090806001015490806002015f9054906101000a900460ff16905083565b5f6040518060600160405280858152602001848152602001831515815250908060018154018082558091505060019003905f5260205f2090600302015f909190919091505f820151815f0190816101a391906106ee565b50602082015181600101556040820151816002015f6101000a81548160ff0219169083151502179055505050505050565b5f604051905090565b5f80fd5b5f80fd5b5f819050919050565b6101f7816101e5565b8114610201575f80fd5b50565b5f81359050610212816101ee565b92915050565b5f6020828403121561022d5761022c6101dd565b5b5f61023a84828501610204565b91505092915050565b5f81519050919050565b5f82825260208201905092915050565b5f5b8381101561027a57808201518184015260208101905061025f565b5f8484015250505050565b5f601f19601f8301169050919050565b5f61029f82610243565b6102a9818561024d565b93506102b981856020860161025d565b6102c281610285565b840191505092915050565b6102d6816101e5565b82525050565b5f8115159050919050565b6102f0816102dc565b82525050565b5f6060820190508181035f83015261030e8186610295565b905061031d60208301856102cd565b61032a60408301846102e7565b949350505050565b5f80fd5b5f80fd5b7f4e487b71000000000000000000000000000000000000000000000000000000005f52604160045260245ffd5b61037082610285565b810181811067ffffffffffffffff8211171561038f5761038e61033a565b5b80604052505050565b5f6103a16101d4565b90506103ad8282610367565b919050565b5f67ffffffffffffffff8211156103cc576103cb61033a565b5b6103d582610285565b9050602081019050919050565b828183375f83830152505050565b5f6104026103fd846103b2565b610398565b90508281526020810184848401111561041e5761041d610336565b5b6104298482856103e2565b509392505050565b5f82601f83011261044557610444610332565b5b81356104558482602086016103f0565b91505092915050565b610467816102dc565b8114610471575f80fd5b50565b5f813590506104828161045e565b92915050565b5f805f6060848603121561049f5761049e6101dd565b5b5f84013567ffffffffffffffff8111156104bc576104bb6101e1565b5b6104c886828701610431565b93505060206104d986828701610204565b92505060406104ea86828701610474565b9150509250925092565b7f4e487b71000000000000000000000000000000000000000000000000000000005f52602260045260245ffd5b5f600282049050600182168061053857607f821691505b60208210810361054b5761054a6104f4565b5b50919050565b5f819050815f5260205f209050919050565b5f6020601f8301049050919050565b5f82821b905092915050565b5f600883026105ad7fffffffffffffffffffffffffffffffffffffffffffffffffffffffffffffffff82610572565b6105b78683610572565b95508019841693508086168417925050509392505050565b5f819050919050565b5f6105f26105ed6105e8846101e5565b6105cf565b6101e5565b9050919050565b5f819050919050565b61060b836105d8565b61061f610617826105f9565b84845461057e565b825550505050565b5f90565b610633610627565b61063e818484610602565b505050565b5b81811015610661576106565f8261062b565b600181019050610644565b5050565b601f8211156106a65761067781610551565b61068084610563565b8101602085101561068f578190505b6106a361069b85610563565b830182610643565b50505b505050565b5f82821c905092915050565b5f6106c65f19846008026106ab565b1980831691505092915050565b5f6106de83836106b7565b9150826002028217905092915050565b6106f782610243565b67ffffffffffffffff8111156107105761070f61033a565b5b61071a8254610521565b610725828285610665565b5f60209050601f831160018114610756575f8415610744578287015190505b61074e85826106d3565b8655506107b5565b601f19841661076486610551565b5f5b8281101561078b57848901518255600182019150602085019450602081019050610766565b868310156107a857848901516107a4601f8916826106b7565b8355505b6001600288020188555050505b50505050505056fea2646970667358221220820cd63056ac58dfad03c9e14ae534401e0d7994e79176dee3c23872e43f297b64736f6c63430008160033",
					"opcodes": "PUSH1 0x80 PUSH1 0x40 MSTORE CALLVALUE DUP1 ISZERO PUSH2 0xF JUMPI PUSH0 DUP1 REVERT JUMPDEST POP PUSH2 0x7F3 DUP1 PUSH2 0x1D PUSH0 CODECOPY PUSH0 RETURN INVALID PUSH1 0x80 PUSH1 0x40 MSTORE CALLVALUE DUP1 ISZERO PUSH2 0xF JUMPI PUSH0 DUP1 REVERT JUMPDEST POP PUSH1 0x4 CALLDATASIZE LT PUSH2 0x34 JUMPI PUSH0 CALLDATALOAD PUSH1 0xE0 SHR DUP1 PUSH4 0x52EFD685 EQ PUSH2 0x38 JUMPI DUP1 PUSH4 0xBBAB9DF2 EQ PUSH2 0x6A JUMPI JUMPDEST PUSH0 DUP1 REVERT JUMPDEST PUSH2 0x52 PUSH1 0x4 DUP1 CALLDATASIZE SUB DUP2 ADD SWAP1 PUSH2 0x4D SWAP2 SWAP1 PUSH2 0x218 JUMP JUMPDEST PUSH2 0x86 JUMP JUMPDEST PUSH1 0x40 MLOAD PUSH2 0x61 SWAP4 SWAP3 SWAP2 SWAP1 PUSH2 0x2F6 JUMP JUMPDEST PUSH1 0x40 MLOAD DUP1 SWAP2 SUB SWAP1 RETURN JUMPDEST PUSH2 0x84 PUSH1 0x4 DUP1 CALLDATASIZE SUB DUP2 ADD SWAP1 PUSH2 0x7F SWAP2 SWAP1 PUSH2 0x488 JUMP JUMPDEST PUSH2 0x14C JUMP JUMPDEST STOP JUMPDEST PUSH0 DUP2 DUP2 SLOAD DUP2 LT PUSH2 0x94 JUMPI PUSH0 DUP1 REVERT JUMPDEST SWAP1 PUSH0 MSTORE PUSH1 0x20 PUSH0 KECCAK256 SWAP1 PUSH1 0x3 MUL ADD PUSH0 SWAP2 POP SWAP1 POP DUP1 PUSH0 ADD DUP1 SLOAD PUSH2 0xB3 SWAP1 PUSH2 0x521 JUMP JUMPDEST DUP1 PUSH1 0x1F ADD PUSH1 0x20 DUP1 SWAP2 DIV MUL PUSH1 0x20 ADD PUSH1 0x40 MLOAD SWAP1 DUP2 ADD PUSH1 0x40 MSTORE DUP1 SWAP3 SWAP2 SWAP1 DUP2 DUP2 MSTORE PUSH1 0x20 ADD DUP3 DUP1 SLOAD PUSH2 0xDF SWAP1 PUSH2 0x521 JUMP JUMPDEST DUP1 ISZERO PUSH2 0x12A JUMPI DUP1 PUSH1 0x1F LT PUSH2 0x101 JUMPI PUSH2 0x100 DUP1 DUP4 SLOAD DIV MUL DUP4 MSTORE SWAP2 PUSH1 0x20 ADD SWAP2 PUSH2 0x12A JUMP JUMPDEST DUP3 ADD SWAP2 SWAP1 PUSH0 MSTORE PUSH1 0x20 PUSH0 KECCAK256 SWAP1 JUMPDEST DUP2 SLOAD DUP2 MSTORE SWAP1 PUSH1 0x1 ADD SWAP1 PUSH1 0x20 ADD DUP1 DUP4 GT PUSH2 0x10D JUMPI DUP3 SWAP1 SUB PUSH1 0x1F AND DUP3 ADD SWAP2 JUMPDEST POP POP POP POP POP SWAP1 DUP1 PUSH1 0x1 ADD SLOAD SWAP1 DUP1 PUSH1 0x2 ADD PUSH0 SWAP1 SLOAD SWAP1 PUSH2 0x100 EXP SWAP1 DIV PUSH1 0xFF AND SWAP1 POP DUP4 JUMP JUMPDEST PUSH0 PUSH1 0x40 MLOAD DUP1 PUSH1 0x60 ADD PUSH1 0x40 MSTORE DUP1 DUP6 DUP2 MSTORE PUSH1 0x20 ADD DUP5 DUP2 MSTORE PUSH1 0x20 ADD DUP4 ISZERO ISZERO DUP2 MSTORE POP SWAP1 DUP1 PUSH1 0x1 DUP2 SLOAD ADD DUP1 DUP3 SSTORE DUP1 SWAP2 POP POP PUSH1 0x1 SWAP1 SUB SWAP1 PUSH0 MSTORE PUSH1 0x20 PUSH0 KECCAK256 SWAP1 PUSH1 0x3 MUL ADD PUSH0 SWAP1 SWAP2 SWAP1 SWAP2 SWAP1 SWAP2 POP PUSH0 DUP3 ADD MLOAD DUP2 PUSH0 ADD SWAP1 DUP2 PUSH2 0x1A3 SWAP2 SWAP1 PUSH2 0x6EE JUMP JUMPDEST POP PUSH1 0x20 DUP3 ADD MLOAD DUP2 PUSH1 0x1 ADD SSTORE PUSH1 0x40 DUP3 ADD MLOAD DUP2 PUSH1 0x2 ADD PUSH0 PUSH2 0x100 EXP DUP2 SLOAD DUP2 PUSH1 0xFF MUL NOT AND SWAP1 DUP4 ISZERO ISZERO MUL OR SWAP1 SSTORE POP POP POP POP POP POP JUMP JUMPDEST PUSH0 PUSH1 0x40 MLOAD SWAP1 POP SWAP1 JUMP JUMPDEST PUSH0 DUP1 REVERT JUMPDEST PUSH0 DUP1 REVERT JUMPDEST PUSH0 DUP2 SWAP1 POP SWAP2 SWAP1 POP JUMP JUMPDEST PUSH2 0x1F7 DUP2 PUSH2 0x1E5 JUMP JUMPDEST DUP2 EQ PUSH2 0x201 JUMPI PUSH0 DUP1 REVERT JUMPDEST POP JUMP JUMPDEST PUSH0 DUP2 CALLDATALOAD SWAP1 POP PUSH2 0x212 DUP2 PUSH2 0x1EE JUMP JUMPDEST SWAP3 SWAP2 POP POP JUMP JUMPDEST PUSH0 PUSH1 0x20 DUP3 DUP5 SUB SLT ISZERO PUSH2 0x22D JUMPI PUSH2 0x22C PUSH2 0x1DD JUMP JUMPDEST JUMPDEST PUSH0 PUSH2 0x23A DUP5 DUP3 DUP6 ADD PUSH2 0x204 JUMP JUMPDEST SWAP2 POP POP SWAP3 SWAP2 POP POP JUMP JUMPDEST PUSH0 DUP2 MLOAD SWAP1 POP SWAP2 SWAP1 POP JUMP JUMPDEST PUSH0 DUP3 DUP3 MSTORE PUSH1 0x20 DUP3 ADD SWAP1 POP SWAP3 SWAP2 POP POP JUMP JUMPDEST PUSH0 JUMPDEST DUP4 DUP2 LT ISZERO PUSH2 0x27A JUMPI DUP1 DUP3 ADD MLOAD DUP2 DUP5 ADD MSTORE PUSH1 0x20 DUP2 ADD SWAP1 POP PUSH2 0x25F JUMP JUMPDEST PUSH0 DUP5 DUP5 ADD MSTORE POP POP POP POP JUMP JUMPDEST PUSH0 PUSH1 0x1F NOT PUSH1 0x1F DUP4 ADD AND SWAP1 POP SWAP2 SWAP1 POP JUMP JUMPDEST PUSH0 PUSH2 0x29F DUP3 PUSH2 0x243 JUMP JUMPDEST PUSH2 0x2A9 DUP2 DUP6 PUSH2 0x24D JUMP JUMPDEST SWAP4 POP PUSH2 0x2B9 DUP2 DUP6 PUSH1 0x20 DUP7 ADD PUSH2 0x25D JUMP JUMPDEST PUSH2 0x2C2 DUP2 PUSH2 0x285 JUMP JUMPDEST DUP5 ADD SWAP2 POP POP SWAP3 SWAP2 POP POP JUMP JUMPDEST PUSH2 0x2D6 DUP2 PUSH2 0x1E5 JUMP JUMPDEST DUP3 MSTORE POP POP JUMP JUMPDEST PUSH0 DUP2 ISZERO ISZERO SWAP1 POP SWAP2 SWAP1 POP JUMP JUMPDEST PUSH2 0x2F0 DUP2 PUSH2 0x2DC JUMP JUMPDEST DUP3 MSTORE POP POP JUMP JUMPDEST PUSH0 PUSH1 0x60 DUP3 ADD SWAP1 POP DUP2 DUP2 SUB PUSH0 DUP4 ADD MSTORE PUSH2 0x30E DUP2 DUP7 PUSH2 0x295 JUMP JUMPDEST SWAP1 POP PUSH2 0x31D PUSH1 0x20 DUP4 ADD DUP6 PUSH2 0x2CD JUMP JUMPDEST PUSH2 0x32A PUSH1 0x40 DUP4 ADD DUP5 PUSH2 0x2E7 JUMP JUMPDEST SWAP5 SWAP4 POP POP POP POP JUMP JUMPDEST PUSH0 DUP1 REVERT JUMPDEST PUSH0 DUP1 REVERT JUMPDEST PUSH32 0x4E487B7100000000000000000000000000000000000000000000000000000000 PUSH0 MSTORE PUSH1 0x41 PUSH1 0x4 MSTORE PUSH1 0x24 PUSH0 REVERT JUMPDEST PUSH2 0x370 DUP3 PUSH2 0x285 JUMP JUMPDEST DUP2 ADD DUP2 DUP2 LT PUSH8 0xFFFFFFFFFFFFFFFF DUP3 GT OR ISZERO PUSH2 0x38F JUMPI PUSH2 0x38E PUSH2 0x33A JUMP JUMPDEST JUMPDEST DUP1 PUSH1 0x40 MSTORE POP POP POP JUMP JUMPDEST PUSH0 PUSH2 0x3A1 PUSH2 0x1D4 JUMP JUMPDEST SWAP1 POP PUSH2 0x3AD DUP3 DUP3 PUSH2 0x367 JUMP JUMPDEST SWAP2 SWAP1 POP JUMP JUMPDEST PUSH0 PUSH8 0xFFFFFFFFFFFFFFFF DUP3 GT ISZERO PUSH2 0x3CC JUMPI PUSH2 0x3CB PUSH2 0x33A JUMP JUMPDEST JUMPDEST PUSH2 0x3D5 DUP3 PUSH2 0x285 JUMP JUMPDEST SWAP1 POP PUSH1 0x20 DUP2 ADD SWAP1 POP SWAP2 SWAP1 POP JUMP JUMPDEST DUP3 DUP2 DUP4 CALLDATACOPY PUSH0 DUP4 DUP4 ADD MSTORE POP POP POP JUMP JUMPDEST PUSH0 PUSH2 0x402 PUSH2 0x3FD DUP5 PUSH2 0x3B2 JUMP JUMPDEST PUSH2 0x398 JUMP JUMPDEST SWAP1 POP DUP3 DUP2 MSTORE PUSH1 0x20 DUP2 ADD DUP5 DUP5 DUP5 ADD GT ISZERO PUSH2 0x41E JUMPI PUSH2 0x41D PUSH2 0x336 JUMP JUMPDEST JUMPDEST PUSH2 0x429 DUP5 DUP3 DUP6 PUSH2 0x3E2 JUMP JUMPDEST POP SWAP4 SWAP3 POP POP POP JUMP JUMPDEST PUSH0 DUP3 PUSH1 0x1F DUP4 ADD SLT PUSH2 0x445 JUMPI PUSH2 0x444 PUSH2 0x332 JUMP JUMPDEST JUMPDEST DUP2 CALLDATALOAD PUSH2 0x455 DUP5 DUP3 PUSH1 0x20 DUP7 ADD PUSH2 0x3F0 JUMP JUMPDEST SWAP2 POP POP SWAP3 SWAP2 POP POP JUMP JUMPDEST PUSH2 0x467 DUP2 PUSH2 0x2DC JUMP JUMPDEST DUP2 EQ PUSH2 0x471 JUMPI PUSH0 DUP1 REVERT JUMPDEST POP JUMP JUMPDEST PUSH0 DUP2 CALLDATALOAD SWAP1 POP PUSH2 0x482 DUP2 PUSH2 0x45E JUMP JUMPDEST SWAP3 SWAP2 POP POP JUMP JUMPDEST PUSH0 DUP1 PUSH0 PUSH1 0x60 DUP5 DUP7 SUB SLT ISZERO PUSH2 0x49F JUMPI PUSH2 0x49E PUSH2 0x1DD JUMP JUMPDEST JUMPDEST PUSH0 DUP5 ADD CALLDATALOAD PUSH8 0xFFFFFFFFFFFFFFFF DUP2 GT ISZERO PUSH2 0x4BC JUMPI PUSH2 0x4BB PUSH2 0x1E1 JUMP JUMPDEST JUMPDEST PUSH2 0x4C8 DUP7 DUP3 DUP8 ADD PUSH2 0x431 JUMP JUMPDEST SWAP4 POP POP PUSH1 0x20 PUSH2 0x4D9 DUP7 DUP3 DUP8 ADD PUSH2 0x204 JUMP JUMPDEST SWAP3 POP POP PUSH1 0x40 PUSH2 0x4EA DUP7 DUP3 DUP8 ADD PUSH2 0x474 JUMP JUMPDEST SWAP2 POP POP SWAP3 POP SWAP3 POP SWAP3 JUMP JUMPDEST PUSH32 0x4E487B7100000000000000000000000000000000000000000000000000000000 PUSH0 MSTORE PUSH1 0x22 PUSH1 0x4 MSTORE PUSH1 0x24 PUSH0 REVERT JUMPDEST PUSH0 PUSH1 0x2 DUP3 DIV SWAP1 POP PUSH1 0x1 DUP3 AND DUP1 PUSH2 0x538 JUMPI PUSH1 0x7F DUP3 AND SWAP2 POP JUMPDEST PUSH1 0x20 DUP3 LT DUP2 SUB PUSH2 0x54B JUMPI PUSH2 0x54A PUSH2 0x4F4 JUMP JUMPDEST JUMPDEST POP SWAP2 SWAP1 POP JUMP JUMPDEST PUSH0 DUP2 SWAP1 POP DUP2 PUSH0 MSTORE PUSH1 0x20 PUSH0 KECCAK256 SWAP1 POP SWAP2 SWAP1 POP JUMP JUMPDEST PUSH0 PUSH1 0x20 PUSH1 0x1F DUP4 ADD DIV SWAP1 POP SWAP2 SWAP1 POP JUMP JUMPDEST PUSH0 DUP3 DUP3 SHL SWAP1 POP SWAP3 SWAP2 POP POP JUMP JUMPDEST PUSH0 PUSH1 0x8 DUP4 MUL PUSH2 0x5AD PUSH32 0xFFFFFFFFFFFFFFFFFFFFFFFFFFFFFFFFFFFFFFFFFFFFFFFFFFFFFFFFFFFFFFFF DUP3 PUSH2 0x572 JUMP JUMPDEST PUSH2 0x5B7 DUP7 DUP4 PUSH2 0x572 JUMP JUMPDEST SWAP6 POP DUP1 NOT DUP5 AND SWAP4 POP DUP1 DUP7 AND DUP5 OR SWAP3 POP POP POP SWAP4 SWAP3 POP POP POP JUMP JUMPDEST PUSH0 DUP2 SWAP1 POP SWAP2 SWAP1 POP JUMP JUMPDEST PUSH0 PUSH2 0x5F2 PUSH2 0x5ED PUSH2 0x5E8 DUP5 PUSH2 0x1E5 JUMP JUMPDEST PUSH2 0x5CF JUMP JUMPDEST PUSH2 0x1E5 JUMP JUMPDEST SWAP1 POP SWAP2 SWAP1 POP JUMP JUMPDEST PUSH0 DUP2 SWAP1 POP SWAP2 SWAP1 POP JUMP JUMPDEST PUSH2 0x60B DUP4 PUSH2 0x5D8 JUMP JUMPDEST PUSH2 0x61F PUSH2 0x617 DUP3 PUSH2 0x5F9 JUMP JUMPDEST DUP5 DUP5 SLOAD PUSH2 0x57E JUMP JUMPDEST DUP3 SSTORE POP POP POP POP JUMP JUMPDEST PUSH0 SWAP1 JUMP JUMPDEST PUSH2 0x633 PUSH2 0x627 JUMP JUMPDEST PUSH2 0x63E DUP2 DUP5 DUP5 PUSH2 0x602 JUMP JUMPDEST POP POP POP JUMP JUMPDEST JUMPDEST DUP2 DUP2 LT ISZERO PUSH2 0x661 JUMPI PUSH2 0x656 PUSH0 DUP3 PUSH2 0x62B JUMP JUMPDEST PUSH1 0x1 DUP2 ADD SWAP1 POP PUSH2 0x644 JUMP JUMPDEST POP POP JUMP JUMPDEST PUSH1 0x1F DUP3 GT ISZERO PUSH2 0x6A6 JUMPI PUSH2 0x677 DUP2 PUSH2 0x551 JUMP JUMPDEST PUSH2 0x680 DUP5 PUSH2 0x563 JUMP JUMPDEST DUP2 ADD PUSH1 0x20 DUP6 LT ISZERO PUSH2 0x68F JUMPI DUP2 SWAP1 POP JUMPDEST PUSH2 0x6A3 PUSH2 0x69B DUP6 PUSH2 0x563 JUMP JUMPDEST DUP4 ADD DUP3 PUSH2 0x643 JUMP JUMPDEST POP POP JUMPDEST POP POP POP JUMP JUMPDEST PUSH0 DUP3 DUP3 SHR SWAP1 POP SWAP3 SWAP2 POP POP JUMP JUMPDEST PUSH0 PUSH2 0x6C6 PUSH0 NOT DUP5 PUSH1 0x8 MUL PUSH2 0x6AB JUMP JUMPDEST NOT DUP1 DUP4 AND SWAP2 POP POP SWAP3 SWAP2 POP POP JUMP JUMPDEST PUSH0 PUSH2 0x6DE DUP4 DUP4 PUSH2 0x6B7 JUMP JUMPDEST SWAP2 POP DUP3 PUSH1 0x2 MUL DUP3 OR SWAP1 POP SWAP3 SWAP2 POP POP JUMP JUMPDEST PUSH2 0x6F7 DUP3 PUSH2 0x243 JUMP JUMPDEST PUSH8 0xFFFFFFFFFFFFFFFF DUP2 GT ISZERO PUSH2 0x710 JUMPI PUSH2 0x70F PUSH2 0x33A JUMP JUMPDEST JUMPDEST PUSH2 0x71A DUP3 SLOAD PUSH2 0x521 JUMP JUMPDEST PUSH2 0x725 DUP3 DUP3 DUP6 PUSH2 0x665 JUMP JUMPDEST PUSH0 PUSH1 0x20 SWAP1 POP PUSH1 0x1F DUP4 GT PUSH1 0x1 DUP2 EQ PUSH2 0x756 JUMPI PUSH0 DUP5 ISZERO PUSH2 0x744 JUMPI DUP3 DUP8 ADD MLOAD SWAP1 POP JUMPDEST PUSH2 0x74E DUP6 DUP3 PUSH2 0x6D3 JUMP JUMPDEST DUP7 SSTORE POP PUSH2 0x7B5 JUMP JUMPDEST PUSH1 0x1F NOT DUP5 AND PUSH2 0x764 DUP7 PUSH2 0x551 JUMP JUMPDEST PUSH0 JUMPDEST DUP3 DUP2 LT ISZERO PUSH2 0x78B JUMPI DUP5 DUP10 ADD MLOAD DUP3 SSTORE PUSH1 0x1 DUP3 ADD SWAP2 POP PUSH1 0x20 DUP6 ADD SWAP5 POP PUSH1 0x20 DUP2 ADD SWAP1 POP PUSH2 0x766 JUMP JUMPDEST DUP7 DUP4 LT ISZERO PUSH2 0x7A8 JUMPI DUP5 DUP10 ADD MLOAD PUSH2 0x7A4 PUSH1 0x1F DUP10 AND DUP3 PUSH2 0x6B7 JUMP JUMPDEST DUP4 SSTORE POP JUMPDEST PUSH1 0x1 PUSH1 0x2 DUP9 MUL ADD DUP9 SSTORE POP POP POP JUMPDEST POP POP POP POP POP POP JUMP INVALID LOG2 PUSH5 0x6970667358 0x22 SLT KECCAK256 DUP3 0xC 0xD6 ADDRESS JUMP 0xAC PC 0xDF 0xAD SUB 0xC9 0xE1 0x4A 0xE5 CALLVALUE BLOCKHASH 0x1E 0xD PUSH26 0x94E79176DEE3C23872E43F297B64736F6C634300081600330000 "
				},
				"gasEstimates": {
					"creation": {
						"codeDepositCost": "407000",
						"executionCost": "441",
						"totalCost": "407441"
					},
					"external": {
						"s(uint256)": "infinite",
						"setter(string,uint256,bool)": "infinite"
					}
				},
				"methodIdentifiers": {
					"s(uint256)": "52efd685",
					"setter(string,uint256,bool)": "bbab9df2"
				}
			},
			"storageLayout": {
				"storage": [
					{
						"astId": 12,
						"contract": "contracts/20_array_struct.sol:arrayStruct",
						"label": "s",
						"offset": 0,
						"slot": "0",
						"type": "t_array(t_struct(Student)8_storage)dyn_storage"
					}
				],
				"types": {
					"t_array(t_struct(Student)8_storage)dyn_storage": {
						"base": "t_struct(Student)8_storage",
						"encoding": "dynamic_array",
						"label": "struct arrayStruct.Student[]",
						"numberOfBytes": "32"
					},
					"t_bool": {
						"encoding": "inplace",
						"label": "bool",
						"numberOfBytes": "1"
					},
					"t_string_storage": {
						"encoding": "bytes",
						"label": "string",
						"numberOfBytes": "32"
					},
					"t_struct(Student)8_storage": {
						"encoding": "inplace",
						"label": "struct arrayStruct.Student",
						"members": [
							{
								"astId": 3,
								"contract": "contracts/20_array_struct.sol:arrayStruct",
								"label": "Name",
								"offset": 0,
								"slot": "0",
								"type": "t_string_storage"
							},
							{
								"astId": 5,
								"contract": "contracts/20_array_struct.sol:arrayStruct",
								"label": "moibleNo",
								"offset": 0,
								"slot": "1",
								"type": "t_uint256"
							},
							{
								"astId": 7,
								"contract": "contracts/20_array_struct.sol:arrayStruct",
								"label": "result",
								"offset": 0,
								"slot": "2",
								"type": "t_bool"
							}
						],
						"numberOfBytes": "96"
					},
					"t_uint256": {
						"encoding": "inplace",
						"label": "uint256",
						"numberOfBytes": "32"
					}
				}
			},
			"userdoc": {
				"kind": "user",
				"methods": {},
				"version": 1
			}
		}
	}
}