{
	"contracts/14_modifiers.sol": {
		"modifiers": {
			"abi": [
				{
					"inputs": [
						{
							"internalType": "uint256",
							"name": "_num",
							"type": "uint256"
						}
					],
					"name": "checkEven",
					"outputs": [
						{
							"internalType": "bool",
							"name": "",
							"type": "bool"
						}
					],
					"stateMutability": "pure",
					"type": "function"
				},
				{
					"inputs": [
						{
							"internalType": "uint256",
							"name": "_num",
							"type": "uint256"
						}
					],
					"name": "checkOdd",
					"outputs": [
						{
							"internalType": "bool",
							"name": "",
							"type": "bool"
						}
					],
					"stateMutability": "pure",
					"type": "function"
				}
			],
			"devdoc": {
				"kind": "dev",
				"methods": {},
				"version": 1
			},
			"evm": {
				"assembly": "    /* \"contracts/14_modifiers.sol\":74:1397  contract modifiers {... */\n  mstore(0x40, 0x80)\n  callvalue\n  dup1\n  iszero\n  tag_1\n  jumpi\n  0x00\n  dup1\n  revert\ntag_1:\n  pop\n  dataSize(sub_0)\n  dup1\n  dataOffset(sub_0)\n  0x00\n  codecopy\n  0x00\n  return\nstop\n\nsub_0: assembly {\n        /* \"contracts/14_modifiers.sol\":74:1397  contract modifiers {... */\n      mstore(0x40, 0x80)\n      callvalue\n      dup1\n      iszero\n      tag_1\n      jumpi\n      0x00\n      dup1\n      revert\n    tag_1:\n      pop\n      jumpi(tag_2, lt(calldatasize, 0x04))\n      shr(0xe0, calldataload(0x00))\n      dup1\n      0x6ffb5c0a\n      eq\n      tag_3\n      jumpi\n      dup1\n      0xbf024365\n      eq\n      tag_4\n      jumpi\n    tag_2:\n      0x00\n      dup1\n      revert\n        /* \"contracts/14_modifiers.sol\":1168:1394  function checkEven (uint _num) public pure _isLessThanHundred(_num) returns (bool) {... */\n    tag_3:\n      tag_5\n      0x04\n      dup1\n      calldatasize\n      sub\n      dup2\n      add\n      swap1\n      tag_6\n      swap2\n      swap1\n      tag_7\n      jump\t// in\n    tag_6:\n      tag_8\n      jump\t// in\n    tag_5:\n      mload(0x40)\n      tag_9\n      swap2\n      swap1\n      tag_10\n      jump\t// in\n    tag_9:\n      mload(0x40)\n      dup1\n      swap2\n      sub\n      swap1\n      return\n        /* \"contracts/14_modifiers.sol\":934:1160  function checkOdd (uint _num) public pure _isLessThanHundred(_num) returns (bool) {... */\n    tag_4:\n      tag_11\n      0x04\n      dup1\n      calldatasize\n      sub\n      dup2\n      add\n      swap1\n      tag_12\n      swap2\n      swap1\n      tag_7\n      jump\t// in\n    tag_12:\n      tag_13\n      jump\t// in\n    tag_11:\n      mload(0x40)\n      tag_14\n      swap2\n      swap1\n      tag_10\n      jump\t// in\n    tag_14:\n      mload(0x40)\n      dup1\n      swap2\n      sub\n      swap1\n      return\n        /* \"contracts/14_modifiers.sol\":1168:1394  function checkEven (uint _num) public pure _isLessThanHundred(_num) returns (bool) {... */\n    tag_8:\n        /* \"contracts/14_modifiers.sol\":1245:1249  bool */\n      0x00\n        /* \"contracts/14_modifiers.sol\":1230:1234  _num */\n      dup2\n        /* \"contracts/14_modifiers.sol\":820:823  100 */\n      0x64\n        /* \"contracts/14_modifiers.sol\":813:817  _num */\n      dup2\n        /* \"contracts/14_modifiers.sol\":813:823  _num < 100 */\n      lt\n        /* \"contracts/14_modifiers.sol\":805:850  require(_num < 100, \"The Given is above 100\") */\n      tag_16\n      jumpi\n      mload(0x40)\n      0x08c379a000000000000000000000000000000000000000000000000000000000\n      dup2\n      mstore\n      0x04\n      add\n      tag_17\n      swap1\n      tag_18\n      jump\t// in\n    tag_17:\n      mload(0x40)\n      dup1\n      swap2\n      sub\n      swap1\n      revert\n    tag_16:\n        /* \"contracts/14_modifiers.sol\":1278:1279  0 */\n      0x00\n        /* \"contracts/14_modifiers.sol\":1273:1274  2 */\n      0x02\n        /* \"contracts/14_modifiers.sol\":1266:1270  _num */\n      dup5\n        /* \"contracts/14_modifiers.sol\":1266:1274  _num % 2 */\n      tag_20\n      swap2\n      swap1\n      tag_21\n      jump\t// in\n    tag_20:\n        /* \"contracts/14_modifiers.sol\":1266:1279  _num % 2 == 0 */\n      sub\n        /* \"contracts/14_modifiers.sol\":1262:1387  if (_num % 2 == 0) {... */\n      tag_22\n      jumpi\n        /* \"contracts/14_modifiers.sol\":1303:1307  true */\n      0x01\n        /* \"contracts/14_modifiers.sol\":1296:1307  return true */\n      swap2\n      pop\n      jump(tag_19)\n        /* \"contracts/14_modifiers.sol\":1262:1387  if (_num % 2 == 0) {... */\n    tag_22:\n        /* \"contracts/14_modifiers.sol\":1342:1375  revert(\"The Given number is odd\") */\n      mload(0x40)\n      0x08c379a000000000000000000000000000000000000000000000000000000000\n      dup2\n      mstore\n      0x04\n      add\n      tag_24\n      swap1\n      tag_25\n      jump\t// in\n    tag_24:\n      mload(0x40)\n      dup1\n      swap2\n      sub\n      swap1\n      revert\n        /* \"contracts/14_modifiers.sol\":861:862  _ */\n    tag_19:\n        /* \"contracts/14_modifiers.sol\":1168:1394  function checkEven (uint _num) public pure _isLessThanHundred(_num) returns (bool) {... */\n      pop\n      swap2\n      swap1\n      pop\n      jump\t// out\n        /* \"contracts/14_modifiers.sol\":934:1160  function checkOdd (uint _num) public pure _isLessThanHundred(_num) returns (bool) {... */\n    tag_13:\n        /* \"contracts/14_modifiers.sol\":1010:1014  bool */\n      0x00\n        /* \"contracts/14_modifiers.sol\":995:999  _num */\n      dup2\n        /* \"contracts/14_modifiers.sol\":820:823  100 */\n      0x64\n        /* \"contracts/14_modifiers.sol\":813:817  _num */\n      dup2\n        /* \"contracts/14_modifiers.sol\":813:823  _num < 100 */\n      lt\n        /* \"contracts/14_modifiers.sol\":805:850  require(_num < 100, \"The Given is above 100\") */\n      tag_27\n      jumpi\n      mload(0x40)\n      0x08c379a000000000000000000000000000000000000000000000000000000000\n      dup2\n      mstore\n      0x04\n      add\n      tag_28\n      swap1\n      tag_18\n      jump\t// in\n    tag_28:\n      mload(0x40)\n      dup1\n      swap2\n      sub\n      swap1\n      revert\n    tag_27:\n        /* \"contracts/14_modifiers.sol\":1043:1044  0 */\n      0x00\n        /* \"contracts/14_modifiers.sol\":1038:1039  2 */\n      0x02\n        /* \"contracts/14_modifiers.sol\":1031:1035  _num */\n      dup5\n        /* \"contracts/14_modifiers.sol\":1031:1039  _num % 2 */\n      tag_30\n      swap2\n      swap1\n      tag_21\n      jump\t// in\n    tag_30:\n        /* \"contracts/14_modifiers.sol\":1031:1044  _num % 2 != 0 */\n      eq\n        /* \"contracts/14_modifiers.sol\":1027:1153  if (_num % 2 != 0) {... */\n      tag_31\n      jumpi\n        /* \"contracts/14_modifiers.sol\":1068:1072  true */\n      0x01\n        /* \"contracts/14_modifiers.sol\":1061:1072  return true */\n      swap2\n      pop\n      jump(tag_29)\n        /* \"contracts/14_modifiers.sol\":1027:1153  if (_num % 2 != 0) {... */\n    tag_31:\n        /* \"contracts/14_modifiers.sol\":1107:1141  revert(\"The given number is even\") */\n      mload(0x40)\n      0x08c379a000000000000000000000000000000000000000000000000000000000\n      dup2\n      mstore\n      0x04\n      add\n      tag_33\n      swap1\n      tag_34\n      jump\t// in\n    tag_33:\n      mload(0x40)\n      dup1\n      swap2\n      sub\n      swap1\n      revert\n        /* \"contracts/14_modifiers.sol\":861:862  _ */\n    tag_29:\n        /* \"contracts/14_modifiers.sol\":934:1160  function checkOdd (uint _num) public pure _isLessThanHundred(_num) returns (bool) {... */\n      pop\n      swap2\n      swap1\n      pop\n      jump\t// out\n        /* \"#utility.yul\":88:205   */\n    tag_36:\n        /* \"#utility.yul\":197:198   */\n      0x00\n        /* \"#utility.yul\":194:195   */\n      dup1\n        /* \"#utility.yul\":187:199   */\n      revert\n        /* \"#utility.yul\":334:411   */\n    tag_38:\n        /* \"#utility.yul\":371:378   */\n      0x00\n        /* \"#utility.yul\":400:405   */\n      dup2\n        /* \"#utility.yul\":389:405   */\n      swap1\n      pop\n        /* \"#utility.yul\":334:411   */\n      swap2\n      swap1\n      pop\n      jump\t// out\n        /* \"#utility.yul\":417:539   */\n    tag_39:\n        /* \"#utility.yul\":490:514   */\n      tag_57\n        /* \"#utility.yul\":508:513   */\n      dup2\n        /* \"#utility.yul\":490:514   */\n      tag_38\n      jump\t// in\n    tag_57:\n        /* \"#utility.yul\":483:488   */\n      dup2\n        /* \"#utility.yul\":480:515   */\n      eq\n        /* \"#utility.yul\":470:533   */\n      tag_58\n      jumpi\n        /* \"#utility.yul\":529:530   */\n      0x00\n        /* \"#utility.yul\":526:527   */\n      dup1\n        /* \"#utility.yul\":519:531   */\n      revert\n        /* \"#utility.yul\":470:533   */\n    tag_58:\n        /* \"#utility.yul\":417:539   */\n      pop\n      jump\t// out\n        /* \"#utility.yul\":545:684   */\n    tag_40:\n        /* \"#utility.yul\":591:596   */\n      0x00\n        /* \"#utility.yul\":629:635   */\n      dup2\n        /* \"#utility.yul\":616:636   */\n      calldataload\n        /* \"#utility.yul\":607:636   */\n      swap1\n      pop\n        /* \"#utility.yul\":645:678   */\n      tag_60\n        /* \"#utility.yul\":672:677   */\n      dup2\n        /* \"#utility.yul\":645:678   */\n      tag_39\n      jump\t// in\n    tag_60:\n        /* \"#utility.yul\":545:684   */\n      swap3\n      swap2\n      pop\n      pop\n      jump\t// out\n        /* \"#utility.yul\":690:1019   */\n    tag_7:\n        /* \"#utility.yul\":749:755   */\n      0x00\n        /* \"#utility.yul\":798:800   */\n      0x20\n        /* \"#utility.yul\":786:795   */\n      dup3\n        /* \"#utility.yul\":777:784   */\n      dup5\n        /* \"#utility.yul\":773:796   */\n      sub\n        /* \"#utility.yul\":769:801   */\n      slt\n        /* \"#utility.yul\":766:885   */\n      iszero\n      tag_62\n      jumpi\n        /* \"#utility.yul\":804:883   */\n      tag_63\n      tag_36\n      jump\t// in\n    tag_63:\n        /* \"#utility.yul\":766:885   */\n    tag_62:\n        /* \"#utility.yul\":924:925   */\n      0x00\n        /* \"#utility.yul\":949:1002   */\n      tag_64\n        /* \"#utility.yul\":994:1001   */\n      dup5\n        /* \"#utility.yul\":985:991   */\n      dup3\n        /* \"#utility.yul\":974:983   */\n      dup6\n        /* \"#utility.yul\":970:992   */\n      add\n        /* \"#utility.yul\":949:1002   */\n      tag_40\n      jump\t// in\n    tag_64:\n        /* \"#utility.yul\":939:1002   */\n      swap2\n      pop\n        /* \"#utility.yul\":895:1012   */\n      pop\n        /* \"#utility.yul\":690:1019   */\n      swap3\n      swap2\n      pop\n      pop\n      jump\t// out\n        /* \"#utility.yul\":1025:1115   */\n    tag_41:\n        /* \"#utility.yul\":1059:1066   */\n      0x00\n        /* \"#utility.yul\":1102:1107   */\n      dup2\n        /* \"#utility.yul\":1095:1108   */\n      iszero\n        /* \"#utility.yul\":1088:1109   */\n      iszero\n        /* \"#utility.yul\":1077:1109   */\n      swap1\n      pop\n        /* \"#utility.yul\":1025:1115   */\n      swap2\n      swap1\n      pop\n      jump\t// out\n        /* \"#utility.yul\":1121:1230   */\n    tag_42:\n        /* \"#utility.yul\":1202:1223   */\n      tag_67\n        /* \"#utility.yul\":1217:1222   */\n      dup2\n        /* \"#utility.yul\":1202:1223   */\n      tag_41\n      jump\t// in\n    tag_67:\n        /* \"#utility.yul\":1197:1200   */\n      dup3\n        /* \"#utility.yul\":1190:1224   */\n      mstore\n        /* \"#utility.yul\":1121:1230   */\n      pop\n      pop\n      jump\t// out\n        /* \"#utility.yul\":1236:1446   */\n    tag_10:\n        /* \"#utility.yul\":1323:1327   */\n      0x00\n        /* \"#utility.yul\":1361:1363   */\n      0x20\n        /* \"#utility.yul\":1350:1359   */\n      dup3\n        /* \"#utility.yul\":1346:1364   */\n      add\n        /* \"#utility.yul\":1338:1364   */\n      swap1\n      pop\n        /* \"#utility.yul\":1374:1439   */\n      tag_69\n        /* \"#utility.yul\":1436:1437   */\n      0x00\n        /* \"#utility.yul\":1425:1434   */\n      dup4\n        /* \"#utility.yul\":1421:1438   */\n      add\n        /* \"#utility.yul\":1412:1418   */\n      dup5\n        /* \"#utility.yul\":1374:1439   */\n      tag_42\n      jump\t// in\n    tag_69:\n        /* \"#utility.yul\":1236:1446   */\n      swap3\n      swap2\n      pop\n      pop\n      jump\t// out\n        /* \"#utility.yul\":1452:1621   */\n    tag_43:\n        /* \"#utility.yul\":1536:1547   */\n      0x00\n        /* \"#utility.yul\":1570:1576   */\n      dup3\n        /* \"#utility.yul\":1565:1568   */\n      dup3\n        /* \"#utility.yul\":1558:1577   */\n      mstore\n        /* \"#utility.yul\":1610:1614   */\n      0x20\n        /* \"#utility.yul\":1605:1608   */\n      dup3\n        /* \"#utility.yul\":1601:1615   */\n      add\n        /* \"#utility.yul\":1586:1615   */\n      swap1\n      pop\n        /* \"#utility.yul\":1452:1621   */\n      swap3\n      swap2\n      pop\n      pop\n      jump\t// out\n        /* \"#utility.yul\":1627:1799   */\n    tag_44:\n        /* \"#utility.yul\":1767:1791   */\n      0x54686520476976656e2069732061626f76652031303000000000000000000000\n        /* \"#utility.yul\":1763:1764   */\n      0x00\n        /* \"#utility.yul\":1755:1761   */\n      dup3\n        /* \"#utility.yul\":1751:1765   */\n      add\n        /* \"#utility.yul\":1744:1792   */\n      mstore\n        /* \"#utility.yul\":1627:1799   */\n      pop\n      jump\t// out\n        /* \"#utility.yul\":1805:2171   */\n    tag_45:\n        /* \"#utility.yul\":1947:1950   */\n      0x00\n        /* \"#utility.yul\":1968:2035   */\n      tag_73\n        /* \"#utility.yul\":2032:2034   */\n      0x16\n        /* \"#utility.yul\":2027:2030   */\n      dup4\n        /* \"#utility.yul\":1968:2035   */\n      tag_43\n      jump\t// in\n    tag_73:\n        /* \"#utility.yul\":1961:2035   */\n      swap2\n      pop\n        /* \"#utility.yul\":2044:2137   */\n      tag_74\n        /* \"#utility.yul\":2133:2136   */\n      dup3\n        /* \"#utility.yul\":2044:2137   */\n      tag_44\n      jump\t// in\n    tag_74:\n        /* \"#utility.yul\":2162:2164   */\n      0x20\n        /* \"#utility.yul\":2157:2160   */\n      dup3\n        /* \"#utility.yul\":2153:2165   */\n      add\n        /* \"#utility.yul\":2146:2165   */\n      swap1\n      pop\n        /* \"#utility.yul\":1805:2171   */\n      swap2\n      swap1\n      pop\n      jump\t// out\n        /* \"#utility.yul\":2177:2596   */\n    tag_18:\n        /* \"#utility.yul\":2343:2347   */\n      0x00\n        /* \"#utility.yul\":2381:2383   */\n      0x20\n        /* \"#utility.yul\":2370:2379   */\n      dup3\n        /* \"#utility.yul\":2366:2384   */\n      add\n        /* \"#utility.yul\":2358:2384   */\n      swap1\n      pop\n        /* \"#utility.yul\":2430:2439   */\n      dup2\n        /* \"#utility.yul\":2424:2428   */\n      dup2\n        /* \"#utility.yul\":2420:2440   */\n      sub\n        /* \"#utility.yul\":2416:2417   */\n      0x00\n        /* \"#utility.yul\":2405:2414   */\n      dup4\n        /* \"#utility.yul\":2401:2418   */\n      add\n        /* \"#utility.yul\":2394:2441   */\n      mstore\n        /* \"#utility.yul\":2458:2589   */\n      tag_76\n        /* \"#utility.yul\":2584:2588   */\n      dup2\n        /* \"#utility.yul\":2458:2589   */\n      tag_45\n      jump\t// in\n    tag_76:\n        /* \"#utility.yul\":2450:2589   */\n      swap1\n      pop\n        /* \"#utility.yul\":2177:2596   */\n      swap2\n      swap1\n      pop\n      jump\t// out\n        /* \"#utility.yul\":2602:2782   */\n    tag_46:\n        /* \"#utility.yul\":2650:2727   */\n      0x4e487b7100000000000000000000000000000000000000000000000000000000\n        /* \"#utility.yul\":2647:2648   */\n      0x00\n        /* \"#utility.yul\":2640:2728   */\n      mstore\n        /* \"#utility.yul\":2747:2751   */\n      0x12\n        /* \"#utility.yul\":2744:2745   */\n      0x04\n        /* \"#utility.yul\":2737:2752   */\n      mstore\n        /* \"#utility.yul\":2771:2775   */\n      0x24\n        /* \"#utility.yul\":2768:2769   */\n      0x00\n        /* \"#utility.yul\":2761:2776   */\n      revert\n        /* \"#utility.yul\":2788:2964   */\n    tag_21:\n        /* \"#utility.yul\":2820:2821   */\n      0x00\n        /* \"#utility.yul\":2837:2857   */\n      tag_79\n        /* \"#utility.yul\":2855:2856   */\n      dup3\n        /* \"#utility.yul\":2837:2857   */\n      tag_38\n      jump\t// in\n    tag_79:\n        /* \"#utility.yul\":2832:2857   */\n      swap2\n      pop\n        /* \"#utility.yul\":2871:2891   */\n      tag_80\n        /* \"#utility.yul\":2889:2890   */\n      dup4\n        /* \"#utility.yul\":2871:2891   */\n      tag_38\n      jump\t// in\n    tag_80:\n        /* \"#utility.yul\":2866:2891   */\n      swap3\n      pop\n        /* \"#utility.yul\":2910:2911   */\n      dup3\n        /* \"#utility.yul\":2900:2935   */\n      tag_81\n      jumpi\n        /* \"#utility.yul\":2915:2933   */\n      tag_82\n      tag_46\n      jump\t// in\n    tag_82:\n        /* \"#utility.yul\":2900:2935   */\n    tag_81:\n        /* \"#utility.yul\":2956:2957   */\n      dup3\n        /* \"#utility.yul\":2953:2954   */\n      dup3\n        /* \"#utility.yul\":2949:2958   */\n      mod\n        /* \"#utility.yul\":2944:2958   */\n      swap1\n      pop\n        /* \"#utility.yul\":2788:2964   */\n      swap3\n      swap2\n      pop\n      pop\n      jump\t// out\n        /* \"#utility.yul\":2970:3143   */\n    tag_47:\n        /* \"#utility.yul\":3110:3135   */\n      0x54686520476976656e206e756d626572206973206f6464000000000000000000\n        /* \"#utility.yul\":3106:3107   */\n      0x00\n        /* \"#utility.yul\":3098:3104   */\n      dup3\n        /* \"#utility.yul\":3094:3108   */\n      add\n        /* \"#utility.yul\":3087:3136   */\n      mstore\n        /* \"#utility.yul\":2970:3143   */\n      pop\n      jump\t// out\n        /* \"#utility.yul\":3149:3515   */\n    tag_48:\n        /* \"#utility.yul\":3291:3294   */\n      0x00\n        /* \"#utility.yul\":3312:3379   */\n      tag_85\n        /* \"#utility.yul\":3376:3378   */\n      0x17\n        /* \"#utility.yul\":3371:3374   */\n      dup4\n        /* \"#utility.yul\":3312:3379   */\n      tag_43\n      jump\t// in\n    tag_85:\n        /* \"#utility.yul\":3305:3379   */\n      swap2\n      pop\n        /* \"#utility.yul\":3388:3481   */\n      tag_86\n        /* \"#utility.yul\":3477:3480   */\n      dup3\n        /* \"#utility.yul\":3388:3481   */\n      tag_47\n      jump\t// in\n    tag_86:\n        /* \"#utility.yul\":3506:3508   */\n      0x20\n        /* \"#utility.yul\":3501:3504   */\n      dup3\n        /* \"#utility.yul\":3497:3509   */\n      add\n        /* \"#utility.yul\":3490:3509   */\n      swap1\n      pop\n        /* \"#utility.yul\":3149:3515   */\n      swap2\n      swap1\n      pop\n      jump\t// out\n        /* \"#utility.yul\":3521:3940   */\n    tag_25:\n        /* \"#utility.yul\":3687:3691   */\n      0x00\n        /* \"#utility.yul\":3725:3727   */\n      0x20\n        /* \"#utility.yul\":3714:3723   */\n      dup3\n        /* \"#utility.yul\":3710:3728   */\n      add\n        /* \"#utility.yul\":3702:3728   */\n      swap1\n      pop\n        /* \"#utility.yul\":3774:3783   */\n      dup2\n        /* \"#utility.yul\":3768:3772   */\n      dup2\n        /* \"#utility.yul\":3764:3784   */\n      sub\n        /* \"#utility.yul\":3760:3761   */\n      0x00\n        /* \"#utility.yul\":3749:3758   */\n      dup4\n        /* \"#utility.yul\":3745:3762   */\n      add\n        /* \"#utility.yul\":3738:3785   */\n      mstore\n        /* \"#utility.yul\":3802:3933   */\n      tag_88\n        /* \"#utility.yul\":3928:3932   */\n      dup2\n        /* \"#utility.yul\":3802:3933   */\n      tag_48\n      jump\t// in\n    tag_88:\n        /* \"#utility.yul\":3794:3933   */\n      swap1\n      pop\n        /* \"#utility.yul\":3521:3940   */\n      swap2\n      swap1\n      pop\n      jump\t// out\n        /* \"#utility.yul\":3946:4120   */\n    tag_49:\n        /* \"#utility.yul\":4086:4112   */\n      0x54686520676976656e206e756d626572206973206576656e0000000000000000\n        /* \"#utility.yul\":4082:4083   */\n      0x00\n        /* \"#utility.yul\":4074:4080   */\n      dup3\n        /* \"#utility.yul\":4070:4084   */\n      add\n        /* \"#utility.yul\":4063:4113   */\n      mstore\n        /* \"#utility.yul\":3946:4120   */\n      pop\n      jump\t// out\n        /* \"#utility.yul\":4126:4492   */\n    tag_50:\n        /* \"#utility.yul\":4268:4271   */\n      0x00\n        /* \"#utility.yul\":4289:4356   */\n      tag_91\n        /* \"#utility.yul\":4353:4355   */\n      0x18\n        /* \"#utility.yul\":4348:4351   */\n      dup4\n        /* \"#utility.yul\":4289:4356   */\n      tag_43\n      jump\t// in\n    tag_91:\n        /* \"#utility.yul\":4282:4356   */\n      swap2\n      pop\n        /* \"#utility.yul\":4365:4458   */\n      tag_92\n        /* \"#utility.yul\":4454:4457   */\n      dup3\n        /* \"#utility.yul\":4365:4458   */\n      tag_49\n      jump\t// in\n    tag_92:\n        /* \"#utility.yul\":4483:4485   */\n      0x20\n        /* \"#utility.yul\":4478:4481   */\n      dup3\n        /* \"#utility.yul\":4474:4486   */\n      add\n        /* \"#utility.yul\":4467:4486   */\n      swap1\n      pop\n        /* \"#utility.yul\":4126:4492   */\n      swap2\n      swap1\n      pop\n      jump\t// out\n        /* \"#utility.yul\":4498:4917   */\n    tag_34:\n        /* \"#utility.yul\":4664:4668   */\n      0x00\n        /* \"#utility.yul\":4702:4704   */\n      0x20\n        /* \"#utility.yul\":4691:4700   */\n      dup3\n        /* \"#utility.yul\":4687:4705   */\n      add\n        /* \"#utility.yul\":4679:4705   */\n      swap1\n      pop\n        /* \"#utility.yul\":4751:4760   */\n      dup2\n        /* \"#utility.yul\":4745:4749   */\n      dup2\n        /* \"#utility.yul\":4741:4761   */\n      sub\n        /* \"#utility.yul\":4737:4738   */\n      0x00\n        /* \"#utility.yul\":4726:4735   */\n      dup4\n        /* \"#utility.yul\":4722:4739   */\n      add\n        /* \"#utility.yul\":4715:4762   */\n      mstore\n        /* \"#utility.yul\":4779:4910   */\n      tag_94\n        /* \"#utility.yul\":4905:4909   */\n      dup2\n        /* \"#utility.yul\":4779:4910   */\n      tag_50\n      jump\t// in\n    tag_94:\n        /* \"#utility.yul\":4771:4910   */\n      swap1\n      pop\n        /* \"#utility.yul\":4498:4917   */\n      swap2\n      swap1\n      pop\n      jump\t// out\n\n    auxdata: 0xa2646970667358221220c102b7e0ed400d9bd1fd102a10bb8862c9c7c42025b71ff4b524715d61ace6b964736f6c63430008160033\n}\n",
				"bytecode": {
					"linkReferences": {},
					"object": "608060405234801561000f575f80fd5b5061044c8061001d5f395ff3fe608060405234801561000f575f80fd5b5060043610610034575f3560e01c80636ffb5c0a14610038578063bf02436514610068575b5f80fd5b610052600480360381019061004d9190610213565b610098565b60405161005f9190610258565b60405180910390f35b610082600480360381019061007d9190610213565b61013a565b60405161008f9190610258565b60405180910390f35b5f81606481106100dd576040517f08c379a00000000000000000000000000000000000000000000000000000000081526004016100d4906102cb565b60405180910390fd5b5f6002846100eb9190610316565b036100f95760019150610134565b6040517f08c379a000000000000000000000000000000000000000000000000000000000815260040161012b90610390565b60405180910390fd5b50919050565b5f816064811061017f576040517f08c379a0000000000000000000000000000000000000000000000000000000008152600401610176906102cb565b60405180910390fd5b5f60028461018d9190610316565b1461019b57600191506101d6565b6040517f08c379a00000000000000000000000000000000000000000000000000000000081526004016101cd906103f8565b60405180910390fd5b50919050565b5f80fd5b5f819050919050565b6101f2816101e0565b81146101fc575f80fd5b50565b5f8135905061020d816101e9565b92915050565b5f60208284031215610228576102276101dc565b5b5f610235848285016101ff565b91505092915050565b5f8115159050919050565b6102528161023e565b82525050565b5f60208201905061026b5f830184610249565b92915050565b5f82825260208201905092915050565b7f54686520476976656e2069732061626f766520313030000000000000000000005f82015250565b5f6102b5601683610271565b91506102c082610281565b602082019050919050565b5f6020820190508181035f8301526102e2816102a9565b9050919050565b7f4e487b71000000000000000000000000000000000000000000000000000000005f52601260045260245ffd5b5f610320826101e0565b915061032b836101e0565b92508261033b5761033a6102e9565b5b828206905092915050565b7f54686520476976656e206e756d626572206973206f64640000000000000000005f82015250565b5f61037a601783610271565b915061038582610346565b602082019050919050565b5f6020820190508181035f8301526103a78161036e565b9050919050565b7f54686520676976656e206e756d626572206973206576656e00000000000000005f82015250565b5f6103e2601883610271565b91506103ed826103ae565b602082019050919050565b5f6020820190508181035f83015261040f816103d6565b905091905056fea2646970667358221220c102b7e0ed400d9bd1fd102a10bb8862c9c7c42025b71ff4b524715d61ace6b964736f6c63430008160033",
					"opcodes": "PUSH1 0x80 PUSH1 0x40 MSTORE CALLVALUE DUP1 ISZERO PUSH2 0xF JUMPI PUSH0 DUP1 REVERT JUMPDEST POP PUSH2 0x44C DUP1 PUSH2 0x1D PUSH0 CODECOPY PUSH0 RETURN INVALID PUSH1 0x80 PUSH1 0x40 MSTORE CALLVALUE DUP1 ISZERO PUSH2 0xF JUMPI PUSH0 DUP1 REVERT JUMPDEST POP PUSH1 0x4 CALLDATASIZE LT PUSH2 0x34 JUMPI PUSH0 CALLDATALOAD PUSH1 0xE0 SHR DUP1 PUSH4 0x6FFB5C0A EQ PUSH2 0x38 JUMPI DUP1 PUSH4 0xBF024365 EQ PUSH2 0x68 JUMPI JUMPDEST PUSH0 DUP1 REVERT JUMPDEST PUSH2 0x52 PUSH1 0x4 DUP1 CALLDATASIZE SUB DUP2 ADD SWAP1 PUSH2 0x4D SWAP2 SWAP1 PUSH2 0x213 JUMP JUMPDEST PUSH2 0x98 JUMP JUMPDEST PUSH1 0x40 MLOAD PUSH2 0x5F SWAP2 SWAP1 PUSH2 0x258 JUMP JUMPDEST PUSH1 0x40 MLOAD DUP1 SWAP2 SUB SWAP1 RETURN JUMPDEST PUSH2 0x82 PUSH1 0x4 DUP1 CALLDATASIZE SUB DUP2 ADD SWAP1 PUSH2 0x7D SWAP2 SWAP1 PUSH2 0x213 JUMP JUMPDEST PUSH2 0x13A JUMP JUMPDEST PUSH1 0x40 MLOAD PUSH2 0x8F SWAP2 SWAP1 PUSH2 0x258 JUMP JUMPDEST PUSH1 0x40 MLOAD DUP1 SWAP2 SUB SWAP1 RETURN JUMPDEST PUSH0 DUP2 PUSH1 0x64 DUP2 LT PUSH2 0xDD JUMPI PUSH1 0x40 MLOAD PUSH32 0x8C379A000000000000000000000000000000000000000000000000000000000 DUP2 MSTORE PUSH1 0x4 ADD PUSH2 0xD4 SWAP1 PUSH2 0x2CB JUMP JUMPDEST PUSH1 0x40 MLOAD DUP1 SWAP2 SUB SWAP1 REVERT JUMPDEST PUSH0 PUSH1 0x2 DUP5 PUSH2 0xEB SWAP2 SWAP1 PUSH2 0x316 JUMP JUMPDEST SUB PUSH2 0xF9 JUMPI PUSH1 0x1 SWAP2 POP PUSH2 0x134 JUMP JUMPDEST PUSH1 0x40 MLOAD PUSH32 0x8C379A000000000000000000000000000000000000000000000000000000000 DUP2 MSTORE PUSH1 0x4 ADD PUSH2 0x12B SWAP1 PUSH2 0x390 JUMP JUMPDEST PUSH1 0x40 MLOAD DUP1 SWAP2 SUB SWAP1 REVERT JUMPDEST POP SWAP2 SWAP1 POP JUMP JUMPDEST PUSH0 DUP2 PUSH1 0x64 DUP2 LT PUSH2 0x17F JUMPI PUSH1 0x40 MLOAD PUSH32 0x8C379A000000000000000000000000000000000000000000000000000000000 DUP2 MSTORE PUSH1 0x4 ADD PUSH2 0x176 SWAP1 PUSH2 0x2CB JUMP JUMPDEST PUSH1 0x40 MLOAD DUP1 SWAP2 SUB SWAP1 REVERT JUMPDEST PUSH0 PUSH1 0x2 DUP5 PUSH2 0x18D SWAP2 SWAP1 PUSH2 0x316 JUMP JUMPDEST EQ PUSH2 0x19B JUMPI PUSH1 0x1 SWAP2 POP PUSH2 0x1D6 JUMP JUMPDEST PUSH1 0x40 MLOAD PUSH32 0x8C379A000000000000000000000000000000000000000000000000000000000 DUP2 MSTORE PUSH1 0x4 ADD PUSH2 0x1CD SWAP1 PUSH2 0x3F8 JUMP JUMPDEST PUSH1 0x40 MLOAD DUP1 SWAP2 SUB SWAP1 REVERT JUMPDEST POP SWAP2 SWAP1 POP JUMP JUMPDEST PUSH0 DUP1 REVERT JUMPDEST PUSH0 DUP2 SWAP1 POP SWAP2 SWAP1 POP JUMP JUMPDEST PUSH2 0x1F2 DUP2 PUSH2 0x1E0 JUMP JUMPDEST DUP2 EQ PUSH2 0x1FC JUMPI PUSH0 DUP1 REVERT JUMPDEST POP JUMP JUMPDEST PUSH0 DUP2 CALLDATALOAD SWAP1 POP PUSH2 0x20D DUP2 PUSH2 0x1E9 JUMP JUMPDEST SWAP3 SWAP2 POP POP JUMP JUMPDEST PUSH0 PUSH1 0x20 DUP3 DUP5 SUB SLT ISZERO PUSH2 0x228 JUMPI PUSH2 0x227 PUSH2 0x1DC JUMP JUMPDEST JUMPDEST PUSH0 PUSH2 0x235 DUP5 DUP3 DUP6 ADD PUSH2 0x1FF JUMP JUMPDEST SWAP2 POP POP SWAP3 SWAP2 POP POP JUMP JUMPDEST PUSH0 DUP2 ISZERO ISZERO SWAP1 POP SWAP2 SWAP1 POP JUMP JUMPDEST PUSH2 0x252 DUP2 PUSH2 0x23E JUMP JUMPDEST DUP3 MSTORE POP POP JUMP JUMPDEST PUSH0 PUSH1 0x20 DUP3 ADD SWAP1 POP PUSH2 0x26B PUSH0 DUP4 ADD DUP5 PUSH2 0x249 JUMP JUMPDEST SWAP3 SWAP2 POP POP JUMP JUMPDEST PUSH0 DUP3 DUP3 MSTORE PUSH1 0x20 DUP3 ADD SWAP1 POP SWAP3 SWAP2 POP POP JUMP JUMPDEST PUSH32 0x54686520476976656E2069732061626F76652031303000000000000000000000 PUSH0 DUP3 ADD MSTORE POP JUMP JUMPDEST PUSH0 PUSH2 0x2B5 PUSH1 0x16 DUP4 PUSH2 0x271 JUMP JUMPDEST SWAP2 POP PUSH2 0x2C0 DUP3 PUSH2 0x281 JUMP JUMPDEST PUSH1 0x20 DUP3 ADD SWAP1 POP SWAP2 SWAP1 POP JUMP JUMPDEST PUSH0 PUSH1 0x20 DUP3 ADD SWAP1 POP DUP2 DUP2 SUB PUSH0 DUP4 ADD MSTORE PUSH2 0x2E2 DUP2 PUSH2 0x2A9 JUMP JUMPDEST SWAP1 POP SWAP2 SWAP1 POP JUMP JUMPDEST PUSH32 0x4E487B7100000000000000000000000000000000000000000000000000000000 PUSH0 MSTORE PUSH1 0x12 PUSH1 0x4 MSTORE PUSH1 0x24 PUSH0 REVERT JUMPDEST PUSH0 PUSH2 0x320 DUP3 PUSH2 0x1E0 JUMP JUMPDEST SWAP2 POP PUSH2 0x32B DUP4 PUSH2 0x1E0 JUMP JUMPDEST SWAP3 POP DUP3 PUSH2 0x33B JUMPI PUSH2 0x33A PUSH2 0x2E9 JUMP JUMPDEST JUMPDEST DUP3 DUP3 MOD SWAP1 POP SWAP3 SWAP2 POP POP JUMP JUMPDEST PUSH32 0x54686520476976656E206E756D626572206973206F6464000000000000000000 PUSH0 DUP3 ADD MSTORE POP JUMP JUMPDEST PUSH0 PUSH2 0x37A PUSH1 0x17 DUP4 PUSH2 0x271 JUMP JUMPDEST SWAP2 POP PUSH2 0x385 DUP3 PUSH2 0x346 JUMP JUMPDEST PUSH1 0x20 DUP3 ADD SWAP1 POP SWAP2 SWAP1 POP JUMP JUMPDEST PUSH0 PUSH1 0x20 DUP3 ADD SWAP1 POP DUP2 DUP2 SUB PUSH0 DUP4 ADD MSTORE PUSH2 0x3A7 DUP2 PUSH2 0x36E JUMP JUMPDEST SWAP1 POP SWAP2 SWAP1 POP JUMP JUMPDEST PUSH32 0x54686520676976656E206E756D626572206973206576656E0000000000000000 PUSH0 DUP3 ADD MSTORE POP JUMP JUMPDEST PUSH0 PUSH2 0x3E2 PUSH1 0x18 DUP4 PUSH2 0x271 JUMP JUMPDEST SWAP2 POP PUSH2 0x3ED DUP3 PUSH2 0x3AE JUMP JUMPDEST PUSH1 0x20 DUP3 ADD SWAP1 POP SWAP2 SWAP1 POP JUMP JUMPDEST PUSH0 PUSH1 0x20 DUP3 ADD SWAP1 POP DUP2 DUP2 SUB PUSH0 DUP4 ADD MSTORE PUSH2 0x40F DUP2 PUSH2 0x3D6 JUMP JUMPDEST SWAP1 POP SWAP2 SWAP1 POP JUMP INVALID LOG2 PUSH5 0x6970667358 0x22 SLT KECCAK256 0xC1 MUL 0xB7 0xE0 0xED BLOCKHASH 0xD SWAP12 0xD1 REVERT LT 0x2A LT 0xBB DUP9 PUSH3 0xC9C7C4 KECCAK256 0x25 0xB7 0x1F DELEGATECALL 0xB5 0x24 PUSH18 0x5D61ACE6B964736F6C634300081600330000 "
				},
				"gasEstimates": {
					"creation": {
						"codeDepositCost": "220000",
						"executionCost": "261",
						"totalCost": "220261"
					},
					"external": {
						"checkEven(uint256)": "infinite",
						"checkOdd(uint256)": "infinite"
					}
				},
				"methodIdentifiers": {
					"checkEven(uint256)": "6ffb5c0a",
					"checkOdd(uint256)": "bf024365"
				}
			},
			"storageLayout": {
				"storage": [],
				"types": null
			},
			"userdoc": {
				"kind": "user",
				"methods": {},
				"version": 1
			}
		}
	}
}