{
	"contracts/16_fixed_arrays.sol": {
		"fixed_array": {
			"abi": [
				{
					"inputs": [],
					"name": "getter",
					"outputs": [
						{
							"internalType": "uint256[4]",
							"name": "",
							"type": "uint256[4]"
						}
					],
					"stateMutability": "view",
					"type": "function"
				},
				{
					"inputs": [
						{
							"internalType": "uint256",
							"name": "_index",
							"type": "uint256"
						},
						{
							"internalType": "uint256",
							"name": "_value",
							"type": "uint256"
						}
					],
					"name": "setter",
					"outputs": [],
					"stateMutability": "nonpayable",
					"type": "function"
				}
			],
			"devdoc": {
				"kind": "dev",
				"methods": {},
				"version": 1
			},
			"evm": {
				"assembly": "    /* \"contracts/16_fixed_arrays.sol\":74:330  contract fixed_array {... */\n  mstore(0x40, 0x80)\n    /* \"contracts/16_fixed_arrays.sol\":102:134  uint[4] myArr = [10, 20, 30, 40] */\n  mload(0x40)\n  dup1\n  0x80\n  add\n  0x40\n  mstore\n  dup1\n    /* \"contracts/16_fixed_arrays.sol\":119:121  10 */\n  0x0a\n    /* \"contracts/16_fixed_arrays.sol\":102:134  uint[4] myArr = [10, 20, 30, 40] */\n  0xff\n  and\n  dup2\n  mstore\n  0x20\n  add\n    /* \"contracts/16_fixed_arrays.sol\":123:125  20 */\n  0x14\n    /* \"contracts/16_fixed_arrays.sol\":102:134  uint[4] myArr = [10, 20, 30, 40] */\n  0xff\n  and\n  dup2\n  mstore\n  0x20\n  add\n    /* \"contracts/16_fixed_arrays.sol\":127:129  30 */\n  0x1e\n    /* \"contracts/16_fixed_arrays.sol\":102:134  uint[4] myArr = [10, 20, 30, 40] */\n  0xff\n  and\n  dup2\n  mstore\n  0x20\n  add\n    /* \"contracts/16_fixed_arrays.sol\":131:133  40 */\n  0x28\n    /* \"contracts/16_fixed_arrays.sol\":102:134  uint[4] myArr = [10, 20, 30, 40] */\n  0xff\n  and\n  dup2\n  mstore\n  pop\n  0x00\n  swap1\n  0x04\n  tag_1\n  swap3\n  swap2\n  swap1\n  tag_2\n  jump\t// in\ntag_1:\n  pop\n    /* \"contracts/16_fixed_arrays.sol\":74:330  contract fixed_array {... */\n  callvalue\n  dup1\n  iszero\n  tag_3\n  jumpi\n  0x00\n  dup1\n  revert\ntag_3:\n  pop\n  jump(tag_4)\ntag_2:\n  dup3\n  0x04\n  dup2\n  add\n  swap3\n  dup3\n  iszero\n  tag_5\n  jumpi\n  swap2\n  0x20\n  mul\n  dup3\n  add\ntag_6:\n  dup3\n  dup2\n  gt\n  iszero\n  tag_7\n  jumpi\n  dup3\n  mload\n  dup3\n  swap1\n  0xff\n  and\n  swap1\n  sstore\n  swap2\n  0x20\n  add\n  swap2\n  swap1\n  0x01\n  add\n  swap1\n  jump(tag_6)\ntag_7:\ntag_5:\n  pop\n  swap1\n  pop\n  tag_8\n  swap2\n  swap1\n  tag_9\n  jump\t// in\ntag_8:\n  pop\n  swap1\n  jump\t// out\ntag_9:\ntag_10:\n  dup1\n  dup3\n  gt\n  iszero\n  tag_11\n  jumpi\n  0x00\n  dup2\n  0x00\n  swap1\n  sstore\n  pop\n  0x01\n  add\n  jump(tag_10)\ntag_11:\n  pop\n  swap1\n  jump\t// out\ntag_4:\n  dataSize(sub_0)\n  dup1\n  dataOffset(sub_0)\n  0x00\n  codecopy\n  0x00\n  return\nstop\n\nsub_0: assembly {\n        /* \"contracts/16_fixed_arrays.sol\":74:330  contract fixed_array {... */\n      mstore(0x40, 0x80)\n      callvalue\n      dup1\n      iszero\n      tag_1\n      jumpi\n      0x00\n      dup1\n      revert\n    tag_1:\n      pop\n      jumpi(tag_2, lt(calldatasize, 0x04))\n      shr(0xe0, calldataload(0x00))\n      dup1\n      0x5298f36d\n      eq\n      tag_3\n      jumpi\n      dup1\n      0x993a04b7\n      eq\n      tag_4\n      jumpi\n    tag_2:\n      0x00\n      dup1\n      revert\n        /* \"contracts/16_fixed_arrays.sol\":237:327  function setter(uint _index, uint _value) public {... */\n    tag_3:\n      tag_5\n      0x04\n      dup1\n      calldatasize\n      sub\n      dup2\n      add\n      swap1\n      tag_6\n      swap2\n      swap1\n      tag_7\n      jump\t// in\n    tag_6:\n      tag_8\n      jump\t// in\n    tag_5:\n      stop\n        /* \"contracts/16_fixed_arrays.sol\":143:229  function getter() public view returns (uint[4] memory) {... */\n    tag_4:\n      tag_9\n      tag_10\n      jump\t// in\n    tag_9:\n      mload(0x40)\n      tag_11\n      swap2\n      swap1\n      tag_12\n      jump\t// in\n    tag_11:\n      mload(0x40)\n      dup1\n      swap2\n      sub\n      swap1\n      return\n        /* \"contracts/16_fixed_arrays.sol\":237:327  function setter(uint _index, uint _value) public {... */\n    tag_8:\n        /* \"contracts/16_fixed_arrays.sol\":313:319  _value */\n      dup1\n        /* \"contracts/16_fixed_arrays.sol\":297:302  myArr */\n      0x00\n        /* \"contracts/16_fixed_arrays.sol\":303:309  _index */\n      dup4\n        /* \"contracts/16_fixed_arrays.sol\":297:310  myArr[_index] */\n      0x04\n      dup2\n      lt\n      tag_14\n      jumpi\n      tag_15\n      tag_16\n      jump\t// in\n    tag_15:\n    tag_14:\n      add\n        /* \"contracts/16_fixed_arrays.sol\":297:319  myArr[_index] = _value */\n      dup2\n      swap1\n      sstore\n      pop\n        /* \"contracts/16_fixed_arrays.sol\":237:327  function setter(uint _index, uint _value) public {... */\n      pop\n      pop\n      jump\t// out\n        /* \"contracts/16_fixed_arrays.sol\":143:229  function getter() public view returns (uint[4] memory) {... */\n    tag_10:\n        /* \"contracts/16_fixed_arrays.sol\":182:196  uint[4] memory */\n      tag_18\n      tag_19\n      jump\t// in\n    tag_18:\n        /* \"contracts/16_fixed_arrays.sol\":216:221  myArr */\n      0x00\n        /* \"contracts/16_fixed_arrays.sol\":209:221  return myArr */\n      0x04\n      dup1\n      0x20\n      mul\n      mload(0x40)\n      swap1\n      dup2\n      add\n      0x40\n      mstore\n      dup1\n      swap3\n      swap2\n      swap1\n      dup3\n      0x04\n      dup1\n      iszero\n      tag_21\n      jumpi\n      0x20\n      mul\n      dup3\n      add\n      swap2\n    tag_22:\n      dup2\n      sload\n      dup2\n      mstore\n      0x20\n      add\n      swap1\n      0x01\n      add\n      swap1\n      dup1\n      dup4\n      gt\n      tag_22\n      jumpi\n    tag_21:\n      pop\n      pop\n      pop\n      pop\n      pop\n      swap1\n      pop\n        /* \"contracts/16_fixed_arrays.sol\":143:229  function getter() public view returns (uint[4] memory) {... */\n      swap1\n      jump\t// out\n    tag_19:\n      mload(0x40)\n      dup1\n      0x80\n      add\n      0x40\n      mstore\n      dup1\n      0x04\n      swap1\n      0x20\n      dup3\n      mul\n      dup1\n      calldatasize\n      dup4\n      calldatacopy\n      dup1\n      dup3\n      add\n      swap2\n      pop\n      pop\n      swap1\n      pop\n      pop\n      swap1\n      jump\t// out\n        /* \"#utility.yul\":88:205   */\n    tag_24:\n        /* \"#utility.yul\":197:198   */\n      0x00\n        /* \"#utility.yul\":194:195   */\n      dup1\n        /* \"#utility.yul\":187:199   */\n      revert\n        /* \"#utility.yul\":334:411   */\n    tag_26:\n        /* \"#utility.yul\":371:378   */\n      0x00\n        /* \"#utility.yul\":400:405   */\n      dup2\n        /* \"#utility.yul\":389:405   */\n      swap1\n      pop\n        /* \"#utility.yul\":334:411   */\n      swap2\n      swap1\n      pop\n      jump\t// out\n        /* \"#utility.yul\":417:539   */\n    tag_27:\n        /* \"#utility.yul\":490:514   */\n      tag_42\n        /* \"#utility.yul\":508:513   */\n      dup2\n        /* \"#utility.yul\":490:514   */\n      tag_26\n      jump\t// in\n    tag_42:\n        /* \"#utility.yul\":483:488   */\n      dup2\n        /* \"#utility.yul\":480:515   */\n      eq\n        /* \"#utility.yul\":470:533   */\n      tag_43\n      jumpi\n        /* \"#utility.yul\":529:530   */\n      0x00\n        /* \"#utility.yul\":526:527   */\n      dup1\n        /* \"#utility.yul\":519:531   */\n      revert\n        /* \"#utility.yul\":470:533   */\n    tag_43:\n        /* \"#utility.yul\":417:539   */\n      pop\n      jump\t// out\n        /* \"#utility.yul\":545:684   */\n    tag_28:\n        /* \"#utility.yul\":591:596   */\n      0x00\n        /* \"#utility.yul\":629:635   */\n      dup2\n        /* \"#utility.yul\":616:636   */\n      calldataload\n        /* \"#utility.yul\":607:636   */\n      swap1\n      pop\n        /* \"#utility.yul\":645:678   */\n      tag_45\n        /* \"#utility.yul\":672:677   */\n      dup2\n        /* \"#utility.yul\":645:678   */\n      tag_27\n      jump\t// in\n    tag_45:\n        /* \"#utility.yul\":545:684   */\n      swap3\n      swap2\n      pop\n      pop\n      jump\t// out\n        /* \"#utility.yul\":690:1164   */\n    tag_7:\n        /* \"#utility.yul\":758:764   */\n      0x00\n        /* \"#utility.yul\":766:772   */\n      dup1\n        /* \"#utility.yul\":815:817   */\n      0x40\n        /* \"#utility.yul\":803:812   */\n      dup4\n        /* \"#utility.yul\":794:801   */\n      dup6\n        /* \"#utility.yul\":790:813   */\n      sub\n        /* \"#utility.yul\":786:818   */\n      slt\n        /* \"#utility.yul\":783:902   */\n      iszero\n      tag_47\n      jumpi\n        /* \"#utility.yul\":821:900   */\n      tag_48\n      tag_24\n      jump\t// in\n    tag_48:\n        /* \"#utility.yul\":783:902   */\n    tag_47:\n        /* \"#utility.yul\":941:942   */\n      0x00\n        /* \"#utility.yul\":966:1019   */\n      tag_49\n        /* \"#utility.yul\":1011:1018   */\n      dup6\n        /* \"#utility.yul\":1002:1008   */\n      dup3\n        /* \"#utility.yul\":991:1000   */\n      dup7\n        /* \"#utility.yul\":987:1009   */\n      add\n        /* \"#utility.yul\":966:1019   */\n      tag_28\n      jump\t// in\n    tag_49:\n        /* \"#utility.yul\":956:1019   */\n      swap3\n      pop\n        /* \"#utility.yul\":912:1029   */\n      pop\n        /* \"#utility.yul\":1068:1070   */\n      0x20\n        /* \"#utility.yul\":1094:1147   */\n      tag_50\n        /* \"#utility.yul\":1139:1146   */\n      dup6\n        /* \"#utility.yul\":1130:1136   */\n      dup3\n        /* \"#utility.yul\":1119:1128   */\n      dup7\n        /* \"#utility.yul\":1115:1137   */\n      add\n        /* \"#utility.yul\":1094:1147   */\n      tag_28\n      jump\t// in\n    tag_50:\n        /* \"#utility.yul\":1084:1147   */\n      swap2\n      pop\n        /* \"#utility.yul\":1039:1157   */\n      pop\n        /* \"#utility.yul\":690:1164   */\n      swap3\n      pop\n      swap3\n      swap1\n      pop\n      jump\t// out\n        /* \"#utility.yul\":1170:1274   */\n    tag_29:\n        /* \"#utility.yul\":1235:1241   */\n      0x00\n        /* \"#utility.yul\":1263:1267   */\n      0x04\n        /* \"#utility.yul\":1253:1267   */\n      swap1\n      pop\n        /* \"#utility.yul\":1170:1274   */\n      swap2\n      swap1\n      pop\n      jump\t// out\n        /* \"#utility.yul\":1280:1423   */\n    tag_30:\n        /* \"#utility.yul\":1377:1388   */\n      0x00\n        /* \"#utility.yul\":1414:1417   */\n      dup2\n        /* \"#utility.yul\":1399:1417   */\n      swap1\n      pop\n        /* \"#utility.yul\":1280:1423   */\n      swap3\n      swap2\n      pop\n      pop\n      jump\t// out\n        /* \"#utility.yul\":1429:1527   */\n    tag_31:\n        /* \"#utility.yul\":1494:1498   */\n      0x00\n        /* \"#utility.yul\":1517:1520   */\n      dup2\n        /* \"#utility.yul\":1509:1520   */\n      swap1\n      pop\n        /* \"#utility.yul\":1429:1527   */\n      swap2\n      swap1\n      pop\n      jump\t// out\n        /* \"#utility.yul\":1533:1641   */\n    tag_32:\n        /* \"#utility.yul\":1610:1634   */\n      tag_55\n        /* \"#utility.yul\":1628:1633   */\n      dup2\n        /* \"#utility.yul\":1610:1634   */\n      tag_26\n      jump\t// in\n    tag_55:\n        /* \"#utility.yul\":1605:1608   */\n      dup3\n        /* \"#utility.yul\":1598:1635   */\n      mstore\n        /* \"#utility.yul\":1533:1641   */\n      pop\n      pop\n      jump\t// out\n        /* \"#utility.yul\":1647:1826   */\n    tag_33:\n        /* \"#utility.yul\":1716:1726   */\n      0x00\n        /* \"#utility.yul\":1737:1783   */\n      tag_57\n        /* \"#utility.yul\":1779:1782   */\n      dup4\n        /* \"#utility.yul\":1771:1777   */\n      dup4\n        /* \"#utility.yul\":1737:1783   */\n      tag_32\n      jump\t// in\n    tag_57:\n        /* \"#utility.yul\":1815:1819   */\n      0x20\n        /* \"#utility.yul\":1810:1813   */\n      dup4\n        /* \"#utility.yul\":1806:1820   */\n      add\n        /* \"#utility.yul\":1792:1820   */\n      swap1\n      pop\n        /* \"#utility.yul\":1647:1826   */\n      swap3\n      swap2\n      pop\n      pop\n      jump\t// out\n        /* \"#utility.yul\":1832:1943   */\n    tag_34:\n        /* \"#utility.yul\":1900:1904   */\n      0x00\n        /* \"#utility.yul\":1932:1936   */\n      0x20\n        /* \"#utility.yul\":1927:1930   */\n      dup3\n        /* \"#utility.yul\":1923:1937   */\n      add\n        /* \"#utility.yul\":1915:1937   */\n      swap1\n      pop\n        /* \"#utility.yul\":1832:1943   */\n      swap2\n      swap1\n      pop\n      jump\t// out\n        /* \"#utility.yul\":1981:2675   */\n    tag_35:\n        /* \"#utility.yul\":2117:2169   */\n      tag_60\n        /* \"#utility.yul\":2163:2168   */\n      dup2\n        /* \"#utility.yul\":2117:2169   */\n      tag_29\n      jump\t// in\n    tag_60:\n        /* \"#utility.yul\":2185:2269   */\n      tag_61\n        /* \"#utility.yul\":2262:2268   */\n      dup2\n        /* \"#utility.yul\":2257:2260   */\n      dup5\n        /* \"#utility.yul\":2185:2269   */\n      tag_30\n      jump\t// in\n    tag_61:\n        /* \"#utility.yul\":2178:2269   */\n      swap3\n      pop\n        /* \"#utility.yul\":2293:2347   */\n      tag_62\n        /* \"#utility.yul\":2341:2346   */\n      dup3\n        /* \"#utility.yul\":2293:2347   */\n      tag_31\n      jump\t// in\n    tag_62:\n        /* \"#utility.yul\":2370:2377   */\n      dup1\n        /* \"#utility.yul\":2401:2402   */\n      0x00\n        /* \"#utility.yul\":2386:2668   */\n    tag_63:\n        /* \"#utility.yul\":2411:2417   */\n      dup4\n        /* \"#utility.yul\":2408:2409   */\n      dup2\n        /* \"#utility.yul\":2405:2418   */\n      lt\n        /* \"#utility.yul\":2386:2668   */\n      iszero\n      tag_65\n      jumpi\n        /* \"#utility.yul\":2487:2493   */\n      dup2\n        /* \"#utility.yul\":2481:2494   */\n      mload\n        /* \"#utility.yul\":2514:2577   */\n      tag_66\n        /* \"#utility.yul\":2573:2576   */\n      dup8\n        /* \"#utility.yul\":2558:2571   */\n      dup3\n        /* \"#utility.yul\":2514:2577   */\n      tag_33\n      jump\t// in\n    tag_66:\n        /* \"#utility.yul\":2507:2577   */\n      swap7\n      pop\n        /* \"#utility.yul\":2600:2658   */\n      tag_67\n        /* \"#utility.yul\":2651:2657   */\n      dup4\n        /* \"#utility.yul\":2600:2658   */\n      tag_34\n      jump\t// in\n    tag_67:\n        /* \"#utility.yul\":2590:2658   */\n      swap3\n      pop\n        /* \"#utility.yul\":2446:2668   */\n      pop\n        /* \"#utility.yul\":2433:2434   */\n      0x01\n        /* \"#utility.yul\":2430:2431   */\n      dup2\n        /* \"#utility.yul\":2426:2435   */\n      add\n        /* \"#utility.yul\":2421:2435   */\n      swap1\n      pop\n        /* \"#utility.yul\":2386:2668   */\n      jump(tag_63)\n    tag_65:\n        /* \"#utility.yul\":2390:2404   */\n      pop\n        /* \"#utility.yul\":2093:2675   */\n      pop\n      pop\n      pop\n        /* \"#utility.yul\":1981:2675   */\n      pop\n      pop\n      jump\t// out\n        /* \"#utility.yul\":2681:2996   */\n    tag_12:\n        /* \"#utility.yul\":2820:2824   */\n      0x00\n        /* \"#utility.yul\":2858:2861   */\n      0x80\n        /* \"#utility.yul\":2847:2856   */\n      dup3\n        /* \"#utility.yul\":2843:2862   */\n      add\n        /* \"#utility.yul\":2835:2862   */\n      swap1\n      pop\n        /* \"#utility.yul\":2872:2989   */\n      tag_69\n        /* \"#utility.yul\":2986:2987   */\n      0x00\n        /* \"#utility.yul\":2975:2984   */\n      dup4\n        /* \"#utility.yul\":2971:2988   */\n      add\n        /* \"#utility.yul\":2962:2968   */\n      dup5\n        /* \"#utility.yul\":2872:2989   */\n      tag_35\n      jump\t// in\n    tag_69:\n        /* \"#utility.yul\":2681:2996   */\n      swap3\n      swap2\n      pop\n      pop\n      jump\t// out\n        /* \"#utility.yul\":3002:3182   */\n    tag_16:\n        /* \"#utility.yul\":3050:3127   */\n      0x4e487b7100000000000000000000000000000000000000000000000000000000\n        /* \"#utility.yul\":3047:3048   */\n      0x00\n        /* \"#utility.yul\":3040:3128   */\n      mstore\n        /* \"#utility.yul\":3147:3151   */\n      0x32\n        /* \"#utility.yul\":3144:3145   */\n      0x04\n        /* \"#utility.yul\":3137:3152   */\n      mstore\n        /* \"#utility.yul\":3171:3175   */\n      0x24\n        /* \"#utility.yul\":3168:3169   */\n      0x00\n        /* \"#utility.yul\":3161:3176   */\n      revert\n\n    auxdata: 0xa2646970667358221220372c29ebc1c21daf94aefb635c6127ee934eed8374253967496155f9eee63a0364736f6c63430008160033\n}\n",
				"bytecode": {
					"linkReferences": {},
					"object": "60806040526040518060800160405280600a60ff168152602001601460ff168152602001601e60ff168152602001602860ff168152505f906004610044929190610056565b50348015610050575f80fd5b506100b6565b826004810192821561008a579160200282015b82811115610089578251829060ff16905591602001919060010190610069565b5b509050610097919061009b565b5090565b5b808211156100b2575f815f90555060010161009c565b5090565b610291806100c35f395ff3fe608060405234801561000f575f80fd5b5060043610610034575f3560e01c80635298f36d14610038578063993a04b714610054575b5f80fd5b610052600480360381019061004d9190610132565b610072565b005b61005c61008f565b6040516100699190610215565b60405180910390f35b805f83600481106100865761008561022e565b5b01819055505050565b6100976100d9565b5f6004806020026040519081016040528092919082600480156100cf576020028201915b8154815260200190600101908083116100bb575b5050505050905090565b6040518060800160405280600490602082028036833780820191505090505090565b5f80fd5b5f819050919050565b610111816100ff565b811461011b575f80fd5b50565b5f8135905061012c81610108565b92915050565b5f8060408385031215610148576101476100fb565b5b5f6101558582860161011e565b92505060206101668582860161011e565b9150509250929050565b5f60049050919050565b5f81905092915050565b5f819050919050565b610196816100ff565b82525050565b5f6101a7838361018d565b60208301905092915050565b5f602082019050919050565b6101c881610170565b6101d2818461017a565b92506101dd82610184565b805f5b8381101561020d5781516101f4878261019c565b96506101ff836101b3565b9250506001810190506101e0565b505050505050565b5f6080820190506102285f8301846101bf565b92915050565b7f4e487b71000000000000000000000000000000000000000000000000000000005f52603260045260245ffdfea2646970667358221220372c29ebc1c21daf94aefb635c6127ee934eed8374253967496155f9eee63a0364736f6c63430008160033",
					"opcodes": "PUSH1 0x80 PUSH1 0x40 MSTORE PUSH1 0x40 MLOAD DUP1 PUSH1 0x80 ADD PUSH1 0x40 MSTORE DUP1 PUSH1 0xA PUSH1 0xFF AND DUP2 MSTORE PUSH1 0x20 ADD PUSH1 0x14 PUSH1 0xFF AND DUP2 MSTORE PUSH1 0x20 ADD PUSH1 0x1E PUSH1 0xFF AND DUP2 MSTORE PUSH1 0x20 ADD PUSH1 0x28 PUSH1 0xFF AND DUP2 MSTORE POP PUSH0 SWAP1 PUSH1 0x4 PUSH2 0x44 SWAP3 SWAP2 SWAP1 PUSH2 0x56 JUMP JUMPDEST POP CALLVALUE DUP1 ISZERO PUSH2 0x50 JUMPI PUSH0 DUP1 REVERT JUMPDEST POP PUSH2 0xB6 JUMP JUMPDEST DUP3 PUSH1 0x4 DUP2 ADD SWAP3 DUP3 ISZERO PUSH2 0x8A JUMPI SWAP2 PUSH1 0x20 MUL DUP3 ADD JUMPDEST DUP3 DUP2 GT ISZERO PUSH2 0x89 JUMPI DUP3 MLOAD DUP3 SWAP1 PUSH1 0xFF AND SWAP1 SSTORE SWAP2 PUSH1 0x20 ADD SWAP2 SWAP1 PUSH1 0x1 ADD SWAP1 PUSH2 0x69 JUMP JUMPDEST JUMPDEST POP SWAP1 POP PUSH2 0x97 SWAP2 SWAP1 PUSH2 0x9B JUMP JUMPDEST POP SWAP1 JUMP JUMPDEST JUMPDEST DUP1 DUP3 GT ISZERO PUSH2 0xB2 JUMPI PUSH0 DUP2 PUSH0 SWAP1 SSTORE POP PUSH1 0x1 ADD PUSH2 0x9C JUMP JUMPDEST POP SWAP1 JUMP JUMPDEST PUSH2 0x291 DUP1 PUSH2 0xC3 PUSH0 CODECOPY PUSH0 RETURN INVALID PUSH1 0x80 PUSH1 0x40 MSTORE CALLVALUE DUP1 ISZERO PUSH2 0xF JUMPI PUSH0 DUP1 REVERT JUMPDEST POP PUSH1 0x4 CALLDATASIZE LT PUSH2 0x34 JUMPI PUSH0 CALLDATALOAD PUSH1 0xE0 SHR DUP1 PUSH4 0x5298F36D EQ PUSH2 0x38 JUMPI DUP1 PUSH4 0x993A04B7 EQ PUSH2 0x54 JUMPI JUMPDEST PUSH0 DUP1 REVERT JUMPDEST PUSH2 0x52 PUSH1 0x4 DUP1 CALLDATASIZE SUB DUP2 ADD SWAP1 PUSH2 0x4D SWAP2 SWAP1 PUSH2 0x132 JUMP JUMPDEST PUSH2 0x72 JUMP JUMPDEST STOP JUMPDEST PUSH2 0x5C PUSH2 0x8F JUMP JUMPDEST PUSH1 0x40 MLOAD PUSH2 0x69 SWAP2 SWAP1 PUSH2 0x215 JUMP JUMPDEST PUSH1 0x40 MLOAD DUP1 SWAP2 SUB SWAP1 RETURN JUMPDEST DUP1 PUSH0 DUP4 PUSH1 0x4 DUP2 LT PUSH2 0x86 JUMPI PUSH2 0x85 PUSH2 0x22E JUMP JUMPDEST JUMPDEST ADD DUP2 SWAP1 SSTORE POP POP POP JUMP JUMPDEST PUSH2 0x97 PUSH2 0xD9 JUMP JUMPDEST PUSH0 PUSH1 0x4 DUP1 PUSH1 0x20 MUL PUSH1 0x40 MLOAD SWAP1 DUP2 ADD PUSH1 0x40 MSTORE DUP1 SWAP3 SWAP2 SWAP1 DUP3 PUSH1 0x4 DUP1 ISZERO PUSH2 0xCF JUMPI PUSH1 0x20 MUL DUP3 ADD SWAP2 JUMPDEST DUP2 SLOAD DUP2 MSTORE PUSH1 0x20 ADD SWAP1 PUSH1 0x1 ADD SWAP1 DUP1 DUP4 GT PUSH2 0xBB JUMPI JUMPDEST POP POP POP POP POP SWAP1 POP SWAP1 JUMP JUMPDEST PUSH1 0x40 MLOAD DUP1 PUSH1 0x80 ADD PUSH1 0x40 MSTORE DUP1 PUSH1 0x4 SWAP1 PUSH1 0x20 DUP3 MUL DUP1 CALLDATASIZE DUP4 CALLDATACOPY DUP1 DUP3 ADD SWAP2 POP POP SWAP1 POP POP SWAP1 JUMP JUMPDEST PUSH0 DUP1 REVERT JUMPDEST PUSH0 DUP2 SWAP1 POP SWAP2 SWAP1 POP JUMP JUMPDEST PUSH2 0x111 DUP2 PUSH2 0xFF JUMP JUMPDEST DUP2 EQ PUSH2 0x11B JUMPI PUSH0 DUP1 REVERT JUMPDEST POP JUMP JUMPDEST PUSH0 DUP2 CALLDATALOAD SWAP1 POP PUSH2 0x12C DUP2 PUSH2 0x108 JUMP JUMPDEST SWAP3 SWAP2 POP POP JUMP JUMPDEST PUSH0 DUP1 PUSH1 0x40 DUP4 DUP6 SUB SLT ISZERO PUSH2 0x148 JUMPI PUSH2 0x147 PUSH2 0xFB JUMP JUMPDEST JUMPDEST PUSH0 PUSH2 0x155 DUP6 DUP3 DUP7 ADD PUSH2 0x11E JUMP JUMPDEST SWAP3 POP POP PUSH1 0x20 PUSH2 0x166 DUP6 DUP3 DUP7 ADD PUSH2 0x11E JUMP JUMPDEST SWAP2 POP POP SWAP3 POP SWAP3 SWAP1 POP JUMP JUMPDEST PUSH0 PUSH1 0x4 SWAP1 POP SWAP2 SWAP1 POP JUMP JUMPDEST PUSH0 DUP2 SWAP1 POP SWAP3 SWAP2 POP POP JUMP JUMPDEST PUSH0 DUP2 SWAP1 POP SWAP2 SWAP1 POP JUMP JUMPDEST PUSH2 0x196 DUP2 PUSH2 0xFF JUMP JUMPDEST DUP3 MSTORE POP POP JUMP JUMPDEST PUSH0 PUSH2 0x1A7 DUP4 DUP4 PUSH2 0x18D JUMP JUMPDEST PUSH1 0x20 DUP4 ADD SWAP1 POP SWAP3 SWAP2 POP POP JUMP JUMPDEST PUSH0 PUSH1 0x20 DUP3 ADD SWAP1 POP SWAP2 SWAP1 POP JUMP JUMPDEST PUSH2 0x1C8 DUP2 PUSH2 0x170 JUMP JUMPDEST PUSH2 0x1D2 DUP2 DUP5 PUSH2 0x17A JUMP JUMPDEST SWAP3 POP PUSH2 0x1DD DUP3 PUSH2 0x184 JUMP JUMPDEST DUP1 PUSH0 JUMPDEST DUP4 DUP2 LT ISZERO PUSH2 0x20D JUMPI DUP2 MLOAD PUSH2 0x1F4 DUP8 DUP3 PUSH2 0x19C JUMP JUMPDEST SWAP7 POP PUSH2 0x1FF DUP4 PUSH2 0x1B3 JUMP JUMPDEST SWAP3 POP POP PUSH1 0x1 DUP2 ADD SWAP1 POP PUSH2 0x1E0 JUMP JUMPDEST POP POP POP POP POP POP JUMP JUMPDEST PUSH0 PUSH1 0x80 DUP3 ADD SWAP1 POP PUSH2 0x228 PUSH0 DUP4 ADD DUP5 PUSH2 0x1BF JUMP JUMPDEST SWAP3 SWAP2 POP POP JUMP JUMPDEST PUSH32 0x4E487B7100000000000000000000000000000000000000000000000000000000 PUSH0 MSTORE PUSH1 0x32 PUSH1 0x4 MSTORE PUSH1 0x24 PUSH0 REVERT INVALID LOG2 PUSH5 0x6970667358 0x22 SLT KECCAK256 CALLDATACOPY 0x2C 0x29 0xEB 0xC1 0xC2 SAR 0xAF SWAP5 0xAE 0xFB PUSH4 0x5C6127EE SWAP4 0x4E 0xED DUP4 PUSH21 0x253967496155F9EEE63A0364736F6C634300081600 CALLER "
				},
				"gasEstimates": {
					"creation": {
						"codeDepositCost": "131400",
						"executionCost": "infinite",
						"totalCost": "infinite"
					},
					"external": {
						"getter()": "infinite",
						"setter(uint256,uint256)": "infinite"
					}
				},
				"methodIdentifiers": {
					"getter()": "993a04b7",
					"setter(uint256,uint256)": "5298f36d"
				}
			},
			"storageLayout": {
				"storage": [
					{
						"astId": 10,
						"contract": "contracts/16_fixed_arrays.sol:fixed_array",
						"label": "myArr",
						"offset": 0,
						"slot": "0",
						"type": "t_array(t_uint256)4_storage"
					}
				],
				"types": {
					"t_array(t_uint256)4_storage": {
						"base": "t_uint256",
						"encoding": "inplace",
						"label": "uint256[4]",
						"numberOfBytes": "128"
					},
					"t_uint256": {
						"encoding": "inplace",
						"label": "uint256",
						"numberOfBytes": "32"
					}
				}
			},
			"userdoc": {
				"kind": "user",
				"methods": {},
				"version": 1
			}
		}
	}
}