{
	"data": {
		"bytecode": {
			"linkReferences": {},
			"object": "608060405234801561000f575f80fd5b506109338061001d5f395ff3fe608060405234801561000f575f80fd5b506004361061003f575f3560e01c80636cc014de14610043578063993a04b714610063578063bbab9df214610081575b5f80fd5b61004b61009d565b60405161005a93929190610328565b60405180910390f35b61006b610145565b6040516100789190610417565b60405180910390f35b61009b600480360381019061009691906105c8565b610211565b005b5f805f0180546100ac90610661565b80601f01602080910402602001604051908101604052809291908181526020018280546100d890610661565b80156101235780601f106100fa57610100808354040283529160200191610123565b820191905f5260205f20905b81548152906001019060200180831161010657829003601f168201915b505050505090806001015490806002015f9054906101000a900460ff16905083565b61014d61024b565b5f6040518060600160405290815f8201805461016890610661565b80601f016020809104026020016040519081016040528092919081815260200182805461019490610661565b80156101df5780601f106101b6576101008083540402835291602001916101df565b820191905f5260205f20905b8154815290600101906020018083116101c257829003601f168201915b5050505050815260200160018201548152602001600282015f9054906101000a900460ff161515151581525050905090565b825f80019081610221919061082e565b50815f60010181905550805f6002015f6101000a81548160ff021916908315150217905550505050565b6040518060600160405280606081526020015f81526020015f151581525090565b5f81519050919050565b5f82825260208201905092915050565b5f5b838110156102a3578082015181840152602081019050610288565b5f8484015250505050565b5f601f19601f8301169050919050565b5f6102c88261026c565b6102d28185610276565b93506102e2818560208601610286565b6102eb816102ae565b840191505092915050565b5f819050919050565b610308816102f6565b82525050565b5f8115159050919050565b6103228161030e565b82525050565b5f6060820190508181035f83015261034081866102be565b905061034f60208301856102ff565b61035c6040830184610319565b949350505050565b5f82825260208201905092915050565b5f61037e8261026c565b6103888185610364565b9350610398818560208601610286565b6103a1816102ae565b840191505092915050565b6103b5816102f6565b82525050565b6103c48161030e565b82525050565b5f606083015f8301518482035f8601526103e48282610374565b91505060208301516103f960208601826103ac565b50604083015161040c60408601826103bb565b508091505092915050565b5f6020820190508181035f83015261042f81846103ca565b905092915050565b5f604051905090565b5f80fd5b5f80fd5b5f80fd5b5f80fd5b7f4e487b71000000000000000000000000000000000000000000000000000000005f52604160045260245ffd5b610486826102ae565b810181811067ffffffffffffffff821117156104a5576104a4610450565b5b80604052505050565b5f6104b7610437565b90506104c3828261047d565b919050565b5f67ffffffffffffffff8211156104e2576104e1610450565b5b6104eb826102ae565b9050602081019050919050565b828183375f83830152505050565b5f610518610513846104c8565b6104ae565b9050828152602081018484840111156105345761053361044c565b5b61053f8482856104f8565b509392505050565b5f82601f83011261055b5761055a610448565b5b813561056b848260208601610506565b91505092915050565b61057d816102f6565b8114610587575f80fd5b50565b5f8135905061059881610574565b92915050565b6105a78161030e565b81146105b1575f80fd5b50565b5f813590506105c28161059e565b92915050565b5f805f606084860312156105df576105de610440565b5b5f84013567ffffffffffffffff8111156105fc576105fb610444565b5b61060886828701610547565b93505060206106198682870161058a565b925050604061062a868287016105b4565b9150509250925092565b7f4e487b71000000000000000000000000000000000000000000000000000000005f52602260045260245ffd5b5f600282049050600182168061067857607f821691505b60208210810361068b5761068a610634565b5b50919050565b5f819050815f5260205f209050919050565b5f6020601f8301049050919050565b5f82821b905092915050565b5f600883026106ed7fffffffffffffffffffffffffffffffffffffffffffffffffffffffffffffffff826106b2565b6106f786836106b2565b95508019841693508086168417925050509392505050565b5f819050919050565b5f61073261072d610728846102f6565b61070f565b6102f6565b9050919050565b5f819050919050565b61074b83610718565b61075f61075782610739565b8484546106be565b825550505050565b5f90565b610773610767565b61077e818484610742565b505050565b5b818110156107a1576107965f8261076b565b600181019050610784565b5050565b601f8211156107e6576107b781610691565b6107c0846106a3565b810160208510156107cf578190505b6107e36107db856106a3565b830182610783565b50505b505050565b5f82821c905092915050565b5f6108065f19846008026107eb565b1980831691505092915050565b5f61081e83836107f7565b9150826002028217905092915050565b6108378261026c565b67ffffffffffffffff8111156108505761084f610450565b5b61085a8254610661565b6108658282856107a5565b5f60209050601f831160018114610896575f8415610884578287015190505b61088e8582610813565b8655506108f5565b601f1984166108a486610691565b5f5b828110156108cb578489015182556001820191506020850194506020810190506108a6565b868310156108e857848901516108e4601f8916826107f7565b8355505b6001600288020188555050505b50505050505056fea264697066735822122099f874d560ab9e00011e52780457c2798f8b5281f42a05f3a2105e8e8931ec8b64736f6c63430008160033",
			"opcodes": "PUSH1 0x80 PUSH1 0x40 MSTORE CALLVALUE DUP1 ISZERO PUSH2 0xF JUMPI PUSH0 DUP1 REVERT JUMPDEST POP PUSH2 0x933 DUP1 PUSH2 0x1D PUSH0 CODECOPY PUSH0 RETURN INVALID PUSH1 0x80 PUSH1 0x40 MSTORE CALLVALUE DUP1 ISZERO PUSH2 0xF JUMPI PUSH0 DUP1 REVERT JUMPDEST POP PUSH1 0x4 CALLDATASIZE LT PUSH2 0x3F JUMPI PUSH0 CALLDATALOAD PUSH1 0xE0 SHR DUP1 PUSH4 0x6CC014DE EQ PUSH2 0x43 JUMPI DUP1 PUSH4 0x993A04B7 EQ PUSH2 0x63 JUMPI DUP1 PUSH4 0xBBAB9DF2 EQ PUSH2 0x81 JUMPI JUMPDEST PUSH0 DUP1 REVERT JUMPDEST PUSH2 0x4B PUSH2 0x9D JUMP JUMPDEST PUSH1 0x40 MLOAD PUSH2 0x5A SWAP4 SWAP3 SWAP2 SWAP1 PUSH2 0x328 JUMP JUMPDEST PUSH1 0x40 MLOAD DUP1 SWAP2 SUB SWAP1 RETURN JUMPDEST PUSH2 0x6B PUSH2 0x145 JUMP JUMPDEST PUSH1 0x40 MLOAD PUSH2 0x78 SWAP2 SWAP1 PUSH2 0x417 JUMP JUMPDEST PUSH1 0x40 MLOAD DUP1 SWAP2 SUB SWAP1 RETURN JUMPDEST PUSH2 0x9B PUSH1 0x4 DUP1 CALLDATASIZE SUB DUP2 ADD SWAP1 PUSH2 0x96 SWAP2 SWAP1 PUSH2 0x5C8 JUMP JUMPDEST PUSH2 0x211 JUMP JUMPDEST STOP JUMPDEST PUSH0 DUP1 PUSH0 ADD DUP1 SLOAD PUSH2 0xAC SWAP1 PUSH2 0x661 JUMP JUMPDEST DUP1 PUSH1 0x1F ADD PUSH1 0x20 DUP1 SWAP2 DIV MUL PUSH1 0x20 ADD PUSH1 0x40 MLOAD SWAP1 DUP2 ADD PUSH1 0x40 MSTORE DUP1 SWAP3 SWAP2 SWAP1 DUP2 DUP2 MSTORE PUSH1 0x20 ADD DUP3 DUP1 SLOAD PUSH2 0xD8 SWAP1 PUSH2 0x661 JUMP JUMPDEST DUP1 ISZERO PUSH2 0x123 JUMPI DUP1 PUSH1 0x1F LT PUSH2 0xFA JUMPI PUSH2 0x100 DUP1 DUP4 SLOAD DIV MUL DUP4 MSTORE SWAP2 PUSH1 0x20 ADD SWAP2 PUSH2 0x123 JUMP JUMPDEST DUP3 ADD SWAP2 SWAP1 PUSH0 MSTORE PUSH1 0x20 PUSH0 KECCAK256 SWAP1 JUMPDEST DUP2 SLOAD DUP2 MSTORE SWAP1 PUSH1 0x1 ADD SWAP1 PUSH1 0x20 ADD DUP1 DUP4 GT PUSH2 0x106 JUMPI DUP3 SWAP1 SUB PUSH1 0x1F AND DUP3 ADD SWAP2 JUMPDEST POP POP POP POP POP SWAP1 DUP1 PUSH1 0x1 ADD SLOAD SWAP1 DUP1 PUSH1 0x2 ADD PUSH0 SWAP1 SLOAD SWAP1 PUSH2 0x100 EXP SWAP1 DIV PUSH1 0xFF AND SWAP1 POP DUP4 JUMP JUMPDEST PUSH2 0x14D PUSH2 0x24B JUMP JUMPDEST PUSH0 PUSH1 0x40 MLOAD DUP1 PUSH1 0x60 ADD PUSH1 0x40 MSTORE SWAP1 DUP2 PUSH0 DUP3 ADD DUP1 SLOAD PUSH2 0x168 SWAP1 PUSH2 0x661 JUMP JUMPDEST DUP1 PUSH1 0x1F ADD PUSH1 0x20 DUP1 SWAP2 DIV MUL PUSH1 0x20 ADD PUSH1 0x40 MLOAD SWAP1 DUP2 ADD PUSH1 0x40 MSTORE DUP1 SWAP3 SWAP2 SWAP1 DUP2 DUP2 MSTORE PUSH1 0x20 ADD DUP3 DUP1 SLOAD PUSH2 0x194 SWAP1 PUSH2 0x661 JUMP JUMPDEST DUP1 ISZERO PUSH2 0x1DF JUMPI DUP1 PUSH1 0x1F LT PUSH2 0x1B6 JUMPI PUSH2 0x100 DUP1 DUP4 SLOAD DIV MUL DUP4 MSTORE SWAP2 PUSH1 0x20 ADD SWAP2 PUSH2 0x1DF JUMP JUMPDEST DUP3 ADD SWAP2 SWAP1 PUSH0 MSTORE PUSH1 0x20 PUSH0 KECCAK256 SWAP1 JUMPDEST DUP2 SLOAD DUP2 MSTORE SWAP1 PUSH1 0x1 ADD SWAP1 PUSH1 0x20 ADD DUP1 DUP4 GT PUSH2 0x1C2 JUMPI DUP3 SWAP1 SUB PUSH1 0x1F AND DUP3 ADD SWAP2 JUMPDEST POP POP POP POP POP DUP2 MSTORE PUSH1 0x20 ADD PUSH1 0x1 DUP3 ADD SLOAD DUP2 MSTORE PUSH1 0x20 ADD PUSH1 0x2 DUP3 ADD PUSH0 SWAP1 SLOAD SWAP1 PUSH2 0x100 EXP SWAP1 DIV PUSH1 0xFF AND ISZERO ISZERO ISZERO ISZERO DUP2 MSTORE POP POP SWAP1 POP SWAP1 JUMP JUMPDEST DUP3 PUSH0 DUP1 ADD SWAP1 DUP2 PUSH2 0x221 SWAP2 SWAP1 PUSH2 0x82E JUMP JUMPDEST POP DUP2 PUSH0 PUSH1 0x1 ADD DUP2 SWAP1 SSTORE POP DUP1 PUSH0 PUSH1 0x2 ADD PUSH0 PUSH2 0x100 EXP DUP2 SLOAD DUP2 PUSH1 0xFF MUL NOT AND SWAP1 DUP4 ISZERO ISZERO MUL OR SWAP1 SSTORE POP POP POP POP JUMP JUMPDEST PUSH1 0x40 MLOAD DUP1 PUSH1 0x60 ADD PUSH1 0x40 MSTORE DUP1 PUSH1 0x60 DUP2 MSTORE PUSH1 0x20 ADD PUSH0 DUP2 MSTORE PUSH1 0x20 ADD PUSH0 ISZERO ISZERO DUP2 MSTORE POP SWAP1 JUMP JUMPDEST PUSH0 DUP2 MLOAD SWAP1 POP SWAP2 SWAP1 POP JUMP JUMPDEST PUSH0 DUP3 DUP3 MSTORE PUSH1 0x20 DUP3 ADD SWAP1 POP SWAP3 SWAP2 POP POP JUMP JUMPDEST PUSH0 JUMPDEST DUP4 DUP2 LT ISZERO PUSH2 0x2A3 JUMPI DUP1 DUP3 ADD MLOAD DUP2 DUP5 ADD MSTORE PUSH1 0x20 DUP2 ADD SWAP1 POP PUSH2 0x288 JUMP JUMPDEST PUSH0 DUP5 DUP5 ADD MSTORE POP POP POP POP JUMP JUMPDEST PUSH0 PUSH1 0x1F NOT PUSH1 0x1F DUP4 ADD AND SWAP1 POP SWAP2 SWAP1 POP JUMP JUMPDEST PUSH0 PUSH2 0x2C8 DUP3 PUSH2 0x26C JUMP JUMPDEST PUSH2 0x2D2 DUP2 DUP6 PUSH2 0x276 JUMP JUMPDEST SWAP4 POP PUSH2 0x2E2 DUP2 DUP6 PUSH1 0x20 DUP7 ADD PUSH2 0x286 JUMP JUMPDEST PUSH2 0x2EB DUP2 PUSH2 0x2AE JUMP JUMPDEST DUP5 ADD SWAP2 POP POP SWAP3 SWAP2 POP POP JUMP JUMPDEST PUSH0 DUP2 SWAP1 POP SWAP2 SWAP1 POP JUMP JUMPDEST PUSH2 0x308 DUP2 PUSH2 0x2F6 JUMP JUMPDEST DUP3 MSTORE POP POP JUMP JUMPDEST PUSH0 DUP2 ISZERO ISZERO SWAP1 POP SWAP2 SWAP1 POP JUMP JUMPDEST PUSH2 0x322 DUP2 PUSH2 0x30E JUMP JUMPDEST DUP3 MSTORE POP POP JUMP JUMPDEST PUSH0 PUSH1 0x60 DUP3 ADD SWAP1 POP DUP2 DUP2 SUB PUSH0 DUP4 ADD MSTORE PUSH2 0x340 DUP2 DUP7 PUSH2 0x2BE JUMP JUMPDEST SWAP1 POP PUSH2 0x34F PUSH1 0x20 DUP4 ADD DUP6 PUSH2 0x2FF JUMP JUMPDEST PUSH2 0x35C PUSH1 0x40 DUP4 ADD DUP5 PUSH2 0x319 JUMP JUMPDEST SWAP5 SWAP4 POP POP POP POP JUMP JUMPDEST PUSH0 DUP3 DUP3 MSTORE PUSH1 0x20 DUP3 ADD SWAP1 POP SWAP3 SWAP2 POP POP JUMP JUMPDEST PUSH0 PUSH2 0x37E DUP3 PUSH2 0x26C JUMP JUMPDEST PUSH2 0x388 DUP2 DUP6 PUSH2 0x364 JUMP JUMPDEST SWAP4 POP PUSH2 0x398 DUP2 DUP6 PUSH1 0x20 DUP7 ADD PUSH2 0x286 JUMP JUMPDEST PUSH2 0x3A1 DUP2 PUSH2 0x2AE JUMP JUMPDEST DUP5 ADD SWAP2 POP POP SWAP3 SWAP2 POP POP JUMP JUMPDEST PUSH2 0x3B5 DUP2 PUSH2 0x2F6 JUMP JUMPDEST DUP3 MSTORE POP POP JUMP JUMPDEST PUSH2 0x3C4 DUP2 PUSH2 0x30E JUMP JUMPDEST DUP3 MSTORE POP POP JUMP JUMPDEST PUSH0 PUSH1 0x60 DUP4 ADD PUSH0 DUP4 ADD MLOAD DUP5 DUP3 SUB PUSH0 DUP7 ADD MSTORE PUSH2 0x3E4 DUP3 DUP3 PUSH2 0x374 JUMP JUMPDEST SWAP2 POP POP PUSH1 0x20 DUP4 ADD MLOAD PUSH2 0x3F9 PUSH1 0x20 DUP7 ADD DUP3 PUSH2 0x3AC JUMP JUMPDEST POP PUSH1 0x40 DUP4 ADD MLOAD PUSH2 0x40C PUSH1 0x40 DUP7 ADD DUP3 PUSH2 0x3BB JUMP JUMPDEST POP DUP1 SWAP2 POP POP SWAP3 SWAP2 POP POP JUMP JUMPDEST PUSH0 PUSH1 0x20 DUP3 ADD SWAP1 POP DUP2 DUP2 SUB PUSH0 DUP4 ADD MSTORE PUSH2 0x42F DUP2 DUP5 PUSH2 0x3CA JUMP JUMPDEST SWAP1 POP SWAP3 SWAP2 POP POP JUMP JUMPDEST PUSH0 PUSH1 0x40 MLOAD SWAP1 POP SWAP1 JUMP JUMPDEST PUSH0 DUP1 REVERT JUMPDEST PUSH0 DUP1 REVERT JUMPDEST PUSH0 DUP1 REVERT JUMPDEST PUSH0 DUP1 REVERT JUMPDEST PUSH32 0x4E487B7100000000000000000000000000000000000000000000000000000000 PUSH0 MSTORE PUSH1 0x41 PUSH1 0x4 MSTORE PUSH1 0x24 PUSH0 REVERT JUMPDEST PUSH2 0x486 DUP3 PUSH2 0x2AE JUMP JUMPDEST DUP2 ADD DUP2 DUP2 LT PUSH8 0xFFFFFFFFFFFFFFFF DUP3 GT OR ISZERO PUSH2 0x4A5 JUMPI PUSH2 0x4A4 PUSH2 0x450 JUMP JUMPDEST JUMPDEST DUP1 PUSH1 0x40 MSTORE POP POP POP JUMP JUMPDEST PUSH0 PUSH2 0x4B7 PUSH2 0x437 JUMP JUMPDEST SWAP1 POP PUSH2 0x4C3 DUP3 DUP3 PUSH2 0x47D JUMP JUMPDEST SWAP2 SWAP1 POP JUMP JUMPDEST PUSH0 PUSH8 0xFFFFFFFFFFFFFFFF DUP3 GT ISZERO PUSH2 0x4E2 JUMPI PUSH2 0x4E1 PUSH2 0x450 JUMP JUMPDEST JUMPDEST PUSH2 0x4EB DUP3 PUSH2 0x2AE JUMP JUMPDEST SWAP1 POP PUSH1 0x20 DUP2 ADD SWAP1 POP SWAP2 SWAP1 POP JUMP JUMPDEST DUP3 DUP2 DUP4 CALLDATACOPY PUSH0 DUP4 DUP4 ADD MSTORE POP POP POP JUMP JUMPDEST PUSH0 PUSH2 0x518 PUSH2 0x513 DUP5 PUSH2 0x4C8 JUMP JUMPDEST PUSH2 0x4AE JUMP JUMPDEST SWAP1 POP DUP3 DUP2 MSTORE PUSH1 0x20 DUP2 ADD DUP5 DUP5 DUP5 ADD GT ISZERO PUSH2 0x534 JUMPI PUSH2 0x533 PUSH2 0x44C JUMP JUMPDEST JUMPDEST PUSH2 0x53F DUP5 DUP3 DUP6 PUSH2 0x4F8 JUMP JUMPDEST POP SWAP4 SWAP3 POP POP POP JUMP JUMPDEST PUSH0 DUP3 PUSH1 0x1F DUP4 ADD SLT PUSH2 0x55B JUMPI PUSH2 0x55A PUSH2 0x448 JUMP JUMPDEST JUMPDEST DUP2 CALLDATALOAD PUSH2 0x56B DUP5 DUP3 PUSH1 0x20 DUP7 ADD PUSH2 0x506 JUMP JUMPDEST SWAP2 POP POP SWAP3 SWAP2 POP POP JUMP JUMPDEST PUSH2 0x57D DUP2 PUSH2 0x2F6 JUMP JUMPDEST DUP2 EQ PUSH2 0x587 JUMPI PUSH0 DUP1 REVERT JUMPDEST POP JUMP JUMPDEST PUSH0 DUP2 CALLDATALOAD SWAP1 POP PUSH2 0x598 DUP2 PUSH2 0x574 JUMP JUMPDEST SWAP3 SWAP2 POP POP JUMP JUMPDEST PUSH2 0x5A7 DUP2 PUSH2 0x30E JUMP JUMPDEST DUP2 EQ PUSH2 0x5B1 JUMPI PUSH0 DUP1 REVERT JUMPDEST POP JUMP JUMPDEST PUSH0 DUP2 CALLDATALOAD SWAP1 POP PUSH2 0x5C2 DUP2 PUSH2 0x59E JUMP JUMPDEST SWAP3 SWAP2 POP POP JUMP JUMPDEST PUSH0 DUP1 PUSH0 PUSH1 0x60 DUP5 DUP7 SUB SLT ISZERO PUSH2 0x5DF JUMPI PUSH2 0x5DE PUSH2 0x440 JUMP JUMPDEST JUMPDEST PUSH0 DUP5 ADD CALLDATALOAD PUSH8 0xFFFFFFFFFFFFFFFF DUP2 GT ISZERO PUSH2 0x5FC JUMPI PUSH2 0x5FB PUSH2 0x444 JUMP JUMPDEST JUMPDEST PUSH2 0x608 DUP7 DUP3 DUP8 ADD PUSH2 0x547 JUMP JUMPDEST SWAP4 POP POP PUSH1 0x20 PUSH2 0x619 DUP7 DUP3 DUP8 ADD PUSH2 0x58A JUMP JUMPDEST SWAP3 POP POP PUSH1 0x40 PUSH2 0x62A DUP7 DUP3 DUP8 ADD PUSH2 0x5B4 JUMP JUMPDEST SWAP2 POP POP SWAP3 POP SWAP3 POP SWAP3 JUMP JUMPDEST PUSH32 0x4E487B7100000000000000000000000000000000000000000000000000000000 PUSH0 MSTORE PUSH1 0x22 PUSH1 0x4 MSTORE PUSH1 0x24 PUSH0 REVERT JUMPDEST PUSH0 PUSH1 0x2 DUP3 DIV SWAP1 POP PUSH1 0x1 DUP3 AND DUP1 PUSH2 0x678 JUMPI PUSH1 0x7F DUP3 AND SWAP2 POP JUMPDEST PUSH1 0x20 DUP3 LT DUP2 SUB PUSH2 0x68B JUMPI PUSH2 0x68A PUSH2 0x634 JUMP JUMPDEST JUMPDEST POP SWAP2 SWAP1 POP JUMP JUMPDEST PUSH0 DUP2 SWAP1 POP DUP2 PUSH0 MSTORE PUSH1 0x20 PUSH0 KECCAK256 SWAP1 POP SWAP2 SWAP1 POP JUMP JUMPDEST PUSH0 PUSH1 0x20 PUSH1 0x1F DUP4 ADD DIV SWAP1 POP SWAP2 SWAP1 POP JUMP JUMPDEST PUSH0 DUP3 DUP3 SHL SWAP1 POP SWAP3 SWAP2 POP POP JUMP JUMPDEST PUSH0 PUSH1 0x8 DUP4 MUL PUSH2 0x6ED PUSH32 0xFFFFFFFFFFFFFFFFFFFFFFFFFFFFFFFFFFFFFFFFFFFFFFFFFFFFFFFFFFFFFFFF DUP3 PUSH2 0x6B2 JUMP JUMPDEST PUSH2 0x6F7 DUP7 DUP4 PUSH2 0x6B2 JUMP JUMPDEST SWAP6 POP DUP1 NOT DUP5 AND SWAP4 POP DUP1 DUP7 AND DUP5 OR SWAP3 POP POP POP SWAP4 SWAP3 POP POP POP JUMP JUMPDEST PUSH0 DUP2 SWAP1 POP SWAP2 SWAP1 POP JUMP JUMPDEST PUSH0 PUSH2 0x732 PUSH2 0x72D PUSH2 0x728 DUP5 PUSH2 0x2F6 JUMP JUMPDEST PUSH2 0x70F JUMP JUMPDEST PUSH2 0x2F6 JUMP JUMPDEST SWAP1 POP SWAP2 SWAP1 POP JUMP JUMPDEST PUSH0 DUP2 SWAP1 POP SWAP2 SWAP1 POP JUMP JUMPDEST PUSH2 0x74B DUP4 PUSH2 0x718 JUMP JUMPDEST PUSH2 0x75F PUSH2 0x757 DUP3 PUSH2 0x739 JUMP JUMPDEST DUP5 DUP5 SLOAD PUSH2 0x6BE JUMP JUMPDEST DUP3 SSTORE POP POP POP POP JUMP JUMPDEST PUSH0 SWAP1 JUMP JUMPDEST PUSH2 0x773 PUSH2 0x767 JUMP JUMPDEST PUSH2 0x77E DUP2 DUP5 DUP5 PUSH2 0x742 JUMP JUMPDEST POP POP POP JUMP JUMPDEST JUMPDEST DUP2 DUP2 LT ISZERO PUSH2 0x7A1 JUMPI PUSH2 0x796 PUSH0 DUP3 PUSH2 0x76B JUMP JUMPDEST PUSH1 0x1 DUP2 ADD SWAP1 POP PUSH2 0x784 JUMP JUMPDEST POP POP JUMP JUMPDEST PUSH1 0x1F DUP3 GT ISZERO PUSH2 0x7E6 JUMPI PUSH2 0x7B7 DUP2 PUSH2 0x691 JUMP JUMPDEST PUSH2 0x7C0 DUP5 PUSH2 0x6A3 JUMP JUMPDEST DUP2 ADD PUSH1 0x20 DUP6 LT ISZERO PUSH2 0x7CF JUMPI DUP2 SWAP1 POP JUMPDEST PUSH2 0x7E3 PUSH2 0x7DB DUP6 PUSH2 0x6A3 JUMP JUMPDEST DUP4 ADD DUP3 PUSH2 0x783 JUMP JUMPDEST POP POP JUMPDEST POP POP POP JUMP JUMPDEST PUSH0 DUP3 DUP3 SHR SWAP1 POP SWAP3 SWAP2 POP POP JUMP JUMPDEST PUSH0 PUSH2 0x806 PUSH0 NOT DUP5 PUSH1 0x8 MUL PUSH2 0x7EB JUMP JUMPDEST NOT DUP1 DUP4 AND SWAP2 POP POP SWAP3 SWAP2 POP POP JUMP JUMPDEST PUSH0 PUSH2 0x81E DUP4 DUP4 PUSH2 0x7F7 JUMP JUMPDEST SWAP2 POP DUP3 PUSH1 0x2 MUL DUP3 OR SWAP1 POP SWAP3 SWAP2 POP POP JUMP JUMPDEST PUSH2 0x837 DUP3 PUSH2 0x26C JUMP JUMPDEST PUSH8 0xFFFFFFFFFFFFFFFF DUP2 GT ISZERO PUSH2 0x850 JUMPI PUSH2 0x84F PUSH2 0x450 JUMP JUMPDEST JUMPDEST PUSH2 0x85A DUP3 SLOAD PUSH2 0x661 JUMP JUMPDEST PUSH2 0x865 DUP3 DUP3 DUP6 PUSH2 0x7A5 JUMP JUMPDEST PUSH0 PUSH1 0x20 SWAP1 POP PUSH1 0x1F DUP4 GT PUSH1 0x1 DUP2 EQ PUSH2 0x896 JUMPI PUSH0 DUP5 ISZERO PUSH2 0x884 JUMPI DUP3 DUP8 ADD MLOAD SWAP1 POP JUMPDEST PUSH2 0x88E DUP6 DUP3 PUSH2 0x813 JUMP JUMPDEST DUP7 SSTORE POP PUSH2 0x8F5 JUMP JUMPDEST PUSH1 0x1F NOT DUP5 AND PUSH2 0x8A4 DUP7 PUSH2 0x691 JUMP JUMPDEST PUSH0 JUMPDEST DUP3 DUP2 LT ISZERO PUSH2 0x8CB JUMPI DUP5 DUP10 ADD MLOAD DUP3 SSTORE PUSH1 0x1 DUP3 ADD SWAP2 POP PUSH1 0x20 DUP6 ADD SWAP5 POP PUSH1 0x20 DUP2 ADD SWAP1 POP PUSH2 0x8A6 JUMP JUMPDEST DUP7 DUP4 LT ISZERO PUSH2 0x8E8 JUMPI DUP5 DUP10 ADD MLOAD PUSH2 0x8E4 PUSH1 0x1F DUP10 AND DUP3 PUSH2 0x7F7 JUMP JUMPDEST DUP4 SSTORE POP JUMPDEST PUSH1 0x1 PUSH1 0x2 DUP9 MUL ADD DUP9 SSTORE POP POP POP JUMPDEST POP POP POP POP POP POP JUMP INVALID LOG2 PUSH5 0x6970667358 0x22 SLT KECCAK256 SWAP10 0xF8 PUSH21 0xD560AB9E00011E52780457C2798F8B5281F42A05F3 LOG2 LT 0x5E DUP15 DUP10 BALANCE 0xEC DUP12 PUSH5 0x736F6C6343 STOP ADDMOD AND STOP CALLER "
		},
		"gasEstimates": {
			"creation": {
				"codeDepositCost": "471000",
				"executionCost": "503",
				"totalCost": "471503"
			},
			"external": {
				"getter()": "infinite",
				"s1()": "infinite",
				"setter(string,uint256,bool)": "infinite"
			}
		},
		"methodIdentifiers": {
			"getter()": "993a04b7",
			"s1()": "6cc014de",
			"setter(string,uint256,bool)": "bbab9df2"
		}
	},
	"abi": [
		{
			"inputs": [],
			"name": "getter",
			"outputs": [
				{
					"components": [
						{
							"internalType": "string",
							"name": "Name",
							"type": "string"
						},
						{
							"internalType": "uint256",
							"name": "mobileNo",
							"type": "uint256"
						},
						{
							"internalType": "bool",
							"name": "result",
							"type": "bool"
						}
					],
					"internalType": "struct Structures.Student",
					"name": "",
					"type": "tuple"
				}
			],
			"stateMutability": "view",
			"type": "function"
		},
		{
			"inputs": [],
			"name": "s1",
			"outputs": [
				{
					"internalType": "string",
					"name": "Name",
					"type": "string"
				},
				{
					"internalType": "uint256",
					"name": "mobileNo",
					"type": "uint256"
				},
				{
					"internalType": "bool",
					"name": "result",
					"type": "bool"
				}
			],
			"stateMutability": "view",
			"type": "function"
		},
		{
			"inputs": [
				{
					"internalType": "string",
					"name": "_Name",
					"type": "string"
				},
				{
					"internalType": "uint256",
					"name": "_mobileNo",
					"type": "uint256"
				},
				{
					"internalType": "bool",
					"name": "_result",
					"type": "bool"
				}
			],
			"name": "setter",
			"outputs": [],
			"stateMutability": "nonpayable",
			"type": "function"
		}
	]
}